{
  "_format": "hh-sol-artifact-1",
  "contractName": "JustTokenUpgradeable",
  "sourceName": "contracts/JustTokenUpgradeable.sol",
  "abi": [
    {
      "inputs": [],
      "name": "ANP",
      "type": "error"
    },
    {
      "inputs": [],
      "name": "DC",
      "type": "error"
    },
    {
      "inputs": [],
      "name": "DDL",
      "type": "error"
    },
    {
      "inputs": [],
      "name": "EMS",
      "type": "error"
    },
    {
      "inputs": [],
      "name": "ETF",
      "type": "error"
    },
    {
      "inputs": [],
      "name": "GBR",
      "type": "error"
    },
    {
      "inputs": [],
      "name": "GZA",
      "type": "error"
    },
    {
      "inputs": [],
      "name": "IT",
      "type": "error"
    },
    {
      "inputs": [],
      "name": "LCS",
      "type": "error"
    },
    {
      "inputs": [],
      "name": "NA",
      "type": "error"
    },
    {
      "inputs": [],
      "name": "NAT",
      "type": "error"
    },
    {
      "inputs": [],
      "name": "NDZ",
      "type": "error"
    },
    {
      "inputs": [],
      "name": "NE",
      "type": "error"
    },
    {
      "inputs": [],
      "name": "NGA",
      "type": "error"
    },
    {
      "inputs": [],
      "name": "NO",
      "type": "error"
    },
    {
      "inputs": [],
      "name": "NT",
      "type": "error"
    },
    {
      "inputs": [],
      "name": "NU",
      "type": "error"
    },
    {
      "inputs": [],
      "name": "RLA",
      "type": "error"
    },
    {
      "inputs": [],
      "name": "RZA",
      "type": "error"
    },
    {
      "inputs": [],
      "name": "TEU",
      "type": "error"
    },
    {
      "inputs": [],
      "name": "TZA",
      "type": "error"
    },
    {
      "inputs": [],
      "name": "ZA",
      "type": "error"
    },
    {
      "inputs": [],
      "name": "ZAd",
      "type": "error"
    },
    {
      "anonymous": false,
      "inputs": [
        {
          "indexed": false,
          "internalType": "address",
          "name": "previousAdmin",
          "type": "address"
        },
        {
          "indexed": false,
          "internalType": "address",
          "name": "newAdmin",
          "type": "address"
        }
      ],
      "name": "AdminChanged",
      "type": "event"
    },
    {
      "anonymous": false,
      "inputs": [
        {
          "indexed": true,
          "internalType": "address",
          "name": "owner",
          "type": "address"
        },
        {
          "indexed": true,
          "internalType": "address",
          "name": "spender",
          "type": "address"
        },
        {
          "indexed": false,
          "internalType": "uint256",
          "name": "value",
          "type": "uint256"
        }
      ],
      "name": "Approval",
      "type": "event"
    },
    {
      "anonymous": false,
      "inputs": [
        {
          "indexed": true,
          "internalType": "address",
          "name": "beacon",
          "type": "address"
        }
      ],
      "name": "BeaconUpgraded",
      "type": "event"
    },
    {
      "anonymous": false,
      "inputs": [
        {
          "indexed": true,
          "internalType": "address",
          "name": "delegator",
          "type": "address"
        },
        {
          "indexed": true,
          "internalType": "address",
          "name": "fromDelegate",
          "type": "address"
        },
        {
          "indexed": true,
          "internalType": "address",
          "name": "toDelegate",
          "type": "address"
        }
      ],
      "name": "DelegateChanged",
      "type": "event"
    },
    {
      "anonymous": false,
      "inputs": [
        {
          "indexed": true,
          "internalType": "address",
          "name": "user",
          "type": "address"
        },
        {
          "indexed": false,
          "internalType": "uint256",
          "name": "amount",
          "type": "uint256"
        },
        {
          "indexed": false,
          "internalType": "uint256",
          "name": "newTotalSupply",
          "type": "uint256"
        }
      ],
      "name": "Deposit",
      "type": "event"
    },
    {
      "anonymous": false,
      "inputs": [
        {
          "indexed": true,
          "internalType": "address",
          "name": "sender",
          "type": "address"
        },
        {
          "indexed": false,
          "internalType": "uint256",
          "name": "amount",
          "type": "uint256"
        }
      ],
      "name": "DirectDeposit",
      "type": "event"
    },
    {
      "anonymous": false,
      "inputs": [
        {
          "indexed": true,
          "internalType": "address",
          "name": "token",
          "type": "address"
        },
        {
          "indexed": true,
          "internalType": "address",
          "name": "recipient",
          "type": "address"
        },
        {
          "indexed": false,
          "internalType": "uint256",
          "name": "amount",
          "type": "uint256"
        }
      ],
      "name": "ERC20Rescued",
      "type": "event"
    },
    {
      "anonymous": false,
      "inputs": [
        {
          "indexed": true,
          "internalType": "address",
          "name": "recipient",
          "type": "address"
        },
        {
          "indexed": false,
          "internalType": "uint256",
          "name": "amount",
          "type": "uint256"
        }
      ],
      "name": "ETHRescued",
      "type": "event"
    },
    {
      "anonymous": false,
      "inputs": [
        {
          "indexed": true,
          "internalType": "address",
          "name": "account",
          "type": "address"
        },
        {
          "indexed": false,
          "internalType": "bool",
          "name": "isGranted",
          "type": "bool"
        }
      ],
      "name": "GovernanceRoleChanged",
      "type": "event"
    },
    {
      "anonymous": false,
      "inputs": [
        {
          "indexed": true,
          "internalType": "address",
          "name": "oldGovernance",
          "type": "address"
        },
        {
          "indexed": true,
          "internalType": "address",
          "name": "newGovernance",
          "type": "address"
        }
      ],
      "name": "GovernanceRoleTransferred",
      "type": "event"
    },
    {
      "anonymous": false,
      "inputs": [
        {
          "indexed": false,
          "internalType": "address",
          "name": "guardian",
          "type": "address"
        }
      ],
      "name": "GuardianAdded",
      "type": "event"
    },
    {
      "anonymous": false,
      "inputs": [
        {
          "indexed": false,
          "internalType": "address",
          "name": "guardian",
          "type": "address"
        }
      ],
      "name": "GuardianRemoved",
      "type": "event"
    },
    {
      "anonymous": false,
      "inputs": [
        {
          "indexed": false,
          "internalType": "uint8",
          "name": "version",
          "type": "uint8"
        }
      ],
      "name": "Initialized",
      "type": "event"
    },
    {
      "anonymous": false,
      "inputs": [
        {
          "indexed": false,
          "internalType": "uint256",
          "name": "oldSupply",
          "type": "uint256"
        },
        {
          "indexed": false,
          "internalType": "uint256",
          "name": "newSupply",
          "type": "uint256"
        }
      ],
      "name": "MaxTokenSupplyUpdated",
      "type": "event"
    },
    {
      "anonymous": false,
      "inputs": [
        {
          "indexed": false,
          "internalType": "address",
          "name": "account",
          "type": "address"
        }
      ],
      "name": "Paused",
      "type": "event"
    },
    {
      "anonymous": false,
      "inputs": [
        {
          "indexed": true,
          "internalType": "bytes32",
          "name": "role",
          "type": "bytes32"
        },
        {
          "indexed": true,
          "internalType": "bytes32",
          "name": "previousAdminRole",
          "type": "bytes32"
        },
        {
          "indexed": true,
          "internalType": "bytes32",
          "name": "newAdminRole",
          "type": "bytes32"
        }
      ],
      "name": "RoleAdminChanged",
      "type": "event"
    },
    {
      "anonymous": false,
      "inputs": [
        {
          "indexed": true,
          "internalType": "bytes32",
          "name": "role",
          "type": "bytes32"
        },
        {
          "indexed": true,
          "internalType": "address",
          "name": "account",
          "type": "address"
        },
        {
          "indexed": true,
          "internalType": "address",
          "name": "sender",
          "type": "address"
        }
      ],
      "name": "RoleGranted",
      "type": "event"
    },
    {
      "anonymous": false,
      "inputs": [
        {
          "indexed": true,
          "internalType": "bytes32",
          "name": "role",
          "type": "bytes32"
        },
        {
          "indexed": true,
          "internalType": "address",
          "name": "account",
          "type": "address"
        },
        {
          "indexed": true,
          "internalType": "address",
          "name": "sender",
          "type": "address"
        }
      ],
      "name": "RoleRevoked",
      "type": "event"
    },
    {
      "anonymous": false,
      "inputs": [
        {
          "indexed": false,
          "internalType": "uint256",
          "name": "id",
          "type": "uint256"
        }
      ],
      "name": "Snapshot",
      "type": "event"
    },
    {
      "anonymous": false,
      "inputs": [
        {
          "indexed": true,
          "internalType": "uint256",
          "name": "id",
          "type": "uint256"
        },
        {
          "indexed": false,
          "internalType": "uint256",
          "name": "timestamp",
          "type": "uint256"
        }
      ],
      "name": "SnapshotCreated",
      "type": "event"
    },
    {
      "anonymous": false,
      "inputs": [
        {
          "indexed": true,
          "internalType": "uint256",
          "name": "snapshotId",
          "type": "uint256"
        },
        {
          "indexed": false,
          "internalType": "uint256",
          "name": "totalSupply",
          "type": "uint256"
        },
        {
          "indexed": false,
          "internalType": "uint256",
          "name": "activeDelegates",
          "type": "uint256"
        }
      ],
      "name": "SnapshotMetricsUpdated",
      "type": "event"
    },
    {
      "anonymous": false,
      "inputs": [
        {
          "indexed": true,
          "internalType": "address",
          "name": "oldTimelock",
          "type": "address"
        },
        {
          "indexed": true,
          "internalType": "address",
          "name": "newTimelock",
          "type": "address"
        }
      ],
      "name": "TimelockUpdated",
      "type": "event"
    },
    {
      "anonymous": false,
      "inputs": [
        {
          "indexed": true,
          "internalType": "address",
          "name": "user",
          "type": "address"
        },
        {
          "indexed": false,
          "internalType": "uint256",
          "name": "amount",
          "type": "uint256"
        },
        {
          "indexed": false,
          "internalType": "uint256",
          "name": "newTotalSupply",
          "type": "uint256"
        }
      ],
      "name": "TokensBurned",
      "type": "event"
    },
    {
      "anonymous": false,
      "inputs": [
        {
          "indexed": true,
          "internalType": "address",
          "name": "delegator",
          "type": "address"
        },
        {
          "indexed": true,
          "internalType": "address",
          "name": "delegatee",
          "type": "address"
        },
        {
          "indexed": false,
          "internalType": "uint256",
          "name": "amount",
          "type": "uint256"
        }
      ],
      "name": "TokensLocked",
      "type": "event"
    },
    {
      "anonymous": false,
      "inputs": [
        {
          "indexed": true,
          "internalType": "address",
          "name": "recipient",
          "type": "address"
        },
        {
          "indexed": false,
          "internalType": "uint256",
          "name": "amount",
          "type": "uint256"
        },
        {
          "indexed": false,
          "internalType": "uint256",
          "name": "newTotalSupply",
          "type": "uint256"
        }
      ],
      "name": "TokensMinted",
      "type": "event"
    },
    {
      "anonymous": false,
      "inputs": [
        {
          "indexed": true,
          "internalType": "address",
          "name": "delegator",
          "type": "address"
        },
        {
          "indexed": false,
          "internalType": "uint256",
          "name": "amount",
          "type": "uint256"
        }
      ],
      "name": "TokensUnlocked",
      "type": "event"
    },
    {
      "anonymous": false,
      "inputs": [
        {
          "indexed": true,
          "internalType": "address",
          "name": "from",
          "type": "address"
        },
        {
          "indexed": true,
          "internalType": "address",
          "name": "to",
          "type": "address"
        },
        {
          "indexed": false,
          "internalType": "uint256",
          "name": "value",
          "type": "uint256"
        }
      ],
      "name": "Transfer",
      "type": "event"
    },
    {
      "anonymous": false,
      "inputs": [
        {
          "indexed": false,
          "internalType": "address",
          "name": "account",
          "type": "address"
        }
      ],
      "name": "Unpaused",
      "type": "event"
    },
    {
      "anonymous": false,
      "inputs": [
        {
          "indexed": true,
          "internalType": "address",
          "name": "implementation",
          "type": "address"
        }
      ],
      "name": "Upgraded",
      "type": "event"
    },
    {
      "stateMutability": "payable",
      "type": "fallback"
    },
    {
      "inputs": [],
      "name": "ADMIN_ROLE",
      "outputs": [
        {
          "internalType": "bytes32",
          "name": "",
          "type": "bytes32"
        }
      ],
      "stateMutability": "view",
      "type": "function"
    },
    {
      "inputs": [],
      "name": "DEFAULT_ADMIN_ROLE",
      "outputs": [
        {
          "internalType": "bytes32",
          "name": "",
          "type": "bytes32"
        }
      ],
      "stateMutability": "view",
      "type": "function"
    },
    {
      "inputs": [],
      "name": "GOVERNANCE_ROLE",
      "outputs": [
        {
          "internalType": "bytes32",
          "name": "",
          "type": "bytes32"
        }
      ],
      "stateMutability": "view",
      "type": "function"
    },
    {
      "inputs": [],
      "name": "GUARDIAN_ROLE",
      "outputs": [
        {
          "internalType": "bytes32",
          "name": "",
          "type": "bytes32"
        }
      ],
      "stateMutability": "view",
      "type": "function"
    },
    {
      "inputs": [],
      "name": "MAX_DELEGATION_DEPTH",
      "outputs": [
        {
          "internalType": "uint8",
          "name": "",
          "type": "uint8"
        }
      ],
      "stateMutability": "view",
      "type": "function"
    },
    {
      "inputs": [],
      "name": "MINTER_ROLE",
      "outputs": [
        {
          "internalType": "bytes32",
          "name": "",
          "type": "bytes32"
        }
      ],
      "stateMutability": "view",
      "type": "function"
    },
    {
      "inputs": [],
      "name": "PROPOSER_ROLE",
      "outputs": [
        {
          "internalType": "bytes32",
          "name": "",
          "type": "bytes32"
        }
      ],
      "stateMutability": "view",
      "type": "function"
    },
    {
      "inputs": [
        {
          "internalType": "address",
          "name": "guardian",
          "type": "address"
        }
      ],
      "name": "addGuardian",
      "outputs": [],
      "stateMutability": "nonpayable",
      "type": "function"
    },
    {
      "inputs": [
        {
          "internalType": "address",
          "name": "owner",
          "type": "address"
        },
        {
          "internalType": "address",
          "name": "spender",
          "type": "address"
        }
      ],
      "name": "allowance",
      "outputs": [
        {
          "internalType": "uint256",
          "name": "",
          "type": "uint256"
        }
      ],
      "stateMutability": "view",
      "type": "function"
    },
    {
      "inputs": [
        {
          "internalType": "address",
          "name": "spender",
          "type": "address"
        },
        {
          "internalType": "uint256",
          "name": "amount",
          "type": "uint256"
        }
      ],
      "name": "approve",
      "outputs": [
        {
          "internalType": "bool",
          "name": "",
          "type": "bool"
        }
      ],
      "stateMutability": "nonpayable",
      "type": "function"
    },
    {
      "inputs": [
        {
          "internalType": "address",
          "name": "account",
          "type": "address"
        }
      ],
      "name": "balanceOf",
      "outputs": [
        {
          "internalType": "uint256",
          "name": "",
          "type": "uint256"
        }
      ],
      "stateMutability": "view",
      "type": "function"
    },
    {
      "inputs": [
        {
          "internalType": "address",
          "name": "account",
          "type": "address"
        },
        {
          "internalType": "uint256",
          "name": "snapshotId",
          "type": "uint256"
        }
      ],
      "name": "balanceOfAt",
      "outputs": [
        {
          "internalType": "uint256",
          "name": "",
          "type": "uint256"
        }
      ],
      "stateMutability": "view",
      "type": "function"
    },
    {
      "inputs": [
        {
          "internalType": "uint256",
          "name": "amount",
          "type": "uint256"
        }
      ],
      "name": "burnTokens",
      "outputs": [],
      "stateMutability": "nonpayable",
      "type": "function"
    },
    {
      "inputs": [],
      "name": "createSnapshot",
      "outputs": [
        {
          "internalType": "uint256",
          "name": "",
          "type": "uint256"
        }
      ],
      "stateMutability": "nonpayable",
      "type": "function"
    },
    {
      "inputs": [],
      "name": "decimals",
      "outputs": [
        {
          "internalType": "uint8",
          "name": "",
          "type": "uint8"
        }
      ],
      "stateMutability": "view",
      "type": "function"
    },
    {
      "inputs": [
        {
          "internalType": "address",
          "name": "spender",
          "type": "address"
        },
        {
          "internalType": "uint256",
          "name": "subtractedValue",
          "type": "uint256"
        }
      ],
      "name": "decreaseAllowance",
      "outputs": [
        {
          "internalType": "bool",
          "name": "",
          "type": "bool"
        }
      ],
      "stateMutability": "nonpayable",
      "type": "function"
    },
    {
      "inputs": [
        {
          "internalType": "address",
          "name": "delegatee",
          "type": "address"
        }
      ],
      "name": "delegate",
      "outputs": [],
      "stateMutability": "nonpayable",
      "type": "function"
    },
    {
      "inputs": [],
      "name": "deposit",
      "outputs": [],
      "stateMutability": "payable",
      "type": "function"
    },
    {
      "inputs": [
        {
          "internalType": "address",
          "name": "account",
          "type": "address"
        }
      ],
      "name": "getCurrentDelegatedVotes",
      "outputs": [
        {
          "internalType": "uint256",
          "name": "",
          "type": "uint256"
        }
      ],
      "stateMutability": "view",
      "type": "function"
    },
    {
      "inputs": [],
      "name": "getCurrentSnapshotId",
      "outputs": [
        {
          "internalType": "uint256",
          "name": "",
          "type": "uint256"
        }
      ],
      "stateMutability": "view",
      "type": "function"
    },
    {
      "inputs": [
        {
          "internalType": "address",
          "name": "account",
          "type": "address"
        }
      ],
      "name": "getDelegate",
      "outputs": [
        {
          "internalType": "address",
          "name": "",
          "type": "address"
        }
      ],
      "stateMutability": "view",
      "type": "function"
    },
    {
      "inputs": [
        {
          "internalType": "address",
          "name": "account",
          "type": "address"
        }
      ],
      "name": "getDelegatedToAddress",
      "outputs": [
        {
          "internalType": "uint256",
          "name": "",
          "type": "uint256"
        }
      ],
      "stateMutability": "view",
      "type": "function"
    },
    {
      "inputs": [
        {
          "internalType": "address",
          "name": "account",
          "type": "address"
        },
        {
          "internalType": "uint256",
          "name": "snapshotId",
          "type": "uint256"
        }
      ],
      "name": "getDelegatedToAddressAtSnapshot",
      "outputs": [
        {
          "internalType": "uint256",
          "name": "",
          "type": "uint256"
        }
      ],
      "stateMutability": "view",
      "type": "function"
    },
    {
      "inputs": [
        {
          "internalType": "address",
          "name": "delegatee",
          "type": "address"
        }
      ],
      "name": "getDelegatorsOf",
      "outputs": [
        {
          "internalType": "address[]",
          "name": "",
          "type": "address[]"
        }
      ],
      "stateMutability": "view",
      "type": "function"
    },
    {
      "inputs": [
        {
          "internalType": "address",
          "name": "voter",
          "type": "address"
        },
        {
          "internalType": "uint256",
          "name": "snapshotId",
          "type": "uint256"
        }
      ],
      "name": "getEffectiveVotingPower",
      "outputs": [
        {
          "internalType": "uint256",
          "name": "",
          "type": "uint256"
        }
      ],
      "stateMutability": "view",
      "type": "function"
    },
    {
      "inputs": [
        {
          "internalType": "address",
          "name": "account",
          "type": "address"
        }
      ],
      "name": "getLockedTokens",
      "outputs": [
        {
          "internalType": "uint256",
          "name": "",
          "type": "uint256"
        }
      ],
      "stateMutability": "view",
      "type": "function"
    },
    {
      "inputs": [
        {
          "internalType": "address",
          "name": "account",
          "type": "address"
        },
        {
          "internalType": "uint256",
          "name": "snapshotId",
          "type": "uint256"
        }
      ],
      "name": "getLockedTokensAtSnapshot",
      "outputs": [
        {
          "internalType": "uint256",
          "name": "",
          "type": "uint256"
        }
      ],
      "stateMutability": "view",
      "type": "function"
    },
    {
      "inputs": [
        {
          "internalType": "bytes32",
          "name": "role",
          "type": "bytes32"
        }
      ],
      "name": "getRoleAdmin",
      "outputs": [
        {
          "internalType": "bytes32",
          "name": "",
          "type": "bytes32"
        }
      ],
      "stateMutability": "view",
      "type": "function"
    },
    {
      "inputs": [
        {
          "internalType": "bytes32",
          "name": "role",
          "type": "bytes32"
        },
        {
          "internalType": "uint256",
          "name": "index",
          "type": "uint256"
        }
      ],
      "name": "getRoleMember",
      "outputs": [
        {
          "internalType": "address",
          "name": "",
          "type": "address"
        }
      ],
      "stateMutability": "view",
      "type": "function"
    },
    {
      "inputs": [
        {
          "internalType": "bytes32",
          "name": "role",
          "type": "bytes32"
        }
      ],
      "name": "getRoleMemberCount",
      "outputs": [
        {
          "internalType": "uint256",
          "name": "",
          "type": "uint256"
        }
      ],
      "stateMutability": "view",
      "type": "function"
    },
    {
      "inputs": [
        {
          "internalType": "uint256",
          "name": "snapshotId",
          "type": "uint256"
        }
      ],
      "name": "getSnapshotMetrics",
      "outputs": [
        {
          "internalType": "uint256",
          "name": "totalSupply",
          "type": "uint256"
        },
        {
          "internalType": "uint256",
          "name": "activeHolders",
          "type": "uint256"
        },
        {
          "internalType": "uint256",
          "name": "activeDelegates",
          "type": "uint256"
        },
        {
          "internalType": "uint256",
          "name": "totalDelegatedTokens",
          "type": "uint256"
        },
        {
          "internalType": "uint256",
          "name": "percentageDelegated",
          "type": "uint256"
        },
        {
          "internalType": "address",
          "name": "topDelegate",
          "type": "address"
        },
        {
          "internalType": "uint256",
          "name": "topDelegateTokens",
          "type": "uint256"
        }
      ],
      "stateMutability": "view",
      "type": "function"
    },
    {
      "inputs": [
        {
          "internalType": "uint256",
          "name": "snapshotId",
          "type": "uint256"
        }
      ],
      "name": "getSnapshotTimestamp",
      "outputs": [
        {
          "internalType": "uint256",
          "name": "",
          "type": "uint256"
        }
      ],
      "stateMutability": "view",
      "type": "function"
    },
    {
      "inputs": [
        {
          "internalType": "address",
          "name": "from",
          "type": "address"
        },
        {
          "internalType": "uint256",
          "name": "amount",
          "type": "uint256"
        }
      ],
      "name": "governanceBurn",
      "outputs": [
        {
          "internalType": "bool",
          "name": "",
          "type": "bool"
        }
      ],
      "stateMutability": "nonpayable",
      "type": "function"
    },
    {
      "inputs": [
        {
          "internalType": "address",
          "name": "to",
          "type": "address"
        },
        {
          "internalType": "uint256",
          "name": "amount",
          "type": "uint256"
        }
      ],
      "name": "governanceMint",
      "outputs": [
        {
          "internalType": "bool",
          "name": "",
          "type": "bool"
        }
      ],
      "stateMutability": "nonpayable",
      "type": "function"
    },
    {
      "inputs": [
        {
          "internalType": "address",
          "name": "from",
          "type": "address"
        },
        {
          "internalType": "address",
          "name": "to",
          "type": "address"
        },
        {
          "internalType": "uint256",
          "name": "amount",
          "type": "uint256"
        }
      ],
      "name": "governanceTransfer",
      "outputs": [
        {
          "internalType": "bool",
          "name": "",
          "type": "bool"
        }
      ],
      "stateMutability": "nonpayable",
      "type": "function"
    },
    {
      "inputs": [
        {
          "internalType": "bytes32",
          "name": "role",
          "type": "bytes32"
        },
        {
          "internalType": "address",
          "name": "account",
          "type": "address"
        }
      ],
      "name": "grantContractRole",
      "outputs": [],
      "stateMutability": "nonpayable",
      "type": "function"
    },
    {
      "inputs": [
        {
          "internalType": "bytes32",
          "name": "role",
          "type": "bytes32"
        },
        {
          "internalType": "address",
          "name": "account",
          "type": "address"
        }
      ],
      "name": "grantRole",
      "outputs": [],
      "stateMutability": "nonpayable",
      "type": "function"
    },
    {
      "inputs": [
        {
          "internalType": "bytes32",
          "name": "role",
          "type": "bytes32"
        },
        {
          "internalType": "address",
          "name": "account",
          "type": "address"
        }
      ],
      "name": "hasRole",
      "outputs": [
        {
          "internalType": "bool",
          "name": "",
          "type": "bool"
        }
      ],
      "stateMutability": "view",
      "type": "function"
    },
    {
      "inputs": [
        {
          "internalType": "address",
          "name": "spender",
          "type": "address"
        },
        {
          "internalType": "uint256",
          "name": "addedValue",
          "type": "uint256"
        }
      ],
      "name": "increaseAllowance",
      "outputs": [
        {
          "internalType": "bool",
          "name": "",
          "type": "bool"
        }
      ],
      "stateMutability": "nonpayable",
      "type": "function"
    },
    {
      "inputs": [
        {
          "internalType": "string",
          "name": "name",
          "type": "string"
        },
        {
          "internalType": "string",
          "name": "symbol",
          "type": "string"
        },
        {
          "internalType": "address",
          "name": "admin",
          "type": "address"
        }
      ],
      "name": "initialize",
      "outputs": [],
      "stateMutability": "nonpayable",
      "type": "function"
    },
    {
      "inputs": [],
      "name": "maxTokenSupply",
      "outputs": [
        {
          "internalType": "uint256",
          "name": "",
          "type": "uint256"
        }
      ],
      "stateMutability": "view",
      "type": "function"
    },
    {
      "inputs": [
        {
          "internalType": "address",
          "name": "to",
          "type": "address"
        },
        {
          "internalType": "uint256",
          "name": "amount",
          "type": "uint256"
        }
      ],
      "name": "mint",
      "outputs": [],
      "stateMutability": "nonpayable",
      "type": "function"
    },
    {
      "inputs": [],
      "name": "name",
      "outputs": [
        {
          "internalType": "string",
          "name": "",
          "type": "string"
        }
      ],
      "stateMutability": "view",
      "type": "function"
    },
    {
      "inputs": [],
      "name": "pause",
      "outputs": [],
      "stateMutability": "nonpayable",
      "type": "function"
    },
    {
      "inputs": [],
      "name": "paused",
      "outputs": [
        {
          "internalType": "bool",
          "name": "",
          "type": "bool"
        }
      ],
      "stateMutability": "view",
      "type": "function"
    },
    {
      "inputs": [],
      "name": "proxiableUUID",
      "outputs": [
        {
          "internalType": "bytes32",
          "name": "",
          "type": "bytes32"
        }
      ],
      "stateMutability": "view",
      "type": "function"
    },
    {
      "inputs": [
        {
          "internalType": "address",
          "name": "guardian",
          "type": "address"
        }
      ],
      "name": "removeGuardian",
      "outputs": [],
      "stateMutability": "nonpayable",
      "type": "function"
    },
    {
      "inputs": [
        {
          "internalType": "bytes32",
          "name": "role",
          "type": "bytes32"
        },
        {
          "internalType": "address",
          "name": "account",
          "type": "address"
        }
      ],
      "name": "renounceRole",
      "outputs": [],
      "stateMutability": "nonpayable",
      "type": "function"
    },
    {
      "inputs": [
        {
          "internalType": "address",
          "name": "tokenAddress",
          "type": "address"
        }
      ],
      "name": "rescueERC20",
      "outputs": [],
      "stateMutability": "nonpayable",
      "type": "function"
    },
    {
      "inputs": [],
      "name": "rescueETH",
      "outputs": [],
      "stateMutability": "nonpayable",
      "type": "function"
    },
    {
      "inputs": [],
      "name": "resetDelegation",
      "outputs": [],
      "stateMutability": "nonpayable",
      "type": "function"
    },
    {
      "inputs": [
        {
          "internalType": "bytes32",
          "name": "role",
          "type": "bytes32"
        },
        {
          "internalType": "address",
          "name": "account",
          "type": "address"
        }
      ],
      "name": "revokeContractRole",
      "outputs": [],
      "stateMutability": "nonpayable",
      "type": "function"
    },
    {
      "inputs": [
        {
          "internalType": "bytes32",
          "name": "role",
          "type": "bytes32"
        },
        {
          "internalType": "address",
          "name": "account",
          "type": "address"
        }
      ],
      "name": "revokeRole",
      "outputs": [],
      "stateMutability": "nonpayable",
      "type": "function"
    },
    {
      "inputs": [
        {
          "internalType": "uint256",
          "name": "newMaxSupply",
          "type": "uint256"
        }
      ],
      "name": "setMaxTokenSupply",
      "outputs": [],
      "stateMutability": "nonpayable",
      "type": "function"
    },
    {
      "inputs": [
        {
          "internalType": "address",
          "name": "timelockAddress",
          "type": "address"
        }
      ],
      "name": "setTimelock",
      "outputs": [],
      "stateMutability": "nonpayable",
      "type": "function"
    },
    {
      "inputs": [
        {
          "internalType": "bytes4",
          "name": "interfaceId",
          "type": "bytes4"
        }
      ],
      "name": "supportsInterface",
      "outputs": [
        {
          "internalType": "bool",
          "name": "",
          "type": "bool"
        }
      ],
      "stateMutability": "view",
      "type": "function"
    },
    {
      "inputs": [],
      "name": "symbol",
      "outputs": [
        {
          "internalType": "string",
          "name": "",
          "type": "string"
        }
      ],
      "stateMutability": "view",
      "type": "function"
    },
    {
      "inputs": [],
      "name": "timelock",
      "outputs": [
        {
          "internalType": "contract JustTimelockUpgradeable",
          "name": "",
          "type": "address"
        }
      ],
      "stateMutability": "view",
      "type": "function"
    },
    {
      "inputs": [],
      "name": "totalSupply",
      "outputs": [
        {
          "internalType": "uint256",
          "name": "",
          "type": "uint256"
        }
      ],
      "stateMutability": "view",
      "type": "function"
    },
    {
      "inputs": [
        {
          "internalType": "uint256",
          "name": "snapshotId",
          "type": "uint256"
        }
      ],
      "name": "totalSupplyAt",
      "outputs": [
        {
          "internalType": "uint256",
          "name": "",
          "type": "uint256"
        }
      ],
      "stateMutability": "view",
      "type": "function"
    },
    {
      "inputs": [
        {
          "internalType": "address",
          "name": "to",
          "type": "address"
        },
        {
          "internalType": "uint256",
          "name": "amount",
          "type": "uint256"
        }
      ],
      "name": "transfer",
      "outputs": [
        {
          "internalType": "bool",
          "name": "",
          "type": "bool"
        }
      ],
      "stateMutability": "nonpayable",
      "type": "function"
    },
    {
      "inputs": [
        {
          "internalType": "address",
          "name": "from",
          "type": "address"
        },
        {
          "internalType": "address",
          "name": "to",
          "type": "address"
        },
        {
          "internalType": "uint256",
          "name": "amount",
          "type": "uint256"
        }
      ],
      "name": "transferFrom",
      "outputs": [
        {
          "internalType": "bool",
          "name": "",
          "type": "bool"
        }
      ],
      "stateMutability": "nonpayable",
      "type": "function"
    },
    {
      "inputs": [],
      "name": "unpause",
      "outputs": [],
      "stateMutability": "nonpayable",
      "type": "function"
    },
    {
      "inputs": [
        {
          "internalType": "address",
          "name": "newImplementation",
          "type": "address"
        }
      ],
      "name": "upgradeTo",
      "outputs": [],
      "stateMutability": "nonpayable",
      "type": "function"
    },
    {
      "inputs": [
        {
          "internalType": "address",
          "name": "newImplementation",
          "type": "address"
        },
        {
          "internalType": "bytes",
          "name": "data",
          "type": "bytes"
        }
      ],
      "name": "upgradeToAndCall",
      "outputs": [],
      "stateMutability": "payable",
      "type": "function"
    },
    {
      "stateMutability": "payable",
      "type": "receive"
    }
  ],
  "bytecode": "0x60a0604052346200003657620000146200003b565b604051615e4162000093823960805181818161152a01526116760152615e4190f35b600080fd5b6200004562000082565b565b6200005d9062000060906001600160a01b031682565b90565b6001600160a01b031690565b6200005d9062000047565b6200005d906200006c565b6200008d3062000077565b60805256fe60806040526004361015610026575b361561001e5761001c615dcc565b005b61001c615dcc565b60003560e01c806301ffc9a71461043157806306fdde031461042c578063077f224a14610427578063095ea7b3146104225780631504d8f01461041d57806318160ddd1461041857806320800a001461041357806323b872dd1461040e578063248a9ca31461040957806324ea54f4146104045780632f2ff15d146103ff578063313ce567146103fa57806336568abe146103f55780633659cfe6146103f057806339509351146103eb5780633f4ba83a146103e657806340c10f19146103e15780634ee2cd7e146103dc5780634f1ef286146103d75780634f4ebe65146103d257806350f7c204146103cd57806352d1902d146103c85780635439ad86146103c3578063544d8564146103be578063588707d0146103a55780635c19a95c146103b95780635c975abb146103b45780636b2d95d4146103af5780636d1b229d146103aa5780636dee46eb146103a557806370a08231146103a057806370d26de51461039b578063714041561461039657806375b238fc146103915780637969a7131461038c5780638456cb59146103875780638f61f4f5146103825780639010d07c1461037d57806391d14854146103785780639371672e1461037357806395d89b411461036e578063981b24d0146103695780639fa4750214610364578063a217fddf1461035f578063a457c2d71461035a578063a526d83b14610355578063a89ae7d014610350578063a9059cbb1461034b578063b07ed98214610346578063bdacb30314610341578063ca15c8731461033c578063cbf453cf14610337578063ccec371614610332578063d0e30db01461032d578063d33219b414610328578063d367a84e14610323578063d53913931461031e578063d547741f14610319578063dd329b5c14610314578063dd62ed3e1461030f578063e4b797c11461030a578063e5de293014610305578063eb9e071c14610300578063f21c00ba146102fb5763f36c8f5c0361000e57611030565b611017565b610fff565b610fd8565b610f4c565b610f30565b610efa565b610ee1565b610ea8565b610e8c565b610e65565b610de7565b610dcf565b610db4565b610d99565b610d81565b610d69565b610d4d565b610d31565b610d19565b610cfd565b610ce2565b610c8f565b610c33565b610c18565b610bfc565b610be0565b610bc4565b610b71565b610b59565b610b3e565b610af2565b610ada565b610ac1565b610aa6565b610a25565b610a8e565b610a73565b610a58565b610a40565b6109ef565b6109d4565b6109b9565b61099e565b61095f565b61094b565b6108f9565b6108e0565b6108c8565b6108ac565b610894565b610867565b610838565b61081f565b6107d5565b6107ba565b61078a565b610742565b610727565b6106fb565b6106df565b61068b565b610521565b610478565b6001600160e01b031981165b0361044957565b600080fd5b9050359061045b82610436565b565b90602082820312610449576104719161044e565b90565b9052565b34610449576104a661049361048e36600461045d565b611057565b6040515b91829182901515815260200190565b0390f35b600091031261044957565b60005b8381106104c85750506000910152565b81810151838201526020016104b8565b6104f961050260209361050c936104ed815190565b80835293849260200190565b958691016104b5565b601f01601f191690565b0190565b6020808252610471929101906104d8565b34610449576105313660046104aa565b6104a661053c611b9f565b60405191829182610510565b634e487b7160e01b600052604160045260246000fd5b90601f01601f1916810190811067ffffffffffffffff82111761058057604052565b610548565b9061045b61059260405190565b928361055e565b67ffffffffffffffff811161058057602090601f01601f19160190565b90826000939282370152565b909291926105d76105d282610599565b610585565b938185526020850190828401116104495761045b926105b6565b9080601f8301121561044957816020610471933591016105c2565b6001600160a01b031690565b6001600160a01b038116610442565b9050359061045b82610618565b909160608284031261044957813567ffffffffffffffff8111610449578361065d9184016105f1565b9260208301359067ffffffffffffffff821161044957610682816104719386016105f1565b93604001610627565b34610449576106a461069e366004610634565b91612b20565b604051005b80610442565b9050359061045b826106a9565b919060408382031261044957610471906106d68185610627565b936020016106af565b34610449576104a66104936106f53660046106bc565b90611c18565b346104495761070b3660046104aa565b6104a6610716614770565b6040515b9182918290815260200190565b34610449576107373660046104aa565b6104a6610716611bbd565b34610449576107523660046104aa565b6106a46159ca565b9091606082840312610449576104716107738484610627565b936107818160208601610627565b936040016106af565b34610449576104a66104936107a036600461075a565b91611c23565b9060208282031261044957610471916106af565b34610449576104a66107166107d03660046107a6565b611157565b34610449576107e53660046104aa565b6104a6600080516020615e15833981519152610716565b9190604083820312610449576104719061081681856106af565b93602001610627565b34610449576106a46108323660046107fc565b9061118e565b34610449576108483660046104aa565b6104a6610853611bb3565b6040519182918260ff909116815260200190565b34610449576106a461087a3660046107fc565b9061137c565b906020828203126104495761047191610627565b34610449576106a46108a7366004610880565b611737565b34610449576104a66104936108c23660046106bc565b90611c65565b34610449576108d83660046104aa565b6106a46157fe565b34610449576106a46108f33660046106bc565b906131d1565b34610449576104a661071661090f3660046106bc565b90611f08565b9190916040818403126104495761092c8382610627565b92602082013567ffffffffffffffff81116104495761047192016105f1565b6106a4610959366004610915565b90611a92565b34610449576104a66107166109753660046106bc565b906146b9565b610471916008021c81565b90610471915461097b565b61047160006101f6610986565b34610449576109ae3660046104aa565b6104a6610716610991565b34610449576109c93660046104aa565b6104a6610716611595565b34610449576109e43660046104aa565b6104a661071661477a565b34610449576104a6610a0a610a05366004610880565b614436565b6040515b918291826001600160a01b03909116815260200190565b34610449576104a6610716610a3b366004610880565b614466565b34610449576106a4610a53366004610880565b61389a565b3461044957610a683660046104aa565b6104a6610493611a9c565b34610449576104a6610716610a89366004610880565b61444e565b34610449576106a4610aa13660046107a6565b61325c565b34610449576104a6610716610abc366004610880565b611bc7565b34610449576106a4610ad43660046107fc565b9061568d565b34610449576106a4610aed366004610880565b61545a565b3461044957610b023660046104aa565b6104a6600080516020615df5833981519152610716565b610b266104716104719290565b60ff1690565b6104716008610b19565b610471610b2c565b3461044957610b4e3660046104aa565b6104a6610853610b36565b3461044957610b693660046104aa565b6106a4615726565b3461044957610b813660046104aa565b6104a67fb09aa5aeb3702cfd50b6b62bc4532604938f21248a27a1d5ca736082b6819cc1610716565b919060408382031261044957610471906106d681856106af565b34610449576104a6610a0a610bda366004610baa565b90611090565b34610449576104a6610493610bf63660046107fc565b9061111e565b34610449576104a6610716610c123660046106bc565b906145de565b3461044957610c283660046104aa565b6104a661053c611ba9565b34610449576104a6610716610c493660046107a6565b611f36565b90815260e081019796959094909390929091602086015260408501526060840152608083015260a08201610c89916001600160a01b03169052565b60c00152565b34610449576104a6610caa610ca53660046107a6565b6146d5565b93610cba97959793919360405190565b97889788610c4e565b6104716104716104719290565b6104716000610cc3565b610471610cd0565b3461044957610cf23660046104aa565b6104a6610716610cda565b34610449576104a6610493610d133660046106bc565b90611cde565b34610449576106a4610d2c366004610880565b6153b2565b34610449576104a6610493610d473660046106bc565b906151ac565b34610449576104a6610493610d633660046106bc565b90611be3565b34610449576106a4610d7c3660046107a6565b61523c565b34610449576106a4610d94366004610880565b6153a9565b34610449576104a6610716610daf3660046107a6565b6110b0565b34610449576104a6610716610dca3660046107a6565b614782565b34610449576106a4610de2366004610880565b615b16565b610df23660046104aa565b6106a4612e29565b610471916008021c6001600160a01b031690565b906104719154610dfa565b61047160006101f5610e0e565b6104719061060c906001600160a01b031682565b61047190610e26565b61047190610e3a565b61047490610e43565b60208101929161045b9190610e4c565b3461044957610e753660046104aa565b6104a6610e80610e19565b60405191829182610e55565b34610449576104a6610716610ea23660046106bc565b9061469d565b3461044957610eb83660046104aa565b6104a67f9f2df0fed2c77648de5860a4cc508cd0818c85b8b8a1ab4ceeef8d981c8956a6610716565b34610449576106a4610ef43660046107fc565b906112f4565b34610449576104a6610493610f103660046106bc565b90615092565b919060408382031261044957610471906108168185610627565b34610449576104a6610716610f46366004610f16565b90611bf8565b34610449576104a6610493610f6236600461075a565b9161522f565b90610f88610f81610f77845190565b8084529260200190565b9260200190565b9060005b818110610f995750505090565b909192610fbf610fb860019286516001600160a01b0316815260200190565b9460200190565b929101610f8c565b602080825261047192910190610f68565b34610449576104a6610ff3610fee366004610880565b613509565b60405191829182610fc7565b346104495761100f3660046104aa565b6106a461442e565b34610449576106a461102a3660046107fc565b906154e6565b34610449576110403660046104aa565b6104a6600080516020615dd5833981519152610716565b635a05180f60e01b6001600160e01b0319821614908115611076575090565b61047191506110c7565b905b600052602052604060002090565b906110ab610471610471936110a3600090565b5060fb611080565b6127cf565b6110c2610471610471926110a3600090565b6127a5565b637965db0b60e01b6001600160e01b03198216149081156110e6575090565b61047191506001600160e01b0319166301ffc9a760e01b1490565b9061108290610e43565b61047190610b26565b610471905461110b565b61047191600061113b61114193611133600090565b5060c9611080565b01611101565b611114565b6104719081565b6104719054611146565b600161116861047192611133600090565b0161114d565b9061045b9161118461117f82611157565b6111bc565b9061045b91611198565b9061045b9161116e565b906111b46104716111b9936111ad84826113cc565b60fb611080565b612583565b50565b61045b90339061124c565b61047190610cc3565b61050c6111e8926020926111e2815190565b94859290565b938491016104b5565b61122f6104719392611229611229937f416363657373436f6e74726f6c3a206163636f756e7420000000000000000000815260170190565b906111d0565b7001034b99036b4b9b9b4b733903937b6329607d1b815260110190565b9061125e61125a828461111e565b1590565b611266575050565b6112d59161047161128261127c6112bc9461250c565b926111c7565b61129760209161129183610cc3565b906123c8565b926112b06112a460405190565b948593840192836111f1565b9081038252038261055e565b6040515b62461bcd60e51b815291829160048301610510565b0390fd5b9061045b916112ea61117f82611157565b9061045b916112fe565b9061045b916112d9565b906113136104716111b9936111ad8482611443565b61266b565b1561131f57565b60405162461bcd60e51b815260206004820152602f60248201527f416363657373436f6e74726f6c3a2063616e206f6e6c792072656e6f756e636560448201526e103937b632b9903337b91039b2b63360891b6064820152608490fd5b61045b919061139d61138d3361060c565b6001600160a01b03841614611318565b6112fe565b9060ff905b9181191691161790565b906113c16104716113c892151590565b82546113a2565b9055565b906113da61125a828461111e565b6113e2575050565b6113fd60016113f883600061113b8760c9611080565b6113b1565b339061143361142d61142d7f2f8788117e7eff1d82e926ec794901d17c78024a50270940304540a733656f0d9590565b92610e43565b9261143d60405190565b600090a4565b9061144e818361111e565b611456575050565b61146b60006113f8838261113b8760c9611080565b339061143361142d61142d7ff6391f5c32d9c69d2a47ea670b442974b53935d1edc7fd64eb21e047a839171b9590565b156114a257565b60405162461bcd60e51b815260206004820152603860248201527f555550535570677261646561626c653a206d757374206e6f742062652063616c60448201527f6c6564207468726f7567682064656c656761746563616c6c00000000000000006064820152608490fd5b6104719061155e61151d30610e43565b6115586001600160a01b037f0000000000000000000000000000000000000000000000000000000000000000165b916001600160a01b031690565b1461149b565b61158c565b6104717f360894a13ba1a3210667c828492db98dca3e2076cc3735a920a3ca505d382bbc610cc3565b50610471611563565b610471600061150d565b156115a657565b60405162461bcd60e51b815260206004820152602c60248201527f46756e6374696f6e206d7573742062652063616c6c6564207468726f7567682060448201526b19195b1959d85d1958d85b1b60a21b6064820152608490fd5b1561160757565b60405162461bcd60e51b815260206004820152602c60248201527f46756e6374696f6e206d7573742062652063616c6c6564207468726f7567682060448201526b6163746976652070726f787960a01b6064820152608490fd5b61045b906116d161167130610e43565b6116b07f0000000000000000000000000000000000000000000000000000000000000000916116a961154b846001600160a01b031690565b141561159f565b6116cb61154b6116be611753565b926001600160a01b031690565b14611600565b611710565b906116e36105d283610599565b918252565b369037565b9061045b6117036116fd846116d6565b93610599565b601f1901602084016116e8565b61045b9061171d81612e02565b60009061173161172c83610cc3565b6116ed565b9061181d565b61045b90611661565b6104719061060c565b6104719054611740565b6104716000611763610471611563565b01611749565b6104717f4910fdfa16fed3260ed0e7147f7cc6da11a60208b5b9406d12a635614ffd9143610cc3565b9050519061045b826106a9565b906020828203126104495761047191611792565b6040513d6000823e3d90fd5b156117c657565b60405162461bcd60e51b815260206004820152602960248201527f45524331393637557067726164653a20756e737570706f727465642070726f786044820152681a58589b195555525160ba1b6064820152608490fd5b9190611835600061182f610471611769565b01611114565b1561184557505061045b906119c3565b82602061185c61185761187496610e43565b610e43565b6352d1902d9061186b60405190565b96879260e01b90565b825260049082905afa6000948161190b575b506118e75760405162461bcd60e51b815260206004820152602e60248201527f45524331393637557067726164653a206e657720696d706c656d656e7461746960448201526d6f6e206973206e6f74205555505360901b6064820152608490fd5b61190661045b946119006118fc610471611563565b9190565b146117bf565b6119eb565b61192d91955060203d8111611934575b611925818361055e565b81019061179f565b9338611886565b503d61191b565b1561194257565b60405162461bcd60e51b815260206004820152602d60248201527f455243313936373a206e657720696d706c656d656e746174696f6e206973206e60448201526c1bdd08184818dbdb9d1c9858dd609a1b6064820152608490fd5b906001600160a01b03906113a7565b906119bc6104716113c892610e43565b825461199d565b61045b906119d86119d3826120a3565b61193b565b60006119e5610471611563565b016119ac565b916119f583611a27565b8151611a046118fc6000610cc3565b11908115611a1f575b50611a16575050565b6111b991612100565b905038611a0d565b611a30816119c3565b611a5a7fbc7cd75a20ee27fd9adebab32041f755214dbc6bffa90cc0225b39da2e5c2d3b91610e43565b90611a6460405190565b80805b0390a2565b9061045b91611a7d61167130610e43565b61045b91611a8a82612e02565b60019161181d565b9061045b91611a6c565b61047161015f611114565b634e487b7160e01b600052602260045260246000fd5b9060016002830492168015611add575b6020831014611ad857565b611aa7565b91607f1691611acd565b80546000939291611b04611afa83611abd565b8085529360200190565b9160018116908115611b565750600114611b1d57505050565b611b309192939450600052602060002090565b916000925b818410611b425750500190565b805484840152602090930192600101611b35565b92949550505060ff1916825215156020020190565b9061047191611ae7565b9061045b611b8f92611b8660405190565b93848092611b6b565b038361055e565b61047190611b75565b6104716036611b96565b6104716037611b96565b6104716012610b19565b610471603561114d565b611bde61047191611bd6600090565b506033611101565b61114d565b611bf3919033614ddb565b614ddb565b600190565b61047191611c13611bde92611c0b600090565b506034611101565b611101565b611bf3919033611de8565b611bf3929190611bee833383611ed0565b634e487b7160e01b600052601160045260246000fd5b9190611c55565b9290565b8201809211611c6057565b611c34565b611bf39190611c7e3392611c798385611bf8565b611c4a565b91611de8565b15611c8b57565b60405162461bcd60e51b815260206004820152602560248201527f45524332303a2064656372656173656420616c6c6f77616e63652062656c6f77604482015264207a65726f60d81b6064820152608490fd5b611bf39190611c7e3392611cf28385611bf8565b611cfe82821015611c84565b0390565b61060c6104716104719290565b61047190611d02565b15611d1f57565b60405162461bcd60e51b8152602060048201526024808201527f45524332303a20617070726f76652066726f6d20746865207a65726f206164646044820152637265737360e01b6064820152608490fd5b15611d7757565b60405162461bcd60e51b815260206004820152602260248201527f45524332303a20617070726f766520746f20746865207a65726f206164647265604482015261737360f01b6064820152608490fd5b90600019906113a7565b90611de16104716113c892610cc3565b8254611dc7565b611e27611e16611df86000611d0f565b61060c6001600160a01b0382166001600160a01b0386161415611d18565b6001600160a01b0384161415611d70565b611e3f83611e3a84611c13856034611101565b611dd1565b611e7f611e75611e6f7f8c5be1e5ebec7d5bd14f71427d1e84f3dd0314c0f7b2291e5b200ac8c7c3b92593610e43565b93610e43565b9361071a60405190565b0390a3565b15611e8b57565b60405162461bcd60e51b815260206004820152601d60248201527f45524332303a20696e73756666696369656e7420616c6c6f77616e63650000006044820152606490fd5b90611edb8183611bf8565b6000198103611eeb575b50505050565b611eff93611c7e91611cfe82821015611e84565b38808080611ee5565b90611f2190611f1b610471846065611101565b90612022565b919015611f2c575090565b6104719150611bc7565b611f41906066611f1b565b9015611f4a5790565b50610471611bbd565b15611f5a57565b60405162461bcd60e51b815260206004820152601660248201527504552433230536e617073686f743a20696420697320360541b6044820152606490fd5b15611f9f57565b60405162461bcd60e51b815260206004820152601d60248201527f4552433230536e617073686f743a206e6f6e6578697374656e742069640000006044820152606490fd5b634e487b7160e01b600052603260045260246000fd5b805482101561201d57612014600191600052602060002090565b91020190600090565b611fe4565b919060009261203a61203385610cc3565b8211611f53565b612050612048610471612099565b821115611f98565b61206e610471612069868501936120648590565b612217565b925490565b810361207f57505061047182610cc3565b610471919350612093906001809501611ffa565b90610986565b6104716068612313565b3b6120b16118fc6000610cc3565b1190565b6120bf60276116d6565b7f416464726573733a206c6f772d6c6576656c2064656c65676174652063616c6c6020820152660819985a5b195960ca1b604082015290565b6104716120b5565b6104719161210c6120f8565b91612131565b3d1561212c576121213d6116d6565b903d6000602084013e565b606090565b6000806104719493612141606090565b50805190602001845af4612153612112565b916121a5565b1561216057565b60405162461bcd60e51b815260206004820152601d60248201527f416464726573733a2063616c6c20746f206e6f6e2d636f6e74726163740000006044820152606490fd5b919290156121d7575081516121bd6118fc6000610cc3565b146121c6575090565b6121d2610471916120a3565b612159565b82906121e1825190565b6121ee6118fc6000610cc3565b11156121fd5750805190602001fd5b6112d5906112c060405190565b91908203918211611c6057565b919082549160009261222b6118fc85610cc3565b146123075761223983610cc3565b84545b808210156122965761224e818361255e565b908161226687611168838b6000908152602090200190565b861015612277575050915b9161223c565b90939250612290915061228a6001610cc3565b90611c4a565b90612271565b5092939190936122a581610cc3565b841192836122cc575b50505060001461047157610471906122c66001610cc3565b9061220a565b6122fe9293506118fc91611168611c51926122f06122ea6001610cc3565b8961220a565b906000908152602090200190565b143880806122ae565b92505061047190610cc3565b600061047191612321600090565b500161114d565b81810292918115918404141715611c6057565b90612344825190565b81101561201d570160200190565b8015611c60576000190190565b610471906123736118fc6104719460ff1690565b901c90565b1561237f57565b60405162461bcd60e51b8152806112d5600482016020808252818101527f537472696e67733a20686578206c656e67746820696e73756666696369656e74604082015260600190565b91906002926123ee61172c6123e5846123e088610cc3565b612328565b61228a87610cc3565b91600090603061240661240084610cc3565b8661233b565b5361243e612435600f60fb1b926123e06001998a95871a61242f61242988610cc3565b8b61233b565b53610cc3565b61228a83610cc3565b905b612462575b506104719394509061245c6118fc61047193610cc3565b14612378565b9161246c86610cc3565b8311156124da576f181899199a1a9b1b9c1cb0b131b232b360811b612491600f610cc3565b821690601082101561201d5787926124b16124ce926124d4941a60f81b90565b851a6124bd878961233b565b536124c86004610b19565b9061235f565b93612352565b90612440565b91612445565b6104719081906001600160a01b031681565b6104716014610b19565b6104716104716104719260ff1690565b6125296125246104719261251e606090565b50610e3a565b6124e0565b6112916125346124f2565b6124fc565b634e487b7160e01b600052601260045260246000fd5b8115612559570490565b612539565b61228a6104719261256d600090565b50808316921861257d6002610cc3565b9061254f565b906125ab6118fc6125a661252460006104719661259e600090565b500194610e3a565b610cc3565b612604565b9160001960089290920291821b911b6113a7565b91906125d36104716113c89390565b9083546125b0565b90815491600160401b83101561058057826125fe91600161045b95018155611ffa565b906125c4565b61261161125a8383612640565b1561263957611bf391611e3a9060016126328461262e84826125db565b5490565b9301611080565b5050600090565b612659916001611bde92612652600090565b5001611080565b6126666118fc6000610cc3565b141590565b906126866118fc6125a661252460006104719661259e600090565b6126f2565b634e487b7160e01b600052603160045260246000fd5b61045b916000916125c4565b805480156126d05760001901906126cd6126c78383611ffa565b906126a1565b55565b61268b565b91906125d36104716113c893610cc3565b61045b916000916126d5565b90612703611bde8260018501611080565b60009261270f84610cc3565b821461275c5761047192612762949261276d92612767600197889361273c61273686610cc3565b8261220a565b8885019161275461274b845490565b6122c689610cc3565b828103612772575b50505090565b6126ad565b01611080565b6126e6565b6125fe61279561279d9461278c612093611e3a9589611ffa565b92839188611ffa565b888801611080565b38808061275c565b6127bb6000610471926127b6600090565b500190565b6000610471916127c9600090565b50015490565b6127f46127ef610471936127ea60006127f9956127b6600090565b6127fe565b6111c7565b611d02565b610e3a565b61047191600061209392612810600090565b5001611ffa565b6104719060081c610b26565b6104719054612817565b1561283457565b60405162461bcd60e51b815260206004820152602e60248201527f496e697469616c697a61626c653a20636f6e747261637420697320616c72656160448201526d191e481a5b9a5d1a585b1a5e995960921b6064820152608490fd5b610b266104716104719260ff1690565b906113c16104716113c892612890565b9061ff009060081b6113a7565b906128cd6104716113c892151590565b82546128b0565b61047490610b19565b60208101929161045b91906128d4565b91612937906128ff61125a6000612823565b9283806129da575b8015612995575b6129179061282d565b6001948461292e61292788610b19565b60006128a0565b612985576129f8565b61293e5750565b6129496000806128bd565b6129807f7f26b83ff96e1f2b6a682f133852f6798a09c465da95921460cefb38474024989161297760405190565b918291826128dd565b0390a1565b6129908660006128bd565b6129f8565b506129aa61125a6129a530610e43565b6120a3565b801561290e57506129176129be6000611114565b6129d26129cb6001610b19565b9160ff1690565b14905061290e565b506129e56000611114565b6129f26129cb6001610b19565b10612907565b919091612a0861060c6000611d0f565b6001600160a01b03831614612b0e57612af092612a2491612c60565b612a2c612b9d565b612a34612b9d565b612a3c612c02565b612a44612bbd565b612a4c612b9d565b612a5881611184610cd0565b612a7081600080516020615df5833981519152611184565b612a8881600080516020615e15833981519152611184565b612aa081600080516020615dd5833981519152611184565b612aca817f9f2df0fed2c77648de5860a4cc508cd0818c85b8b8a1ab4ceeef8d981c8956a6611184565b7fb09aa5aeb3702cfd50b6b62bc4532604938f21248a27a1d5ca736082b6819cc1611184565b61045b612b0669d3c21bcecceda1000000610cc3565b6101f6611dd1565b604051637759ce3f60e01b8152600490fd5b9061045b92916128ed565b15612b3257565b60405162461bcd60e51b815260206004820152602b60248201527f496e697469616c697a61626c653a20636f6e7472616374206973206e6f74206960448201526a6e697469616c697a696e6760a81b6064820152608490fd5b61045b612b986000612823565b612b2b565b61045b612b8b565b612bb2612b986000612823565b61045b61045b612be2565b61045b612ba5565b612bd2612b986000612823565b61045b61045b600061015f6113b1565b61045b612bc5565b612bf7612b986000612823565b61045b61045b612c3c565b61045b612bea565b612c17612b986000612823565b61045b612c29565b6104716001610cc3565b61045b612c34612c1f565b61012d611dd1565b61045b612c0a565b9061045b91612c56612b986000612823565b9061045b91612de0565b9061045b91612c44565b9061045b91612c7c612b986000612823565b612dca565b818110612c8c575050565b80612c9a60006001936126e6565b01612c81565b9190601f8111612caf57505050565b612cc161045b93600052602060002090565b906020601f840181900483019310612ce3575b6020601f909101040190612c81565b9091508190612cd4565b90612cf6815190565b9067ffffffffffffffff821161058057612d1a82612d148554611abd565b85612ca0565b602090601f8311600114612d55576113c8929160009183612d4a575b5050600019600883021c1916906002021790565b015190503880612d36565b601f19831691612d6a85600052602060002090565b9260005b818110612da857509160029391856001969410612d8f575b50505002019055565b01516000196008601f8516021c19169055388080612d86565b91936020600181928787015181550195019201612d6e565b9061045b91612ced565b90612dd961045b926036612dc0565b6037612dc0565b9061045b91612c6a565b5061045b600080516020615df58339815191526111bc565b61045b90612dea565b612e13612e70565b61045b612e1e612ed9565b612c1761045b612f0e565b61045b612e0b565b15612e3857565b60405162461bcd60e51b815260206004820152601060248201526f14185d5cd8589b194e881c185d5cd95960821b6044820152606490fd5b61045b612e7e61125a611a9c565b612e31565b6104716002610cc3565b15612e9457565b60405162461bcd60e51b815260206004820152601f60248201527f5265656e7472616e637947756172643a207265656e7472616e742063616c6c006044820152606490fd5b61045b612ee761012d61114d565b612c34612ef2612e83565b91821415612e8d565b90815260408101929161045b9160200152565b346000612f1a81610cc3565b8214612ff857612f2c82611c79611bbd565b612f3d6118fc6104716101f661114d565b11612fe6573390612f4e8383613056565b816101f791612f7461154b61060c612f6e612f698688611101565b611749565b93611d0f565b14612fc4575b5050612f84611bbd565b612fae7f90890809c654f11d6e72a28fa60149770a0d11ec6c92319d6ceb2bb0a4ea1a1592610e43565b92611a67612fbb60405190565b92839283612efb565b612fd181612fd693611101565b6119ac565b612fdf8161341a565b3881612f7a565b604051636611279d60e11b8152600490fd5b604051630dbaddcd60e41b8152600490fd5b1561301157565b60405162461bcd60e51b815260206004820152601f60248201527f45524332303a206d696e7420746f20746865207a65726f2061646472657373006044820152606490fd5b6130606000611d0f565b61307e6001600160a01b0382166001600160a01b038416141561300a565b613089838383614057565b6130a161309a84611c79603561114d565b6035611dd1565b6130c26130af836033611101565b6130bc8561050c8361114d565b90611dd1565b611e7f611e75611e6f7fddf252ad1be2c89b69c2b068fc378daa952ba7f163c4a11628f55a4df523b3ef93610e43565b61045b91906131207f9f2df0fed2c77648de5860a4cc508cd0818c85b8b8a1ab4ceeef8d981c8956a66111bc565b90612c179161312d612ed9565b61313982611c79611bbd565b61314a6118fc6104716101f661114d565b11612fe6576131598282613056565b6101f78161316a612f698284611101565b61317a61154b61060c6000611d0f565b146131b4575b505061318a611bbd565b612fae7f2e8ac5177a616f2aec08c3048f5021e4e9743ece034e8d83ba5caf76688bb47592610e43565b612fd1816131c193611101565b6131ca8161341a565b3881613180565b9061045b916130f2565b61045b906131e7612e70565b612c17906131f3612ed9565b336131fe8282613383565b6132086000610cc3565b821461324a576132188282613312565b613220611bbd565b612fae7fccbea4088a3b7ae9ca2d15fab9a9742a4075b4d7247768a1eecea917565aba0092610e43565b604051638400dbcb60e01b8152600490fd5b61045b906131db565b1561326c57565b60405162461bcd60e51b815260206004820152602160248201527f45524332303a206275726e2066726f6d20746865207a65726f206164647265736044820152607360f81b6064820152608490fd5b156132c257565b60405162461bcd60e51b815260206004820152602260248201527f45524332303a206275726e20616d6f756e7420657863656564732062616c616e604482015261636560f01b6064820152608490fd5b61331c6000611d0f565b9061333b6001600160a01b0383166001600160a01b0383161415613265565b613346838383614057565b6133726033611e3a8361336c87613360611bde8487611101565b611cfe828210156132bb565b92611101565b6130c261309a84611cfe603561114d565b906118fc6104716133a69261228a611bde61339d87611bc7565b966101fb611101565b106133ad57565b60405163576b7bc760e11b8152600490fd5b916001600160a01b0360089290920291821b911b6113a7565b91906133e96104716113c893610e43565b9083546133bf565b90815491600160401b831015610580578261341491600161045b95018155611ffa565b906133d8565b6101fa61342d61125a6111418484611101565b8061345c575b61343b575050565b6113f88261345461045b9461344f6101f990565b6133f1565b600192611101565b5061346a61060c6000611d0f565b6001600160a01b0383161415613433565b9061349661348a610f77845490565b92600052602060002090565b9060005b8181106134a75750505090565b9091926134d46134cd6001926134bc87611749565b6001600160a01b0316815260200190565b9460010190565b92910161349a565b906104719161347b565b9061045b611b8f926134f760405190565b938480926134dc565b610471906134e6565b61352161047191613518606090565b506101fd611101565b613500565b61045b90613532612e70565b612c179061353e612ed9565b613552565b6000198114611c605760010190565b60009061355e82611d0f565b926001600160a01b0384166001600160a01b03831614613888573393846001600160a01b0384161461387b576135948386613d84565b613869576135a28386613b4c565b613857576101f7906135b7612f698784611101565b9184876135d36135c682611bc7565b946001600160a01b031690565b6001600160a01b0386160361371e575b612fd1906135f093611101565b6135f98461341a565b61360981611e3a886101fb611101565b613625613618856101fc611101565b6130bc83611c798361114d565b61362e85610cc3565b6101f961363c610471825490565b821015613675579061366b876113f86136709461366561365f866101f893611ffa565b90610e0e565b90611101565b613543565b61362e565b50509194909261369c6136db9561369461368e82610cc3565b91610b19565b9085846138eb565b6136a681836138a3565b6136e16136d37f3134e8a2e6d97e929a7e54011ea5485d7d196dd5f0ba4d4ef95803e8e3fc257f93610e43565b958695610e43565b91610e43565b9485926136ed60405190565b600090a4611e7f7ee8ffc569c5f605999e8ad11ec9db2ef2254b66370f5b963df609fa59854eb29161071a60405190565b6001600160a01b0381166001600160a01b0386160361379057806135f09361374e611bde612fd1946101fb611101565b6137578b610cc3565b8111613769575b505b935090506135e3565b61378a90611e3a8461336c6101fc93613785611bde8487611101565b61447e565b3861375e565b6137a19150611bde906101fb611101565b6137aa87610cc3565b81116137ca575b5084612fd1886135f0936137c587836144ca565b613760565b9492909693916137eb6101fc611e3a8461336c8a613785611bde8487611101565b6137f487610cc3565b6101f9613802610471825490565b82101561382a579061366b896113f86138259461366561365f866101f893611ffa565b6137f4565b505091939692612fd1886135f0939561384e84996138478c610b19565b9089613959565b935050506137b1565b604051630759fd5d60e31b8152600490fd5b60405163780249cd60e01b8152600490fd5b509250505061045b613f04565b6040516313c3b02360e21b8152600490fd5b61045b90613526565b906101fe906138bc61125a61114185611c138587611101565b6138c557505050565b82611c13826138e361045b9661344f6104716113f8976101fd611101565b600194611101565b919390926000946138fb86610cc3565b6101f9613909610471825490565b821015613931579061366b886113f861392c9461366561365f866101f893611ffa565b6138fb565b5050919450919261045b93613a31565b61394d9060ff166129cb565b019060ff8211611c6057565b90613965610b26610b2c565b60ff841610158015613a1c575b613a17576001613988816113f8856101f8611101565b613997612f69846101f7611101565b926139a561060c6000611d0f565b6001600160a01b038516141590816139fa575b506139c35750505050565b611eff936139ee6139f4926139e96101fc611e3a8861336c89613785611bde8487611101565b610b19565b90613941565b91613959565b6001600160a01b031690506001600160a01b0384161415386139b8565b505050565b50613a2c611141836101f8611101565b613972565b929190613a3f610b26610b2c565b60ff841610158015613b26575b611ee5576001613a62816113f8876101f8611101565b613a71612f69866101f7611101565b93600095613a8161060c88611d0f565b6001600160a01b03871614159081613b09575b50613aa2575b505050505050565b6139ee613ad892613ab5613ade98610cc3565b8611613ae9575b6139e9613acb886101fc611101565b6130bc87611c798361114d565b92613a31565b388080808080613a9a565b613b046101fc611e3a8961336c8a613785611bde8487611101565b613abc565b6001600160a01b031690506001600160a01b038616141538613a94565b50613b36611141856101f8611101565b613a4c565b60ff1660ff8114611c605760010190565b906001600160a01b0381166001600160a01b038316146126395791600092613b7384610b19565b613b7c85610cc3565b945b6101f9613b8c610471825490565b871015613cbe5761365f87613ba392969596611ffa565b613bac82610b19565b9382945b613bb984611d0f565b926001600160a01b0384166001600160a01b038216141580613ca7575b15613c99576001600160a01b0389166001600160a01b03821614613c8857613c066135c6612f69836101f7611101565b6001600160a01b03851614908115613c6c575b50613c2c57613c2790613b3b565b613bb0565b91509691939492945b80613c5d575b613c53575b50613c4a90613543565b94929091613b7e565b9350613c4a613c40565b5060ff851660ff821611613c3b565b6001600160a01b031690506001600160a01b0384161438613c19565b509150969193506001949294613c35565b509150969193949294613c35565b50613cb3610b26610b2c565b60ff83161115613bd6565b50935090919350613cce83610b19565b613cd784611d0f565b926001600160a01b0384166001600160a01b03821614613d7357613d036135c6612f69836101f7611101565b6001600160a01b03851614908115613d57575b50613d2e57613d27613cd791613b3b565b9050613cce565b9150613d499250613d44905b6139ee6001610b19565b613941565b6120b16129cb610b26610b2c565b6001600160a01b031690506001600160a01b0384161438613d16565b509150613d499250613d4490613d3a565b6001600160a01b0382166001600160a01b03821614612639576101f790613dae612f698484611101565b613dc06001600160a01b03831661154b565b14613efc578291600090613dd382610b19565b935b613de0610b26610b2c565b60ff86161015613eeb57613df7612f698284611101565b90613e0461060c85611d0f565b6001600160a01b03831614908115613ecf575b50613e50576001600160a01b0384166001600160a01b03821614613e4557613e3f9094613b3b565b93613dd5565b505050505050600190565b5091925092610471613e65915b6101fd611101565b613e6e84610cc3565b613e79610471835490565b811015613ec857613e99612f69613e9361365f8486611ffa565b85611101565b613eab6001600160a01b03861661154b565b14613ebe57613eb990613543565b613e6e565b5050505050600190565b5050505090565b6001600160a01b031690506001600160a01b0382161438613e17565b5091925092610471613e6591613e5d565b505050600190565b613fc9613f8d336101f781613f1c612f698284611101565b938492613f8183612fd181613f3081611bc7565b94611c136101fb611e3a613f79613f4a611bde8785611101565b9e8f600091613f5b61060c84611d0f565b6001600160a01b03821614158061403b575b61400f575b5050610cc3565b9c8d92611101565b611e3a836101fc611101565b613f968161341a565b613fc07f3134e8a2e6d97e929a7e54011ea5485d7d196dd5f0ba4d4ef95803e8e3fc257f91610e43565b80958193610e43565b91613fd360405190565b600090a48111613fe1575050565b611a677fe7b379c6c1fa169e9079c25e9143b127637eef8ec8c9d5c06ddb4ab3e11958889161071a60405190565b61402e61403492611e3a8361336c6101fc93613785611bde8487611101565b886144ca565b8f8e613f72565b506001600160a01b0389166001600160a01b0382161415613f6d565b9190916140646000611d0f565b916001600160a01b0383166001600160a01b03831614158061415f575b61412a575b61409190848361417b565b6140a36001600160a01b03831661154b565b14801561410f575b6140b3575050565b6001600160a01b0381166001600160a01b038316141590816140f1575b506140d85750565b806140ec81612fd161045b946101f7611101565b61341a565b905061410861154b6116be612f69856101f7611101565b14386140d0565b506001600160a01b0381166001600160a01b038316146140ab565b61414561413683611bc7565b6122c6611bde856101fb611101565b811115614086575b60405163429cffbd60e01b8152600490fd5b506001600160a01b0383166001600160a01b0385161415614081565b91506141876000611d0f565b6001600160a01b0381166001600160a01b038416036141b357506141ab91506141dd565b61045b6141fd565b6001600160a01b03166001600160a01b038216036141d557506141ab906141dd565b6141dd61045b925b61045b906141f86118fc6141f2836065611101565b92611bc7565b614236565b61045b60666141f86118fc611bbd565b90815491600160401b831015610580578261423091600161045b95018155611ffa565b906126d5565b9061423f612099565b829061424a8261426e565b81116142565750505050565b611eff9361050c6001926142699461420d565b61420d565b805460009061427f6118fc83610cc3565b0361428e576104719150610cc3565b50612093816142ab6142a1610471945490565b6122c66001610cc3565b90611ffa565b6142b9612e70565b61045b6142c4612ed9565b612c176101f76142d7612f693383611101565b6142e033611bc7565b336001600160a01b0383161491828061440b575b611ee557614395611e3a9261437361436c613fc9976143656101fb61431c611bde3383611101565b60009a61432b61060c8d611d0f565b6001600160a01b038b1614159081614402575b506143bf575b5061435b614355611bde3384611101565b9a610cc3565b9889913390611101565b3390611101565b33906119ac565b61437c3361341a565b6130bc61438b336101fc611101565b91611c798361114d565b7f3134e8a2e6d97e929a7e54011ea5485d7d196dd5f0ba4d4ef95803e8e3fc257f613fc033610e43565b6143c88b610cc3565b81116143e0575b506143da88336144ca565b38614344565b6143fc90611e3a8a61336c6101fc93613785611bde8487611101565b386143cf565b9050153861433e565b5061441b611bde336101fb611101565b6144286118fc6000610cc3565b146142f4565b61045b6142b1565b612f6961047191614445600090565b506101f7611101565b611bde6104719161445d600090565b506101fb611101565b611bde61047191614475600090565b506101fc611101565b6000919080821161449357610471925061220a565b505061047190610cc3565b61045b916000916133d8565b805480156126d05760001901906126cd6144c48383611ffa565b9061449e565b906101fe6144df61114184611c138585611101565b6144e857505050565b6144fe82916113f885611c136000958694611101565b6101fd9061451861451261262e8585611101565b91610cc3565b818110156145cd5761453661365f826145318787611101565b611ffa565b6145486001600160a01b03871661154b565b1461455b5761455690613543565b614518565b61045b94509161459193916104719360019161458261047161457c85610cc3565b8361220a565b8210614596575b505050611101565b6144aa565b6145ba61365f6145c5946142ab613414946122c66145b48b8b611101565b93610cc3565b916145318686611101565b388080614589565b5050505050565b9061108290610cc3565b906145e98183611f08565b906145fd612f6984611c13846102006145d4565b8060009161460a83611d0f565b9161461d6001600160a01b03841661154b565b14614688575b6001600160a01b0386166001600160a01b0382161415918261466a575b505061465d5750611bde61047193611c1361228a936102026145d4565b9150506104719150610cc3565b90915061467f906001600160a01b031661154b565b14153880614640565b50614698612f69866101f7611101565b614623565b611bde90611c13610471936146b0600090565b506102016145d4565b611bde90611c13610471936146cc600090565b506102026145d4565b6104716146ed916146e4600090565b506102036145d4565b6146f68161114d565b6147026001830161114d565b9261470f6002840161114d565b9261471c6003820161114d565b926147296004830161114d565b92614742600561473b60068601611749565b940161114d565b9196959493929190565b61047190614767600080516020615dd58339815191526111bc565b5061047161479a565b610471600061474c565b610471612099565b611bde61047191614791600090565b506101ff6145d4565b6147a26147f9565b426147b381611e3a846101ff6145d4565b6147bc82614944565b7f0a5b69dda4109f3b3c9a78321d06fd4c59f56d886e9c6c8abaddd33d3d16c1036147f36147e984610cc3565b9261071a60405190565b0390a290565b614803606861483f565b61480b612099565b7f8030e83b04d87bef53480e26263266d6ca66863aa8506aca6f2559d18aa1cb6761483560405190565b828152602090a190565b61045b906130bc60006148526001610cc3565b92019161050c8361114d565b61047160e0610585565b61487061485e565b906000825260208080808080808801600081520160008152016000815201600081520160008152016000905250565b610471614868565b60ff16612352565b61045b91906149349060c0906006906148ca816130bc875190565b6148dc600182016130bc602088015190565b6148ee600282016130bc604088015190565b614900600382016130bc606088015190565b614912600482016130bc608088015190565b614924600582016130bc60a088015190565b019201516001600160a01b031690565b906119ac565b9061045b916148af565b61494c61489f565b61495b614957611bbd565b8252565b600061496681610cc3565b6101f9614974610471825490565b8210156149f9579061498c61365f826149e294611ffa565b6149d86104718761499c87610cc3565b936149b185611e3a83611c13866102026145d4565b6149d36149c3612f69836101f7611101565b612fd183611c13866102006145d4565b611f08565b116149e757613543565b614966565b61366b6020850161047461366b825190565b505092919092614a0881610cc3565b6101f9614a16610471825490565b821015614af75790614a2e61365f82614a8094611ffa565b614a3d612f69826101f7611101565b6001600160a01b0382166001600160a01b038216148015614ada575b614ad357614a678683611f08565b90614a7186610cc3565b8211614a85575b505050613543565b614a08565b614acb92614aac614a9f611e3a93611c138b6102026145d4565b6130bc85611c798361114d565b614abf60608b0161047485611c79835190565b611c13886102016145d4565b388080614a78565b5050613543565b50614ae761060c86611d0f565b6001600160a01b03821614614a59565b50509192614b05600a610b19565b93600060015b15614c2b575b50838491614b1e86610cc3565b6101f9614b2c610471825490565b821015614c135761365f82614b4092611ffa565b614b4f612f69826101f7611101565b906001600160a01b0381166001600160a01b038316148015614bf6575b614beb5761020291614b85611bde83611c138c876145d4565b9089614b908c610cc3565b8311614baa575b5050505050614ba590613543565b614b1e565b614bdc959850916130bc61438b614bc993611c13611e3a9796896145d4565b611c1389614bd68c610cc3565b946145d4565b600192614ba538808089614b97565b5050614ba590613543565b50614c0361060c8a611d0f565b6001600160a01b03831614614b6c565b505092919095614c22906148a7565b95929192614b0b565b80614dae575b15614c3c5738614b11565b93509091614c4981610cc3565b6101f9614c57610471825490565b821015614d015790614c6f61365f82614c9694611ffa565b614c7e61262e826101fd611101565b614c8a6118fc86610cc3565b11614c9b575b50613543565b614c49565b614cad6040860161047461366b825190565b614cc0611bde82611c13896102026145d4565b9060a08601614cd0610471825190565b8311614cde575b5050614c90565b614cf992614ce99152565b6001600160a01b031660c0860152565b388080614cd7565b50506040614d46614d4c9294939480860190614d276118fc614d21845190565b92610cc3565b11614d76575b614d4286614d3d876102036145d4565b61493a565b5190565b93015190565b612fae7ff5cfb8707de2c8e0baa127121c56855f2d55d4a5855fcf84ad5068a92b1749f592610cc3565b614da9614da2614d9b614d8a60608a015190565b614d95612710610cc3565b90612328565b835161257d565b6080880152565b614d2d565b50614db884610b19565b60ff861611614c31565b9061045b9291614dd0612e70565b9061045b9291614ef3565b9061045b9291614dc2565b15614ded57565b60405162461bcd60e51b815260206004820152602560248201527f45524332303a207472616e736665722066726f6d20746865207a65726f206164604482015264647265737360d81b6064820152608490fd5b15614e4757565b60405162461bcd60e51b815260206004820152602360248201527f45524332303a207472616e7366657220746f20746865207a65726f206164647260448201526265737360e81b6064820152608490fd5b15614e9f57565b60405162461bcd60e51b815260206004820152602660248201527f45524332303a207472616e7366657220616d6f756e7420657863656564732062604482015265616c616e636560d01b6064820152608490fd5b614f32614f21614f036000611d0f565b61060c6001600160a01b0382166001600160a01b0386161415614de6565b6001600160a01b0384161415614e40565b614f3d838383614057565b6130c26130af836033611c13614f6688614f5a611bde8986611101565b611cfe82821015614e98565b611e3a8784611101565b610471929190614f8d600080516020615dd58339815191526111bc565b906104719291614f9b612e70565b506000614fa781611d0f565b906001600160a01b0382166001600160a01b0384161461508057614fca90610cc3565b831461324a57614fdc83611c79611bbd565b614fed6118fc6104716101f661114d565b11612fe657614ffc8383613056565b816101f79161501461154b6116be612f698587611101565b14615063575b5050615024611bbd565b61504e7f2e8ac5177a616f2aec08c3048f5021e4e9743ece034e8d83ba5caf76688bb47592610e43565b9261505b612fbb60405190565b0390a2600190565b612fd18161507093611101565b6150798161341a565b388161501a565b60405163510a1b3160e01b8152600490fd5b61047191906000614f70565b6104719291906150bb600080516020615dd58339815191526111bc565b9061047192916150c9612e70565b5060006150d861060c82611d0f565b6001600160a01b03831614615080576150f081610cc3565b831461324a5781906101fb90615109611bde8484611101565b6151156118fc83610cc3565b11615159575b50508261512791613312565b61512f611bbd565b61504e7fccbea4088a3b7ae9ca2d15fab9a9742a4075b4d7247768a1eecea917565aba0092610e43565b615169610471611bde8585611101565b85106151875761517f9261336c611e3a92610cc3565b80388061511b565b506151a79161519591611101565b6130bc846151a28361114d565b61220a565b61517f565b6104719190600061509e565b610471939291906151d6600080516020615dd58339815191526111bc565b906104719392916151e5612e70565b906151f99392916151f4612ed9565b615202565b9061045b612c29565b50919061522061521184611bc7565b6122c6611bde866101fb611101565b821161414d57611bf392614ddb565b61047192919060006151b8565b6152446152ad565b61524f610471611bbd565b811061529b576152606101f661114d565b9061526d816101f6611dd1565b7fce305764abf66547da36235d52d5ad27cc3e25d38e858959273224cee28d390891612980612fbb60405190565b6040516306e9503d60e51b8152600490fd5b336152c961125a82600080516020615df583398151915261111e565b90816152e9575b506152d757565b60405163bbc418d360e01b8152600490fd5b90506152ff61154b61060c6118576101f5611749565b1415386152d0565b61045b90615322600080516020615df58339815191526111bc565b61532f61060c6000611d0f565b6001600160a01b038216146153975761534f6136db6118576101f5611749565b9061535c826101f56119ac565b6153867fae97011a27b5efe7b1d76fe38e75cc498fd64cc24e407a9c6b2185d27f611f7e91610e43565b9061539060405190565b8080611e7f565b6040516346e2374f60e01b8152600490fd5b61045b90615307565b336153ce61125a82600080516020615df583398151915261111e565b908161543c575b506152d7576153e761060c6000611d0f565b6001600160a01b038216146150805761540e81600080516020615e1583398151915261118e565b6129807f038596bb31e2e7d3d9f184d4c98b310103f6d7f5830e5eec32bffe6f1728f96991610a0e60405190565b905061545261154b61060c6118576101f5611749565b1415386153d5565b3361547661125a82600080516020615df583398151915261111e565b90816154c8575b506152d75761549a81600080516020615e158339815191526112f4565b6129807fb8107d0c6b40be480ce3172ee66ba6d64b71f6b1685a851340036e6e2e3e3c5291610a0e60405190565b90506154de61154b61060c6118576101f5611749565b14153861547d565b906154ef6152ad565b6000916154fe61060c84611d0f565b6001600160a01b0383161461567b57600080516020615df583398151915280821461562f575b50600080516020615dd583398151915292838214615548575b5061045b92506112f4565b615551846110b0565b936001946155616118fc87610cc3565b111561561d578461557260006145b4565b905b6155c2575b505061045b93507fb042dff0d2902dfbafc756c90710226f7608e411649827085ed69e60e56e0426906155ae6136db85610e43565b916155b860405190565b600090a33861553d565b6155ce610471836110b0565b811015615618576155df8183611090565b6001600160a01b0386166001600160a01b03821603615608575061560290613543565b85615574565b9250505061045b93503880615579565b615579565b6040516311dc27c360e31b8152600490fd5b615638906110b0565b6156456118fc6001610cc3565b111580615669575b6156575738615524565b6040516355c75e4960e11b8152600490fd5b50336001600160a01b0383161461564d565b604051632caaec1f60e01b8152600490fd5b6156956152ad565b6156a261060c6000611d0f565b6001600160a01b03831614615714576156bb828261118e565b6156d2600080516020615dd58339815191526118fc565b146156da5750565b600190611a6761570a7f22d9b439781dfd20c33ba7fefff7ab8e9457457e39cb3f8e941e33ef30e98cd892610e43565b9261049760405190565b6040516308493fe360e11b8152600490fd5b3361574261125a82600080516020615e1583398151915261111e565b908161578c575b8161576e575b5061575c5761045b6157f6565b604051631ad9f70760e11b8152600490fd5b905061578461154b61060c6118576101f5611749565b14153861574f565b90506157a961125a82600080516020615df583398151915261111e565b90615749565b6157b7612e70565b61045b6157c7600161015f6113b1565b336129807f62e78cea01bee320cd4e420270b5ea74000d11b0c9f74754ebdbfc544b05a25891610a0e60405190565b61045b6157af565b3361581a61125a82600080516020615df583398151915261111e565b908161582e575b506152d75761045b615893565b905061584461154b61060c6118576101f5611749565b141538615821565b6158546158de565b61045b615864600061015f6113b1565b336129807f5db9ee0a495bf2e6ff9c91a7834c1ba4fdd244a5e8aa4e537bd38aeae4b073aa91610a0e60405190565b61045b61584c565b156158a257565b60405162461bcd60e51b815260206004820152601460248201527314185d5cd8589b194e881b9bdd081c185d5cd95960621b6044820152606490fd5b61045b6158e9611a9c565b61589b565b615905600080516020615df58339815191526111bc565b61045b615910612ed9565b612c1761591c30610e43565b31600061592881610cc3565b82146159b857806159a092615978336159617fb3579861130e4da8bb7b87c54d2d139937f23bcd6e4ebed9e75d0f78ab1cc11891610e43565b809161596c60405190565b858152602090a2610e43565b615983617530610cc3565b9161598d60405190565b9182800393f161599b612112565b501590565b6159a657565b6040516303d7623160e11b8152600490fd5b6040516306a41a2160e11b8152600490fd5b61045b6158ee565b61045b906159ed600080516020615df58339815191526111bc565b612c17906159f9612ed9565b6000615a0761060c82611d0f565b6001600160a01b03831614615b0457615a22615a6e92610e43565b906020615a2e83610e43565b6370a0823190615a57615a4030610e43565b92615a4a60405190565b9788948593849360e01b90565b83526001600160a01b031660048301526024820190565b03915afa928315615aff578193615adb575b50615a8a90610cc3565b8214615ac95733615a9c838284615b62565b611e7f611e757f8bbfbb5d7fcacf6fc74005cdede0635561638507f576c95f7f294c22141be2e592610e43565b60405163066a380560e11b8152600490fd5b615a8a919350615af89060203d811161193457611925818361055e565b9290615a80565b6117b3565b60405163a8fa826d60e01b8152600490fd5b61045b906159d2565b615b38615b326104719263ffffffff1690565b60e01b90565b6001600160e01b03191690565b6001600160a01b03909116815260408101929161045b9160200152565b615ba5600492615b9661045b95615b7c63a9059cbb615b1f565b92615b8660405190565b9687946020860190815201615b45565b6020820181038252038361055e565b615c6d565b615bb460206116d6565b7f5361666545524332303a206c6f772d6c6576656c2063616c6c206661696c6564602082015290565b610471615baa565b801515610442565b9050519061045b82615be5565b906020828203126104495761047191615bed565b15615c1557565b60405162461bcd60e51b815260206004820152602a60248201527f5361666545524332303a204552433230206f7065726174696f6e20646964206e6044820152691bdd081cdd58d8d9595960b21b6064820152608490fd5b61045b91615c7d615c8c92610e43565b90615c86615bdd565b91615cca565b8051615c9b6118fc6000610cc3565b14908115615caa575b50615c0e565b615cc491506020615cb9825190565b818301019101615bfa565b38615ca4565b6104719291615cd96000610cc3565b91615d3a565b15615ce657565b60405162461bcd60e51b815260206004820152602660248201527f416464726573733a20696e73756666696369656e742062616c616e636520666f6044820152651c8818d85b1b60d21b6064820152608490fd5b90600061047194938192615d4c606090565b50615d63615d5930610e43565b8390311015615cdf565b60208101905191855af1612153612112565b615d7d612e70565b61045b34615d8b6000610cc3565b8111615d945750565b7fe7b3b57577ad57e4de60cc81cd73456448c8cfb13bad2904338c9988b274bbae615dc16147e933610e43565b0390a261045b612f0e565b61045b615d7556fe71840dc4906352362b0cdaf79870196c8e42acafade72d5d5a6d59291253ceb1a49807205ce4d355092ef5a8a18f56e8913cf4a201fbe287825b095693c2177555435dd261a4b9b3364963f7738a7a662ad9c84396d64be3365284bb7f0a5041a164736f6c6343000814000a",
  "linkReferences": {},
  "deployedLinkReferences": {}
}