{
  "_format": "hh-sol-artifact-1",
  "contractName": "JustTimelockUpgradeable",
  "sourceName": "contracts/JustTimelockUpgradeable.sol",
  "abi": [
    {
      "inputs": [
        {
          "internalType": "bytes32",
          "name": "txHash",
          "type": "bytes32"
        }
      ],
      "name": "AlreadyCanceled",
      "type": "error"
    },
    {
      "inputs": [
        {
          "internalType": "address",
          "name": "target",
          "type": "address"
        },
        {
          "internalType": "bytes",
          "name": "data",
          "type": "bytes"
        }
      ],
      "name": "CallFailed",
      "type": "error"
    },
    {
      "inputs": [],
      "name": "DelayHierarchyViolation",
      "type": "error"
    },
    {
      "inputs": [
        {
          "internalType": "uint256",
          "name": "provided",
          "type": "uint256"
        },
        {
          "internalType": "uint256",
          "name": "maximum",
          "type": "uint256"
        }
      ],
      "name": "DelayTooLong",
      "type": "error"
    },
    {
      "inputs": [
        {
          "internalType": "uint256",
          "name": "provided",
          "type": "uint256"
        },
        {
          "internalType": "uint256",
          "name": "minimum",
          "type": "uint256"
        }
      ],
      "name": "DelayTooShort",
      "type": "error"
    },
    {
      "inputs": [],
      "name": "InvalidParams",
      "type": "error"
    },
    {
      "inputs": [
        {
          "internalType": "address",
          "name": "caller",
          "type": "address"
        }
      ],
      "name": "NoTokenHolding",
      "type": "error"
    },
    {
      "inputs": [
        {
          "internalType": "address",
          "name": "caller",
          "type": "address"
        },
        {
          "internalType": "bytes32",
          "name": "role",
          "type": "bytes32"
        }
      ],
      "name": "NotAuthorized",
      "type": "error"
    },
    {
      "inputs": [
        {
          "internalType": "bytes32",
          "name": "txHash",
          "type": "bytes32"
        },
        {
          "internalType": "uint256",
          "name": "eta",
          "type": "uint256"
        },
        {
          "internalType": "uint256",
          "name": "gracePeriod",
          "type": "uint256"
        },
        {
          "internalType": "uint256",
          "name": "currentTime",
          "type": "uint256"
        }
      ],
      "name": "TransactionNotExpired",
      "type": "error"
    },
    {
      "inputs": [
        {
          "internalType": "bytes32",
          "name": "txHash",
          "type": "bytes32"
        }
      ],
      "name": "TransactionNotPreviouslyFailed",
      "type": "error"
    },
    {
      "inputs": [
        {
          "internalType": "bytes32",
          "name": "txHash",
          "type": "bytes32"
        }
      ],
      "name": "TxAlreadyExecuted",
      "type": "error"
    },
    {
      "inputs": [
        {
          "internalType": "bytes32",
          "name": "txHash",
          "type": "bytes32"
        }
      ],
      "name": "TxAlreadyQueued",
      "type": "error"
    },
    {
      "inputs": [
        {
          "internalType": "bytes32",
          "name": "txHash",
          "type": "bytes32"
        },
        {
          "internalType": "uint256",
          "name": "eta",
          "type": "uint256"
        },
        {
          "internalType": "uint256",
          "name": "gracePeriod",
          "type": "uint256"
        },
        {
          "internalType": "uint256",
          "name": "currentTime",
          "type": "uint256"
        }
      ],
      "name": "TxExpired",
      "type": "error"
    },
    {
      "inputs": [
        {
          "internalType": "bytes32",
          "name": "txHash",
          "type": "bytes32"
        }
      ],
      "name": "TxNotQueued",
      "type": "error"
    },
    {
      "inputs": [
        {
          "internalType": "bytes32",
          "name": "txHash",
          "type": "bytes32"
        },
        {
          "internalType": "uint256",
          "name": "eta",
          "type": "uint256"
        },
        {
          "internalType": "uint256",
          "name": "currentTime",
          "type": "uint256"
        }
      ],
      "name": "TxNotReady",
      "type": "error"
    },
    {
      "inputs": [
        {
          "internalType": "string",
          "name": "param",
          "type": "string"
        }
      ],
      "name": "ZeroAddress",
      "type": "error"
    },
    {
      "inputs": [],
      "name": "ZeroDelay",
      "type": "error"
    },
    {
      "anonymous": false,
      "inputs": [
        {
          "indexed": true,
          "internalType": "address",
          "name": "target",
          "type": "address"
        },
        {
          "indexed": false,
          "internalType": "enum JustTimelockUpgradeable.ThreatLevel",
          "name": "level",
          "type": "uint8"
        }
      ],
      "name": "AddressThreatLevelSet",
      "type": "event"
    },
    {
      "anonymous": false,
      "inputs": [
        {
          "indexed": false,
          "internalType": "address",
          "name": "previousAdmin",
          "type": "address"
        },
        {
          "indexed": false,
          "internalType": "address",
          "name": "newAdmin",
          "type": "address"
        }
      ],
      "name": "AdminChanged",
      "type": "event"
    },
    {
      "anonymous": false,
      "inputs": [
        {
          "indexed": true,
          "internalType": "address",
          "name": "beacon",
          "type": "address"
        }
      ],
      "name": "BeaconUpgraded",
      "type": "event"
    },
    {
      "anonymous": false,
      "inputs": [
        {
          "indexed": true,
          "internalType": "address",
          "name": "admin",
          "type": "address"
        },
        {
          "indexed": false,
          "internalType": "uint256",
          "name": "minDelay",
          "type": "uint256"
        }
      ],
      "name": "ContractInitialized",
      "type": "event"
    },
    {
      "anonymous": false,
      "inputs": [
        {
          "indexed": true,
          "internalType": "address",
          "name": "guardian",
          "type": "address"
        }
      ],
      "name": "ContractPaused",
      "type": "event"
    },
    {
      "anonymous": false,
      "inputs": [
        {
          "indexed": true,
          "internalType": "address",
          "name": "guardian",
          "type": "address"
        }
      ],
      "name": "ContractUnpaused",
      "type": "event"
    },
    {
      "anonymous": false,
      "inputs": [
        {
          "indexed": false,
          "internalType": "uint256",
          "name": "newMinDelay",
          "type": "uint256"
        },
        {
          "indexed": false,
          "internalType": "uint256",
          "name": "newMaxDelay",
          "type": "uint256"
        },
        {
          "indexed": false,
          "internalType": "uint256",
          "name": "newGracePeriod",
          "type": "uint256"
        }
      ],
      "name": "DelaysUpdated",
      "type": "event"
    },
    {
      "anonymous": false,
      "inputs": [
        {
          "indexed": false,
          "internalType": "uint256",
          "name": "newThreshold",
          "type": "uint256"
        }
      ],
      "name": "ExecutorThresholdUpdated",
      "type": "event"
    },
    {
      "anonymous": false,
      "inputs": [
        {
          "indexed": true,
          "internalType": "bytes32",
          "name": "txHash",
          "type": "bytes32"
        },
        {
          "indexed": true,
          "internalType": "address",
          "name": "target",
          "type": "address"
        },
        {
          "indexed": false,
          "internalType": "uint256",
          "name": "value",
          "type": "uint256"
        },
        {
          "indexed": false,
          "internalType": "bytes",
          "name": "data",
          "type": "bytes"
        }
      ],
      "name": "ExpiredTransactionExecuted",
      "type": "event"
    },
    {
      "anonymous": false,
      "inputs": [
        {
          "indexed": true,
          "internalType": "bytes32",
          "name": "txHash",
          "type": "bytes32"
        },
        {
          "indexed": true,
          "internalType": "address",
          "name": "target",
          "type": "address"
        },
        {
          "indexed": false,
          "internalType": "uint256",
          "name": "value",
          "type": "uint256"
        },
        {
          "indexed": false,
          "internalType": "bytes",
          "name": "data",
          "type": "bytes"
        }
      ],
      "name": "FailedTransactionRetried",
      "type": "event"
    },
    {
      "anonymous": false,
      "inputs": [
        {
          "indexed": true,
          "internalType": "bytes4",
          "name": "selector",
          "type": "bytes4"
        },
        {
          "indexed": false,
          "internalType": "enum JustTimelockUpgradeable.ThreatLevel",
          "name": "level",
          "type": "uint8"
        }
      ],
      "name": "FunctionThreatLevelSet",
      "type": "event"
    },
    {
      "anonymous": false,
      "inputs": [
        {
          "indexed": true,
          "internalType": "address",
          "name": "account",
          "type": "address"
        },
        {
          "indexed": false,
          "internalType": "bool",
          "name": "isGranted",
          "type": "bool"
        }
      ],
      "name": "GovernanceRoleChanged",
      "type": "event"
    },
    {
      "anonymous": false,
      "inputs": [
        {
          "indexed": true,
          "internalType": "address",
          "name": "oldGovernance",
          "type": "address"
        },
        {
          "indexed": true,
          "internalType": "address",
          "name": "newGovernance",
          "type": "address"
        }
      ],
      "name": "GovernanceRoleTransferred",
      "type": "event"
    },
    {
      "anonymous": false,
      "inputs": [
        {
          "indexed": false,
          "internalType": "uint8",
          "name": "version",
          "type": "uint8"
        }
      ],
      "name": "Initialized",
      "type": "event"
    },
    {
      "anonymous": false,
      "inputs": [
        {
          "indexed": true,
          "internalType": "address",
          "name": "tokenAddress",
          "type": "address"
        }
      ],
      "name": "JustTokenSet",
      "type": "event"
    },
    {
      "anonymous": false,
      "inputs": [
        {
          "indexed": false,
          "internalType": "address",
          "name": "account",
          "type": "address"
        }
      ],
      "name": "Paused",
      "type": "event"
    },
    {
      "anonymous": false,
      "inputs": [
        {
          "indexed": true,
          "internalType": "bytes32",
          "name": "role",
          "type": "bytes32"
        },
        {
          "indexed": true,
          "internalType": "bytes32",
          "name": "previousAdminRole",
          "type": "bytes32"
        },
        {
          "indexed": true,
          "internalType": "bytes32",
          "name": "newAdminRole",
          "type": "bytes32"
        }
      ],
      "name": "RoleAdminChanged",
      "type": "event"
    },
    {
      "anonymous": false,
      "inputs": [
        {
          "indexed": true,
          "internalType": "bytes32",
          "name": "role",
          "type": "bytes32"
        },
        {
          "indexed": true,
          "internalType": "address",
          "name": "account",
          "type": "address"
        },
        {
          "indexed": true,
          "internalType": "address",
          "name": "sender",
          "type": "address"
        }
      ],
      "name": "RoleGranted",
      "type": "event"
    },
    {
      "anonymous": false,
      "inputs": [
        {
          "indexed": true,
          "internalType": "bytes32",
          "name": "role",
          "type": "bytes32"
        },
        {
          "indexed": true,
          "internalType": "address",
          "name": "account",
          "type": "address"
        }
      ],
      "name": "RoleGranted",
      "type": "event"
    },
    {
      "anonymous": false,
      "inputs": [
        {
          "indexed": true,
          "internalType": "bytes32",
          "name": "role",
          "type": "bytes32"
        },
        {
          "indexed": true,
          "internalType": "address",
          "name": "account",
          "type": "address"
        },
        {
          "indexed": true,
          "internalType": "address",
          "name": "sender",
          "type": "address"
        }
      ],
      "name": "RoleRevoked",
      "type": "event"
    },
    {
      "anonymous": false,
      "inputs": [
        {
          "indexed": true,
          "internalType": "bytes32",
          "name": "role",
          "type": "bytes32"
        },
        {
          "indexed": true,
          "internalType": "address",
          "name": "account",
          "type": "address"
        }
      ],
      "name": "RoleRevoked",
      "type": "event"
    },
    {
      "anonymous": false,
      "inputs": [
        {
          "indexed": false,
          "internalType": "uint256",
          "name": "lowDelay",
          "type": "uint256"
        },
        {
          "indexed": false,
          "internalType": "uint256",
          "name": "mediumDelay",
          "type": "uint256"
        },
        {
          "indexed": false,
          "internalType": "uint256",
          "name": "highDelay",
          "type": "uint256"
        },
        {
          "indexed": false,
          "internalType": "uint256",
          "name": "criticalDelay",
          "type": "uint256"
        }
      ],
      "name": "ThreatLevelDelaysUpdated",
      "type": "event"
    },
    {
      "anonymous": false,
      "inputs": [
        {
          "indexed": true,
          "internalType": "bytes32",
          "name": "txHash",
          "type": "bytes32"
        }
      ],
      "name": "TransactionCanceled",
      "type": "event"
    },
    {
      "anonymous": false,
      "inputs": [
        {
          "indexed": true,
          "internalType": "bytes32",
          "name": "txHash",
          "type": "bytes32"
        },
        {
          "indexed": true,
          "internalType": "address",
          "name": "target",
          "type": "address"
        },
        {
          "indexed": false,
          "internalType": "uint256",
          "name": "value",
          "type": "uint256"
        },
        {
          "indexed": false,
          "internalType": "bytes",
          "name": "data",
          "type": "bytes"
        }
      ],
      "name": "TransactionExecuted",
      "type": "event"
    },
    {
      "anonymous": false,
      "inputs": [
        {
          "indexed": true,
          "internalType": "bytes32",
          "name": "txHash",
          "type": "bytes32"
        },
        {
          "indexed": true,
          "internalType": "address",
          "name": "target",
          "type": "address"
        },
        {
          "indexed": false,
          "internalType": "string",
          "name": "reason",
          "type": "string"
        }
      ],
      "name": "TransactionExecutionFailed",
      "type": "event"
    },
    {
      "anonymous": false,
      "inputs": [
        {
          "indexed": true,
          "internalType": "bytes32",
          "name": "txHash",
          "type": "bytes32"
        },
        {
          "indexed": true,
          "internalType": "address",
          "name": "target",
          "type": "address"
        },
        {
          "indexed": false,
          "internalType": "uint256",
          "name": "value",
          "type": "uint256"
        },
        {
          "indexed": false,
          "internalType": "bytes",
          "name": "data",
          "type": "bytes"
        },
        {
          "indexed": false,
          "internalType": "uint256",
          "name": "eta",
          "type": "uint256"
        },
        {
          "indexed": false,
          "internalType": "enum JustTimelockUpgradeable.ThreatLevel",
          "name": "threatLevel",
          "type": "uint8"
        }
      ],
      "name": "TransactionQueued",
      "type": "event"
    },
    {
      "anonymous": false,
      "inputs": [
        {
          "indexed": true,
          "internalType": "bytes32",
          "name": "txHash",
          "type": "bytes32"
        },
        {
          "indexed": true,
          "internalType": "address",
          "name": "proposer",
          "type": "address"
        }
      ],
      "name": "TransactionSubmitted",
      "type": "event"
    },
    {
      "anonymous": false,
      "inputs": [
        {
          "indexed": false,
          "internalType": "address",
          "name": "account",
          "type": "address"
        }
      ],
      "name": "Unpaused",
      "type": "event"
    },
    {
      "anonymous": false,
      "inputs": [
        {
          "indexed": true,
          "internalType": "address",
          "name": "implementation",
          "type": "address"
        }
      ],
      "name": "Upgraded",
      "type": "event"
    },
    {
      "inputs": [],
      "name": "ADMIN_ROLE",
      "outputs": [
        {
          "internalType": "bytes32",
          "name": "",
          "type": "bytes32"
        }
      ],
      "stateMutability": "view",
      "type": "function"
    },
    {
      "inputs": [],
      "name": "CANCELLER_ROLE",
      "outputs": [
        {
          "internalType": "bytes32",
          "name": "",
          "type": "bytes32"
        }
      ],
      "stateMutability": "view",
      "type": "function"
    },
    {
      "inputs": [],
      "name": "DEFAULT_ADMIN_ROLE",
      "outputs": [
        {
          "internalType": "bytes32",
          "name": "",
          "type": "bytes32"
        }
      ],
      "stateMutability": "view",
      "type": "function"
    },
    {
      "inputs": [],
      "name": "EXECUTOR_ROLE",
      "outputs": [
        {
          "internalType": "bytes32",
          "name": "",
          "type": "bytes32"
        }
      ],
      "stateMutability": "view",
      "type": "function"
    },
    {
      "inputs": [],
      "name": "GOVERNANCE_ROLE",
      "outputs": [
        {
          "internalType": "bytes32",
          "name": "",
          "type": "bytes32"
        }
      ],
      "stateMutability": "view",
      "type": "function"
    },
    {
      "inputs": [],
      "name": "GUARDIAN_ROLE",
      "outputs": [
        {
          "internalType": "bytes32",
          "name": "",
          "type": "bytes32"
        }
      ],
      "stateMutability": "view",
      "type": "function"
    },
    {
      "inputs": [],
      "name": "MINTER_ROLE",
      "outputs": [
        {
          "internalType": "bytes32",
          "name": "",
          "type": "bytes32"
        }
      ],
      "stateMutability": "view",
      "type": "function"
    },
    {
      "inputs": [],
      "name": "PROPOSER_ROLE",
      "outputs": [
        {
          "internalType": "bytes32",
          "name": "",
          "type": "bytes32"
        }
      ],
      "stateMutability": "view",
      "type": "function"
    },
    {
      "inputs": [],
      "name": "TIMELOCK_ADMIN_ROLE",
      "outputs": [
        {
          "internalType": "bytes32",
          "name": "",
          "type": "bytes32"
        }
      ],
      "stateMutability": "view",
      "type": "function"
    },
    {
      "inputs": [
        {
          "internalType": "address",
          "name": "",
          "type": "address"
        }
      ],
      "name": "addressThreatLevels",
      "outputs": [
        {
          "internalType": "enum JustTimelockUpgradeable.ThreatLevel",
          "name": "",
          "type": "uint8"
        }
      ],
      "stateMutability": "view",
      "type": "function"
    },
    {
      "inputs": [
        {
          "internalType": "bytes32",
          "name": "txHash",
          "type": "bytes32"
        }
      ],
      "name": "cancelTransaction",
      "outputs": [],
      "stateMutability": "nonpayable",
      "type": "function"
    },
    {
      "inputs": [],
      "name": "criticalThreatDelay",
      "outputs": [
        {
          "internalType": "uint256",
          "name": "",
          "type": "uint256"
        }
      ],
      "stateMutability": "view",
      "type": "function"
    },
    {
      "inputs": [
        {
          "internalType": "bytes32",
          "name": "txHash",
          "type": "bytes32"
        }
      ],
      "name": "executeExpiredTransaction",
      "outputs": [
        {
          "internalType": "bytes",
          "name": "returnData",
          "type": "bytes"
        }
      ],
      "stateMutability": "nonpayable",
      "type": "function"
    },
    {
      "inputs": [
        {
          "internalType": "bytes32",
          "name": "txHash",
          "type": "bytes32"
        }
      ],
      "name": "executeFailedTransaction",
      "outputs": [
        {
          "internalType": "bytes",
          "name": "returnData",
          "type": "bytes"
        }
      ],
      "stateMutability": "nonpayable",
      "type": "function"
    },
    {
      "inputs": [
        {
          "internalType": "bytes32",
          "name": "txHash",
          "type": "bytes32"
        }
      ],
      "name": "executeTransaction",
      "outputs": [
        {
          "internalType": "bytes",
          "name": "returnData",
          "type": "bytes"
        }
      ],
      "stateMutability": "nonpayable",
      "type": "function"
    },
    {
      "inputs": [
        {
          "internalType": "bytes4",
          "name": "",
          "type": "bytes4"
        }
      ],
      "name": "functionThreatLevels",
      "outputs": [
        {
          "internalType": "enum JustTimelockUpgradeable.ThreatLevel",
          "name": "",
          "type": "uint8"
        }
      ],
      "stateMutability": "view",
      "type": "function"
    },
    {
      "inputs": [
        {
          "internalType": "enum JustTimelockUpgradeable.ThreatLevel",
          "name": "level",
          "type": "uint8"
        }
      ],
      "name": "getDelayForThreatLevel",
      "outputs": [
        {
          "internalType": "uint256",
          "name": "",
          "type": "uint256"
        }
      ],
      "stateMutability": "view",
      "type": "function"
    },
    {
      "inputs": [
        {
          "internalType": "bytes32",
          "name": "role",
          "type": "bytes32"
        }
      ],
      "name": "getRoleAdmin",
      "outputs": [
        {
          "internalType": "bytes32",
          "name": "",
          "type": "bytes32"
        }
      ],
      "stateMutability": "view",
      "type": "function"
    },
    {
      "inputs": [
        {
          "internalType": "bytes32",
          "name": "role",
          "type": "bytes32"
        },
        {
          "internalType": "uint256",
          "name": "index",
          "type": "uint256"
        }
      ],
      "name": "getRoleMember",
      "outputs": [
        {
          "internalType": "address",
          "name": "",
          "type": "address"
        }
      ],
      "stateMutability": "view",
      "type": "function"
    },
    {
      "inputs": [
        {
          "internalType": "bytes32",
          "name": "role",
          "type": "bytes32"
        }
      ],
      "name": "getRoleMemberCount",
      "outputs": [
        {
          "internalType": "uint256",
          "name": "",
          "type": "uint256"
        }
      ],
      "stateMutability": "view",
      "type": "function"
    },
    {
      "inputs": [
        {
          "internalType": "address",
          "name": "target",
          "type": "address"
        },
        {
          "internalType": "bytes",
          "name": "data",
          "type": "bytes"
        }
      ],
      "name": "getThreatLevel",
      "outputs": [
        {
          "internalType": "enum JustTimelockUpgradeable.ThreatLevel",
          "name": "",
          "type": "uint8"
        }
      ],
      "stateMutability": "view",
      "type": "function"
    },
    {
      "inputs": [
        {
          "internalType": "bytes32",
          "name": "txHash",
          "type": "bytes32"
        }
      ],
      "name": "getTransaction",
      "outputs": [
        {
          "internalType": "address",
          "name": "target",
          "type": "address"
        },
        {
          "internalType": "uint256",
          "name": "value",
          "type": "uint256"
        },
        {
          "internalType": "bytes",
          "name": "data",
          "type": "bytes"
        },
        {
          "internalType": "uint256",
          "name": "eta",
          "type": "uint256"
        },
        {
          "internalType": "bool",
          "name": "executed",
          "type": "bool"
        }
      ],
      "stateMutability": "view",
      "type": "function"
    },
    {
      "inputs": [],
      "name": "gracePeriod",
      "outputs": [
        {
          "internalType": "uint256",
          "name": "",
          "type": "uint256"
        }
      ],
      "stateMutability": "view",
      "type": "function"
    },
    {
      "inputs": [
        {
          "internalType": "bytes32",
          "name": "role",
          "type": "bytes32"
        },
        {
          "internalType": "address",
          "name": "account",
          "type": "address"
        }
      ],
      "name": "grantContractRole",
      "outputs": [],
      "stateMutability": "nonpayable",
      "type": "function"
    },
    {
      "inputs": [
        {
          "internalType": "bytes32",
          "name": "role",
          "type": "bytes32"
        },
        {
          "internalType": "address",
          "name": "account",
          "type": "address"
        }
      ],
      "name": "grantRole",
      "outputs": [],
      "stateMutability": "nonpayable",
      "type": "function"
    },
    {
      "inputs": [
        {
          "internalType": "bytes32",
          "name": "role",
          "type": "bytes32"
        },
        {
          "internalType": "address",
          "name": "account",
          "type": "address"
        }
      ],
      "name": "hasRole",
      "outputs": [
        {
          "internalType": "bool",
          "name": "",
          "type": "bool"
        }
      ],
      "stateMutability": "view",
      "type": "function"
    },
    {
      "inputs": [],
      "name": "highThreatDelay",
      "outputs": [
        {
          "internalType": "uint256",
          "name": "",
          "type": "uint256"
        }
      ],
      "stateMutability": "view",
      "type": "function"
    },
    {
      "inputs": [
        {
          "internalType": "uint256",
          "name": "initialMinDelay",
          "type": "uint256"
        },
        {
          "internalType": "address[]",
          "name": "proposers",
          "type": "address[]"
        },
        {
          "internalType": "address[]",
          "name": "executors",
          "type": "address[]"
        },
        {
          "internalType": "address",
          "name": "admin",
          "type": "address"
        }
      ],
      "name": "initialize",
      "outputs": [],
      "stateMutability": "nonpayable",
      "type": "function"
    },
    {
      "inputs": [
        {
          "internalType": "address",
          "name": "user",
          "type": "address"
        }
      ],
      "name": "isAuthorizedByTokens",
      "outputs": [
        {
          "internalType": "bool",
          "name": "",
          "type": "bool"
        }
      ],
      "stateMutability": "view",
      "type": "function"
    },
    {
      "inputs": [],
      "name": "justToken",
      "outputs": [
        {
          "internalType": "contract JustTokenInterface",
          "name": "",
          "type": "address"
        }
      ],
      "stateMutability": "view",
      "type": "function"
    },
    {
      "inputs": [],
      "name": "lowThreatDelay",
      "outputs": [
        {
          "internalType": "uint256",
          "name": "",
          "type": "uint256"
        }
      ],
      "stateMutability": "view",
      "type": "function"
    },
    {
      "inputs": [
        {
          "internalType": "bytes32",
          "name": "txHash",
          "type": "bytes32"
        }
      ],
      "name": "markTransactionAsFailed",
      "outputs": [],
      "stateMutability": "nonpayable",
      "type": "function"
    },
    {
      "inputs": [],
      "name": "maxDelay",
      "outputs": [
        {
          "internalType": "uint256",
          "name": "",
          "type": "uint256"
        }
      ],
      "stateMutability": "view",
      "type": "function"
    },
    {
      "inputs": [],
      "name": "mediumThreatDelay",
      "outputs": [
        {
          "internalType": "uint256",
          "name": "",
          "type": "uint256"
        }
      ],
      "stateMutability": "view",
      "type": "function"
    },
    {
      "inputs": [],
      "name": "minDelay",
      "outputs": [
        {
          "internalType": "uint256",
          "name": "",
          "type": "uint256"
        }
      ],
      "stateMutability": "view",
      "type": "function"
    },
    {
      "inputs": [],
      "name": "minExecutorTokenThreshold",
      "outputs": [
        {
          "internalType": "uint256",
          "name": "",
          "type": "uint256"
        }
      ],
      "stateMutability": "view",
      "type": "function"
    },
    {
      "inputs": [],
      "name": "paused",
      "outputs": [
        {
          "internalType": "bool",
          "name": "",
          "type": "bool"
        }
      ],
      "stateMutability": "view",
      "type": "function"
    },
    {
      "inputs": [],
      "name": "proxiableUUID",
      "outputs": [
        {
          "internalType": "bytes32",
          "name": "",
          "type": "bytes32"
        }
      ],
      "stateMutability": "view",
      "type": "function"
    },
    {
      "inputs": [
        {
          "internalType": "uint256",
          "name": "newMinDelay",
          "type": "uint256"
        },
        {
          "internalType": "uint256",
          "name": "newMaxDelay",
          "type": "uint256"
        },
        {
          "internalType": "uint256",
          "name": "newGracePeriod",
          "type": "uint256"
        }
      ],
      "name": "queueDelayUpdate",
      "outputs": [
        {
          "internalType": "bytes32",
          "name": "",
          "type": "bytes32"
        }
      ],
      "stateMutability": "nonpayable",
      "type": "function"
    },
    {
      "inputs": [
        {
          "internalType": "uint256",
          "name": "newLowDelay",
          "type": "uint256"
        },
        {
          "internalType": "uint256",
          "name": "newMediumDelay",
          "type": "uint256"
        },
        {
          "internalType": "uint256",
          "name": "newHighDelay",
          "type": "uint256"
        },
        {
          "internalType": "uint256",
          "name": "newCriticalDelay",
          "type": "uint256"
        }
      ],
      "name": "queueThreatLevelDelaysUpdate",
      "outputs": [
        {
          "internalType": "bytes32",
          "name": "",
          "type": "bytes32"
        }
      ],
      "stateMutability": "nonpayable",
      "type": "function"
    },
    {
      "inputs": [
        {
          "internalType": "address",
          "name": "target",
          "type": "address"
        },
        {
          "internalType": "uint256",
          "name": "value",
          "type": "uint256"
        },
        {
          "internalType": "bytes",
          "name": "data",
          "type": "bytes"
        },
        {
          "internalType": "uint256",
          "name": "delay",
          "type": "uint256"
        }
      ],
      "name": "queueTransaction",
      "outputs": [
        {
          "internalType": "bytes32",
          "name": "",
          "type": "bytes32"
        }
      ],
      "stateMutability": "nonpayable",
      "type": "function"
    },
    {
      "inputs": [
        {
          "internalType": "bytes32",
          "name": "",
          "type": "bytes32"
        }
      ],
      "name": "queuedTransactions",
      "outputs": [
        {
          "internalType": "bool",
          "name": "",
          "type": "bool"
        }
      ],
      "stateMutability": "view",
      "type": "function"
    },
    {
      "inputs": [
        {
          "internalType": "bytes32",
          "name": "role",
          "type": "bytes32"
        },
        {
          "internalType": "address",
          "name": "account",
          "type": "address"
        }
      ],
      "name": "renounceRole",
      "outputs": [],
      "stateMutability": "nonpayable",
      "type": "function"
    },
    {
      "inputs": [
        {
          "internalType": "bytes32",
          "name": "role",
          "type": "bytes32"
        },
        {
          "internalType": "address",
          "name": "account",
          "type": "address"
        }
      ],
      "name": "revokeContractRole",
      "outputs": [],
      "stateMutability": "nonpayable",
      "type": "function"
    },
    {
      "inputs": [
        {
          "internalType": "bytes32",
          "name": "role",
          "type": "bytes32"
        },
        {
          "internalType": "address",
          "name": "account",
          "type": "address"
        }
      ],
      "name": "revokeRole",
      "outputs": [],
      "stateMutability": "nonpayable",
      "type": "function"
    },
    {
      "inputs": [
        {
          "internalType": "address",
          "name": "target",
          "type": "address"
        },
        {
          "internalType": "enum JustTimelockUpgradeable.ThreatLevel",
          "name": "level",
          "type": "uint8"
        }
      ],
      "name": "setAddressThreatLevel",
      "outputs": [],
      "stateMutability": "nonpayable",
      "type": "function"
    },
    {
      "inputs": [
        {
          "internalType": "address[]",
          "name": "targets",
          "type": "address[]"
        },
        {
          "internalType": "enum JustTimelockUpgradeable.ThreatLevel[]",
          "name": "levels",
          "type": "uint8[]"
        }
      ],
      "name": "setBatchAddressThreatLevels",
      "outputs": [],
      "stateMutability": "nonpayable",
      "type": "function"
    },
    {
      "inputs": [
        {
          "internalType": "bytes4[]",
          "name": "selectors",
          "type": "bytes4[]"
        },
        {
          "internalType": "enum JustTimelockUpgradeable.ThreatLevel[]",
          "name": "levels",
          "type": "uint8[]"
        }
      ],
      "name": "setBatchFunctionThreatLevels",
      "outputs": [],
      "stateMutability": "nonpayable",
      "type": "function"
    },
    {
      "inputs": [
        {
          "internalType": "bytes4",
          "name": "selector",
          "type": "bytes4"
        },
        {
          "internalType": "enum JustTimelockUpgradeable.ThreatLevel",
          "name": "level",
          "type": "uint8"
        }
      ],
      "name": "setFunctionThreatLevel",
      "outputs": [],
      "stateMutability": "nonpayable",
      "type": "function"
    },
    {
      "inputs": [
        {
          "internalType": "address",
          "name": "tokenAddress",
          "type": "address"
        }
      ],
      "name": "setJustToken",
      "outputs": [],
      "stateMutability": "nonpayable",
      "type": "function"
    },
    {
      "inputs": [
        {
          "internalType": "bool",
          "name": "isPaused",
          "type": "bool"
        }
      ],
      "name": "setPaused",
      "outputs": [],
      "stateMutability": "nonpayable",
      "type": "function"
    },
    {
      "inputs": [
        {
          "internalType": "bytes4",
          "name": "interfaceId",
          "type": "bytes4"
        }
      ],
      "name": "supportsInterface",
      "outputs": [
        {
          "internalType": "bool",
          "name": "",
          "type": "bool"
        }
      ],
      "stateMutability": "view",
      "type": "function"
    },
    {
      "inputs": [
        {
          "internalType": "uint256",
          "name": "newMinDelay",
          "type": "uint256"
        },
        {
          "internalType": "uint256",
          "name": "newMaxDelay",
          "type": "uint256"
        },
        {
          "internalType": "uint256",
          "name": "newGracePeriod",
          "type": "uint256"
        }
      ],
      "name": "updateDelays",
      "outputs": [],
      "stateMutability": "nonpayable",
      "type": "function"
    },
    {
      "inputs": [
        {
          "internalType": "uint256",
          "name": "newThreshold",
          "type": "uint256"
        }
      ],
      "name": "updateExecutorTokenThreshold",
      "outputs": [],
      "stateMutability": "nonpayable",
      "type": "function"
    },
    {
      "inputs": [
        {
          "internalType": "uint256",
          "name": "newLowDelay",
          "type": "uint256"
        },
        {
          "internalType": "uint256",
          "name": "newMediumDelay",
          "type": "uint256"
        },
        {
          "internalType": "uint256",
          "name": "newHighDelay",
          "type": "uint256"
        },
        {
          "internalType": "uint256",
          "name": "newCriticalDelay",
          "type": "uint256"
        }
      ],
      "name": "updateThreatLevelDelays",
      "outputs": [],
      "stateMutability": "nonpayable",
      "type": "function"
    },
    {
      "inputs": [
        {
          "internalType": "address",
          "name": "newImplementation",
          "type": "address"
        }
      ],
      "name": "upgradeTo",
      "outputs": [],
      "stateMutability": "nonpayable",
      "type": "function"
    },
    {
      "inputs": [
        {
          "internalType": "address",
          "name": "newImplementation",
          "type": "address"
        },
        {
          "internalType": "bytes",
          "name": "data",
          "type": "bytes"
        }
      ],
      "name": "upgradeToAndCall",
      "outputs": [],
      "stateMutability": "payable",
      "type": "function"
    },
    {
      "inputs": [
        {
          "internalType": "bytes32",
          "name": "txHash",
          "type": "bytes32"
        }
      ],
      "name": "wasTransactionFailed",
      "outputs": [
        {
          "internalType": "bool",
          "name": "",
          "type": "bool"
        }
      ],
      "stateMutability": "view",
      "type": "function"
    }
  ],
  "bytecode": "0x60a0604052346200003657620000146200003b565b604051614e4f6200009382396080518181816116be015261180a0152614e4f90f35b600080fd5b6200004562000082565b565b6200005d9062000060906001600160a01b031682565b90565b6001600160a01b031690565b6200005d9062000047565b6200005d906200006c565b6200008d3062000077565b60805256fe6080604052600436101561001257600080fd5b60003560e01c8063018fd60a146103b257806301ffc9a7146103ad57806307bd0265146103a857806308eb0d39146103a35780630d3cf6fc1461039e5780631390a3f31461039957806316c38b3c1461039457806319330bfd1461038f57806319c51aad1461038a578063248a9ca31461038557806324ea54f4146103805780632bfec3d31461037b5780632f2ff15d1461037657806336568abe146103715780633659cfe61461036c5780634aae13ca146103675780634f1ef28614610362578063504534c11461035d57806352d1902d14610358578063531355a9146103535780635c975abb1461034e5780635e5f1362146103495780635e6a2295146103445780636595530c1461033f5780636e34fdd81461033a57806370ba33391461033557806370d26de51461033057806373355bff1461032b57806373680ade1461032657806375b238fc146103215780637bd3f6861461031c57806385ab3ecd146103175780638e361cdf146103125780638f61f4f51461030d5780639010d07c1461030857806391d1485414610303578063932b1487146102fe578063935dfcc6146102f95780639646d799146102f4578063a06db7dc146102ef578063a217fddf146102ea578063b08e51c0146102e5578063bbfe22c0146102e0578063bd338f36146102db578063c4c4c7b3146102d6578063c63c4e9b146102d1578063c69ed5f2146102cc578063c7697c53146102c7578063ca15c873146102c2578063d5391393146102bd578063d547741f146102b8578063dbd62506146102b3578063e3d0c2b6146102ae578063ebaa5269146102a9578063ed49d2f8146102a4578063f21c00ba1461029f578063f2b065371461029a5763f36c8f5c036103b7576111de565b6111c3565b611191565b611176565b61114d565b611132565b61110b565b6110b4565b61107b565b611060565b611045565b61102a565b61100f565b610fe6565b610ee8565b610ea6565b610e6d565b610e52565b610e18565b610df3565b610dda565b610da4565b610d88565b610d51565b610d07565b610ce8565b610c86565b610c5e565b610c2a565b610c0f565b610bf4565b610bce565b610bb6565b610b9b565b610b6f565b610b53565b610b3a565b610afc565b610ae1565b610a9b565b610a73565b61099e565b610873565b610808565b6107ef565b6107d6565b610798565b61074e565b610733565b61071a565b6106ce565b61067a565b610635565b61057e565b610556565b61048f565b610456565b610400565b600080fd5b6001600160a01b031690565b90565b6001600160a01b0381165b036103b757565b905035906103ea826103cb565b565b906020828203126103b7576103c8916103dd565b346103b7576104186104133660046103ec565b612c89565b604051005b0390f35b6001600160e01b031981166103d6565b905035906103ea82610421565b906020828203126103b7576103c891610431565b9052565b346103b75761041d61047161046c36600461043e565b611205565b6040515b91829182901515815260200190565b60009103126103b757565b346103b75761049f366004610484565b61041d600080516020614de38339815191525b6040515b9182918290815260200190565b806103d6565b905035906103ea826104c3565b906020828203126103b7576103c8916104c9565b60005b8381106104fd5750506000910152565b81810151838201526020016104ed565b61052e61053760209361054193610522815190565b80835293849260200190565b958691016104ea565b601f01601f191690565b0190565b60208082526103c89291019061050d565b346103b75761041d61057161056c3660046104d6565b614303565b6040515b91829182610545565b346103b75761058e366004610484565b61041d7f5f58e3a2316349923ce3780f8d587db2d72378aed66a8261c916544fa6846ca56104b2565b909182601f830112156103b75781359167ffffffffffffffff83116103b75760200192602083028401116103b757565b90916040828403126103b757813567ffffffffffffffff81116103b757836106109184016105b7565b929093602082013567ffffffffffffffff81116103b75761063192016105b7565b9091565b346103b7576104186106483660046105e7565b92919091614888565b8015156103d6565b905035906103ea82610651565b906020828203126103b7576103c891610659565b346103b75761041861068d366004610666565b614caa565b6080818303126103b7576106a682826104c9565b926103c86106b784602085016104c9565b936106c581604086016104c9565b936060016104c9565b346103b7576104186106e1366004610692565b929190916145e5565b90916060828403126103b7576103c861070384846104c9565b9361071181602086016104c9565b936040016104c9565b346103b75761041861072d3660046106ea565b916144e5565b346103b75761041d6104b26107493660046104d6565b6112eb565b346103b75761075e366004610484565b61041d600080516020614e238339815191526104b2565b6103c8916008021c81565b906103c89154610775565b6103c86000610195610780565b346103b7576107a8366004610484565b61041d6104b261078b565b91906040838203126103b7576103c8906107cd81856104c9565b936020016103dd565b346103b7576104186107e93660046107b3565b90611322565b346103b7576104186108023660046107b3565b90611510565b346103b75761041861081b3660046103ec565b6118cb565b9061086361086b916103ea9698979561085660809661084f60a088019460008901906001600160a01b03169052565b6020870152565b848203604086015261050d565b966060830152565b019015159052565b346103b75761041d61088e6108893660046104d6565b614488565b9161089b95939560405190565b95869586610820565b634e487b7160e01b600052604160045260246000fd5b90601f01601f1916810190811067ffffffffffffffff8211176108dc57604052565b6108a4565b906103ea6108ee60405190565b92836108ba565b67ffffffffffffffff81116108dc57602090601f01601f19160190565b90826000939282370152565b9092919261093361092e826108f5565b6108e1565b938185526020850190828401116103b7576103ea92610912565b9080601f830112156103b7578160206103c89335910161091e565b9190916040818403126103b75761097f83826103dd565b92602082013567ffffffffffffffff81116103b7576103c8920161094d565b6104186109ac366004610968565b90611c1a565b6103c8906103bc906001600160a01b031682565b6103c8906109b2565b6103c8906109c6565b906109e2906109cf565b600052602052604060002090565b6103c8916008021c5b60ff1690565b906103c891546109f0565b6103c890610a1d61019a916000926109d8565b6109ff565b634e487b7160e01b600052602160045260246000fd5b60041115610a4257565b610a22565b906103ea82610a38565b6103c890610a47565b61045290610a51565b6020810192916103ea9190610a5a565b346103b75761041d610a8e610a893660046103ec565b610a0a565b6040515b91829182610a63565b346103b757610aab366004610484565b61041d6104b2611729565b600411156103b757565b905035906103ea82610ab6565b906020828203126103b7576103c891610ac0565b346103b75761041d6104b2610af7366004610acd565b6135ff565b346103b757610b0c366004610484565b61041d610471611c24565b91906040838203126103b7576103c890610b3181856103dd565b93602001610ac0565b346103b757610418610b4d366004610b17565b906148ed565b346103b75761041d610a8e610b69366004610968565b90613571565b346103b75761041d6104b2610b85366004610692565b92919091614c18565b6103c86000610197610780565b346103b757610bab366004610484565b61041d6104b2610b8e565b346103b757610418610bc93660046104d6565b61447f565b346103b757610418610be13660046107b3565b90613567565b6103c86000610198610780565b346103b757610c04366004610484565b61041d6104b2610be7565b346103b75761041d610571610c253660046104d6565b613096565b346103b757610c3a366004610484565b61041d600080516020614e038339815191526104b2565b6103c86000610196610780565b346103b757610c6e366004610484565b61041d6104b2610c51565b6103c86000610194610780565b346103b757610c96366004610484565b61041d6104b2610c79565b6080818303126103b757610cb582826103dd565b92610cc383602084016104c9565b9260408301359067ffffffffffffffff82116103b7576106c5816103c893860161094d565b346103b75761041d6104b2610cfe366004610ca1565b929190916138a2565b346103b757610d17366004610484565b61041d600080516020614dc38339815191526104b2565b91906040838203126103b7576103c890610d4881856104c9565b936020016104c9565b346103b75761041d610d6d610d67366004610d2e565b9061122e565b6040515b918291826001600160a01b03909116815260200190565b346103b75761041d610471610d9e3660046107b3565b906112b2565b346103b757610418610db73660046105e7565b929190916149cb565b91906040838203126103b7576103c890610b318185610431565b346103b757610418610ded366004610dc0565b90614780565b346103b757610418610e063660046104d6565b61316a565b6103c86000610193610780565b346103b757610e28366004610484565b61041d6104b2610e0b565b6103c86103c86103c89290565b6103c86000610e33565b6103c8610e40565b346103b757610e62366004610484565b61041d6104b2610e4a565b346103b757610e7d366004610484565b61041d7ffd643c72710c63c0180259aba6b2d05451e3591a24e58b62239378085726f7836104b2565b346103b757610418610eb93660046104d6565b613f9d565b6001600160e01b03191690565b906109e290610ebe565b6103c890610a1d61019991600092610ecb565b346103b75761041d610a8e610efe36600461043e565b610ed5565b67ffffffffffffffff81116108dc5760208091020190565b90929192610f2b61092e82610f03565b93818552602080860192028301928184116103b757915b838310610f4f5750505050565b60208091610f5d84866103dd565b815201920191610f42565b9080601f830112156103b7578160206103c893359101610f1b565b6080818303126103b757610f9782826104c9565b92602082013567ffffffffffffffff81116103b75783610fb8918401610f68565b9260408301359067ffffffffffffffff82116103b757610fdd816103c8938601610f68565b936060016103dd565b346103b757610418610ff9366004610f83565b92919091612a9a565b6103c86000610191610780565b346103b75761101f366004610484565b61041d6104b2611002565b346103b75761041d6105716110403660046104d6565b613f92565b346103b75761041d61047161105b3660046104d6565b61430e565b346103b75761041d6104b26110763660046104d6565b61124e565b346103b75761108b366004610484565b61041d7f9f2df0fed2c77648de5860a4cc508cd0818c85b8b8a1ab4ceeef8d981c8956a66104b2565b346103b7576104186110c73660046107b3565b90611488565b6103c8916008021c6103bc565b906103c891546110cd565b6103c8600061019b6110da565b610452906109cf565b6020810192916103ea91906110f2565b346103b75761111b366004610484565b61041d6111266110e5565b604051918291826110fb565b346103b75761041d6104716111483660046103ec565b613675565b346103b75761041d6104b26111633660046106ea565b91614aeb565b6103c86000610192610780565b346103b757611186366004610484565b61041d6104b2611169565b346103b7576104186111a43660046107b3565b90613491565b906109e2565b6103c890610a1d61019d916000926111aa565b346103b75761041d6104716111d93660046104d6565b6111b0565b346103b7576111ee366004610484565b61041d600080516020614da38339815191526104b2565b635a05180f60e01b6001600160e01b0319821614908115611224575090565b6103c89150611265565b906112496103c86103c893611241600090565b5060976111aa565b6122c6565b6112606103c86103c892611241600090565b61228f565b637965db0b60e01b6001600160e01b0319821614908115611284575090565b6103c891506001600160e01b0319166301ffc9a760e01b1490565b6103c8906109f9565b6103c8905461129f565b6103c89160006112cf6112d5936112c7600090565b5060656111aa565b016109d8565b6112a8565b6103c89081565b6103c890546112da565b60016112fc6103c8926112c7600090565b016112e1565b906103ea91611318611313826112eb565b611350565b906103ea9161132c565b906103ea91611302565b906113486103c861134d936113418482611560565b60976111aa565b611ffc565b50565b6103ea9033906113e0565b6103c890610e33565b61054161137c92602092611376815190565b94859290565b938491016104ea565b6113c36103c893926113bd6113bd937f416363657373436f6e74726f6c3a206163636f756e7420000000000000000000815260170190565b90611364565b7001034b99036b4b9b9b4b733903937b6329607d1b815260110190565b906113f26113ee82846112b2565b1590565b6113fa575050565b611469916103c861141661141061145094611fcf565b9261135b565b61142b60209161142583610e33565b90611e85565b9261144461143860405190565b94859384019283611385565b908103825203826108ba565b6040515b62461bcd60e51b815291829160048301610545565b0390fd5b906103ea9161147e611313826112eb565b906103ea91611492565b906103ea9161146d565b906114a76103c861134d9361134184826115d7565b61213c565b156114b357565b60405162461bcd60e51b815260206004820152602f60248201527f416363657373436f6e74726f6c3a2063616e206f6e6c792072656e6f756e636560448201526e103937b632b9903337b91039b2b63360891b6064820152608490fd5b6103ea9190611531611521336103bc565b6001600160a01b038416146114ac565b611492565b9060ff905b9181191691161790565b906115556103c861155c92151590565b8254611536565b9055565b9061156e6113ee82846112b2565b611576575050565b611591600161158c8360006112cf8760656111aa565b611545565b33906115c76115c16115c17f2f8788117e7eff1d82e926ec794901d17c78024a50270940304540a733656f0d9590565b926109cf565b926115d160405190565b600090a4565b906115e281836112b2565b6115ea575050565b6115ff600061158c83826112cf8760656111aa565b33906115c76115c16115c17ff6391f5c32d9c69d2a47ea670b442974b53935d1edc7fd64eb21e047a839171b9590565b1561163657565b60405162461bcd60e51b815260206004820152603860248201527f555550535570677261646561626c653a206d757374206e6f742062652063616c60448201527f6c6564207468726f7567682064656c656761746563616c6c00000000000000006064820152608490fd5b6103c8906116f26116b1306109cf565b6116ec6001600160a01b037f0000000000000000000000000000000000000000000000000000000000000000165b916001600160a01b031690565b1461162f565b611720565b6103c87f360894a13ba1a3210667c828492db98dca3e2076cc3735a920a3ca505d382bbc610e33565b506103c86116f7565b6103c860006116a1565b1561173a57565b60405162461bcd60e51b815260206004820152602c60248201527f46756e6374696f6e206d7573742062652063616c6c6564207468726f7567682060448201526b19195b1959d85d1958d85b1b60a21b6064820152608490fd5b1561179b57565b60405162461bcd60e51b815260206004820152602c60248201527f46756e6374696f6e206d7573742062652063616c6c6564207468726f7567682060448201526b6163746976652070726f787960a01b6064820152608490fd5b6103ea90611865611805306109cf565b6118447f00000000000000000000000000000000000000000000000000000000000000009161183d6116df846001600160a01b031690565b1415611733565b61185f6116df6118526118e7565b926001600160a01b031690565b14611794565b6118a4565b9061187761092e836108f5565b918252565b369037565b906103ea6118976118918461186a565b936108f5565b601f19016020840161187c565b6103ea906118b181612bd5565b6000906118c56118c083610e33565b611881565b906119a5565b6103ea906117f5565b6103c8906103bc565b6103c890546118d4565b6103c860006118f76103c86116f7565b016118dd565b6103c87f4910fdfa16fed3260ed0e7147f7cc6da11a60208b5b9406d12a635614ffd9143610e33565b905051906103ea826104c3565b906020828203126103b7576103c891611926565b1561194e57565b60405162461bcd60e51b815260206004820152602960248201527f45524331393637557067726164653a20756e737570706f727465642070726f786044820152681a58589b195555525160ba1b6064820152608490fd5b91906119bd60006119b76103c86118fd565b016112a8565b156119cd5750506103ea90611b4b565b8260206119e46119df6119fc966109cf565b6109cf565b6352d1902d906119f360405190565b96879260e01b90565b825260049082905afa60009481611a93575b50611a6f5760405162461bcd60e51b815260206004820152602e60248201527f45524331393637557067726164653a206e657720696d706c656d656e7461746960448201526d6f6e206973206e6f74205555505360901b6064820152608490fd5b611a8e6103ea94611a88611a846103c86116f7565b9190565b14611947565b611b73565b611ab591955060203d8111611abc575b611aad81836108ba565b810190611933565b9338611a0e565b503d611aa3565b15611aca57565b60405162461bcd60e51b815260206004820152602d60248201527f455243313936373a206e657720696d706c656d656e746174696f6e206973206e60448201526c1bdd08184818dbdb9d1c9858dd609a1b6064820152608490fd5b906001600160a01b039061153b565b90611b446103c861155c926109cf565b8254611b25565b6103ea90611b60611b5b82611c2e565b611ac3565b6000611b6d6103c86116f7565b01611b34565b91611b7d83611baf565b8151611b8c611a846000610e33565b11908115611ba7575b50611b9e575050565b61134d91611c8b565b905038611b95565b611bb881611b4b565b611be27fbc7cd75a20ee27fd9adebab32041f755214dbc6bffa90cc0225b39da2e5c2d3b916109cf565b90611bec60405190565b80805b0390a2565b906103ea91611c05611805306109cf565b6103ea91611c1282612bd5565b6001916119a5565b906103ea91611bf4565b6103c860c96112a8565b3b611c3c611a846000610e33565b1190565b611c4a602761186a565b7f416464726573733a206c6f772d6c6576656c2064656c65676174652063616c6c6020820152660819985a5b195960ca1b604082015290565b6103c8611c40565b6103c891611c97611c83565b91611cbc565b3d15611cb757611cac3d61186a565b903d6000602084013e565b606090565b6000806103c89493611ccc606090565b50805190602001845af4611cde611c9d565b91611d30565b15611ceb57565b60405162461bcd60e51b815260206004820152601d60248201527f416464726573733a2063616c6c20746f206e6f6e2d636f6e74726163740000006044820152606490fd5b91929015611d6257508151611d48611a846000610e33565b14611d51575090565b611d5d6103c891611c2e565b611ce4565b8290611d6c825190565b611d79611a846000610e33565b1115611d885750805190602001fd5b6114699061145460405190565b634e487b7160e01b600052601160045260246000fd5b81810292918115918404141715611dbe57565b611d95565b91908201809211611dbe57565b634e487b7160e01b600052603260045260246000fd5b90611def825190565b811015611dfd570160200190565b611dd0565b8015611dbe576000190190565b6109f96103c86103c89290565b6103c890611e30611a846103c89460ff1690565b901c90565b15611e3c57565b60405162461bcd60e51b815280611469600482016020808252818101527f537472696e67733a20686578206c656e67746820696e73756666696369656e74604082015260600190565b9190600292611eb16118c0611ea284611e9d88610e33565b611dab565b611eab87610e33565b90611dc3565b916000906030611ec9611ec384610e33565b86611de6565b53611f01611ef8600f60fb1b92611e9d6001998a95871a611ef2611eec88610e33565b8b611de6565b53610e33565b611eab83610e33565b905b611f25575b506103c893945090611f1f611a846103c893610e33565b14611e35565b91611f2f86610e33565b831115611f9d576f181899199a1a9b1b9c1cb0b131b232b360811b611f54600f610e33565b8216906010821015611dfd578792611f74611f9192611f97941a60f81b90565b851a611f808789611de6565b53611f8b6004611e0f565b90611e1c565b93611e02565b90611f03565b91611f08565b6103c89081906001600160a01b031681565b6103c86014611e0f565b6103c86103c86103c89260ff1690565b611fec611fe76103c892611fe1606090565b506109c6565b611fa3565b611425611ff7611fb5565b611fbf565b90612024611a8461201f611fe760006103c896612017600090565b5001946109c6565b610e33565b6120c6565b8054821015611dfd57612043600191600052602060002090565b91020190600090565b9160001960089290920291821b911b61153b565b919061206f6103c861155c9390565b90835461204c565b90815491680100000000000000008310156108dc578261209f9160016103ea95018155612029565b90612060565b906000199061153b565b906120bf6103c861155c92610e33565b82546120a5565b6120d36113ee838361210c565b1561210557612100916120fb9060016120f4846120f08482612077565b5490565b93016111aa565b6120af565b600190565b5050600090565b61212a9160016121259261211e600090565b50016111aa565b6112e1565b612137611a846000610e33565b141590565b90612157611a8461201f611fe760006103c896612017600090565b6121d0565b91908203918211611dbe57565b634e487b7160e01b600052603160045260246000fd5b6103ea91600091612060565b805480156121ae5760001901906121ab6121a58383612029565b9061217f565b55565b612169565b919061206f6103c861155c93610e33565b6103ea916000916121b3565b906121e161212582600185016111aa565b6000926121ed84610e33565b8214612240576103c89261224694926122519261224b600197889361221a61221486610e33565b8261215c565b88850191612238612229845490565b61223289610e33565b9061215c565b828103612256575b50505090565b61218b565b016111aa565b6121c4565b61209f61227f612287946122766122706120fb9589612029565b90610780565b92839188612029565b8888016111aa565b388080612240565b6122a560006103c8926122a0600090565b500190565b60006103c8916122b3600090565b50015490565b6103bc6103c86103c89290565b6122eb6122e66103c8936122e160006122f0956122a0600090565b6122f5565b61135b565b6122b9565b6109c6565b6103c891600061227092612307600090565b5001612029565b6103c89060081c6109f9565b6103c8905461230e565b1561232b57565b60405162461bcd60e51b815260206004820152602e60248201527f496e697469616c697a61626c653a20636f6e747261637420697320616c72656160448201526d191e481a5b9a5d1a585b1a5e995960921b6064820152608490fd5b6109f96103c86103c89260ff1690565b906115556103c861155c92612387565b9061ff009060081b61153b565b906123c46103c861155c92151590565b82546123a7565b61045290611e0f565b6020810192916103ea91906123cb565b9261242f91926123f76113ee600061231a565b9384806124d2575b801561248d575b61240f90612324565b6001958561242661241f89611e0f565b6000612397565b61247d57612532565b6124365750565b6124416000806123b4565b6124787f7f26b83ff96e1f2b6a682f133852f6798a09c465da95921460cefb38474024989161246f60405190565b918291826123d4565b0390a1565b6124888760006123b4565b612532565b506124a26113ee61249d306109cf565b611c2e565b8015612406575061240f6124b660006112a8565b6124ca6124c36001611e0f565b9160ff1690565b149050612406565b506124dd60006112a8565b6124ea6124c36001611e0f565b106123ff565b6103c8906122b9565b906115556103c861155c92610a51565b6000198114611dbe5760010190565b90612521825190565b811015611dfd576020809102010190565b9291600061253f81610e33565b8514612a885761254e816124f0565b906001600160a01b0382166001600160a01b03861614612a5a5761286893612574612b18565b61257c612b38565b612584612b7c565b61258c612b18565b612598876101916120af565b6125af6125a762278d00610e33565b6101926120af565b6126176125be62127500610e33565b6125ca816101936120af565b6125e16125d962015180610e33565b6101956120af565b6125f86125f06203f480610e33565b6101966120af565b61260f61260762093a80610e33565b6101976120af565b6101986120af565b61263261262a662386f26fc10000610e33565b6101946120af565b610199906126718361266c6126667fa9059cbb2ab09eb219583f4a59a5d0623ade346d962bcd4e46b11da047c9049b610ebe565b85610ecb565b6124f9565b6126a18361266c6126667f095ea7b334ae44009aa867bfb386f5c3b4b443ac6f0ee573fa91c4608fbadfba610ebe565b60019586926126dc8461266c6126d67f19c51aade6e2a49f7ec24c208998650b05a060f31be7c7ce3a927580c1a6712f610ebe565b84610ecb565b61270c8461266c6126d67f19330bfd7e0c75f9aec91393843f2cf5fcca8250082a2f2e073f9a86f643ac2d610ebe565b61273c8461266c6126d67f1b9ad0e4aacf9b4ce6f4860adceaada62d78fb186f25d345ab5f644567c2b633610ebe565b61266c6002916127728361266c6126d67f70d26de5191fc8b6b2ea5767a966caf49891714569bf8e35d1f82a12cb959a01610ebe565b6127a28361266c6126d67ff21c00bad3bd5a55f3bf8c9e11868f937876f384821efa77b9b7a73a294691d5610ebe565b61280960036127dd8161266c6127d77f3659cfe672549963da205df855ebfb8672cda4801e0255183bd6a6f536855df7610ebe565b86610ecb565b61266c6126d67f4f1ef2866b98625bdfefae89411f7a82754ac4089eff8e78c8832329a538337f610ebe565b6128398361266c6126d67fdd329b5cc2c0276e9db88ddb634b14ab6775bfc2e977df56b01bf43f77f1d181610ebe565b6128627fa89ae7d0e127de83ee9585429b3803816abac5f8bdc281e473659f44248b00f2610ebe565b90610ecb565b61287487611318610e40565b61288c87600080516020614e03833981519152611318565b6128b6877f5f58e3a2316349923ce3780f8d587db2d72378aed66a8261c916544fa6846ca5611318565b816128c084610e33565b905b6129f1575b5050906128d390610e33565b905b612970575b50505050612909816113187ffd643c72710c63c0180259aba6b2d05451e3591a24e58b62239378085726f78390565b61292181600080516020614e23833981519152611318565b61293981600080516020614da3833981519152611318565b611bef6129667f290a9d1bd9a992a26d178f5f8d2514edd099295c4ce6340dc3b7f441530cf3e8926109cf565b926104b660405190565b61297b6103c8845190565b8110156129ec57806129a06129936129bc9386612518565b516001600160a01b031690565b6129b26001600160a01b0385166116df565b036129c257612509565b836128d5565b6129e7600080516020614de38339815191526129e16129938488612518565b90611318565b612509565b6128da565b6129fc6103c8835190565b811015612a555780612a14612993612a309385612518565b612a266001600160a01b0388166116df565b03612a3657612509565b826128c2565b6129e7600080516020614dc38339815191526129e16129938487612518565b6128c7565b60405163eac0d38960e01b815260206004820152600560248201526430b236b4b760d91b6044820152606490fd5b604051631a615ced60e11b8152600490fd5b906103ea9392916123e4565b15612aad57565b60405162461bcd60e51b815260206004820152602b60248201527f496e697469616c697a61626c653a20636f6e7472616374206973206e6f74206960448201526a6e697469616c697a696e6760a81b6064820152608490fd5b6103ea612b13600061231a565b612aa6565b6103ea612b06565b612b2d612b13600061231a565b6103ea6103ea612b5c565b6103ea612b20565b612b4d612b13600061231a565b6103ea6103ea600060c9611545565b6103ea612b40565b612b71612b13600061231a565b6103ea6103ea612bb5565b6103ea612b64565b612b91612b13600061231a565b6103ea612ba3565b6103c86001610e33565b6103ea612bae612b99565b60fb6120af565b6103ea612b84565b506103ea600080516020614e03833981519152611350565b6103ea90612bbd565b6103ea90612bf9600080516020614e03833981519152611350565b612c066103bc60006124f0565b6001600160a01b03821614612c5457612c1e906109cf565b612c2a8161019b611b34565b7f22357fb36d236001335a40c33e873b98724147e176521651bc189500ab78b487611bec60405190565b60405163eac0d38960e01b815260206004820152600c60248201526b746f6b656e4164647265737360a01b6044820152606490fd5b6103ea90612bde565b906103c891612c9f6130e0565b90612cb191612cac613149565b612e1a565b906103ea612ba3565b612ce76103ea94612ce0606094989795612cd9608086019a6000870152565b6020850152565b6040830152565b0152565b6001600160a01b0390911681526040810192916103ea9160200152565b634e487b7160e01b600052602260045260246000fd5b9060016002830492168015612d3e575b6020831014612d3957565b612d08565b91607f1691612d2e565b80546000939291612d65612d5b83612d1e565b8085529360200190565b9160018116908115612db75750600114612d7e57505050565b612d919192939450600052602060002090565b916000925b818410612da35750500190565b805484840152602090930192600101612d96565b92949550505060ff1916825215156020020190565b906103c891612d48565b906103ea612df092612de760405190565b93848092612dcc565b03836108ba565b6103c890612dd6565b9081526103c89160408201915b602081840391015261050d565b50612e2d6113ee6112d58361019d6111aa565b61306f57612e406103c88261019c6111aa565b6004810191612e4e836112a8565b61304857612e5b8361231a565b613021574260038301612e7e6103c8612e73836112e1565b611eab6101936112e1565b821115612fef575050612e9c600080516020614e0383398151915290565b612eaa6113ee3380936112b2565b80612fce575b612fa15750612ebe826118dd565b90600080612eda6002612ed3600188016112e1565b9601612df7565b93612ee760018098611545565b7f913928faeddbeb42b03e074bdf7db96abfcaa8f11f452d384ef8fe73a8940d639484968796612f16846109cf565b988991612f2260405190565b80612f2e878783612e00565b0390a3602082019151925af193612f4b612f46611c9d565b951590565b612f57575b5050505090565b61158c612f669261019e6111aa565b82612f957f259d619dd0cb65e38935bc4d065aed38b08f204b46ddfda5795ad4aabad9ad7e9161057560405190565b0390a338808080612f50565b612fab6000610e33565b90611469612fb860405190565b635270d4bf60e11b815292839260048401612ceb565b50612fea6113ee82600080516020614da38339815191526112b2565b612eb0565b611469612ffc84926112e1565b926130086101936112e1565b6040516339e1444f60e11b815294859460048601612cba565b6114699061302e60405190565b631eb1656f60e01b81529182916004830190815260200190565b6114699061305560405190565b63574cf42560e11b81529182916004830190815260200190565b6114699061307c60405190565b637080aaeb60e11b81529182916004830190815260200190565b6103c8906060612c92565b156130a857565b60405162461bcd60e51b815260206004820152601060248201526f14185d5cd8589b194e881c185d5cd95960821b6044820152606490fd5b6103ea6130ee6113ee611c24565b6130a1565b6103c86002610e33565b1561310457565b60405162461bcd60e51b815260206004820152601f60248201527f5265656e7472616e637947756172643a207265656e7472616e742063616c6c006044820152606490fd5b6103ea61315660fb6112e1565b612bae6131616130f3565b918214156130fd565b336131866113ee82600080516020614e038339815191526112b2565b806131fa575b806131dc575b612fa157506131a3906101946120af565b6131ae6101946112e1565b6124787f0517211ced6e2fe76697c1baed31e904f946f4a9ed9ba831b5c5fc722ce9eda5916104b660405190565b506131e96103bc306109cf565b6001600160a01b0382161415613192565b506132166113ee82600080516020614da38339815191526112b2565b61318c565b6103ea9190613237600080516020614e03833981519152611350565b9060006132466103bc826124f0565b6001600160a01b0383161461346157600080516020614e03833981519152808414613417575b50600080516020614da3833981519152808414613339575b505061329e6103c8600080516020614dc383398151915290565b82148015613322575b6132f9575b6132b68183611488565b6132e76132e17f155aaafb6329a2098580462df33ec4b7441b19729b9601c5fc17ae1cf99a8a529390565b916109cf565b916132f160405190565b80805b0390a3565b6133028261124e565b61330f611a846001610e33565b116132ac575033611469612fb860405190565b50600080516020614de383398151915282146132a7565b6133428161124e565b90600191613352611a8484610e33565b11156134095781613364600094610e33565b905b6133b1575b5050507fb042dff0d2902dfbafc756c90710226f7608e411649827085ed69e60e56e04269061339c6132e1846109cf565b916133a660405190565b600090a33880613284565b6133bd6103c88361124e565b811015613404576133ce818361122e565b6001600160a01b0386166001600160a01b038216036133f757506133f190612509565b82613366565b935050505038808061336b565b61336b565b8433611469612fb860405190565b6134209061124e565b61342d611a846001610e33565b11801561344e575b15613440573861326c565b8233611469612fb860405190565b506001600160a01b038216331415613435565b60405163eac0d38960e01b81526020600482015260076024820152661858d8dbdd5b9d60ca1b6044820152606490fd5b906103ea9161321b565b6103ea91906134b7600080516020614e03833981519152611350565b6134c46103bc60006124f0565b6001600160a01b03831614613461576134dd8282611322565b7f2ae6a113c0ed5b78a53413ffbb7679881f11145ccfba4fb92e863dfcd5a1d2f361350882936109cf565b92839161351460405190565b600090a361352f600080516020614da3833981519152611a84565b146135375750565b6001611bef7f22d9b439781dfd20c33ba7fefff7ab8e9457457e39cb3f8e941e33ef30e98cd89161047560405190565b906103ea9161349b565b906135836112d560009361019a6109d8565b9160009261359084610a47565b61359982610a47565b036135f8575081516135ae611a846004610e33565b10156135b957505090565b50602001516135d8906112d5906001600160e01b031916610199610ecb565b6135e182610a47565b6135ea82610a47565b036135f3575090565b905090565b9250505090565b6136096003610a47565b61361282610a47565b0361362357506103c86101986112e1565b61362d6002610a47565b61363682610a47565b0361364757506103c86101976112e1565b61365a6136546001610a47565b91610a47565b0361366a576103c86101966112e1565b6103c86101956112e1565b6136836119df61019b6118dd565b906000916136966116df6103bc856124f0565b146137315760206136e4916136af6119df61019b6118dd565b6136cd6370a082316136c060405190565b9586948593849360e01b90565b83526001600160a01b031660048301526024820190565b03915afa829181613711575b506136f9575090565b905061370c611a846103c86101946112e1565b101590565b61372a91925060203d8111611abc57611aad81836108ba565b90386136f0565b5090565b906103c8949392916137456130e0565b61375d565b9081526040810192916103ea9160200152565b5090939290916137706103bc60006124f0565b6001600160a01b038416146138735761378d6103c86101916112e1565b8210613844576137a16103c86101926112e1565b821161381557600080516020614dc383398151915294336137c56113ee82896112b2565b806137f4575b6137e657506103c89495506137e08285613571565b93613b1d565b8690611469612fb860405190565b506138106113ee82600080516020614da38339815191526112b2565b6137cb565b506138216101926112e1565b9061146961382e60405190565b630e62012f60e31b81529283926004840161374a565b506138506101916112e1565b9061146961385d60405190565b63d6ef4a3160e01b81529283926004840161374a565b60405163eac0d38960e01b81526020600482015260066024820152651d185c99d95d60d21b6044820152606490fd5b6103c8939291906000613735565b9493916060916103ea946138e26138ef936138db60808b019460008c01906001600160a01b03169052565b60208a0152565b878203604089015261050d565b940152565b6103c860c06108e1565b818110613909575050565b8061391760006001936121c4565b016138fe565b9190601f811161392c57505050565b61393e6103ea93600052602060002090565b906020601f840181900483019310613960575b6020601f9091010401906138fe565b9091508190613951565b90613973815190565b9067ffffffffffffffff82116108dc57613997826139918554612d1e565b8561391d565b602090601f83116001146139d25761155c9291600091836139c7575b5050600019600883021c1916906002021790565b0151905038806139b3565b601f198316916139e785600052602060002090565b9260005b818110613a2557509160029391856001969410613a0c575b50505002019055565b01516000196008601f8516021c19169055388080613a03565b919360206001819287870151815501950192016139eb565b906103ea9161396a565b6103ea9190613ad29060a090600490613a7181613a6b87516001600160a01b031690565b90611b34565b613a8960018201613a83602088015190565b906120af565b613aa160028201613a9b604088015190565b90613a3d565b613ab360038201613a83606088015190565b0192613acb613ac56080830151151590565b85611545565b0151151590565b906123b4565b906103ea91613a47565b613b16613b0e6060936103ea96989795613b0160808601926000870152565b848203602086015261050d565b966040830152565b0190610a5a565b90919493613b29600090565b50600095613b396103bc886124f0565b6001600160a01b0384161461387357613b566103c86101916112e1565b8510613cfd57613b6a6103c86101926112e1565b8511613cf157613bb74295613b7f8188611dc3565b613b9e613b8b60405190565b80926114446020830191888c8c856138b0565b613bb0613ba9825190565b9160200190565b2096611dc3565b9361019d97613bc96112d5888b6111aa565b613cca57613c76969798613c36613c4292613c25613be56138f4565b6001600160a01b038a168382015291613bff876020850152565b613c0a886040850152565b613c158b6060850152565b15156080830181905260a0830152565b613c318b61019c6111aa565b613ad8565b61158c896001926111aa565b613c897fc12713b76ba10e056a22d96f695ca35709830779c6f65311816f6729a09d627393613c6e8990565b9788966109cf565b96613c8060405190565b94859485613ae2565b0390a37f6da19cef8486af172c085de95b9b6a5acde209a53afb3f7171364f1cbdc3f07e90613cb7336109cf565b91613cc160405190565b80805b0390a390565b61146987613cd760405190565b630a44e52960e21b81529182916004830190815260200190565b846138216101926112e1565b846138506101916112e1565b906103c891613d166130e0565b90612cb191613d23613149565b613d60565b9081526060810193926103ea929091604091612ce7906020830152565b6001600160a01b0390911681526103c8916040820191612e0d565b50613d736113ee6112d58361019d6111aa565b61306f57613d866103c88261019c6111aa565b6004810190613d94826112a8565b613f8557613da18261231a565b613f78574260038201613db66103c8826112e1565b8210613f4c57613dcb6103c8612e73836112e1565b8211613f1a57505033613de06113ee82613675565b613ee7575b50613def816118dd565b90613e14613e0b6002613e04600185016112e1565b9301612df7565b93600190611545565b7f8b7b712167f6dc65bddd7d9a42eec3ed7de70db3ffda6e8fbb166195a0fa10cb60008086938493613e45876109cf565b958691613e5160405190565b80613e5d8c8783612e00565b0390a360208701875191875af194613e7b613e76611c9d565b961590565b613e8757505050505090565b856103c8613e9492614326565b613ec27f259d619dd0cb65e38935bc4d065aed38b08f204b46ddfda5795ad4aabad9ad7e9161057560405190565b0390a3611469613ed160405190565b636c544f3360e01b815292839260048401613d45565b600080516020614de383398151915290613f046113ee82846112b2565b613f0e5750613de5565b611469612fb860405190565b611469613f2786926112e1565b92613f336101936112e1565b6040516316e2c7e160e31b815294859460048601612cba565b611469613f5986926112e1565b92613f6360405190565b629b36e560e71b815293849360048501613d28565b6114698361302e60405190565b6114698361305560405190565b6103c8906060613d09565b33613fb96113ee82600080516020614e038339815191526112b2565b806140db575b612fa15750613fd66113ee6112d58361019d6111aa565b61306f57613fe96103c88261019c6111aa565b60048101613ff96113ee826112a8565b614096576140069061231a565b614089576000614019916118f784614326565b6140446132e17f259d619dd0cb65e38935bc4d065aed38b08f204b46ddfda5795ad4aabad9ad7e9390565b9161404e60405190565b60208082526019908201527f4d616e75616c6c79206d61726b6564206173206661696c656400000000000000604082015280606081016132f4565b6114698261302e60405190565b60405162461bcd60e51b815260206004820152601c60248201527f5472616e73616374696f6e206e6f7420657865637574656420796574000000006044820152606490fd5b506140f76113ee82600080516020614da38339815191526112b2565b613fbf565b906103c8916141096130e0565b90612cb191614116613149565b506141296113ee6112d58361019d6111aa565b61306f5761413c6103c88261019c6111aa565b906004820161414d6113ee826112a8565b6142dc5761415a9061231a565b6130215761019e926141726113ee6112d584876111aa565b6142dc57426003840161418a6103c8612e73836112e1565b82116142cf5750506141a7600080516020614e0383398151915290565b6141b23380926112b2565b80156142ac575b155b612fa157506141c9836118dd565b92826141f46141e660026141df600186016112e1565b9401612df7565b9661158c60009687926111aa565b7f3d87529e931e3954abe9b7b3b2655c7548dfab376c9bab3424fcd160754e717a9281948594614223886109cf565b96879161422f60405190565b8061423b8d8a83612e00565b0390a38060208901895190868a5af19261425b614256611c9d565b941590565b1561426f575050906103c8613e9492614326565b9295509590507f8b7b712167f6dc65bddd7d9a42eec3ed7de70db3ffda6e8fbb166195a0fa10cb91613cc46142a360405190565b92839283612e00565b506141bb6142c882600080516020614da38339815191526112b2565b90506141b9565b611469613f2785926112e1565b611469826142e960405190565b63d143665b60e01b81529182916004830190815260200190565b6103c89060606140fc565b6112d56103c89161431d600090565b5061019e6111aa565b6103ea9061158c60019161019e6111aa565b6103ea906143446130e0565b61019d6143576113ee6112d584846111aa565b61447257600461436c6103c88461019c6111aa565b01614376816112a8565b613f85576143838161231a565b613f7857336143a36113ee82600080516020614e238339815191526112b2565b8061443f575b8061441e575b806143fd575b612fa15750906143ca6143d6926001906123b4565b61158c836000926111aa565b7fdecc068a49633f4a89136211fcf06f0c95bb0756be29aaba7e7eec56da7945c590611be2565b506144196113ee82600080516020614da38339815191526112b2565b6143b5565b5061443a6113ee82600080516020614dc38339815191526112b2565b6143af565b5061446d6113ee827ffd643c72710c63c0180259aba6b2d05451e3591a24e58b62239378085726f7836112b2565b6143a9565b6114698261307c60405190565b6103ea90614338565b6103c86144a091614497600090565b5061019c6111aa565b906144aa826118dd565b916144b7600182016112e1565b9260028201926144e06144d860046144d1600387016112e1565b95016112a8565b929594612df7565b929190565b336145016113ee82600080516020614e038339815191526112b2565b806145c4575b806145a6575b612fa15750600061451d81610e33565b8214612a88578183106145945761453390610e33565b831461459457614545816101916120af565b614551826101926120af565b61455d836101936120af565b6124787f322b0dd3c627850b87e09a9ef02a879ae06005ca4b830e3905acd60dd0ab22529361458b60405190565b93849384613d28565b604051635435b28960e11b8152600490fd5b506145b36103bc306109cf565b6001600160a01b038216141561450d565b506145e06113ee82600080516020614da38339815191526112b2565b614507565b9091926145fd600080516020614e0383398151915290565b61460b6113ee3380936112b2565b806146fc575b806146de575b612fa1575061462a6103c86101916112e1565b8210613844578183106146cc578284106146cc578381106146cc576146536103c86101926112e1565b81116146c15761247890614669836101956120af565b614675846101966120af565b614681856101976120af565b61468d816101986120af565b7f929801ff877f7a915c9ec76d4847c2d4a4368b08aaa23bde6330cd294a7749ee946146b860405190565b94859485612cba565b6138216101926112e1565b6040516346147f2b60e11b8152600490fd5b506146eb6103bc306109cf565b6001600160a01b0382161415614617565b506147186113ee82600080516020614da38339815191526112b2565b614611565b6103ea9190614739600080516020614e03833981519152611350565b6147498261266c83610199610ecb565b611bef6147767fb56383735083852e01d74eec8f679e3393a792f6c20639b89dde1717b30d88df92610ebe565b92610a9260405190565b906103ea9161471d565b6103ea939291906147a8600080516020614e03833981519152611350565b6147d1565b9190811015611dfd576020020190565b356103c881610ab6565b356103c881610421565b9293928193858503614594576147e76000610e33565b855b81101561487f576148788161482661480d6148086147e9958c8b6147ad565b6147bd565b61266c610199612862614821868c8c6147ad565b6147c7565b6148346148218288886147ad565b614842614808838c8b6147ad565b906148706147767fb56383735083852e01d74eec8f679e3393a792f6c20639b89dde1717b30d88df92610ebe565b0390a2612509565b90506147e7565b50945050505050565b906103ea93929161478a565b6103ea91906148b0600080516020614e03833981519152611350565b6148c08261266c8361019a6109d8565b611bef6147767f9dbde1f7b92ae666293ae43dfba2b144a807f209b093d4db911efa90895e14d3926109cf565b906103ea91614894565b6103ea93929190614915600080516020614e03833981519152611350565b614924565b356103c8816103cb565b92939281938585036145945761493a6000610e33565b855b81101561487f576149c48161497a61495b61480861493c958c8b6147ad565b61266c61019a61497461496f868c8c6147ad565b61491a565b906109d8565b61498861496f8288886147ad565b614996614808838c8b6147ad565b906148706147767f9dbde1f7b92ae666293ae43dfba2b144a807f209b093d4db911efa90895e14d3926109cf565b905061493a565b906103ea9392916148f7565b906103c89392916149e66130e0565b614a04565b610ebe6149fe6103c89263ffffffff1690565b60e01b90565b506000929091614a1384610e33565b8314612a885782811061459457614a2984610e33565b821461459457600080516020614dc383398151915233614a4c6113ee82846112b2565b80614aca575b613f0e575050600492614a8e6103c89593614a9d93614a746319c51aad6149eb565b93614a7e60405190565b9788956020870190815201613d28565b602082018103825203836108ba565b614aa6306109cf565b91614ab18184613571565b92614ac4614abe856135ff565b93610e33565b90613b1d565b50614ae66113ee82600080516020614da38339815191526112b2565b614a52565b6103c892919060006149d7565b906103c894939291614b086130e0565b50929190614b1a6103c86101916112e1565b8410614c0c578381106146cc578082106146cc578183106146cc57614b436103c86101926112e1565b8311614c0057600080516020614dc383398151915233614b666113ee82846112b2565b80614bdf575b613f0e57505092614ba8600493614bb7936103c896614b8e6319330bfd6149eb565b94614b9860405190565b9788966020880190815201612cba565b602082018103825203826108ba565b614bc0306109cf565b614bca8282613571565b91614bd4836135ff565b91614ac46000610e33565b50614bfb6113ee82600080516020614da38339815191526112b2565b614b6c565b826138216101926112e1565b836138506101916112e1565b6103c8939291906000614af8565b6103ea90614c41600080516020614e23833981519152611350565b15614c7857614c4e614cf9565b7f81990fd9a5c552b8e3677917d8a03c07678f0d2cb68f88b634aca2022e9bd19f611be2336109cf565b614c80614d47565b7f5b65b0c1363b3003db9bcc5e1fd8805a6d6bf5bf6dc9d3431ee4494cd7d11766611be2336109cf565b6103ea90614c26565b614cbb6130e0565b6103ea614cca600160c9611545565b336124787f62e78cea01bee320cd4e420270b5ea74000d11b0c9f74754ebdbfc544b05a25891610d7160405190565b6103ea614cb3565b614d09614d92565b6103ea614d18600060c9611545565b336124787f5db9ee0a495bf2e6ff9c91a7834c1ba4fdd244a5e8aa4e537bd38aeae4b073aa91610d7160405190565b6103ea614d01565b15614d5657565b60405162461bcd60e51b815260206004820152601460248201527314185d5cd8589b194e881b9bdd081c185d5cd95960621b6044820152606490fd5b6103ea614d9d611c24565b614d4f56fe71840dc4906352362b0cdaf79870196c8e42acafade72d5d5a6d59291253ceb1b09aa5aeb3702cfd50b6b62bc4532604938f21248a27a1d5ca736082b6819cc1d8aa0f3194971a2a116679f7c2090f6939c8d4e01a2a8d7e41d55e5351469e63a49807205ce4d355092ef5a8a18f56e8913cf4a201fbe287825b095693c2177555435dd261a4b9b3364963f7738a7a662ad9c84396d64be3365284bb7f0a5041a164736f6c6343000814000a",
  "linkReferences": {},
  "deployedLinkReferences": {}
}