{
  "_format": "hh-sol-artifact-1",
  "contractName": "JustTimelockUpgradeable",
  "sourceName": "contracts/JustTimelockUpgradeable.sol",
  "abi": [
    {
      "inputs": [
        {
          "internalType": "bytes32",
          "name": "txHash",
          "type": "bytes32"
        }
      ],
      "name": "AlreadyCanceled",
      "type": "error"
    },
    {
      "inputs": [
        {
          "internalType": "address",
          "name": "target",
          "type": "address"
        },
        {
          "internalType": "bytes",
          "name": "data",
          "type": "bytes"
        }
      ],
      "name": "CallFailed",
      "type": "error"
    },
    {
      "inputs": [],
      "name": "DelayHierarchyViolation",
      "type": "error"
    },
    {
      "inputs": [
        {
          "internalType": "uint256",
          "name": "provided",
          "type": "uint256"
        },
        {
          "internalType": "uint256",
          "name": "maximum",
          "type": "uint256"
        }
      ],
      "name": "DelayTooLong",
      "type": "error"
    },
    {
      "inputs": [
        {
          "internalType": "uint256",
          "name": "provided",
          "type": "uint256"
        },
        {
          "internalType": "uint256",
          "name": "minimum",
          "type": "uint256"
        }
      ],
      "name": "DelayTooShort",
      "type": "error"
    },
    {
      "inputs": [],
      "name": "InvalidParams",
      "type": "error"
    },
    {
      "inputs": [
        {
          "internalType": "address",
          "name": "caller",
          "type": "address"
        }
      ],
      "name": "NoTokenHolding",
      "type": "error"
    },
    {
      "inputs": [
        {
          "internalType": "address",
          "name": "caller",
          "type": "address"
        },
        {
          "internalType": "bytes32",
          "name": "role",
          "type": "bytes32"
        }
      ],
      "name": "NotAuthorized",
      "type": "error"
    },
    {
      "inputs": [
        {
          "internalType": "bytes32",
          "name": "txHash",
          "type": "bytes32"
        },
        {
          "internalType": "uint256",
          "name": "eta",
          "type": "uint256"
        },
        {
          "internalType": "uint256",
          "name": "gracePeriod",
          "type": "uint256"
        },
        {
          "internalType": "uint256",
          "name": "currentTime",
          "type": "uint256"
        }
      ],
      "name": "TransactionNotExpired",
      "type": "error"
    },
    {
      "inputs": [
        {
          "internalType": "bytes32",
          "name": "txHash",
          "type": "bytes32"
        }
      ],
      "name": "TransactionNotPreviouslyFailed",
      "type": "error"
    },
    {
      "inputs": [
        {
          "internalType": "bytes32",
          "name": "txHash",
          "type": "bytes32"
        }
      ],
      "name": "TxAlreadyExecuted",
      "type": "error"
    },
    {
      "inputs": [
        {
          "internalType": "bytes32",
          "name": "txHash",
          "type": "bytes32"
        }
      ],
      "name": "TxAlreadyQueued",
      "type": "error"
    },
    {
      "inputs": [
        {
          "internalType": "bytes32",
          "name": "txHash",
          "type": "bytes32"
        },
        {
          "internalType": "uint256",
          "name": "eta",
          "type": "uint256"
        },
        {
          "internalType": "uint256",
          "name": "gracePeriod",
          "type": "uint256"
        },
        {
          "internalType": "uint256",
          "name": "currentTime",
          "type": "uint256"
        }
      ],
      "name": "TxExpired",
      "type": "error"
    },
    {
      "inputs": [
        {
          "internalType": "bytes32",
          "name": "txHash",
          "type": "bytes32"
        }
      ],
      "name": "TxNotQueued",
      "type": "error"
    },
    {
      "inputs": [
        {
          "internalType": "bytes32",
          "name": "txHash",
          "type": "bytes32"
        },
        {
          "internalType": "uint256",
          "name": "eta",
          "type": "uint256"
        },
        {
          "internalType": "uint256",
          "name": "currentTime",
          "type": "uint256"
        }
      ],
      "name": "TxNotReady",
      "type": "error"
    },
    {
      "inputs": [
        {
          "internalType": "string",
          "name": "param",
          "type": "string"
        }
      ],
      "name": "ZeroAddress",
      "type": "error"
    },
    {
      "inputs": [],
      "name": "ZeroDelay",
      "type": "error"
    },
    {
      "anonymous": false,
      "inputs": [
        {
          "indexed": true,
          "internalType": "address",
          "name": "target",
          "type": "address"
        },
        {
          "indexed": false,
          "internalType": "enum JustTimelockUpgradeable.ThreatLevel",
          "name": "level",
          "type": "uint8"
        }
      ],
      "name": "AddressThreatLevelSet",
      "type": "event"
    },
    {
      "anonymous": false,
      "inputs": [
        {
          "indexed": false,
          "internalType": "address",
          "name": "previousAdmin",
          "type": "address"
        },
        {
          "indexed": false,
          "internalType": "address",
          "name": "newAdmin",
          "type": "address"
        }
      ],
      "name": "AdminChanged",
      "type": "event"
    },
    {
      "anonymous": false,
      "inputs": [
        {
          "indexed": true,
          "internalType": "address",
          "name": "beacon",
          "type": "address"
        }
      ],
      "name": "BeaconUpgraded",
      "type": "event"
    },
    {
      "anonymous": false,
      "inputs": [
        {
          "indexed": true,
          "internalType": "address",
          "name": "admin",
          "type": "address"
        },
        {
          "indexed": false,
          "internalType": "uint256",
          "name": "minDelay",
          "type": "uint256"
        }
      ],
      "name": "ContractInitialized",
      "type": "event"
    },
    {
      "anonymous": false,
      "inputs": [
        {
          "indexed": true,
          "internalType": "address",
          "name": "guardian",
          "type": "address"
        }
      ],
      "name": "ContractPaused",
      "type": "event"
    },
    {
      "anonymous": false,
      "inputs": [
        {
          "indexed": true,
          "internalType": "address",
          "name": "guardian",
          "type": "address"
        }
      ],
      "name": "ContractUnpaused",
      "type": "event"
    },
    {
      "anonymous": false,
      "inputs": [
        {
          "indexed": false,
          "internalType": "uint256",
          "name": "newMinDelay",
          "type": "uint256"
        },
        {
          "indexed": false,
          "internalType": "uint256",
          "name": "newMaxDelay",
          "type": "uint256"
        },
        {
          "indexed": false,
          "internalType": "uint256",
          "name": "newGracePeriod",
          "type": "uint256"
        }
      ],
      "name": "DelaysUpdated",
      "type": "event"
    },
    {
      "anonymous": false,
      "inputs": [
        {
          "indexed": false,
          "internalType": "uint256",
          "name": "newThreshold",
          "type": "uint256"
        }
      ],
      "name": "ExecutorThresholdUpdated",
      "type": "event"
    },
    {
      "anonymous": false,
      "inputs": [
        {
          "indexed": true,
          "internalType": "bytes32",
          "name": "txHash",
          "type": "bytes32"
        },
        {
          "indexed": true,
          "internalType": "address",
          "name": "target",
          "type": "address"
        },
        {
          "indexed": false,
          "internalType": "uint256",
          "name": "value",
          "type": "uint256"
        },
        {
          "indexed": false,
          "internalType": "bytes",
          "name": "data",
          "type": "bytes"
        }
      ],
      "name": "ExpiredTransactionExecuted",
      "type": "event"
    },
    {
      "anonymous": false,
      "inputs": [
        {
          "indexed": true,
          "internalType": "bytes32",
          "name": "txHash",
          "type": "bytes32"
        },
        {
          "indexed": true,
          "internalType": "address",
          "name": "target",
          "type": "address"
        },
        {
          "indexed": false,
          "internalType": "uint256",
          "name": "value",
          "type": "uint256"
        },
        {
          "indexed": false,
          "internalType": "bytes",
          "name": "data",
          "type": "bytes"
        }
      ],
      "name": "FailedTransactionRetried",
      "type": "event"
    },
    {
      "anonymous": false,
      "inputs": [
        {
          "indexed": true,
          "internalType": "bytes4",
          "name": "selector",
          "type": "bytes4"
        },
        {
          "indexed": false,
          "internalType": "enum JustTimelockUpgradeable.ThreatLevel",
          "name": "level",
          "type": "uint8"
        }
      ],
      "name": "FunctionThreatLevelSet",
      "type": "event"
    },
    {
      "anonymous": false,
      "inputs": [
        {
          "indexed": true,
          "internalType": "address",
          "name": "account",
          "type": "address"
        },
        {
          "indexed": false,
          "internalType": "bool",
          "name": "isGranted",
          "type": "bool"
        }
      ],
      "name": "GovernanceRoleChanged",
      "type": "event"
    },
    {
      "anonymous": false,
      "inputs": [
        {
          "indexed": true,
          "internalType": "address",
          "name": "oldGovernance",
          "type": "address"
        },
        {
          "indexed": true,
          "internalType": "address",
          "name": "newGovernance",
          "type": "address"
        }
      ],
      "name": "GovernanceRoleTransferred",
      "type": "event"
    },
    {
      "anonymous": false,
      "inputs": [
        {
          "indexed": false,
          "internalType": "uint8",
          "name": "version",
          "type": "uint8"
        }
      ],
      "name": "Initialized",
      "type": "event"
    },
    {
      "anonymous": false,
      "inputs": [
        {
          "indexed": true,
          "internalType": "address",
          "name": "tokenAddress",
          "type": "address"
        }
      ],
      "name": "JustTokenSet",
      "type": "event"
    },
    {
      "anonymous": false,
      "inputs": [
        {
          "indexed": false,
          "internalType": "address",
          "name": "account",
          "type": "address"
        }
      ],
      "name": "Paused",
      "type": "event"
    },
    {
      "anonymous": false,
      "inputs": [
        {
          "indexed": true,
          "internalType": "bytes32",
          "name": "role",
          "type": "bytes32"
        },
        {
          "indexed": true,
          "internalType": "bytes32",
          "name": "previousAdminRole",
          "type": "bytes32"
        },
        {
          "indexed": true,
          "internalType": "bytes32",
          "name": "newAdminRole",
          "type": "bytes32"
        }
      ],
      "name": "RoleAdminChanged",
      "type": "event"
    },
    {
      "anonymous": false,
      "inputs": [
        {
          "indexed": true,
          "internalType": "bytes32",
          "name": "role",
          "type": "bytes32"
        },
        {
          "indexed": true,
          "internalType": "address",
          "name": "account",
          "type": "address"
        },
        {
          "indexed": true,
          "internalType": "address",
          "name": "sender",
          "type": "address"
        }
      ],
      "name": "RoleGranted",
      "type": "event"
    },
    {
      "anonymous": false,
      "inputs": [
        {
          "indexed": true,
          "internalType": "bytes32",
          "name": "role",
          "type": "bytes32"
        },
        {
          "indexed": true,
          "internalType": "address",
          "name": "account",
          "type": "address"
        }
      ],
      "name": "RoleGranted",
      "type": "event"
    },
    {
      "anonymous": false,
      "inputs": [
        {
          "indexed": true,
          "internalType": "bytes32",
          "name": "role",
          "type": "bytes32"
        },
        {
          "indexed": true,
          "internalType": "address",
          "name": "account",
          "type": "address"
        },
        {
          "indexed": true,
          "internalType": "address",
          "name": "sender",
          "type": "address"
        }
      ],
      "name": "RoleRevoked",
      "type": "event"
    },
    {
      "anonymous": false,
      "inputs": [
        {
          "indexed": true,
          "internalType": "bytes32",
          "name": "role",
          "type": "bytes32"
        },
        {
          "indexed": true,
          "internalType": "address",
          "name": "account",
          "type": "address"
        }
      ],
      "name": "RoleRevoked",
      "type": "event"
    },
    {
      "anonymous": false,
      "inputs": [
        {
          "indexed": false,
          "internalType": "uint256",
          "name": "lowDelay",
          "type": "uint256"
        },
        {
          "indexed": false,
          "internalType": "uint256",
          "name": "mediumDelay",
          "type": "uint256"
        },
        {
          "indexed": false,
          "internalType": "uint256",
          "name": "highDelay",
          "type": "uint256"
        },
        {
          "indexed": false,
          "internalType": "uint256",
          "name": "criticalDelay",
          "type": "uint256"
        }
      ],
      "name": "ThreatLevelDelaysUpdated",
      "type": "event"
    },
    {
      "anonymous": false,
      "inputs": [
        {
          "indexed": true,
          "internalType": "bytes32",
          "name": "txHash",
          "type": "bytes32"
        }
      ],
      "name": "TransactionCanceled",
      "type": "event"
    },
    {
      "anonymous": false,
      "inputs": [
        {
          "indexed": true,
          "internalType": "bytes32",
          "name": "txHash",
          "type": "bytes32"
        },
        {
          "indexed": true,
          "internalType": "address",
          "name": "target",
          "type": "address"
        },
        {
          "indexed": false,
          "internalType": "uint256",
          "name": "value",
          "type": "uint256"
        },
        {
          "indexed": false,
          "internalType": "bytes",
          "name": "data",
          "type": "bytes"
        }
      ],
      "name": "TransactionExecuted",
      "type": "event"
    },
    {
      "anonymous": false,
      "inputs": [
        {
          "indexed": true,
          "internalType": "bytes32",
          "name": "txHash",
          "type": "bytes32"
        },
        {
          "indexed": true,
          "internalType": "address",
          "name": "target",
          "type": "address"
        },
        {
          "indexed": false,
          "internalType": "string",
          "name": "reason",
          "type": "string"
        }
      ],
      "name": "TransactionExecutionFailed",
      "type": "event"
    },
    {
      "anonymous": false,
      "inputs": [
        {
          "indexed": true,
          "internalType": "bytes32",
          "name": "txHash",
          "type": "bytes32"
        },
        {
          "indexed": true,
          "internalType": "address",
          "name": "target",
          "type": "address"
        },
        {
          "indexed": false,
          "internalType": "uint256",
          "name": "value",
          "type": "uint256"
        },
        {
          "indexed": false,
          "internalType": "bytes",
          "name": "data",
          "type": "bytes"
        },
        {
          "indexed": false,
          "internalType": "uint256",
          "name": "eta",
          "type": "uint256"
        },
        {
          "indexed": false,
          "internalType": "enum JustTimelockUpgradeable.ThreatLevel",
          "name": "threatLevel",
          "type": "uint8"
        }
      ],
      "name": "TransactionQueued",
      "type": "event"
    },
    {
      "anonymous": false,
      "inputs": [
        {
          "indexed": true,
          "internalType": "bytes32",
          "name": "txHash",
          "type": "bytes32"
        },
        {
          "indexed": true,
          "internalType": "address",
          "name": "proposer",
          "type": "address"
        }
      ],
      "name": "TransactionSubmitted",
      "type": "event"
    },
    {
      "anonymous": false,
      "inputs": [
        {
          "indexed": false,
          "internalType": "address",
          "name": "account",
          "type": "address"
        }
      ],
      "name": "Unpaused",
      "type": "event"
    },
    {
      "anonymous": false,
      "inputs": [
        {
          "indexed": true,
          "internalType": "address",
          "name": "implementation",
          "type": "address"
        }
      ],
      "name": "Upgraded",
      "type": "event"
    },
    {
      "inputs": [],
      "name": "ADMIN_ROLE",
      "outputs": [
        {
          "internalType": "bytes32",
          "name": "",
          "type": "bytes32"
        }
      ],
      "stateMutability": "view",
      "type": "function"
    },
    {
      "inputs": [],
      "name": "CANCELLER_ROLE",
      "outputs": [
        {
          "internalType": "bytes32",
          "name": "",
          "type": "bytes32"
        }
      ],
      "stateMutability": "view",
      "type": "function"
    },
    {
      "inputs": [],
      "name": "DEFAULT_ADMIN_ROLE",
      "outputs": [
        {
          "internalType": "bytes32",
          "name": "",
          "type": "bytes32"
        }
      ],
      "stateMutability": "view",
      "type": "function"
    },
    {
      "inputs": [],
      "name": "EXECUTOR_ROLE",
      "outputs": [
        {
          "internalType": "bytes32",
          "name": "",
          "type": "bytes32"
        }
      ],
      "stateMutability": "view",
      "type": "function"
    },
    {
      "inputs": [],
      "name": "GOVERNANCE_ROLE",
      "outputs": [
        {
          "internalType": "bytes32",
          "name": "",
          "type": "bytes32"
        }
      ],
      "stateMutability": "view",
      "type": "function"
    },
    {
      "inputs": [],
      "name": "GUARDIAN_ROLE",
      "outputs": [
        {
          "internalType": "bytes32",
          "name": "",
          "type": "bytes32"
        }
      ],
      "stateMutability": "view",
      "type": "function"
    },
    {
      "inputs": [],
      "name": "MINTER_ROLE",
      "outputs": [
        {
          "internalType": "bytes32",
          "name": "",
          "type": "bytes32"
        }
      ],
      "stateMutability": "view",
      "type": "function"
    },
    {
      "inputs": [],
      "name": "PROPOSER_ROLE",
      "outputs": [
        {
          "internalType": "bytes32",
          "name": "",
          "type": "bytes32"
        }
      ],
      "stateMutability": "view",
      "type": "function"
    },
    {
      "inputs": [],
      "name": "TIMELOCK_ADMIN_ROLE",
      "outputs": [
        {
          "internalType": "bytes32",
          "name": "",
          "type": "bytes32"
        }
      ],
      "stateMutability": "view",
      "type": "function"
    },
    {
      "inputs": [
        {
          "internalType": "address",
          "name": "",
          "type": "address"
        }
      ],
      "name": "addressThreatLevels",
      "outputs": [
        {
          "internalType": "enum JustTimelockUpgradeable.ThreatLevel",
          "name": "",
          "type": "uint8"
        }
      ],
      "stateMutability": "view",
      "type": "function"
    },
    {
      "inputs": [
        {
          "internalType": "bytes32",
          "name": "txHash",
          "type": "bytes32"
        }
      ],
      "name": "cancelTransaction",
      "outputs": [],
      "stateMutability": "nonpayable",
      "type": "function"
    },
    {
      "inputs": [],
      "name": "criticalThreatDelay",
      "outputs": [
        {
          "internalType": "uint256",
          "name": "",
          "type": "uint256"
        }
      ],
      "stateMutability": "view",
      "type": "function"
    },
    {
      "inputs": [
        {
          "internalType": "bytes32",
          "name": "txHash",
          "type": "bytes32"
        }
      ],
      "name": "executeExpiredTransaction",
      "outputs": [
        {
          "internalType": "bytes",
          "name": "returnData",
          "type": "bytes"
        }
      ],
      "stateMutability": "nonpayable",
      "type": "function"
    },
    {
      "inputs": [
        {
          "internalType": "bytes32",
          "name": "txHash",
          "type": "bytes32"
        }
      ],
      "name": "executeFailedTransaction",
      "outputs": [
        {
          "internalType": "bytes",
          "name": "returnData",
          "type": "bytes"
        }
      ],
      "stateMutability": "nonpayable",
      "type": "function"
    },
    {
      "inputs": [
        {
          "internalType": "bytes32",
          "name": "txHash",
          "type": "bytes32"
        }
      ],
      "name": "executeTransaction",
      "outputs": [
        {
          "internalType": "bytes",
          "name": "returnData",
          "type": "bytes"
        }
      ],
      "stateMutability": "nonpayable",
      "type": "function"
    },
    {
      "inputs": [
        {
          "internalType": "bytes4",
          "name": "",
          "type": "bytes4"
        }
      ],
      "name": "functionThreatLevels",
      "outputs": [
        {
          "internalType": "enum JustTimelockUpgradeable.ThreatLevel",
          "name": "",
          "type": "uint8"
        }
      ],
      "stateMutability": "view",
      "type": "function"
    },
    {
      "inputs": [
        {
          "internalType": "enum JustTimelockUpgradeable.ThreatLevel",
          "name": "level",
          "type": "uint8"
        }
      ],
      "name": "getDelayForThreatLevel",
      "outputs": [
        {
          "internalType": "uint256",
          "name": "",
          "type": "uint256"
        }
      ],
      "stateMutability": "view",
      "type": "function"
    },
    {
      "inputs": [],
      "name": "getPendingTransactionCount",
      "outputs": [
        {
          "internalType": "uint256",
          "name": "",
          "type": "uint256"
        }
      ],
      "stateMutability": "view",
      "type": "function"
    },
    {
      "inputs": [],
      "name": "getPendingTransactions",
      "outputs": [
        {
          "internalType": "bytes32[]",
          "name": "",
          "type": "bytes32[]"
        }
      ],
      "stateMutability": "view",
      "type": "function"
    },
    {
      "inputs": [
        {
          "internalType": "bytes32",
          "name": "role",
          "type": "bytes32"
        }
      ],
      "name": "getRoleAdmin",
      "outputs": [
        {
          "internalType": "bytes32",
          "name": "",
          "type": "bytes32"
        }
      ],
      "stateMutability": "view",
      "type": "function"
    },
    {
      "inputs": [
        {
          "internalType": "bytes32",
          "name": "role",
          "type": "bytes32"
        },
        {
          "internalType": "uint256",
          "name": "index",
          "type": "uint256"
        }
      ],
      "name": "getRoleMember",
      "outputs": [
        {
          "internalType": "address",
          "name": "",
          "type": "address"
        }
      ],
      "stateMutability": "view",
      "type": "function"
    },
    {
      "inputs": [
        {
          "internalType": "bytes32",
          "name": "role",
          "type": "bytes32"
        }
      ],
      "name": "getRoleMemberCount",
      "outputs": [
        {
          "internalType": "uint256",
          "name": "",
          "type": "uint256"
        }
      ],
      "stateMutability": "view",
      "type": "function"
    },
    {
      "inputs": [
        {
          "internalType": "address",
          "name": "target",
          "type": "address"
        },
        {
          "internalType": "bytes",
          "name": "data",
          "type": "bytes"
        }
      ],
      "name": "getThreatLevel",
      "outputs": [
        {
          "internalType": "enum JustTimelockUpgradeable.ThreatLevel",
          "name": "",
          "type": "uint8"
        }
      ],
      "stateMutability": "view",
      "type": "function"
    },
    {
      "inputs": [
        {
          "internalType": "bytes32",
          "name": "txHash",
          "type": "bytes32"
        }
      ],
      "name": "getTransaction",
      "outputs": [
        {
          "internalType": "address",
          "name": "target",
          "type": "address"
        },
        {
          "internalType": "uint256",
          "name": "value",
          "type": "uint256"
        },
        {
          "internalType": "bytes",
          "name": "data",
          "type": "bytes"
        },
        {
          "internalType": "uint256",
          "name": "eta",
          "type": "uint256"
        },
        {
          "internalType": "uint8",
          "name": "state",
          "type": "uint8"
        }
      ],
      "stateMutability": "view",
      "type": "function"
    },
    {
      "inputs": [
        {
          "internalType": "bytes32",
          "name": "txHash",
          "type": "bytes32"
        }
      ],
      "name": "getTransactionStatus",
      "outputs": [
        {
          "internalType": "bool",
          "name": "exists",
          "type": "bool"
        },
        {
          "internalType": "bool",
          "name": "executed",
          "type": "bool"
        },
        {
          "internalType": "bool",
          "name": "canceled",
          "type": "bool"
        },
        {
          "internalType": "bool",
          "name": "failed",
          "type": "bool"
        },
        {
          "internalType": "bool",
          "name": "expired",
          "type": "bool"
        },
        {
          "internalType": "bool",
          "name": "readyToExecute",
          "type": "bool"
        }
      ],
      "stateMutability": "view",
      "type": "function"
    },
    {
      "inputs": [],
      "name": "gracePeriod",
      "outputs": [
        {
          "internalType": "uint256",
          "name": "",
          "type": "uint256"
        }
      ],
      "stateMutability": "view",
      "type": "function"
    },
    {
      "inputs": [
        {
          "internalType": "bytes32",
          "name": "role",
          "type": "bytes32"
        },
        {
          "internalType": "address",
          "name": "account",
          "type": "address"
        }
      ],
      "name": "grantContractRole",
      "outputs": [],
      "stateMutability": "nonpayable",
      "type": "function"
    },
    {
      "inputs": [
        {
          "internalType": "bytes32",
          "name": "role",
          "type": "bytes32"
        },
        {
          "internalType": "address",
          "name": "account",
          "type": "address"
        }
      ],
      "name": "grantRole",
      "outputs": [],
      "stateMutability": "nonpayable",
      "type": "function"
    },
    {
      "inputs": [
        {
          "internalType": "bytes32",
          "name": "role",
          "type": "bytes32"
        },
        {
          "internalType": "address",
          "name": "account",
          "type": "address"
        }
      ],
      "name": "hasRole",
      "outputs": [
        {
          "internalType": "bool",
          "name": "",
          "type": "bool"
        }
      ],
      "stateMutability": "view",
      "type": "function"
    },
    {
      "inputs": [],
      "name": "highThreatDelay",
      "outputs": [
        {
          "internalType": "uint256",
          "name": "",
          "type": "uint256"
        }
      ],
      "stateMutability": "view",
      "type": "function"
    },
    {
      "inputs": [
        {
          "internalType": "uint256",
          "name": "initialMinDelay",
          "type": "uint256"
        },
        {
          "internalType": "address[]",
          "name": "proposers",
          "type": "address[]"
        },
        {
          "internalType": "address[]",
          "name": "executors",
          "type": "address[]"
        },
        {
          "internalType": "address",
          "name": "admin",
          "type": "address"
        }
      ],
      "name": "initialize",
      "outputs": [],
      "stateMutability": "nonpayable",
      "type": "function"
    },
    {
      "inputs": [
        {
          "internalType": "address",
          "name": "user",
          "type": "address"
        }
      ],
      "name": "isAuthorizedByTokens",
      "outputs": [
        {
          "internalType": "bool",
          "name": "",
          "type": "bool"
        }
      ],
      "stateMutability": "view",
      "type": "function"
    },
    {
      "inputs": [
        {
          "internalType": "bytes32",
          "name": "txHash",
          "type": "bytes32"
        }
      ],
      "name": "isCanceled",
      "outputs": [
        {
          "internalType": "bool",
          "name": "",
          "type": "bool"
        }
      ],
      "stateMutability": "view",
      "type": "function"
    },
    {
      "inputs": [],
      "name": "justToken",
      "outputs": [
        {
          "internalType": "contract JustTokenInterface",
          "name": "",
          "type": "address"
        }
      ],
      "stateMutability": "view",
      "type": "function"
    },
    {
      "inputs": [],
      "name": "lowThreatDelay",
      "outputs": [
        {
          "internalType": "uint256",
          "name": "",
          "type": "uint256"
        }
      ],
      "stateMutability": "view",
      "type": "function"
    },
    {
      "inputs": [
        {
          "internalType": "bytes32",
          "name": "txHash",
          "type": "bytes32"
        }
      ],
      "name": "markTransactionAsFailed",
      "outputs": [],
      "stateMutability": "nonpayable",
      "type": "function"
    },
    {
      "inputs": [],
      "name": "maxDelay",
      "outputs": [
        {
          "internalType": "uint256",
          "name": "",
          "type": "uint256"
        }
      ],
      "stateMutability": "view",
      "type": "function"
    },
    {
      "inputs": [],
      "name": "mediumThreatDelay",
      "outputs": [
        {
          "internalType": "uint256",
          "name": "",
          "type": "uint256"
        }
      ],
      "stateMutability": "view",
      "type": "function"
    },
    {
      "inputs": [],
      "name": "minDelay",
      "outputs": [
        {
          "internalType": "uint256",
          "name": "",
          "type": "uint256"
        }
      ],
      "stateMutability": "view",
      "type": "function"
    },
    {
      "inputs": [],
      "name": "minExecutorTokenThreshold",
      "outputs": [
        {
          "internalType": "uint256",
          "name": "",
          "type": "uint256"
        }
      ],
      "stateMutability": "view",
      "type": "function"
    },
    {
      "inputs": [],
      "name": "paused",
      "outputs": [
        {
          "internalType": "bool",
          "name": "",
          "type": "bool"
        }
      ],
      "stateMutability": "view",
      "type": "function"
    },
    {
      "inputs": [],
      "name": "proxiableUUID",
      "outputs": [
        {
          "internalType": "bytes32",
          "name": "",
          "type": "bytes32"
        }
      ],
      "stateMutability": "view",
      "type": "function"
    },
    {
      "inputs": [
        {
          "internalType": "uint256",
          "name": "newMinDelay",
          "type": "uint256"
        },
        {
          "internalType": "uint256",
          "name": "newMaxDelay",
          "type": "uint256"
        },
        {
          "internalType": "uint256",
          "name": "newGracePeriod",
          "type": "uint256"
        }
      ],
      "name": "queueDelayUpdate",
      "outputs": [
        {
          "internalType": "bytes32",
          "name": "",
          "type": "bytes32"
        }
      ],
      "stateMutability": "nonpayable",
      "type": "function"
    },
    {
      "inputs": [
        {
          "internalType": "uint256",
          "name": "newLowDelay",
          "type": "uint256"
        },
        {
          "internalType": "uint256",
          "name": "newMediumDelay",
          "type": "uint256"
        },
        {
          "internalType": "uint256",
          "name": "newHighDelay",
          "type": "uint256"
        },
        {
          "internalType": "uint256",
          "name": "newCriticalDelay",
          "type": "uint256"
        }
      ],
      "name": "queueThreatLevelDelaysUpdate",
      "outputs": [
        {
          "internalType": "bytes32",
          "name": "",
          "type": "bytes32"
        }
      ],
      "stateMutability": "nonpayable",
      "type": "function"
    },
    {
      "inputs": [
        {
          "internalType": "address",
          "name": "target",
          "type": "address"
        },
        {
          "internalType": "uint256",
          "name": "value",
          "type": "uint256"
        },
        {
          "internalType": "bytes",
          "name": "data",
          "type": "bytes"
        },
        {
          "internalType": "uint256",
          "name": "delay",
          "type": "uint256"
        }
      ],
      "name": "queueTransaction",
      "outputs": [
        {
          "internalType": "bytes32",
          "name": "",
          "type": "bytes32"
        }
      ],
      "stateMutability": "nonpayable",
      "type": "function"
    },
    {
      "inputs": [
        {
          "internalType": "address",
          "name": "target",
          "type": "address"
        },
        {
          "internalType": "uint256",
          "name": "value",
          "type": "uint256"
        },
        {
          "internalType": "bytes",
          "name": "data",
          "type": "bytes"
        }
      ],
      "name": "queueTransactionWithThreatLevel",
      "outputs": [
        {
          "internalType": "bytes32",
          "name": "",
          "type": "bytes32"
        }
      ],
      "stateMutability": "nonpayable",
      "type": "function"
    },
    {
      "inputs": [
        {
          "internalType": "bytes32",
          "name": "",
          "type": "bytes32"
        }
      ],
      "name": "queuedTransactions",
      "outputs": [
        {
          "internalType": "bool",
          "name": "",
          "type": "bool"
        }
      ],
      "stateMutability": "view",
      "type": "function"
    },
    {
      "inputs": [
        {
          "internalType": "bytes32",
          "name": "role",
          "type": "bytes32"
        },
        {
          "internalType": "address",
          "name": "account",
          "type": "address"
        }
      ],
      "name": "renounceRole",
      "outputs": [],
      "stateMutability": "nonpayable",
      "type": "function"
    },
    {
      "inputs": [
        {
          "internalType": "bytes32",
          "name": "role",
          "type": "bytes32"
        },
        {
          "internalType": "address",
          "name": "account",
          "type": "address"
        }
      ],
      "name": "revokeContractRole",
      "outputs": [],
      "stateMutability": "nonpayable",
      "type": "function"
    },
    {
      "inputs": [
        {
          "internalType": "bytes32",
          "name": "role",
          "type": "bytes32"
        },
        {
          "internalType": "address",
          "name": "account",
          "type": "address"
        }
      ],
      "name": "revokeRole",
      "outputs": [],
      "stateMutability": "nonpayable",
      "type": "function"
    },
    {
      "inputs": [
        {
          "internalType": "address",
          "name": "target",
          "type": "address"
        },
        {
          "internalType": "enum JustTimelockUpgradeable.ThreatLevel",
          "name": "level",
          "type": "uint8"
        }
      ],
      "name": "setAddressThreatLevel",
      "outputs": [],
      "stateMutability": "nonpayable",
      "type": "function"
    },
    {
      "inputs": [
        {
          "internalType": "address[]",
          "name": "targets",
          "type": "address[]"
        },
        {
          "internalType": "enum JustTimelockUpgradeable.ThreatLevel[]",
          "name": "levels",
          "type": "uint8[]"
        }
      ],
      "name": "setBatchAddressThreatLevels",
      "outputs": [],
      "stateMutability": "nonpayable",
      "type": "function"
    },
    {
      "inputs": [
        {
          "internalType": "bytes4[]",
          "name": "selectors",
          "type": "bytes4[]"
        },
        {
          "internalType": "enum JustTimelockUpgradeable.ThreatLevel[]",
          "name": "levels",
          "type": "uint8[]"
        }
      ],
      "name": "setBatchFunctionThreatLevels",
      "outputs": [],
      "stateMutability": "nonpayable",
      "type": "function"
    },
    {
      "inputs": [
        {
          "internalType": "bytes4",
          "name": "selector",
          "type": "bytes4"
        },
        {
          "internalType": "enum JustTimelockUpgradeable.ThreatLevel",
          "name": "level",
          "type": "uint8"
        }
      ],
      "name": "setFunctionThreatLevel",
      "outputs": [],
      "stateMutability": "nonpayable",
      "type": "function"
    },
    {
      "inputs": [
        {
          "internalType": "address",
          "name": "tokenAddress",
          "type": "address"
        }
      ],
      "name": "setJustToken",
      "outputs": [],
      "stateMutability": "nonpayable",
      "type": "function"
    },
    {
      "inputs": [
        {
          "internalType": "bool",
          "name": "isPaused",
          "type": "bool"
        }
      ],
      "name": "setPaused",
      "outputs": [],
      "stateMutability": "nonpayable",
      "type": "function"
    },
    {
      "inputs": [
        {
          "internalType": "bytes4",
          "name": "interfaceId",
          "type": "bytes4"
        }
      ],
      "name": "supportsInterface",
      "outputs": [
        {
          "internalType": "bool",
          "name": "",
          "type": "bool"
        }
      ],
      "stateMutability": "view",
      "type": "function"
    },
    {
      "inputs": [
        {
          "internalType": "uint256",
          "name": "newMinDelay",
          "type": "uint256"
        },
        {
          "internalType": "uint256",
          "name": "newMaxDelay",
          "type": "uint256"
        },
        {
          "internalType": "uint256",
          "name": "newGracePeriod",
          "type": "uint256"
        }
      ],
      "name": "updateDelays",
      "outputs": [],
      "stateMutability": "nonpayable",
      "type": "function"
    },
    {
      "inputs": [
        {
          "internalType": "uint256",
          "name": "newThreshold",
          "type": "uint256"
        }
      ],
      "name": "updateExecutorTokenThreshold",
      "outputs": [],
      "stateMutability": "nonpayable",
      "type": "function"
    },
    {
      "inputs": [
        {
          "internalType": "uint256",
          "name": "newLowDelay",
          "type": "uint256"
        },
        {
          "internalType": "uint256",
          "name": "newMediumDelay",
          "type": "uint256"
        },
        {
          "internalType": "uint256",
          "name": "newHighDelay",
          "type": "uint256"
        },
        {
          "internalType": "uint256",
          "name": "newCriticalDelay",
          "type": "uint256"
        }
      ],
      "name": "updateThreatLevelDelays",
      "outputs": [],
      "stateMutability": "nonpayable",
      "type": "function"
    },
    {
      "inputs": [
        {
          "internalType": "address",
          "name": "newImplementation",
          "type": "address"
        }
      ],
      "name": "upgradeTo",
      "outputs": [],
      "stateMutability": "nonpayable",
      "type": "function"
    },
    {
      "inputs": [
        {
          "internalType": "address",
          "name": "newImplementation",
          "type": "address"
        },
        {
          "internalType": "bytes",
          "name": "data",
          "type": "bytes"
        }
      ],
      "name": "upgradeToAndCall",
      "outputs": [],
      "stateMutability": "payable",
      "type": "function"
    },
    {
      "inputs": [
        {
          "internalType": "bytes32",
          "name": "txHash",
          "type": "bytes32"
        }
      ],
      "name": "wasTransactionFailed",
      "outputs": [
        {
          "internalType": "bool",
          "name": "",
          "type": "bool"
        }
      ],
      "stateMutability": "view",
      "type": "function"
    }
  ],
  "bytecode": "0x60a0604052346200003657620000146200003b565b6040516158a26200009382396080518181816118ac01526119f801526158a290f35b600080fd5b6200004562000082565b565b6200005d9062000060906001600160a01b031682565b90565b6001600160a01b031690565b6200005d9062000047565b6200005d906200006c565b6200008d3062000077565b60805256fe6080604052600436101561001257600080fd5b60003560e01c8063018fd60a1461040257806301ffc9a7146103fd57806307bd0265146103f857806308eb0d39146103f35780630d3cf6fc146103ee5780631390a3f3146103e957806316c38b3c146103e457806319330bfd146103df57806319c51aad146103da578063248a9ca3146103d557806324ea54f4146103d05780632bfec3d3146103cb5780632f2ff15d146103c657806336568abe146103c15780633659cfe6146103bc5780634aae13ca146103b75780634f1ef286146103b2578063504534c1146103ad57806352d1902d146103a8578063531355a9146103a35780635c975abb1461039e5780635e5f1362146103995780635e6a22951461039457806361b69fde1461038f5780636595530c1461038a5780636e34fdd81461038557806370ba33391461038057806370d26de51461037b57806373355bff1461037657806373680ade1461037157806375b238fc1461036c5780637bd3f6861461036757806385ab3ecd146103625780638e361cdf1461035d5780638f61f4f5146103585780639010d07c1461035357806391d148541461034e578063932b148714610349578063935dfcc614610344578063944074651461033f5780639646d7991461033a578063a06db7dc14610335578063a217fddf14610330578063b08e51c01461032b578063bbfe22c014610326578063bd338f3614610321578063c4c4c7b31461031c578063c63c4e9b14610317578063c69ed5f214610312578063c7697c531461030d578063ca15c87314610308578063d0bf1cbb14610303578063d11db83f146102fe578063d5391393146102f9578063d547741f146102f4578063dbd62506146102ef578063ddbd5d3f146102ea578063e3d0c2b6146102e5578063ebaa5269146102e0578063ed49d2f8146102db578063f21c00ba146102d6578063f2b06537146102d15763f36c8f5c03610407576113dd565b6113c2565b611390565b611375565b61134c565b611331565b611316565b6112ef565b611298565b61125f565b611238565b6111b5565b611158565b61113d565b611122565b611107565b6110de565b610fe0565b610f9e565b610f65565b610f4a565b610f10565b610eeb565b610eb7565b610e46565b610e10565b610df4565b610dbd565b610d73565b610d54565b610cf2565b610cca565b610c96565b610c7b565b610c60565b610c3a565b610c22565b610c07565b610bdb565b610bc0565b610ba4565b610b8b565b610b4d565b610b32565b610aec565b610ac4565b6109ef565b6108c4565b610858565b61083f565b610826565b6107e8565b61079e565b610783565b61076a565b61071e565b6106ca565b610685565b6105ce565b6105a6565b6104df565b6104a6565b610450565b600080fd5b6001600160a01b031690565b90565b6001600160a01b0381165b0361040757565b9050359061043a8261041b565b565b90602082820312610407576104189161042d565b346104075761046861046336600461043c565b612e95565b604051005b0390f35b6001600160e01b03198116610426565b9050359061043a82610471565b906020828203126104075761041891610481565b9052565b346104075761046d6104c16104bc36600461048e565b611404565b6040515b91829182901515815260200190565b600091031261040757565b34610407576104ef3660046104d4565b61046d6000805160206158368339815191525b6040515b9182918290815260200190565b80610426565b9050359061043a82610513565b906020828203126104075761041891610519565b60005b83811061054d5750506000910152565b818101518382015260200161053d565b61057e61058760209361059193610572815190565b80835293849260200190565b9586910161053a565b601f01601f191690565b0190565b60208082526104189291019061055d565b346104075761046d6105c16105bc366004610526565b614a63565b6040515b91829182610595565b34610407576105de3660046104d4565b61046d7f5f58e3a2316349923ce3780f8d587db2d72378aed66a8261c916544fa6846ca5610502565b909182601f830112156104075781359167ffffffffffffffff831161040757602001926020830284011161040757565b909160408284031261040757813567ffffffffffffffff81116104075783610660918401610607565b929093602082013567ffffffffffffffff8111610407576106819201610607565b9091565b3461040757610468610698366004610637565b929190916152e7565b801515610426565b9050359061043a826106a1565b9060208282031261040757610418916106a9565b34610407576104686106dd3660046106b6565b6156fd565b608081830312610407576106f68282610519565b926104186107078460208501610519565b936107158160408601610519565b93606001610519565b34610407576104686107313660046106e2565b92919091615044565b9091606082840312610407576104186107538484610519565b936107618160208601610519565b93604001610519565b346104075761046861077d36600461073a565b91614f44565b346104075761046d610502610799366004610526565b6114d9565b34610407576107ae3660046104d4565b61046d600080516020615876833981519152610502565b610418916008021c81565b9061041891546107c5565b61041860006101956107d0565b34610407576107f83660046104d4565b61046d6105026107db565b9190604083820312610407576104189061081d8185610519565b9360200161042d565b3461040757610468610839366004610803565b90611510565b3461040757610468610852366004610803565b906116fe565b346104075761046861086b36600461043c565b611ab9565b906108b36108bb9161043a969897956108a660809661089f60a088019460008901906001600160a01b03169052565b6020870152565b848203604086015261055d565b966060830152565b019060ff169052565b346104075761046d6108df6108da366004610526565b614c22565b916108ec95939560405190565b95869586610870565b634e487b7160e01b600052604160045260246000fd5b90601f01601f1916810190811067ffffffffffffffff82111761092d57604052565b6108f5565b9061043a61093f60405190565b928361090b565b67ffffffffffffffff811161092d57602090601f01601f19160190565b90826000939282370152565b9092919261098461097f82610946565b610932565b938185526020850190828401116104075761043a92610963565b9080601f83011215610407578160206104189335910161096f565b919091604081840312610407576109d0838261042d565b92602082013567ffffffffffffffff811161040757610418920161099e565b6104686109fd3660046109b9565b90611e08565b6104189061040c906001600160a01b031682565b61041890610a03565b61041890610a17565b90610a3390610a20565b600052602052604060002090565b610418916008021c5b60ff1690565b906104189154610a41565b61041890610a6e61019a91600092610a29565b610a50565b634e487b7160e01b600052602160045260246000fd5b60041115610a9357565b610a73565b9061043a82610a89565b61041890610a98565b6104a290610aa2565b60208101929161043a9190610aab565b346104075761046d610adf610ada36600461043c565b610a5b565b6040515b91829182610ab4565b3461040757610afc3660046104d4565b61046d610502611917565b6004111561040757565b9050359061043a82610b07565b906020828203126104075761041891610b11565b346104075761046d610502610b48366004610b1e565b613d0a565b3461040757610b5d3660046104d4565b61046d6104c1611e12565b91906040838203126104075761041890610b82818561042d565b93602001610b11565b3461040757610468610b9e366004610b68565b9061534c565b346104075761046d610adf610bba3660046109b9565b906139da565b346104075761046d6104c1610bd6366004610526565b614f26565b346104075761046d610502610bf13660046106e2565b9291909161566b565b61041860006101976107d0565b3461040757610c173660046104d4565b61046d610502610bfa565b3461040757610468610c35366004610526565b614c19565b3461040757610468610c4d366004610803565b9061396f565b61041860006101986107d0565b3461040757610c703660046104d4565b61046d610502610c53565b346104075761046d6105c1610c91366004610526565b6134f0565b3461040757610ca63660046104d4565b61046d600080516020615856833981519152610502565b61041860006101966107d0565b3461040757610cda3660046104d4565b61046d610502610cbd565b61041860006101946107d0565b3461040757610d023660046104d4565b61046d610502610ce5565b60808183031261040757610d21828261042d565b92610d2f8360208401610519565b9260408301359067ffffffffffffffff8211610407576107158161041893860161099e565b346104075761046d610502610d6a366004610d0d565b92919091613f20565b3461040757610d833660046104d4565b61046d600080516020615816833981519152610502565b91906040838203126104075761041890610db48185610519565b93602001610519565b346104075761046d610dd9610dd3366004610d9a565b9061142d565b6040515b918291826001600160a01b03909116815260200190565b346104075761046d6104c1610e0a366004610803565b906114a0565b3461040757610468610e23366004610637565b9291909161542a565b91906040838203126104075761041890610b828185610481565b3461040757610468610e59366004610e2c565b906151df565b9194610ea6610eaf92989795610e9d60a096610e9461043a9a610e8b60c08a019e60008b019015159052565b15156020890152565b15156040870152565b15156060850152565b15156080830152565b019015159052565b346104075761046d610ed2610ecd366004610526565b614c7e565b92610ee296949692919260405190565b96879687610e5f565b3461040757610468610efe366004610526565b613572565b61041860006101936107d0565b3461040757610f203660046104d4565b61046d610502610f03565b6104186104186104189290565b6104186000610f2b565b610418610f38565b3461040757610f5a3660046104d4565b61046d610502610f42565b3461040757610f753660046104d4565b61046d7ffd643c72710c63c0180259aba6b2d05451e3591a24e58b62239378085726f783610502565b3461040757610468610fb1366004610526565b6146e2565b6001600160e01b03191690565b90610a3390610fb6565b61041890610a6e61019991600092610fc3565b346104075761046d610adf610ff636600461048e565b610fcd565b67ffffffffffffffff811161092d5760208091020190565b9092919261102361097f82610ffb565b938185526020808601920283019281841161040757915b8383106110475750505050565b60208091611055848661042d565b81520192019161103a565b9080601f830112156104075781602061041893359101611013565b6080818303126104075761108f8282610519565b92602082013567ffffffffffffffff811161040757836110b0918401611060565b9260408301359067ffffffffffffffff8211610407576110d581610418938601611060565b9360600161042d565b34610407576104686110f136600461107b565b92919091612ca6565b61041860006101916107d0565b34610407576111173660046104d4565b61046d6105026110fa565b346104075761046d6105c1611138366004610526565b6146d7565b346104075761046d6104c1611153366004610526565b614a6e565b346104075761046d61050261116e366004610526565b61144d565b9160608383031261040757611188828461042d565b926111968360208301610519565b92604082013567ffffffffffffffff811161040757610418920161099e565b346104075761046d6105026111cb366004611173565b91613046565b906111f16111ea6111e0845190565b8084529260200190565b9260200190565b9060005b8181106112025750505090565b90919261121f6112186001928651815260200190565b9460200190565b9291016111f5565b6020808252610418929101906111d1565b34610407576112483660046104d4565b61046d611253614e42565b60405191829182611227565b346104075761126f3660046104d4565b61046d7f9f2df0fed2c77648de5860a4cc508cd0818c85b8b8a1ab4ceeef8d981c8956a6610502565b34610407576104686112ab366004610803565b90611676565b610418916008021c61040c565b9061041891546112b1565b610418600061019b6112be565b6104a290610a20565b60208101929161043a91906112d6565b34610407576112ff3660046104d4565b61046d61130a6112c9565b604051918291826112df565b34610407576113263660046104d4565b61046d610502614db6565b346104075761046d6104c161134736600461043c565b613d80565b346104075761046d61050261136236600461073a565b9161554a565b61041860006101926107d0565b34610407576113853660046104d4565b61046d610502611368565b34610407576104686113a3366004610803565b90613899565b90610a33565b61041890610a6e61019d916000926113a9565b346104075761046d6104c16113d8366004610526565b6113af565b34610407576113ed3660046104d4565b61046d6000805160206157f6833981519152610502565b635a05180f60e01b6001600160e01b0319821614908115611423575090565b6104189150611464565b9061144861041861041893611440600090565b5060976113a9565b6124d2565b61145f61041861041892611440600090565b61249b565b637965db0b60e01b6001600160e01b0319821614908115611483575090565b61041891506121ea565b61041890610a4a565b610418905461148d565b6104189160006114bd6114c3936114b5600090565b5060656113a9565b01610a29565b611496565b6104189081565b61041890546114c8565b60016114ea610418926114b5600090565b016114cf565b9061043a91611506611501826114d9565b61153e565b9061043a9161151a565b9061043a916114f0565b9061153661041861153b9361152f848261174e565b60976113a9565b612208565b50565b61043a9033906115ce565b61041890610f2b565b61059161156a92602092611564815190565b94859290565b9384910161053a565b6115b161041893926115ab6115ab937f416363657373436f6e74726f6c3a206163636f756e7420000000000000000000815260170190565b90611552565b7001034b99036b4b9b9b4b733903937b6329607d1b815260110190565b906115e06115dc82846114a0565b1590565b6115e8575050565b611657916104186116046115fe61163e946121bd565b92611549565b61161960209161161383610f2b565b90612073565b9261163261162660405190565b94859384019283611573565b9081038252038261090b565b6040515b62461bcd60e51b815291829160048301610595565b0390fd5b9061043a9161166c611501826114d9565b9061043a91611680565b9061043a9161165b565b9061169561041861153b9361152f84826117c5565b612348565b156116a157565b60405162461bcd60e51b815260206004820152602f60248201527f416363657373436f6e74726f6c3a2063616e206f6e6c792072656e6f756e636560448201526e103937b632b9903337b91039b2b63360891b6064820152608490fd5b61043a919061171f61170f3361040c565b6001600160a01b0384161461169a565b611680565b9060ff905b9181191691161790565b9061174361041861174a92151590565b8254611724565b9055565b9061175c6115dc82846114a0565b611764575050565b61177f600161177a8360006114bd8760656113a9565b611733565b33906117b56117af6117af7f2f8788117e7eff1d82e926ec794901d17c78024a50270940304540a733656f0d9590565b92610a20565b926117bf60405190565b600090a4565b906117d081836114a0565b6117d8575050565b6117ed600061177a83826114bd8760656113a9565b33906117b56117af6117af7ff6391f5c32d9c69d2a47ea670b442974b53935d1edc7fd64eb21e047a839171b9590565b1561182457565b60405162461bcd60e51b815260206004820152603860248201527f555550535570677261646561626c653a206d757374206e6f742062652063616c60448201527f6c6564207468726f7567682064656c656761746563616c6c00000000000000006064820152608490fd5b610418906118e061189f30610a20565b6118da6001600160a01b037f0000000000000000000000000000000000000000000000000000000000000000165b916001600160a01b031690565b1461181d565b61190e565b6104187f360894a13ba1a3210667c828492db98dca3e2076cc3735a920a3ca505d382bbc610f2b565b506104186118e5565b610418600061188f565b1561192857565b60405162461bcd60e51b815260206004820152602c60248201527f46756e6374696f6e206d7573742062652063616c6c6564207468726f7567682060448201526b19195b1959d85d1958d85b1b60a21b6064820152608490fd5b1561198957565b60405162461bcd60e51b815260206004820152602c60248201527f46756e6374696f6e206d7573742062652063616c6c6564207468726f7567682060448201526b6163746976652070726f787960a01b6064820152608490fd5b61043a90611a536119f330610a20565b611a327f000000000000000000000000000000000000000000000000000000000000000091611a2b6118cd846001600160a01b031690565b1415611921565b611a4d6118cd611a40611ad5565b926001600160a01b031690565b14611982565b611a92565b90611a6561097f83610946565b918252565b369037565b9061043a611a85611a7f84611a58565b93610946565b601f190160208401611a6a565b61043a90611a9f81612de1565b600090611ab3611aae83610f2b565b611a6f565b90611b93565b61043a906119e3565b6104189061040c565b6104189054611ac2565b6104186000611ae56104186118e5565b01611acb565b6104187f4910fdfa16fed3260ed0e7147f7cc6da11a60208b5b9406d12a635614ffd9143610f2b565b9050519061043a82610513565b906020828203126104075761041891611b14565b15611b3c57565b60405162461bcd60e51b815260206004820152602960248201527f45524331393637557067726164653a20756e737570706f727465642070726f786044820152681a58589b195555525160ba1b6064820152608490fd5b9190611bab6000611ba5610418611aeb565b01611496565b15611bbb57505061043a90611d39565b826020611bd2611bcd611bea96610a20565b610a20565b6352d1902d90611be160405190565b96879260e01b90565b825260049082905afa60009481611c81575b50611c5d5760405162461bcd60e51b815260206004820152602e60248201527f45524331393637557067726164653a206e657720696d706c656d656e7461746960448201526d6f6e206973206e6f74205555505360901b6064820152608490fd5b611c7c61043a94611c76611c726104186118e5565b9190565b14611b35565b611d61565b611ca391955060203d8111611caa575b611c9b818361090b565b810190611b21565b9338611bfc565b503d611c91565b15611cb857565b60405162461bcd60e51b815260206004820152602d60248201527f455243313936373a206e657720696d706c656d656e746174696f6e206973206e60448201526c1bdd08184818dbdb9d1c9858dd609a1b6064820152608490fd5b906001600160a01b0390611729565b90611d3261041861174a92610a20565b8254611d13565b61043a90611d4e611d4982611e1c565b611cb1565b6000611d5b6104186118e5565b01611d22565b91611d6b83611d9d565b8151611d7a611c726000610f2b565b11908115611d95575b50611d8c575050565b61153b91611e79565b905038611d83565b611da681611d39565b611dd07fbc7cd75a20ee27fd9adebab32041f755214dbc6bffa90cc0225b39da2e5c2d3b91610a20565b90611dda60405190565b80805b0390a2565b9061043a91611df36119f330610a20565b61043a91611e0082612de1565b600191611b93565b9061043a91611de2565b61041860c9611496565b3b611e2a611c726000610f2b565b1190565b611e386027611a58565b7f416464726573733a206c6f772d6c6576656c2064656c65676174652063616c6c6020820152660819985a5b195960ca1b604082015290565b610418611e2e565b61041891611e85611e71565b91611eaa565b3d15611ea557611e9a3d611a58565b903d6000602084013e565b606090565b6000806104189493611eba606090565b50805190602001845af4611ecc611e8b565b91611f1e565b15611ed957565b60405162461bcd60e51b815260206004820152601d60248201527f416464726573733a2063616c6c20746f206e6f6e2d636f6e74726163740000006044820152606490fd5b91929015611f5057508151611f36611c726000610f2b565b14611f3f575090565b611f4b61041891611e1c565b611ed2565b8290611f5a825190565b611f67611c726000610f2b565b1115611f765750805190602001fd5b6116579061164260405190565b634e487b7160e01b600052601160045260246000fd5b81810292918115918404141715611fac57565b611f83565b91908201809211611fac57565b634e487b7160e01b600052603260045260246000fd5b90611fdd825190565b811015611feb570160200190565b611fbe565b8015611fac576000190190565b610a4a6104186104189290565b6104189061201e611c726104189460ff1690565b901c90565b1561202a57565b60405162461bcd60e51b815280611657600482016020808252818101527f537472696e67733a20686578206c656e67746820696e73756666696369656e74604082015260600190565b919060029261209f611aae6120908461208b88610f2b565b611f99565b61209987610f2b565b90611fb1565b9160009060306120b76120b184610f2b565b86611fd4565b536120ef6120e6600f60fb1b9261208b6001998a95871a6120e06120da88610f2b565b8b611fd4565b53610f2b565b61209983610f2b565b905b612113575b506104189394509061210d611c7261041893610f2b565b14612023565b9161211d86610f2b565b83111561218b576f181899199a1a9b1b9c1cb0b131b232b360811b612142600f610f2b565b8216906010821015611feb57879261216261217f92612185941a60f81b90565b851a61216e8789611fd4565b536121796004611ffd565b9061200a565b93611ff0565b906120f1565b916120f6565b6104189081906001600160a01b031681565b6104186014611ffd565b6104186104186104189260ff1690565b6121da6121d5610418926121cf606090565b50610a17565b612191565b6116136121e56121a3565b6121ad565b6122046301ffc9a760e01b5b916001600160e01b03191690565b1490565b90612230611c7261222b6121d5600061041896612223600090565b500194610a17565b610f2b565b6122d2565b8054821015611feb5761224f600191600052602060002090565b91020190600090565b9160001960089290920291821b911b611729565b919061227b61041861174a9390565b908354612258565b908154916801000000000000000083101561092d57826122ab91600161043a95018155612235565b9061226c565b9060001990611729565b906122cb61041861174a92610f2b565b82546122b1565b6122df6115dc8383612318565b156123115761230c91612307906001612300846122fc8482612283565b5490565b93016113a9565b6122bb565b600190565b5050600090565b6123369160016123319261232a600090565b50016113a9565b6114cf565b612343611c726000610f2b565b141590565b90612363611c7261222b6121d5600061041896612223600090565b6123dc565b91908203918211611fac57565b634e487b7160e01b600052603160045260246000fd5b61043a9160009161226c565b805480156123ba5760001901906123b76123b18383612235565b9061238b565b55565b612375565b919061227b61041861174a93610f2b565b61043a916000916123bf565b906123ed61233182600185016113a9565b6000926123f984610f2b565b821461244c5761041892612452949261245d92612457600197889361242661242086610f2b565b82612368565b88850191612444612435845490565b61243e89610f2b565b90612368565b828103612462575b50505090565b612397565b016113a9565b6123d0565b6122ab61248b6124939461248261247c6123079589612235565b906107d0565b92839188612235565b8888016113a9565b38808061244c565b6124b16000610418926124ac600090565b500190565b6000610418916124bf600090565b50015490565b61040c6104186104189290565b6124f76124f2610418936124ed60006124fc956124ac600090565b612501565b611549565b6124c5565b610a17565b61041891600061247c92612513600090565b5001612235565b6104189060081c610a4a565b610418905461251a565b1561253757565b60405162461bcd60e51b815260206004820152602e60248201527f496e697469616c697a61626c653a20636f6e747261637420697320616c72656160448201526d191e481a5b9a5d1a585b1a5e995960921b6064820152608490fd5b610a4a6104186104189260ff1690565b9061174361041861174a92612593565b9061ff009060081b611729565b906125d061041861174a92151590565b82546125b3565b6104a290611ffd565b60208101929161043a91906125d7565b9261263b91926126036115dc6000612526565b9384806126de575b8015612699575b61261b90612530565b6001958561263261262b89611ffd565b60006125a3565b6126895761273e565b6126425750565b61264d6000806125c0565b6126847f7f26b83ff96e1f2b6a682f133852f6798a09c465da95921460cefb38474024989161267b60405190565b918291826125e0565b0390a1565b6126948760006125c0565b61273e565b506126ae6115dc6126a930610a20565b611e1c565b8015612612575061261b6126c26000611496565b6126d66126cf6001611ffd565b9160ff1690565b149050612612565b506126e96000611496565b6126f66126cf6001611ffd565b1061260b565b610418906124c5565b9061174361041861174a92610aa2565b6000198114611fac5760010190565b9061272d825190565b811015611feb576020809102010190565b9291600061274b81610f2b565b8514612c945761275a816126fc565b906001600160a01b0382166001600160a01b03861614612c6657612a7493612780612d24565b612788612d44565b612790612d88565b612798612d24565b6127a4876101916122bb565b6127bb6127b362278d00610f2b565b6101926122bb565b6128236127ca62127500610f2b565b6127d6816101936122bb565b6127ed6127e562015180610f2b565b6101956122bb565b6128046127fc6203f480610f2b565b6101966122bb565b61281b61281362093a80610f2b565b6101976122bb565b6101986122bb565b61283e612836662386f26fc10000610f2b565b6101946122bb565b6101999061287d836128786128727fa9059cbb2ab09eb219583f4a59a5d0623ade346d962bcd4e46b11da047c9049b610fb6565b85610fc3565b612705565b6128ad836128786128727f095ea7b334ae44009aa867bfb386f5c3b4b443ac6f0ee573fa91c4608fbadfba610fb6565b60019586926128e8846128786128e27f19c51aade6e2a49f7ec24c208998650b05a060f31be7c7ce3a927580c1a6712f610fb6565b84610fc3565b612918846128786128e27f19330bfd7e0c75f9aec91393843f2cf5fcca8250082a2f2e073f9a86f643ac2d610fb6565b612948846128786128e27f1b9ad0e4aacf9b4ce6f4860adceaada62d78fb186f25d345ab5f644567c2b633610fb6565b61287860029161297e836128786128e27f70d26de5191fc8b6b2ea5767a966caf49891714569bf8e35d1f82a12cb959a01610fb6565b6129ae836128786128e27ff21c00bad3bd5a55f3bf8c9e11868f937876f384821efa77b9b7a73a294691d5610fb6565b612a1560036129e9816128786129e37f3659cfe672549963da205df855ebfb8672cda4801e0255183bd6a6f536855df7610fb6565b86610fc3565b6128786128e27f4f1ef2866b98625bdfefae89411f7a82754ac4089eff8e78c8832329a538337f610fb6565b612a45836128786128e27fdd329b5cc2c0276e9db88ddb634b14ab6775bfc2e977df56b01bf43f77f1d181610fb6565b612a6e7fa89ae7d0e127de83ee9585429b3803816abac5f8bdc281e473659f44248b00f2610fb6565b90610fc3565b612a8087611506610f38565b612a9887600080516020615856833981519152611506565b612ac2877f5f58e3a2316349923ce3780f8d587db2d72378aed66a8261c916544fa6846ca5611506565b81612acc84610f2b565b905b612bfd575b505090612adf90610f2b565b905b612b7c575b50505050612b15816115067ffd643c72710c63c0180259aba6b2d05451e3591a24e58b62239378085726f78390565b612b2d81600080516020615876833981519152611506565b612b45816000805160206157f6833981519152611506565b611ddd612b727f290a9d1bd9a992a26d178f5f8d2514edd099295c4ce6340dc3b7f441530cf3e892610a20565b9261050660405190565b612b87610418845190565b811015612bf85780612bac612b9f612bc89386612724565b516001600160a01b031690565b612bbe6001600160a01b0385166118cd565b03612bce57612715565b83612ae1565b612bf3600080516020615836833981519152612bed612b9f8488612724565b90611506565b612715565b612ae6565b612c08610418835190565b811015612c615780612c20612b9f612c3c9385612724565b612c326001600160a01b0388166118cd565b03612c4257612715565b82612ace565b612bf3600080516020615816833981519152612bed612b9f8487612724565b612ad3565b60405163eac0d38960e01b815260206004820152600560248201526430b236b4b760d91b6044820152606490fd5b604051631a615ced60e11b8152600490fd5b9061043a9392916125f0565b15612cb957565b60405162461bcd60e51b815260206004820152602b60248201527f496e697469616c697a61626c653a20636f6e7472616374206973206e6f74206960448201526a6e697469616c697a696e6760a81b6064820152608490fd5b61043a612d1f6000612526565b612cb2565b61043a612d12565b612d39612d1f6000612526565b61043a61043a612d68565b61043a612d2c565b612d59612d1f6000612526565b61043a61043a600060c9611733565b61043a612d4c565b612d7d612d1f6000612526565b61043a61043a612dc1565b61043a612d70565b612d9d612d1f6000612526565b61043a612daf565b6104186001610f2b565b61043a612dba612da5565b60fb6122bb565b61043a612d90565b5061043a60008051602061585683398151915261153e565b61043a90612dc9565b61043a90612e0560008051602061585683398151915261153e565b612e1261040c60006126fc565b6001600160a01b03821614612e6057612e2a90610a20565b612e368161019b611d22565b7f22357fb36d236001335a40c33e873b98724147e176521651bc189500ab78b487611dda60405190565b60405163eac0d38960e01b815260206004820152600c60248201526b746f6b656e4164647265737360a01b6044820152606490fd5b61043a90612dea565b90610418939291612ead613092565b612ee6565b6001600160a01b03909116815260408101929161043a9160200152565b0152565b90815260408101929161043a9160200152565b50929190612ef761040c60006126fc565b6001600160a01b038516146130175760008051602061581683398151915233612f236115dc82846114a0565b80612ff6575b612fd4575050612f3982856139da565b91612f4383613d0a565b91612f526104186101916114cf565b8310612fa557612f666104186101926114cf565b8311612f76576104189495614198565b82612f826101926114cf565b90611657612f8f60405190565b630e62012f60e31b815292839260048401612ed3565b82612fb16101916114cf565b90611657612fbe60405190565b63d6ef4a3160e01b815292839260048401612ed3565b611657612fe060405190565b635270d4bf60e11b815292839260048401612eb2565b506130126115dc826000805160206157f68339815191526114a0565b612f29565b60405163eac0d38960e01b81526020600482015260066024820152651d185c99d95d60d21b6044820152606490fd5b6104189291906000612e9e565b1561305a57565b60405162461bcd60e51b815260206004820152601060248201526f14185d5cd8589b194e881c185d5cd95960821b6044820152606490fd5b61043a6130a06115dc611e12565b613053565b90610418916130b2613092565b906130c4916130bf613551565b613239565b9061043a612daf565b60051115610a9357565b9061043a826130cd565b612ecf61043a94613107606094989795613100608086019a6000870152565b6020850152565b6040830152565b634e487b7160e01b600052602260045260246000fd5b9060016002830492168015613144575b602083101461313f57565b61310e565b91607f1691613134565b8054600093929161316b61316183613124565b8085529360200190565b91600181169081156131bd575060011461318457505050565b6131979192939450600052602060002090565b916000925b8184106131a95750500190565b80548484015260209093019260010161319c565b92949550505060ff1916825215156020020190565b906104189161314e565b9061043a6131f6926131ed60405190565b938480926131d2565b038361090b565b610418906131dc565b610418906130d7565b9061174361041861174a92613206565b9081526104189160408201915b602081840391015261055d565b506132496104188261019c6113a9565b90600482019061325882611496565b60019061326d613267836130d7565b916130d7565b0361342a575b4260038501613292610418613287836114cf565b6120996101936114cf565b8211156133f85750506132b060008051602061585683398151915290565b6132be6115dc3380936114a0565b806133d7575b6133c057506132dd6132d585611acb565b9185016114cf565b926132f66132ed600287016131fd565b9160029061320f565b600091829161330b8361177a8761019d6113a9565b7f913928faeddbeb42b03e074bdf7db96abfcaa8f11f452d384ef8fe73a8940d639495869561333984610a20565b97889161334560405190565b8061335187878361321f565b0390a3602082019151925af19261336e613369611e8b565b941590565b6133785750505090565b61338690600480910161320f565b826133b57f259d619dd0cb65e38935bc4d065aed38b08f204b46ddfda5795ad4aabad9ad7e916105c560405190565b0390a338808061244c565b6133ca6000610f2b565b90611657612fe060405190565b506133f36115dc826000805160206157f68339815191526114a0565b6132c4565b61165761340585926114cf565b926134116101936114cf565b6040516339e1444f60e11b8152948594600486016130e1565b61343383611496565b61344061326760006130d7565b146134c95761344e83611496565b61345b61326760026130d7565b146134a25761346983611496565b61347661326760036130d7565b03613273576116578261348860405190565b631eb1656f60e01b81529182916004830190815260200190565b611657826134af60405190565b63574cf42560e11b81529182916004830190815260200190565b611657826134d660405190565b637080aaeb60e11b81529182916004830190815260200190565b6104189060606130a5565b6104186002610f2b565b1561350c57565b60405162461bcd60e51b815260206004820152601f60248201527f5265656e7472616e637947756172643a207265656e7472616e742063616c6c006044820152606490fd5b61043a61355e60fb6114cf565b612dba6135696134fb565b91821415613505565b3361358e6115dc826000805160206158568339815191526114a0565b80613602575b806135e4575b6133c057506135ab906101946122bb565b6135b66101946114cf565b6126847f0517211ced6e2fe76697c1baed31e904f946f4a9ed9ba831b5c5fc722ce9eda59161050660405190565b506135f161040c30610a20565b6001600160a01b038216141561359a565b5061361e6115dc826000805160206157f68339815191526114a0565b613594565b61043a919061363f60008051602061585683398151915261153e565b90600061364e61040c826126fc565b6001600160a01b038316146138695760008051602061585683398151915280841461381f575b506000805160206157f6833981519152808414613741575b50506136a661041860008051602061581683398151915290565b8214801561372a575b613701575b6136be8183611676565b6136ef6136e97f155aaafb6329a2098580462df33ec4b7441b19729b9601c5fc17ae1cf99a8a529390565b91610a20565b916136f960405190565b80805b0390a3565b61370a8261144d565b613717611c726001610f2b565b116136b4575033611657612fe060405190565b5060008051602061583683398151915282146136af565b61374a8161144d565b9060019161375a611c7284610f2b565b1115613811578161376c600094610f2b565b905b6137b9575b5050507fb042dff0d2902dfbafc756c90710226f7608e411649827085ed69e60e56e0426906137a46136e984610a20565b916137ae60405190565b600090a3388061368c565b6137c56104188361144d565b81101561380c576137d6818361142d565b6001600160a01b0386166001600160a01b038216036137ff57506137f990612715565b8261376e565b9350505050388080613773565b613773565b8433611657612fe060405190565b6138289061144d565b613835611c726001610f2b565b118015613856575b156138485738613674565b8233611657612fe060405190565b506001600160a01b03821633141561383d565b60405163eac0d38960e01b81526020600482015260076024820152661858d8dbdd5b9d60ca1b6044820152606490fd5b9061043a91613623565b61043a91906138bf60008051602061585683398151915261153e565b6138cc61040c60006126fc565b6001600160a01b03831614613869576138e58282611510565b7f2ae6a113c0ed5b78a53413ffbb7679881f11145ccfba4fb92e863dfcd5a1d2f36139108293610a20565b92839161391c60405190565b600090a36139376000805160206157f6833981519152611c72565b1461393f5750565b6001611ddd7f22d9b439781dfd20c33ba7fefff7ab8e9457457e39cb3f8e941e33ef30e98cd8916104c560405190565b9061043a916138a3565b0180926001600160f81b0319169052565b6139a66139986111ea835190565b516001600160e01b03191690565b90600481106139b3575090565b6139ca9063ffffffff60e01b906004036008021b90565b1690565b6104189060f81c612593565b906000806139ee6114c3829561019a610a29565b6139f782610a98565b613a0082610a98565b11613d02575b508251600490613a18611c7283610f2b565b1015613a26575b5050505090565b613a70936120da93613a9893613adc6114c3613ad4613a5e613a50613a4a86610f2b565b88611fd4565b516001600160f81b03191690565b613acf613a76613a5060019d8e610f2b565b8a611fd4565b613a85613a5060029d8e610f2b565b92611632613a9e613a5060039e8f610f2b565b8d611fd4565b604051958694602086019485926139796001610591946139798288613979829b9a83996001600160f81b0319169052565b61398a565b610199610fc3565b613ae589610a98565b613aee82610a98565b11613cfa575b50613b41613b07613a506120b184610f2b565b613acf613b19613a50613a4a8c610f2b565b613b2e613a50613b288c610f2b565b89611fd4565b92611632613a9e613a506120da8d610f2b565b613b51631b2ce7f360e11b6121f6565b14613cd9575b613b6086610a98565b613b6989610a98565b1080613cad575b613b7d575b505050613a1f565b8251613b8c611c726044610f2b565b10613b7557613bb492613baf92613a50925050613ba96043610f2b565b90611fd4565b6139ce565b91613bbf6005611ffd565b60ff841614908115613c96575b8115613c81575b5015613c0b5750509050613be682610a98565b613bef82610a98565b11613c03575b505b38808080808080613b75565b905038613bf5565b613c1490611ffd565b60ff821614918215613c6a575b508115613c55575b50613c35575b50613bf7565b613c3e82610a98565b613c4782610a98565b1115613c2f57905038613c2f565b9050613c636126cf83611ffd565b1438613c29565b613c75919250611ffd565b60ff8216149038613c21565b613c8b9150611ffd565b60ff83161438613bd3565b9050613ca26006611ffd565b60ff84161490613bcc565b50613cc0613b07613a506120b184610f2b565b613cd36121f6633e82bc5360e21b610fb6565b14613b70565b613ce288610a98565b613ceb86610a98565b1115613b575796508396613b57565b975038613af4565b935038613a06565b613d146003610a98565b613d1d82610a98565b03613d2e57506104186101986114cf565b613d386002610a98565b613d4182610a98565b03613d5257506104186101976114cf565b613d65613d5f6001610a98565b91610a98565b03613d75576104186101966114cf565b6104186101956114cf565b613d8e611bcd61019b611acb565b90600091613da16118cd61040c856126fc565b14613e3c576020613def91613dba611bcd61019b611acb565b613dd86370a08231613dcb60405190565b9586948593849360e01b90565b83526001600160a01b031660048301526024820190565b03915afa829181613e1c575b50613e04575090565b9050613e17611c726104186101946114cf565b101590565b613e3591925060203d8111611caa57611c9b818361090b565b9038613dfb565b5090565b9061041894939291613e50613092565b509093929091613e6361040c60006126fc565b6001600160a01b0384161461301757613e806104186101916114cf565b8210613f1457613e946104186101926114cf565b8211613f08576000805160206158168339815191529433613eb86115dc82896114a0565b80613ee7575b613ed95750610418949550613ed382856139da565b93614198565b8690611657612fe060405190565b50613f036115dc826000805160206157f68339815191526114a0565b613ebe565b50612f826101926114cf565b50612fb16101916114cf565b610418939291906000613e40565b94939160609161043a94613f60613f6d93613f5960808b019460008c01906001600160a01b03169052565b60208a0152565b878203604089015261055d565b940152565b61041860a0610932565b906104a2906130d7565b818110613f91575050565b80613f9f60006001936123d0565b01613f86565b9190601f8111613fb457505050565b613fc661043a93600052602060002090565b906020601f840181900483019310613fe8575b6020601f909101040190613f86565b9091508190613fd9565b90613ffb815190565b9067ffffffffffffffff821161092d5761401f826140198554613124565b85613fa5565b602090601f831160011461405a5761174a92916000918361404f575b5050600019600883021c1916906002021790565b01519050388061403b565b601f1983169161406f85600052602060002090565b9260005b8181106140ad57509160029391856001969410614094575b50505002019055565b01516000196008601f8516021c1916905538808061408b565b91936020600181928787015181550195019201614073565b9061043a91613ff2565b61041890516130d7565b61043a919061414d90608090600490614103816140fd87516001600160a01b031690565b90611d22565b61411b60018201614115602088015190565b906122bb565b6141336002820161412d604088015190565b906140c5565b61414560038201614115606088015190565b0192016140cf565b9061320f565b9061043a916140d9565b61419161418960609361043a9698979561417c60808601926000870152565b848203602086015261055d565b966040830152565b0190610aab565b90919294936141a5600090565b506000936141b2856126fc565b936001600160a01b0385166001600160a01b03851614613017576141da6104186101916114cf565b88106143ed576141ee6104186101926114cf565b88116143e157429561423d6142038a89611fb1565b61422261420f60405190565b8092611632602083019189898d85613f2e565b61423461422d825190565b9160200190565b20998a98611fb1565b956142556118cd611a4084611ae561019c9e8f6113a9565b03614399575b6142c96143219798996142bd6001916142b88c614276613f72565b6001600160a01b038c168882015292614290896020860152565b61429b8a6040860152565b6142a68d6060860152565b6142b38660808601613f7c565b6113a9565b614153565b61177a8a61019d6113a9565b61019f906142e6611c726142e06123318c866113a9565b92610f2b565b14614375575b506143347fc12713b76ba10e056a22d96f695ca35709830779c6f65311816f6729a09d6273936143198990565b978896610a20565b9661432b60405190565b9485948561415d565b0390a37f6da19cef8486af172c085de95b9b6a5acde209a53afb3f7171364f1cbdc3f07e9061436233610a20565b9161436c60405190565b80805b0390a390565b614393906123078961438d61019e6122fc8382612283565b926113a9565b386142ec565b6143a86004611ba5898c6113a9565b6143b561326760016130d7565b0361425b57611657876143c760405190565b630a44e52960e21b81529182916004830190815260200190565b87612f826101926114cf565b87612fb16101916114cf565b9061041891614406613092565b906130c491614413613551565b614450565b90815260608101939261043a929091604091612ecf906020830152565b6001600160a01b03909116815261041891604082019161322c565b506144606104188261019c6113a9565b600481019061446e82611496565b9160019261447e613267856130d7565b0361465f575b4260038301614495610418826114cf565b8210614633576144aa610418613287836114cf565b8211614601575050336144bf6115dc82613d80565b6145da575b506144d96144d183611acb565b9383016114cf565b936144f26144e9600285016131fd565b9260029061320f565b60006145048161177a8461019d6113a9565b8061452d7f8b7b712167f6dc65bddd7d9a42eec3ed7de70db3ffda6e8fbb166195a0fa10cb9390565b96879361453988610a20565b94859161454560405190565b806145518a878361321f565b0390a360208501855191885af19461456f61456a611e8b565b961590565b61457b57505050505090565b61459261165794959661041860048080990161320f565b6145c07f259d619dd0cb65e38935bc4d065aed38b08f204b46ddfda5795ad4aabad9ad7e916105c560405190565b0390a3604051636c544f3360e01b81529384938401614435565b600080516020615836833981519152906145f76115dc82846114a0565b612fd457506144c4565b61165761460e87926114cf565b9261461a6101936114cf565b6040516316e2c7e160e31b8152948594600486016130e1565b61165761464087926114cf565b9261464a60405190565b629b36e560e71b815293849360048501614418565b61466881611496565b61467561326760006130d7565b146146ca5761468381611496565b61469061326760026130d7565b146146bd5761469e81611496565b6146ab61326760036130d7565b03614484576116578461348860405190565b611657846134af60405190565b611657846134d660405190565b6104189060606143f9565b336146fe6115dc826000805160206158568339815191526114a0565b8061481b575b6133c057506147186104188261019c6113a9565b6004810161472581611496565b90600091614735613267846130d7565b146146ca5761474390611496565b61475061326760026130d7565b036147d65761476691611ae5600480830161320f565b6147916136e97f259d619dd0cb65e38935bc4d065aed38b08f204b46ddfda5795ad4aabad9ad7e9390565b9161479b60405190565b60208082526019908201527f4d616e75616c6c79206d61726b6564206173206661696c656400000000000000604082015280606081016136fc565b60405162461bcd60e51b815260206004820152601c60248201527f5472616e73616374696f6e206e6f7420657865637574656420796574000000006044820152606490fd5b506148376115dc826000805160206157f68339815191526114a0565b614704565b9061041891614849613092565b906130c491614856613551565b50906148676104188361019c6113a9565b61487360048201611496565b90600491614883613267846130d7565b03614a3d57426003820161489c610418613287836114cf565b8211614a055750506148b960008051602061585683398151915290565b6148c43380926114a0565b80156149e2575b155b6149bd57506148db81611acb565b926148e8600183016114cf565b946148f5600284016131fd565b92840161490360028261320f565b7f3d87529e931e3954abe9b7b3b2655c7548dfab376c9bab3424fcd160754e717a9192839261493188610a20565b948591878b61494b61494260405190565b9283928361321f565b0390a3600080602087018751908b8b5af19761496d614968611e8b565b991590565b15614987575050849596610418611657966145929361320f565b93955096955050917f8b7b712167f6dc65bddd7d9a42eec3ed7de70db3ffda6e8fbb166195a0fa10cb9161436f61494260405190565b826116576149cb6000610f2b565b604051635270d4bf60e11b81529384938401612eb2565b506148cd6149fe826000805160206157f68339815191526114a0565b90506148cb565b6116578692614a1486936114cf565b614a1f6101936114cf565b90614a2960405190565b6316e2c7e160e31b815295869586016130e1565b8382611657614a4b60405190565b63d143665b60e01b8152928392830190815260200190565b61041890606061483c565b6004611ba5614a8892614a7f600090565b5061019c6113a9565b61220461326760046130d7565b61043a90614aa1613092565b6004614ab26104188361019c6113a9565b01614abc81611496565b614ac961326760016130d7565b03614bbb575b33614aeb6115dc826000805160206158768339815191526114a0565b80614b88575b80614b67575b80614b46575b6133c05750614b0e9060039061320f565b614b1f600061177a8361019d6113a9565b7fdecc068a49633f4a89136211fcf06f0c95bb0756be29aaba7e7eec56da7945c590611dd0565b50614b626115dc826000805160206157f68339815191526114a0565b614afd565b50614b836115dc826000805160206158168339815191526114a0565b614af7565b50614bb66115dc827ffd643c72710c63c0180259aba6b2d05451e3591a24e58b62239378085726f7836114a0565b614af1565b614bc481611496565b614bd161326760006130d7565b146134c957614bdf81611496565b614bec61326760026130d7565b146134a257614bfa81611496565b614c0761326760036130d7565b03614acf576116578261348860405190565b61043a90614a95565b610418614c3191614a7f600090565b90614c3b82611acb565b91614c48600182016114cf565b926002820192614c79614c71614c6c6004614c65600388016114cf565b9601611496565b613206565b9295946131fd565b929190565b610418614c8d91614a7f600090565b614c9681611acb565b600090614ca86118cd61040c846126fc565b1480159190614da857506004820191614cc083611496565b614ccd61326760026130d7565b1493614cd884611496565b90614cf2600392614ceb613267856130d7565b1495611496565b93600494614d02613267876130d7565b1494840193614d1085611496565b600190614d1f613267836130d7565b149586614d7d575b613267614d36614d3c92611496565b926130d7565b149384614d74575b84614d54575b5050959493929190565b614d6a91929450610418611c72914294016114cf565b1015913880614d4a565b85159450614d44565b9550614d3c613267614d3642614d9d611c726104186132878c8a016114cf565b119892505050614d27565b929150508180918180918190565b614dc06000610f2b565b805b61019e614dd0610418825490565b821015614e1a576114c3614dea61247c84614df294612235565b61019d6113a9565b614e05575b614e0090612715565b614dc2565b90614e12614e0091612715565b919050614df7565b505090565b90611a6561097f83610ffb565b9061043a611a85614e3c84614e1f565b93610ffb565b600090614e4e82610f2b565b805b61019e614e5e610418825490565b821015614ea0576114c3614dea61247c84614e7894612235565b614e8b575b614e8690612715565b614e50565b90614e98614e8691612715565b919050614e7d565b5050614eb1614eb791939293614e2c565b91610f2b565b90815b61019e614ec8610418825490565b821015614f1f5761247c82614edc92612235565b614eeb6114c38261019d6113a9565b614eff575b50614efa90612715565b614eba565b83612bf3614f1892614f15614efa959787612724565b52565b9290614ef0565b5050905090565b6004611ba5614f3792614a7f600090565b61220461326760036130d7565b33614f606115dc826000805160206158568339815191526114a0565b80615023575b80615005575b6133c057506000614f7c81610f2b565b8214612c9457818310614ff357614f9290610f2b565b8314614ff357614fa4816101916122bb565b614fb0826101926122bb565b614fbc836101936122bb565b6126847f322b0dd3c627850b87e09a9ef02a879ae06005ca4b830e3905acd60dd0ab225293614fea60405190565b93849384614418565b604051635435b28960e11b8152600490fd5b5061501261040c30610a20565b6001600160a01b0382161415614f6c565b5061503f6115dc826000805160206157f68339815191526114a0565b614f66565b90919261505c60008051602061585683398151915290565b61506a6115dc3380936114a0565b8061515b575b8061513d575b6133c057506150896104186101916114cf565b8210613f145781831061512b5782841061512b5783811061512b576150b26104186101926114cf565b811161512057612684906150c8836101956122bb565b6150d4846101966122bb565b6150e0856101976122bb565b6150ec816101986122bb565b7f929801ff877f7a915c9ec76d4847c2d4a4368b08aaa23bde6330cd294a7749ee9461511760405190565b948594856130e1565b612f826101926114cf565b6040516346147f2b60e11b8152600490fd5b5061514a61040c30610a20565b6001600160a01b0382161415615076565b506151776115dc826000805160206157f68339815191526114a0565b615070565b61043a919061519860008051602061585683398151915261153e565b6151a88261287883610199610fc3565b611ddd6151d57fb56383735083852e01d74eec8f679e3393a792f6c20639b89dde1717b30d88df92610fb6565b92610ae360405190565b9061043a9161517c565b61043a9392919061520760008051602061585683398151915261153e565b615230565b9190811015611feb576020020190565b3561041881610b07565b3561041881610471565b9293928193858503614ff3576152466000610f2b565b855b8110156152de576152d78161528561526c615267615248958c8b61520c565b61521c565b612878610199612a6e615280868c8c61520c565b615226565b61529361528082888861520c565b6152a1615267838c8b61520c565b906152cf6151d57fb56383735083852e01d74eec8f679e3393a792f6c20639b89dde1717b30d88df92610fb6565b0390a2612715565b9050615246565b50945050505050565b9061043a9392916151e9565b61043a919061530f60008051602061585683398151915261153e565b61531f826128788361019a610a29565b611ddd6151d57f9dbde1f7b92ae666293ae43dfba2b144a807f209b093d4db911efa90895e14d392610a20565b9061043a916152f3565b61043a9392919061537460008051602061585683398151915261153e565b615383565b356104188161041b565b9293928193858503614ff3576153996000610f2b565b855b8110156152de57615423816153d96153ba61526761539b958c8b61520c565b61287861019a6153d36153ce868c8c61520c565b615379565b90610a29565b6153e76153ce82888861520c565b6153f5615267838c8b61520c565b906152cf6151d57f9dbde1f7b92ae666293ae43dfba2b144a807f209b093d4db911efa90895e14d392610a20565b9050615399565b9061043a939291615356565b90610418939291615445613092565b615463565b610fb661545d6104189263ffffffff1690565b60e01b90565b50600092909161547284610f2b565b8314612c9457828110614ff35761548884610f2b565b8214614ff357600080516020615816833981519152336154ab6115dc82846114a0565b80615529575b612fd45750506004926154ed61041895936154fc936154d36319c51aad61544a565b936154dd60405190565b9788956020870190815201614418565b6020820181038252038361090b565b61550530610a20565b9161551081846139da565b9261552361551d85613d0a565b93610f2b565b90614198565b506155456115dc826000805160206157f68339815191526114a0565b6154b1565b6104189291906000615436565b9061041894939291615567613092565b509291906155796104186101916114cf565b841061565f5783811061512b5780821061512b5781831061512b576155a26104186101926114cf565b8311612f7657600080516020615816833981519152336155c56115dc82846114a0565b8061563e575b612fd45750509261560760049361561693610418966155ed6319330bfd61544a565b946155f760405190565b97889660208801908152016130e1565b6020820181038252038261090b565b61561f30610a20565b61562982826139da565b9161563383613d0a565b916155236000610f2b565b5061565a6115dc826000805160206157f68339815191526114a0565b6155cb565b83612fb16101916114cf565b610418939291906000615557565b61043a9061569460008051602061587683398151915261153e565b156156cb576156a161574c565b7f81990fd9a5c552b8e3677917d8a03c07678f0d2cb68f88b634aca2022e9bd19f611dd033610a20565b6156d361579a565b7f5b65b0c1363b3003db9bcc5e1fd8805a6d6bf5bf6dc9d3431ee4494cd7d11766611dd033610a20565b61043a90615679565b61570e613092565b61043a61571d600160c9611733565b336126847f62e78cea01bee320cd4e420270b5ea74000d11b0c9f74754ebdbfc544b05a25891610ddd60405190565b61043a615706565b61575c6157e5565b61043a61576b600060c9611733565b336126847f5db9ee0a495bf2e6ff9c91a7834c1ba4fdd244a5e8aa4e537bd38aeae4b073aa91610ddd60405190565b61043a615754565b156157a957565b60405162461bcd60e51b815260206004820152601460248201527314185d5cd8589b194e881b9bdd081c185d5cd95960621b6044820152606490fd5b61043a6157f0611e12565b6157a256fe71840dc4906352362b0cdaf79870196c8e42acafade72d5d5a6d59291253ceb1b09aa5aeb3702cfd50b6b62bc4532604938f21248a27a1d5ca736082b6819cc1d8aa0f3194971a2a116679f7c2090f6939c8d4e01a2a8d7e41d55e5351469e63a49807205ce4d355092ef5a8a18f56e8913cf4a201fbe287825b095693c2177555435dd261a4b9b3364963f7738a7a662ad9c84396d64be3365284bb7f0a5041a164736f6c6343000814000a",
  "linkReferences": {},
  "deployedLinkReferences": {}
}