{
  "_format": "hh-sol-artifact-1",
  "contractName": "JustGovernanceUpgradeable",
  "sourceName": "contracts/JustGovernanceUpgradeable.sol",
  "abi": [
    {
      "inputs": [],
      "name": "AlreadyRefunded",
      "type": "error"
    },
    {
      "inputs": [],
      "name": "AlreadyVoted",
      "type": "error"
    },
    {
      "inputs": [],
      "name": "CallFailed",
      "type": "error"
    },
    {
      "inputs": [
        {
          "internalType": "uint256",
          "name": "available",
          "type": "uint256"
        },
        {
          "internalType": "uint256",
          "name": "required",
          "type": "uint256"
        }
      ],
      "name": "InsufficientBalance",
      "type": "error"
    },
    {
      "inputs": [],
      "name": "InvalidAmount",
      "type": "error"
    },
    {
      "inputs": [],
      "name": "InvalidCalldata",
      "type": "error"
    },
    {
      "inputs": [
        {
          "internalType": "uint256",
          "name": "provided",
          "type": "uint256"
        },
        {
          "internalType": "uint256",
          "name": "min",
          "type": "uint256"
        },
        {
          "internalType": "uint256",
          "name": "max",
          "type": "uint256"
        }
      ],
      "name": "InvalidDuration",
      "type": "error"
    },
    {
      "inputs": [],
      "name": "InvalidLockIndex",
      "type": "error"
    },
    {
      "inputs": [],
      "name": "InvalidPercentage",
      "type": "error"
    },
    {
      "inputs": [],
      "name": "InvalidProposalId",
      "type": "error"
    },
    {
      "inputs": [],
      "name": "InvalidSelector",
      "type": "error"
    },
    {
      "inputs": [],
      "name": "InvalidVoteType",
      "type": "error"
    },
    {
      "inputs": [],
      "name": "LastAdminRole",
      "type": "error"
    },
    {
      "inputs": [],
      "name": "NoTxHash",
      "type": "error"
    },
    {
      "inputs": [],
      "name": "NoValidChange",
      "type": "error"
    },
    {
      "inputs": [],
      "name": "NoVotingPower",
      "type": "error"
    },
    {
      "inputs": [],
      "name": "NotAuthorized",
      "type": "error"
    },
    {
      "inputs": [],
      "name": "NotDefeated",
      "type": "error"
    },
    {
      "inputs": [],
      "name": "NotInTimelock",
      "type": "error"
    },
    {
      "inputs": [],
      "name": "NotProposer",
      "type": "error"
    },
    {
      "inputs": [],
      "name": "NotQueued",
      "type": "error"
    },
    {
      "inputs": [],
      "name": "NotSucceeded",
      "type": "error"
    },
    {
      "inputs": [],
      "name": "ProposalCanceled",
      "type": "error"
    },
    {
      "inputs": [],
      "name": "ProposalExecuted",
      "type": "error"
    },
    {
      "inputs": [],
      "name": "ProposalNotExpired",
      "type": "error"
    },
    {
      "inputs": [],
      "name": "TimelockExecutionFailed",
      "type": "error"
    },
    {
      "inputs": [],
      "name": "TransferFailed",
      "type": "error"
    },
    {
      "inputs": [],
      "name": "VotingEnded",
      "type": "error"
    },
    {
      "inputs": [],
      "name": "ZeroAddress",
      "type": "error"
    },
    {
      "anonymous": false,
      "inputs": [
        {
          "indexed": false,
          "internalType": "address",
          "name": "previousAdmin",
          "type": "address"
        },
        {
          "indexed": false,
          "internalType": "address",
          "name": "newAdmin",
          "type": "address"
        }
      ],
      "name": "AdminChanged",
      "type": "event"
    },
    {
      "anonymous": false,
      "inputs": [
        {
          "indexed": true,
          "internalType": "address",
          "name": "beacon",
          "type": "address"
        }
      ],
      "name": "BeaconUpgraded",
      "type": "event"
    },
    {
      "anonymous": false,
      "inputs": [
        {
          "indexed": true,
          "internalType": "address",
          "name": "token",
          "type": "address"
        },
        {
          "indexed": true,
          "internalType": "address",
          "name": "timelock",
          "type": "address"
        },
        {
          "indexed": true,
          "internalType": "address",
          "name": "admin",
          "type": "address"
        }
      ],
      "name": "ContractInitialized",
      "type": "event"
    },
    {
      "anonymous": false,
      "inputs": [
        {
          "indexed": true,
          "internalType": "address",
          "name": "pauser",
          "type": "address"
        }
      ],
      "name": "ContractPaused",
      "type": "event"
    },
    {
      "anonymous": false,
      "inputs": [
        {
          "indexed": true,
          "internalType": "address",
          "name": "unpauser",
          "type": "address"
        }
      ],
      "name": "ContractUnpaused",
      "type": "event"
    },
    {
      "anonymous": false,
      "inputs": [
        {
          "indexed": false,
          "internalType": "uint8",
          "name": "pType",
          "type": "uint8"
        },
        {
          "indexed": false,
          "internalType": "uint256",
          "name": "oldVal",
          "type": "uint256"
        },
        {
          "indexed": false,
          "internalType": "uint256",
          "name": "newVal",
          "type": "uint256"
        }
      ],
      "name": "GovParamChange",
      "type": "event"
    },
    {
      "anonymous": false,
      "inputs": [
        {
          "indexed": false,
          "internalType": "uint8",
          "name": "version",
          "type": "uint8"
        }
      ],
      "name": "Initialized",
      "type": "event"
    },
    {
      "anonymous": false,
      "inputs": [
        {
          "indexed": false,
          "internalType": "address",
          "name": "account",
          "type": "address"
        }
      ],
      "name": "Paused",
      "type": "event"
    },
    {
      "anonymous": false,
      "inputs": [
        {
          "indexed": true,
          "internalType": "uint256",
          "name": "proposalId",
          "type": "uint256"
        },
        {
          "indexed": true,
          "internalType": "uint8",
          "name": "eventType",
          "type": "uint8"
        },
        {
          "indexed": true,
          "internalType": "address",
          "name": "actor",
          "type": "address"
        },
        {
          "indexed": false,
          "internalType": "bytes",
          "name": "data",
          "type": "bytes"
        }
      ],
      "name": "ProposalEvent",
      "type": "event"
    },
    {
      "anonymous": false,
      "inputs": [
        {
          "indexed": true,
          "internalType": "bytes32",
          "name": "role",
          "type": "bytes32"
        },
        {
          "indexed": true,
          "internalType": "bytes32",
          "name": "previousAdminRole",
          "type": "bytes32"
        },
        {
          "indexed": true,
          "internalType": "bytes32",
          "name": "newAdminRole",
          "type": "bytes32"
        }
      ],
      "name": "RoleAdminChanged",
      "type": "event"
    },
    {
      "anonymous": false,
      "inputs": [
        {
          "indexed": true,
          "internalType": "bytes32",
          "name": "role",
          "type": "bytes32"
        },
        {
          "indexed": true,
          "internalType": "address",
          "name": "account",
          "type": "address"
        },
        {
          "indexed": false,
          "internalType": "bool",
          "name": "isGranted",
          "type": "bool"
        }
      ],
      "name": "RoleChange",
      "type": "event"
    },
    {
      "anonymous": false,
      "inputs": [
        {
          "indexed": true,
          "internalType": "bytes32",
          "name": "role",
          "type": "bytes32"
        },
        {
          "indexed": true,
          "internalType": "address",
          "name": "account",
          "type": "address"
        },
        {
          "indexed": true,
          "internalType": "address",
          "name": "sender",
          "type": "address"
        }
      ],
      "name": "RoleGranted",
      "type": "event"
    },
    {
      "anonymous": false,
      "inputs": [
        {
          "indexed": true,
          "internalType": "bytes32",
          "name": "role",
          "type": "bytes32"
        },
        {
          "indexed": true,
          "internalType": "address",
          "name": "account",
          "type": "address"
        },
        {
          "indexed": true,
          "internalType": "address",
          "name": "sender",
          "type": "address"
        }
      ],
      "name": "RoleRevoked",
      "type": "event"
    },
    {
      "anonymous": false,
      "inputs": [
        {
          "indexed": false,
          "internalType": "bytes4",
          "name": "selector",
          "type": "bytes4"
        },
        {
          "indexed": false,
          "internalType": "bool",
          "name": "selectorAllowed",
          "type": "bool"
        },
        {
          "indexed": false,
          "internalType": "address",
          "name": "target",
          "type": "address"
        },
        {
          "indexed": false,
          "internalType": "bool",
          "name": "targetAllowed",
          "type": "bool"
        }
      ],
      "name": "SecuritySettingUpdated",
      "type": "event"
    },
    {
      "anonymous": false,
      "inputs": [
        {
          "indexed": true,
          "internalType": "uint256",
          "name": "proposalId",
          "type": "uint256"
        },
        {
          "indexed": true,
          "internalType": "bytes32",
          "name": "txHash",
          "type": "bytes32"
        }
      ],
      "name": "TimelockTransactionSubmitted",
      "type": "event"
    },
    {
      "anonymous": false,
      "inputs": [
        {
          "indexed": false,
          "internalType": "address",
          "name": "account",
          "type": "address"
        }
      ],
      "name": "Unpaused",
      "type": "event"
    },
    {
      "anonymous": false,
      "inputs": [
        {
          "indexed": true,
          "internalType": "address",
          "name": "implementation",
          "type": "address"
        }
      ],
      "name": "Upgraded",
      "type": "event"
    },
    {
      "anonymous": false,
      "inputs": [
        {
          "indexed": true,
          "internalType": "uint256",
          "name": "proposalId",
          "type": "uint256"
        },
        {
          "indexed": true,
          "internalType": "address",
          "name": "voter",
          "type": "address"
        },
        {
          "indexed": false,
          "internalType": "uint8",
          "name": "support",
          "type": "uint8"
        },
        {
          "indexed": false,
          "internalType": "uint256",
          "name": "votingPower",
          "type": "uint256"
        }
      ],
      "name": "VoteCast",
      "type": "event"
    },
    {
      "inputs": [],
      "name": "ADMIN_ROLE",
      "outputs": [
        {
          "internalType": "bytes32",
          "name": "",
          "type": "bytes32"
        }
      ],
      "stateMutability": "view",
      "type": "function"
    },
    {
      "inputs": [],
      "name": "DEFAULT_ADMIN_ROLE",
      "outputs": [
        {
          "internalType": "bytes32",
          "name": "",
          "type": "bytes32"
        }
      ],
      "stateMutability": "view",
      "type": "function"
    },
    {
      "inputs": [],
      "name": "GUARDIAN_ROLE",
      "outputs": [
        {
          "internalType": "bytes32",
          "name": "",
          "type": "bytes32"
        }
      ],
      "stateMutability": "view",
      "type": "function"
    },
    {
      "inputs": [
        {
          "internalType": "bytes4",
          "name": "",
          "type": "bytes4"
        }
      ],
      "name": "allowedFunctionSelectors",
      "outputs": [
        {
          "internalType": "bool",
          "name": "",
          "type": "bool"
        }
      ],
      "stateMutability": "view",
      "type": "function"
    },
    {
      "inputs": [
        {
          "internalType": "address",
          "name": "",
          "type": "address"
        }
      ],
      "name": "allowedTargets",
      "outputs": [
        {
          "internalType": "bool",
          "name": "",
          "type": "bool"
        }
      ],
      "stateMutability": "view",
      "type": "function"
    },
    {
      "inputs": [
        {
          "internalType": "uint256",
          "name": "proposalId",
          "type": "uint256"
        }
      ],
      "name": "cancelProposal",
      "outputs": [],
      "stateMutability": "nonpayable",
      "type": "function"
    },
    {
      "inputs": [
        {
          "internalType": "uint256",
          "name": "proposalId",
          "type": "uint256"
        },
        {
          "internalType": "uint8",
          "name": "support",
          "type": "uint8"
        }
      ],
      "name": "castVote",
      "outputs": [
        {
          "internalType": "uint256",
          "name": "",
          "type": "uint256"
        }
      ],
      "stateMutability": "nonpayable",
      "type": "function"
    },
    {
      "inputs": [
        {
          "internalType": "uint256",
          "name": "proposalId",
          "type": "uint256"
        }
      ],
      "name": "claimPartialStakeRefund",
      "outputs": [],
      "stateMutability": "nonpayable",
      "type": "function"
    },
    {
      "inputs": [
        {
          "internalType": "string",
          "name": "description",
          "type": "string"
        },
        {
          "internalType": "enum JustGovernanceUpgradeable.ProposalType",
          "name": "proposalType",
          "type": "uint8"
        },
        {
          "internalType": "address",
          "name": "target",
          "type": "address"
        },
        {
          "internalType": "bytes",
          "name": "callData",
          "type": "bytes"
        },
        {
          "internalType": "uint256",
          "name": "amount",
          "type": "uint256"
        },
        {
          "internalType": "address payable",
          "name": "recipient",
          "type": "address"
        },
        {
          "internalType": "address",
          "name": "externalToken",
          "type": "address"
        },
        {
          "internalType": "uint256",
          "name": "newThreshold",
          "type": "uint256"
        },
        {
          "internalType": "uint256",
          "name": "newQuorum",
          "type": "uint256"
        },
        {
          "internalType": "uint256",
          "name": "newVotingDuration",
          "type": "uint256"
        },
        {
          "internalType": "uint256",
          "name": "newTimelockDelay",
          "type": "uint256"
        }
      ],
      "name": "createProposal",
      "outputs": [
        {
          "internalType": "uint256",
          "name": "",
          "type": "uint256"
        }
      ],
      "stateMutability": "nonpayable",
      "type": "function"
    },
    {
      "inputs": [
        {
          "internalType": "uint256",
          "name": "proposalId",
          "type": "uint256"
        }
      ],
      "name": "executeProposal",
      "outputs": [],
      "stateMutability": "nonpayable",
      "type": "function"
    },
    {
      "inputs": [
        {
          "internalType": "uint256",
          "name": "proposalId",
          "type": "uint256"
        }
      ],
      "name": "executeProposalLogic",
      "outputs": [],
      "stateMutability": "nonpayable",
      "type": "function"
    },
    {
      "inputs": [
        {
          "internalType": "uint256",
          "name": "proposalId",
          "type": "uint256"
        }
      ],
      "name": "getProposalState",
      "outputs": [
        {
          "internalType": "enum JustGovernanceUpgradeable.ProposalState",
          "name": "",
          "type": "uint8"
        }
      ],
      "stateMutability": "view",
      "type": "function"
    },
    {
      "inputs": [
        {
          "internalType": "uint256",
          "name": "proposalId",
          "type": "uint256"
        }
      ],
      "name": "getProposalVoteTotals",
      "outputs": [
        {
          "internalType": "uint256",
          "name": "forVotes",
          "type": "uint256"
        },
        {
          "internalType": "uint256",
          "name": "againstVotes",
          "type": "uint256"
        },
        {
          "internalType": "uint256",
          "name": "abstainVotes",
          "type": "uint256"
        },
        {
          "internalType": "uint256",
          "name": "totalVotingPower",
          "type": "uint256"
        },
        {
          "internalType": "uint256",
          "name": "voterCount",
          "type": "uint256"
        }
      ],
      "stateMutability": "view",
      "type": "function"
    },
    {
      "inputs": [
        {
          "internalType": "uint256",
          "name": "proposalId",
          "type": "uint256"
        }
      ],
      "name": "getProposalVotes",
      "outputs": [
        {
          "internalType": "uint256",
          "name": "yesVotes",
          "type": "uint256"
        },
        {
          "internalType": "uint256",
          "name": "noVotes",
          "type": "uint256"
        },
        {
          "internalType": "uint256",
          "name": "abstainVotes",
          "type": "uint256"
        },
        {
          "internalType": "uint256",
          "name": "totalVotingPower",
          "type": "uint256"
        },
        {
          "internalType": "uint256",
          "name": "totalVoters",
          "type": "uint256"
        }
      ],
      "stateMutability": "view",
      "type": "function"
    },
    {
      "inputs": [
        {
          "internalType": "bytes32",
          "name": "role",
          "type": "bytes32"
        }
      ],
      "name": "getRoleAdmin",
      "outputs": [
        {
          "internalType": "bytes32",
          "name": "",
          "type": "bytes32"
        }
      ],
      "stateMutability": "view",
      "type": "function"
    },
    {
      "inputs": [
        {
          "internalType": "bytes32",
          "name": "role",
          "type": "bytes32"
        },
        {
          "internalType": "uint256",
          "name": "index",
          "type": "uint256"
        }
      ],
      "name": "getRoleMember",
      "outputs": [
        {
          "internalType": "address",
          "name": "",
          "type": "address"
        }
      ],
      "stateMutability": "view",
      "type": "function"
    },
    {
      "inputs": [
        {
          "internalType": "bytes32",
          "name": "role",
          "type": "bytes32"
        }
      ],
      "name": "getRoleMemberCount",
      "outputs": [
        {
          "internalType": "uint256",
          "name": "",
          "type": "uint256"
        }
      ],
      "stateMutability": "view",
      "type": "function"
    },
    {
      "inputs": [],
      "name": "govParams",
      "outputs": [
        {
          "internalType": "uint256",
          "name": "votingDuration",
          "type": "uint256"
        },
        {
          "internalType": "uint256",
          "name": "quorum",
          "type": "uint256"
        },
        {
          "internalType": "uint256",
          "name": "timelockDelay",
          "type": "uint256"
        },
        {
          "internalType": "uint256",
          "name": "proposalCreationThreshold",
          "type": "uint256"
        },
        {
          "internalType": "uint256",
          "name": "proposalStake",
          "type": "uint256"
        },
        {
          "internalType": "uint256",
          "name": "defeatedRefundPercentage",
          "type": "uint256"
        },
        {
          "internalType": "uint256",
          "name": "canceledRefundPercentage",
          "type": "uint256"
        },
        {
          "internalType": "uint256",
          "name": "expiredRefundPercentage",
          "type": "uint256"
        }
      ],
      "stateMutability": "view",
      "type": "function"
    },
    {
      "inputs": [
        {
          "internalType": "bytes32",
          "name": "role",
          "type": "bytes32"
        },
        {
          "internalType": "address",
          "name": "account",
          "type": "address"
        }
      ],
      "name": "grantContractRole",
      "outputs": [],
      "stateMutability": "nonpayable",
      "type": "function"
    },
    {
      "inputs": [
        {
          "internalType": "bytes32",
          "name": "role",
          "type": "bytes32"
        },
        {
          "internalType": "address",
          "name": "account",
          "type": "address"
        }
      ],
      "name": "grantRole",
      "outputs": [],
      "stateMutability": "nonpayable",
      "type": "function"
    },
    {
      "inputs": [
        {
          "internalType": "bytes32",
          "name": "role",
          "type": "bytes32"
        },
        {
          "internalType": "address",
          "name": "account",
          "type": "address"
        }
      ],
      "name": "hasRole",
      "outputs": [
        {
          "internalType": "bool",
          "name": "",
          "type": "bool"
        }
      ],
      "stateMutability": "view",
      "type": "function"
    },
    {
      "inputs": [
        {
          "internalType": "string",
          "name": "name",
          "type": "string"
        },
        {
          "internalType": "address",
          "name": "tokenAddress",
          "type": "address"
        },
        {
          "internalType": "address",
          "name": "timelockAddress",
          "type": "address"
        },
        {
          "internalType": "address",
          "name": "admin",
          "type": "address"
        },
        {
          "internalType": "uint256",
          "name": "proposalThreshold",
          "type": "uint256"
        },
        {
          "internalType": "uint256",
          "name": "votingDelay",
          "type": "uint256"
        },
        {
          "internalType": "uint256",
          "name": "votingPeriod",
          "type": "uint256"
        },
        {
          "internalType": "uint256",
          "name": "quorumNumerator",
          "type": "uint256"
        },
        {
          "internalType": "uint256",
          "name": "successfulRefund",
          "type": "uint256"
        },
        {
          "internalType": "uint256",
          "name": "cancelledRefund",
          "type": "uint256"
        },
        {
          "internalType": "uint256",
          "name": "defeatedRefund",
          "type": "uint256"
        },
        {
          "internalType": "uint256",
          "name": "expiredRefund",
          "type": "uint256"
        }
      ],
      "name": "initialize",
      "outputs": [],
      "stateMutability": "nonpayable",
      "type": "function"
    },
    {
      "inputs": [],
      "name": "justToken",
      "outputs": [
        {
          "internalType": "contract JustTokenUpgradeable",
          "name": "",
          "type": "address"
        }
      ],
      "stateMutability": "view",
      "type": "function"
    },
    {
      "inputs": [],
      "name": "maxVotingDuration",
      "outputs": [
        {
          "internalType": "uint256",
          "name": "",
          "type": "uint256"
        }
      ],
      "stateMutability": "view",
      "type": "function"
    },
    {
      "inputs": [],
      "name": "minVotingDuration",
      "outputs": [
        {
          "internalType": "uint256",
          "name": "",
          "type": "uint256"
        }
      ],
      "stateMutability": "view",
      "type": "function"
    },
    {
      "inputs": [],
      "name": "pause",
      "outputs": [],
      "stateMutability": "nonpayable",
      "type": "function"
    },
    {
      "inputs": [],
      "name": "paused",
      "outputs": [
        {
          "internalType": "bool",
          "name": "",
          "type": "bool"
        }
      ],
      "stateMutability": "view",
      "type": "function"
    },
    {
      "inputs": [
        {
          "internalType": "uint256",
          "name": "",
          "type": "uint256"
        },
        {
          "internalType": "address",
          "name": "",
          "type": "address"
        }
      ],
      "name": "proposalVoterInfo",
      "outputs": [
        {
          "internalType": "uint256",
          "name": "",
          "type": "uint256"
        }
      ],
      "stateMutability": "view",
      "type": "function"
    },
    {
      "inputs": [],
      "name": "proxiableUUID",
      "outputs": [
        {
          "internalType": "bytes32",
          "name": "",
          "type": "bytes32"
        }
      ],
      "stateMutability": "view",
      "type": "function"
    },
    {
      "inputs": [
        {
          "internalType": "uint256",
          "name": "proposalId",
          "type": "uint256"
        }
      ],
      "name": "queueProposal",
      "outputs": [],
      "stateMutability": "nonpayable",
      "type": "function"
    },
    {
      "inputs": [
        {
          "internalType": "bytes32",
          "name": "role",
          "type": "bytes32"
        },
        {
          "internalType": "address",
          "name": "account",
          "type": "address"
        }
      ],
      "name": "renounceRole",
      "outputs": [],
      "stateMutability": "nonpayable",
      "type": "function"
    },
    {
      "inputs": [
        {
          "internalType": "bytes32",
          "name": "role",
          "type": "bytes32"
        },
        {
          "internalType": "address",
          "name": "account",
          "type": "address"
        }
      ],
      "name": "revokeContractRole",
      "outputs": [],
      "stateMutability": "nonpayable",
      "type": "function"
    },
    {
      "inputs": [
        {
          "internalType": "bytes32",
          "name": "role",
          "type": "bytes32"
        },
        {
          "internalType": "address",
          "name": "account",
          "type": "address"
        }
      ],
      "name": "revokeRole",
      "outputs": [],
      "stateMutability": "nonpayable",
      "type": "function"
    },
    {
      "inputs": [
        {
          "internalType": "bytes4",
          "name": "interfaceId",
          "type": "bytes4"
        }
      ],
      "name": "supportsInterface",
      "outputs": [
        {
          "internalType": "bool",
          "name": "",
          "type": "bool"
        }
      ],
      "stateMutability": "view",
      "type": "function"
    },
    {
      "inputs": [],
      "name": "timelock",
      "outputs": [
        {
          "internalType": "contract JustTimelockUpgradeable",
          "name": "",
          "type": "address"
        }
      ],
      "stateMutability": "view",
      "type": "function"
    },
    {
      "inputs": [],
      "name": "unpause",
      "outputs": [],
      "stateMutability": "nonpayable",
      "type": "function"
    },
    {
      "inputs": [
        {
          "internalType": "uint8",
          "name": "paramType",
          "type": "uint8"
        },
        {
          "internalType": "uint256",
          "name": "newValue",
          "type": "uint256"
        }
      ],
      "name": "updateGovParam",
      "outputs": [],
      "stateMutability": "nonpayable",
      "type": "function"
    },
    {
      "inputs": [
        {
          "internalType": "address",
          "name": "guardian",
          "type": "address"
        },
        {
          "internalType": "bool",
          "name": "isAdding",
          "type": "bool"
        }
      ],
      "name": "updateGuardian",
      "outputs": [],
      "stateMutability": "nonpayable",
      "type": "function"
    },
    {
      "inputs": [
        {
          "internalType": "bytes4",
          "name": "selector",
          "type": "bytes4"
        },
        {
          "internalType": "bool",
          "name": "selectorAllowed",
          "type": "bool"
        },
        {
          "internalType": "address",
          "name": "target",
          "type": "address"
        },
        {
          "internalType": "bool",
          "name": "targetAllowed",
          "type": "bool"
        }
      ],
      "name": "updateSecurity",
      "outputs": [],
      "stateMutability": "nonpayable",
      "type": "function"
    },
    {
      "inputs": [
        {
          "internalType": "address",
          "name": "newImplementation",
          "type": "address"
        }
      ],
      "name": "upgradeTo",
      "outputs": [],
      "stateMutability": "nonpayable",
      "type": "function"
    },
    {
      "inputs": [
        {
          "internalType": "address",
          "name": "newImplementation",
          "type": "address"
        },
        {
          "internalType": "bytes",
          "name": "data",
          "type": "bytes"
        }
      ],
      "name": "upgradeToAndCall",
      "outputs": [],
      "stateMutability": "payable",
      "type": "function"
    }
  ],
  "bytecode": "0x60a0604052346200003657620000146200003b565b604051615e776200009382396080518181816113c0015261150c0152615e7790f35b600080fd5b6200004562000082565b565b6200005d9062000060906001600160a01b031682565b90565b6001600160a01b031690565b6200005d9062000047565b6200005d906200006c565b6200008d3062000077565b60805256fe6080604052600436101561001257600080fd5b60003560e01c806301ffc9a71461029d57806309729350146102985780630d61b519146102935780631b9ad0e41461028e578063248a9ca31461028957806324ea54f4146102845780632f2ff15d1461027f578063338a035a1461027a57806336568abe146102755780633659cfe6146102705780633f4ba83a1461026b57806347c66140146101f35780634f1ef2861461026657806352d1902d146102615780635612a6f01461025c57806356781388146102575780635714936c146102525780635c975abb1461024d578063643aa8b3146102485780636df7bab3146102435780636e5ce0501461023e57806370d26de51461023957806375b238fc146102345780638456cb591461022f57806388f4950f1461022a5780639010d07c146102255780639080936f1461022057806391d148541461021b57806394a14a34146102165780639d49257c14610211578063a01fc1c61461020c578063a217fddf14610207578063b860f7f314610202578063b8fe8d5f146101fd578063ca15c873146101f8578063cc39548c146101f3578063d33219b4146101ee578063d547741f146101e9578063dbd62506146101e4578063e0a8f6f5146101df5763f21c00ba036102a257610e8f565b610e77565b610e5c565b610e36565b610e0f565b610593565b610db6565b610d9b565b610d1d565b610c8a565b610c60565b610c45565b610c20565b610c04565b610bdd565b610b55565b610b22565b610ae7565b610ac0565b610aa7565b610a7c565b61094c565b610923565b61088b565b61086f565b610802565b6107b7565b6106d6565b6106c2565b61053e565b610526565b6104f9565b6104de565b61046c565b6103fa565b6103c4565b6103ab565b61035a565b61033d565b6102e4565b600080fd5b6001600160e01b031981165b036102a257565b905035906102c7826102a7565b565b906020828203126102a2576102dd916102ba565b90565b9052565b346102a2576103126102ff6102fa3660046102c9565b610ea8565b6040515b91829182901515815260200190565b0390f35b806102b3565b905035906102c782610316565b906020828203126102a2576102dd9161031c565b346102a257610355610350366004610329565b615e01565b604051005b346102a25761035561036d366004610329565b614f8f565b60ff81166102b3565b905035906102c782610372565b91906040838203126102a2576102dd906103a2818561037b565b9360200161031c565b346102a2576103556103be366004610388565b90612daf565b346102a2576103126103df6103da366004610329565b610f83565b6040519182918290815260200190565b60009103126102a257565b346102a25761040a3660046103ef565b610312600080516020615e4b8339815191526103df565b6001600160a01b031690565b6001600160a01b0381166102b3565b905035906102c78261042d565b91906040838203126102a2576102dd90610463818561031c565b9360200161043c565b346102a25761035561047f366004610449565b90610fba565b6001600160e01b03191690565b906001600160e01b0319165b600052602052604060002090565b6102dd916008021c5b60ff1690565b906102dd91546104ac565b6102dd906104d96101a191600092610492565b6104bb565b346102a2576103126102ff6104f43660046102c9565b6104c6565b346102a25761035561050c366004610449565b90611210565b906020828203126102a2576102dd9161043c565b346102a257610355610539366004610512565b6115cd565b346102a25761054e3660046103ef565b610355612704565b909594926102c79461058861058f9261058160809661057a60a088019c6000890152565b6020870152565b6040850152565b6060830152565b0152565b346102a2576103126105ae6105a9366004610329565b6147fe565b916105bb95939560405190565b95869586610556565b634e487b7160e01b600052604160045260246000fd5b90601f01601f1916810190811067ffffffffffffffff8211176105fc57604052565b6105c4565b906102c761060e60405190565b92836105da565b67ffffffffffffffff81116105fc57602090601f01601f19160190565b0190565b90826000939282370152565b9092919261065761065282610615565b610601565b938185526020850190828401116102a2576102c792610636565b9080601f830112156102a2578160206102dd93359101610642565b9190916040818403126102a2576106a3838261043c565b92602082013567ffffffffffffffff81116102a2576102dd9201610671565b6103556106d036600461068c565b90611926565b346102a2576106e63660046103ef565b6103126103df61142b565b9091610180828403126102a257813567ffffffffffffffff81116102a2578361071b918401610671565b92610729816020850161043c565b92610737826040830161043c565b92610745836060840161043c565b92610753816080850161031c565b926107618260a0830161031c565b9261076f8360c0840161031c565b9261077d8160e0850161031c565b9261078c82610100830161031c565b926102dd61079e84610120850161031c565b936107ad81610140860161031c565b936101600161031c565b346102a2576103556107ca3660046106f1565b9a999099989198979297969396959495612463565b91906040838203126102a2576102dd906107f9818561031c565b9360200161037b565b346102a2576103126103df6108183660046107df565b906147f2565b8015156102b3565b905035906102c78261081e565b6080818303126102a25761084782826102ba565b926102dd6108588460208501610826565b93610866816040860161043c565b93606001610826565b346102a257610355610882366004610833565b92919091612be3565b346102a25761089b3660046103ef565b6103126102ff611930565b6102dd6102dd6102dd9290565b9061049e906108a6565b6102dd90610421906001600160a01b031682565b6102dd906108bd565b6102dd906108d1565b9061049e906108da565b6102dd916008021c81565b906102dd91546108ed565b61091e6102dd92610919610194936000946108b3565b6108e3565b6108f8565b346102a2576103126103df610939366004610449565b90610903565b6102dd600061019f6108f8565b346102a25761095c3660046103ef565b6103126103df61093f565b909182601f830112156102a25781359167ffffffffffffffff83116102a25760200192600183028401116102a257565b600711156102a257565b905035906102c782610997565b9190610160838203126102a257823567ffffffffffffffff81116102a257816109d8918501610967565b9290936109e883602083016109a1565b926109f6816040840161043c565b92606083013567ffffffffffffffff81116102a25782610a17918501610967565b929093610a27826080830161031c565b92610a358360a0840161043c565b92610a438160c0850161043c565b92610a518260e0830161031c565b926102dd610a6384610100850161031c565b93610a7281610120860161031c565b936101400161031c565b346102a2576103126103df610a923660046109ae565b9b9a909a99919998929897939796949661412f565b346102a257610355610aba366004610449565b906129f4565b346102a257610ad03660046103ef565b610312600080516020615e2b8339815191526103df565b346102a257610af73660046103ef565b6103556125af565b91906040838203126102a2576102dd90610b19818561043c565b93602001610826565b346102a257610355610b35366004610aff565b90612ab9565b91906040838203126102a2576102dd906103a2818561031c565b346102a257610312610b71610b6b366004610b3b565b90610ed7565b6040515b918291826001600160a01b03909116815260200190565b634e487b7160e01b600052602160045260246000fd5b60071115610bac57565b610b8c565b906102c782610ba2565b6102dd90610bb1565b6102e090610bbb565b6020810192916102c79190610bc4565b346102a257610312610bf8610bf3366004610329565b61307e565b60405191829182610bcd565b346102a2576103126102ff610c1a366004610449565b90610f5b565b346102a257610355610c33366004610329565b614d8f565b6102dd60006101a06108f8565b346102a257610c553660046103ef565b6103126103df610c38565b346102a257610355610c73366004610329565b61500f565b6102dd60006108a6565b6102dd610c78565b346102a257610c9a3660046103ef565b6103126103df610c82565b6102dd9081565b6102dd9054610ca5565b61019790610cc382610cac565b91610cd060018201610cac565b91610cdd60028301610cac565b91610cea60038201610cac565b91610cf760048301610cac565b91610d0460058201610cac565b916102dd6007610d1660068501610cac565b9301610cac565b346102a257610d2d3660046103ef565b610312610d38610cb6565b94610d4b98969894919493929360405190565b98899889908152610100810198979690959094909390929091602087015260408601526060850152608084015260a083015260c082015260e00152565b6102dd906104d96101a2916000926108e3565b346102a2576103126102ff610db1366004610512565b610d88565b346102a2576103126103df610dcc366004610329565b610ef7565b6102dd916008021c610421565b906102dd9154610dd1565b6102dd6000610192610dde565b6102e0906108da565b6020810192916102c79190610df6565b346102a257610e1f3660046103ef565b610312610e2a610de9565b60405191829182610dff565b346102a257610355610e49366004610449565b90611188565b6102dd6000610191610dde565b346102a257610e6c3660046103ef565b610312610e2a610e4f565b346102a257610355610e8a366004610329565b614464565b346102a257610355610ea2366004610449565b90612942565b635a05180f60e01b6001600160e01b0319821614908115610ec7575090565b6102dd9150610f0e565b9061049e565b90610ef26102dd6102dd93610eea600090565b506097610ed1565b611fcd565b610f096102dd6102dd92610eea600090565b611f96565b637965db0b60e01b6001600160e01b0319821614908115610f2d575090565b6102dd91506001600160e01b0319166301ffc9a760e01b1490565b6102dd906104b5565b6102dd9054610f48565b6102dd916000610f78610f7e93610f70600090565b506065610ed1565b016108e3565b610f51565b6001610f946102dd92610f70600090565b01610cac565b906102c791610fb0610fab82610f83565b610fe8565b906102c791610fc4565b906102c791610f9a565b90610fe06102dd610fe593610fd98482611260565b6097610ed1565b611d08565b50565b6102c79033906110e0565b6102dd906108a6565b60005b83811061100f5750506000910152565b8181015183820152602001610fff565b61063261103792602092611031815190565b94859290565b93849101610ffc565b61107e6102dd9392611078611078937f416363657373436f6e74726f6c3a206163636f756e7420000000000000000000815260170190565b9061101f565b7001034b99036b4b9b9b4b733903937b6329607d1b815260110190565b6110bc6110c5602093610632936110b0815190565b80835293849260200190565b95869101610ffc565b601f01601f191690565b60208082526102dd9291019061109b565b906110f26110ee8284610f5b565b1590565b6110fa575050565b611169916102dd61111661111061115094611cdb565b92610ff3565b61112b602091611125836108a6565b90611b91565b9261114461113860405190565b94859384019283611040565b908103825203826105da565b6040515b62461bcd60e51b8152918291600483016110cf565b0390fd5b906102c79161117e610fab82610f83565b906102c791611192565b906102c79161116d565b906111a76102dd610fe593610fd984826112d9565b611e43565b156111b357565b60405162461bcd60e51b815260206004820152602f60248201527f416363657373436f6e74726f6c3a2063616e206f6e6c792072656e6f756e636560448201526e103937b632b9903337b91039b2b63360891b6064820152608490fd5b6102c7919061123161122133610421565b6001600160a01b038416146111ac565b611192565b9060ff905b9181191691161790565b906112556102dd61125c92151590565b8254611236565b9055565b9061126e6110ee8284610f5b565b611276575050565b611291600161128c836000610f78876065610ed1565b611245565b33906112c76112c16112c17f2f8788117e7eff1d82e926ec794901d17c78024a50270940304540a733656f0d9590565b926108da565b926112d160405190565b80805b0390a4565b906112e48183610f5b565b6112ec575050565b611301600061128c8382610f78876065610ed1565b33906112c76112c16112c17ff6391f5c32d9c69d2a47ea670b442974b53935d1edc7fd64eb21e047a839171b9590565b1561133857565b60405162461bcd60e51b815260206004820152603860248201527f555550535570677261646561626c653a206d757374206e6f742062652063616c60448201527f6c6564207468726f7567682064656c656761746563616c6c00000000000000006064820152608490fd5b6102dd906113f46113b3306108da565b6113ee6001600160a01b037f0000000000000000000000000000000000000000000000000000000000000000165b916001600160a01b031690565b14611331565b611422565b6102dd7f360894a13ba1a3210667c828492db98dca3e2076cc3735a920a3ca505d382bbc6108a6565b506102dd6113f9565b6102dd60006113a3565b1561143c57565b60405162461bcd60e51b815260206004820152602c60248201527f46756e6374696f6e206d7573742062652063616c6c6564207468726f7567682060448201526b19195b1959d85d1958d85b1b60a21b6064820152608490fd5b1561149d57565b60405162461bcd60e51b815260206004820152602c60248201527f46756e6374696f6e206d7573742062652063616c6c6564207468726f7567682060448201526b6163746976652070726f787960a01b6064820152608490fd5b6102c790611567611507306108da565b6115467f00000000000000000000000000000000000000000000000000000000000000009161153f6113e1846001600160a01b031690565b1415611435565b6115616113e16115546115e9565b926001600160a01b031690565b14611496565b6115a6565b9061157961065283610615565b918252565b369037565b906102c76115996115938461156c565b93610615565b601f19016020840161157e565b6102c7906115b3816125a6565b6000906115c76115c2836108a6565b611583565b906116b3565b6102c7906114f7565b6102dd90610421565b6102dd90546115d6565b6102dd60006115f96102dd6113f9565b016115df565b6102dd7f4910fdfa16fed3260ed0e7147f7cc6da11a60208b5b9406d12a635614ffd91436108a6565b905051906102c782610316565b906020828203126102a2576102dd91611628565b6040513d6000823e3d90fd5b1561165c57565b60405162461bcd60e51b815260206004820152602960248201527f45524331393637557067726164653a20756e737570706f727465642070726f786044820152681a58589b195555525160ba1b6064820152608490fd5b91906116cb60006116c56102dd6115ff565b01610f51565b156116db5750506102c790611859565b8260206116f26116ed61170a966108da565b6108da565b6352d1902d9061170160405190565b96879260e01b90565b825260049082905afa600094816117a1575b5061177d5760405162461bcd60e51b815260206004820152602e60248201527f45524331393637557067726164653a206e657720696d706c656d656e7461746960448201526d6f6e206973206e6f74205555505360901b6064820152608490fd5b61179c6102c7946117966117926102dd6113f9565b9190565b14611655565b611881565b6117c391955060203d81116117ca575b6117bb81836105da565b810190611635565b933861171c565b503d6117b1565b156117d857565b60405162461bcd60e51b815260206004820152602d60248201527f455243313936373a206e657720696d706c656d656e746174696f6e206973206e60448201526c1bdd08184818dbdb9d1c9858dd609a1b6064820152608490fd5b906001600160a01b039061123b565b906118526102dd61125c926108da565b8254611833565b6102c79061186e6118698261193a565b6117d1565b600061187b6102dd6113f9565b01611842565b9161188b836118bd565b815161189a61179260006108a6565b119081156118b5575b506118ac575050565b610fe591611997565b9050386118a3565b6118c681611859565b6118f07fbc7cd75a20ee27fd9adebab32041f755214dbc6bffa90cc0225b39da2e5c2d3b916108da565b906118fa60405190565b600090a2565b906102c791611911611507306108da565b6102c79161191e826125a6565b6001916116b3565b906102c791611900565b6102dd60fb610f51565b3b61194861179260006108a6565b1190565b611956602761156c565b7f416464726573733a206c6f772d6c6576656c2064656c65676174652063616c6c6020820152660819985a5b195960ca1b604082015290565b6102dd61194c565b6102dd916119a361198f565b916119c8565b3d156119c3576119b83d61156c565b903d6000602084013e565b606090565b6000806102dd94936119d8606090565b50805190602001845af46119ea6119a9565b91611a3c565b156119f757565b60405162461bcd60e51b815260206004820152601d60248201527f416464726573733a2063616c6c20746f206e6f6e2d636f6e74726163740000006044820152606490fd5b91929015611a6e57508151611a5461179260006108a6565b14611a5d575090565b611a696102dd9161193a565b6119f0565b8290611a78825190565b611a8561179260006108a6565b1115611a945750805190602001fd5b6111699061115460405190565b634e487b7160e01b600052601160045260246000fd5b81810292918115918404141715611aca57565b611aa1565b91908201809211611aca57565b634e487b7160e01b600052603260045260246000fd5b90611afb825190565b811015611b09570160200190565b611adc565b8015611aca576000190190565b6104b56102dd6102dd9290565b6102dd90611b3c6117926102dd9460ff1690565b901c90565b15611b4857565b60405162461bcd60e51b815280611169600482016020808252818101527f537472696e67733a20686578206c656e67746820696e73756666696369656e74604082015260600190565b9190600292611bbd6115c2611bae84611ba9886108a6565b611ab7565b611bb7876108a6565b90611acf565b916000906030611bd5611bcf846108a6565b86611af2565b53611c0d611c04600f60fb1b92611ba96001998a95871a611bfe611bf8886108a6565b8b611af2565b536108a6565b611bb7836108a6565b905b611c31575b506102dd93945090611c2b6117926102dd936108a6565b14611b41565b91611c3b866108a6565b831115611ca9576f181899199a1a9b1b9c1cb0b131b232b360811b611c60600f6108a6565b8216906010821015611b09578792611c80611c9d92611ca3941a60f81b90565b851a611c8c8789611af2565b53611c976004611b1b565b90611b28565b93611b0e565b90611c0f565b91611c14565b6102dd9081906001600160a01b031681565b6102dd6014611b1b565b6102dd6102dd6102dd9260ff1690565b611cf8611cf36102dd92611ced606090565b506108d1565b611caf565b611125611d03611cc1565b611ccb565b90611d30611792611d2b611cf360006102dd96611d23600090565b5001946108d1565b6108a6565b611dcd565b8054821015611b0957611d4f600191600052602060002090565b91020190600090565b9160001960089290920291821b911b61123b565b9190611d7b6102dd61125c9390565b908354611d58565b90815491600160401b8310156105fc5782611da69160016102c795018155611d35565b90611d6c565b906000199061123b565b90611dc66102dd61125c926108a6565b8254611dac565b611dda6110ee8383611e13565b15611e0c57611e0791611e02906001611dfb84611df78482611d83565b5490565b9301610ed1565b611db6565b600190565b5050600090565b611e31916001611e2c92611e25600090565b5001610ed1565b610cac565b611e3e61179260006108a6565b141590565b90611e5e611792611d2b611cf360006102dd96611d23600090565b611ed7565b91908203918211611aca57565b634e487b7160e01b600052603160045260246000fd5b6102c791600091611d6c565b80548015611eb5576000190190611eb2611eac8383611d35565b90611e86565b55565b611e70565b9190611d7b6102dd61125c936108a6565b6102c791600091611eba565b90611ee8611e2c8260018501610ed1565b600092611ef4846108a6565b8214611f47576102dd92611f4d9492611f5892611f526001978893611f21611f1b866108a6565b82611e63565b88850191611f3f611f30845490565b611f39896108a6565b90611e63565b828103611f5d575b50505090565b611e92565b01610ed1565b611ecb565b611da6611f86611f8e94611f7d611f77611e029589611d35565b906108f8565b92839188611d35565b888801610ed1565b388080611f47565b611fac60006102dd92611fa7600090565b500190565b60006102dd91611fba600090565b50015490565b6104216102dd6102dd9290565b611ff2611fed6102dd93611fe86000611ff795611fa7600090565b611ffc565b610ff3565b611fc0565b6108d1565b6102dd916000611f779261200e600090565b5001611d35565b6102dd9060081c6104b5565b6102dd9054612015565b1561203257565b60405162461bcd60e51b815260206004820152602e60248201527f496e697469616c697a61626c653a20636f6e747261637420697320616c72656160448201526d191e481a5b9a5d1a585b1a5e995960921b6064820152608490fd5b6104b56102dd6102dd9260ff1690565b906112556102dd61125c9261208e565b9061ff009060081b61123b565b906120cb6102dd61125c92151590565b82546120ae565b6102e090611b1b565b6020810192916102c791906120d2565b999693909a979491926121449996936121076110ee6000612021565b9c8d9c8d806121e8575b80156121a3575b6121219061202b565b60019e8f9061213961213283611b1b565b600061209e565b612192575b50612234565b61214b5750565b6121566000806120bb565b61218d7f7f26b83ff96e1f2b6a682f133852f6798a09c465da95921460cefb38474024989161218460405190565b918291826120db565b0390a1565b61219d9060006120bb565b8e61213e565b506121b86110ee6121b3306108da565b61193a565b801561211857506121216121cc6000610f51565b6121e06121d96001611b1b565b9160ff1690565b149050612118565b506121f36000610f51565b6122006121d96001611b1b565b10612111565b6102dd90611fc0565b634e487b7160e01b600052601260045260246000fd5b811561222f570490565b61220f565b509550969397929098955060009461224b86612206565b6001600160a01b0381166001600160a01b038c1614908115612446575b811561242a575b506124185761227c6124e9565b61228461254d565b61228c612509565b6122946124e9565b8961229d610c78565b906122a791610fb0565b6122bf8a600080516020615e2b833981519152610fb0565b6122d78a600080516020615e4b833981519152610fb0565b6122e0906108da565b966122ed88610191611842565b6122f6906108da565b9761230389610192611842565b61230e6102586108a6565b61231a9061019f611db6565b6123276301e133806108a6565b612333906101a0611db6565b6101979586019061234391611db6565b6123508260018701611db6565b61235d9060028601611db6565b61236a8160038601611db6565b61237460646108a6565b61237d91612225565b61238a9060048501611db6565b6123979060058401611db6565b6123a49060068301611db6565b600701906123b191611db6565b60016101a1816123c863a9059cbb60e01b83610492565b906123d291611245565b63095ea7b360e01b6123e391610492565b906123ed91611245565b7f4ca662a5f1f012e4d740b256559dce10a6b72cdec96be0142f5e2eb49dd37a6e926112c7906108da565b60405163d92e233d60e01b8152600490fd5b6001600160a01b031690506001600160a01b038916143861226f565b90506001600160a01b0381166001600160a01b0383161490612268565b906102c79b9a9998979695949392916120eb565b1561247e57565b60405162461bcd60e51b815260206004820152602b60248201527f496e697469616c697a61626c653a20636f6e7472616374206973206e6f74206960448201526a6e697469616c697a696e6760a81b6064820152608490fd5b6102c76124e46000612021565b612477565b6102c76124d7565b6124fe6124e46000612021565b6102c76102c761252d565b6102c76124f1565b61251e6124e46000612021565b6102c76102c7600060fb611245565b6102c7612511565b6125426124e46000612021565b6102c76102c7612586565b6102c7612535565b6125626124e46000612021565b6102c7612574565b6102dd60016108a6565b6102c761257f61256a565b60c9611db6565b6102c7612555565b506102c7600080516020615e2b833981519152610fe8565b6102c79061258e565b336125cb6110ee82600080516020615e4b833981519152610f5b565b80612643575b80612620575b61260d576125e36126aa565b6118f07f81990fd9a5c552b8e3677917d8a03c07678f0d2cb68f88b634aca2022e9bd19f916108da565b6040515b63ea8e4eb560e01b8152600490fd5b506126326104216116ed6101926115df565b6001600160a01b03821614156125d7565b5061265f6110ee82600080516020615e2b833981519152610f5b565b6125d1565b61266c6126f1565b6102c761267b600160fb611245565b3361218d7f62e78cea01bee320cd4e420270b5ea74000d11b0c9f74754ebdbfc544b05a25891610b7560405190565b6102c7612664565b156126b957565b60405162461bcd60e51b815260206004820152601060248201526f14185d5cd8589b194e881c185d5cd95960821b6044820152606490fd5b6102c76126ff6110ee611930565b6126b2565b336127206110ee82600080516020615e2b833981519152610f5b565b8061275c575b61260d576127326127c5565b6118f07f5b65b0c1363b3003db9bcc5e1fd8805a6d6bf5bf6dc9d3431ee4494cd7d11766916108da565b5061276e6104216116ed6101926115df565b6001600160a01b0382161415612726565b612787612810565b6102c7612796600060fb611245565b3361218d7f5db9ee0a495bf2e6ff9c91a7834c1ba4fdd244a5e8aa4e537bd38aeae4b073aa91610b7560405190565b6102c761277f565b156127d457565b60405162461bcd60e51b815260206004820152601460248201527314185d5cd8589b194e881b9bdd081c185d5cd95960621b6044820152606490fd5b6102c761281b611930565b6127cd565b903361283d6110ee82600080516020615e2b833981519152610f5b565b9081612852575b5061260d576102c791612870565b90506128686113e16104216116ed6101926115df565b141538612844565b9060009161288061042184612206565b6001600160a01b0383161461241857600080516020615e2b8339815191528082146128f4575b506128b18282611188565b6128ef6128e56128df7f7c979cc3cab9cb8d7e7656686686502286ec685affa74ac6634a2be36cb68a839390565b936108da565b9361030360405190565b0390a3565b6128fd90610ef7565b61290a61179260016108a6565b11801561292f575b1561291d57386128a6565b604051636059882f60e11b8152600490fd5b506001600160a01b038216331415612912565b906102c791612820565b90336129696110ee82600080516020615e2b833981519152610f5b565b908161297e575b5061260d576102c79161299c565b90506129946113e16104216116ed6101926115df565b141538612970565b906129aa6104216000612206565b6001600160a01b03821614612418576129c38183610fba565b6001916128ef6128e56128df7f7c979cc3cab9cb8d7e7656686686502286ec685affa74ac6634a2be36cb68a839390565b906102c79161294c565b9033612a1b6110ee82600080516020615e2b833981519152610f5b565b9081612a30575b5061260d576102c791612a4e565b9050612a466113e16104216116ed6101926115df565b141538612a22565b612a5b6104216000612206565b6001600160a01b03821614612418578115612a9c57612a8881600080516020615e4b833981519152610fba565b600080516020615e4b8339815191526128b1565b612ab481600080516020615e4b833981519152611188565b612a88565b906102c7916129fe565b6102c793929190612ae1600080516020615e2b833981519152610fe8565b612b45565b610485612af36102dd9290565b60e01b90565b612b3d6102c794612b2d606094989795612b24608086019a60008701906001600160e01b0319169052565b15156020850152565b6001600160a01b03166040830152565b019015159052565b90919261218d90612b756104216000612b6061048582612ae6565b6001600160e01b0319871603612bce57612206565b6001600160a01b03861603612bb9575b7fafa2cd5aa57d1ad069bcc204940405dda70a612b4ccb490493786b13a0ee16ad94612bb060405190565b94859485612af9565b612bc98161128c876101a26108e3565b612b85565b612bde8761128c886101a1610492565b612206565b906102c7939291612ac3565b9033612c0c6110ee82600080516020615e2b833981519152610f5b565b9081612c21575b5061260d576102c791612c85565b9050612c376113e16104216116ed6101926115df565b141538612c13565b6102dd6000611b1b565b6102dd6005611b1b565b6102dd6006611b1b565b6102dd6007611b1b565b9081526060810193926102c792909160409161058f905b6020830152565b612c906104b5612c3f565b60ff821603612d0857612ca76102dd61019f610cac565b82108015612cf2575b612cbe57906102c791612e00565b50612cca61019f610cac565b90611169612cd96101a0610cac565b60405163206f4e1160e21b815293849360048501612c67565b50612d016102dd6101a0610cac565b8211612cb0565b90612d146104b5612c49565b60ff8316148015612d99575b8015612d83575b15612d5757612d3660646108a6565b8111612d45576102c791612e00565b604051631f3b85d360e01b8152600490fd5b612d6160006108a6565b8114612d70576102c791612e00565b6040515b63162908e360e11b8152600490fd5b50612d8f6104b5612c5d565b60ff831614612d27565b50612da56104b5612c53565b60ff831614612d20565b906102c791612bef565b6102dd6001611b1b565b6102dd6002611b1b565b6102dd6003611b1b565b6102dd6004611b1b565b60ff90911681526060810193926102c792909160409161058f90612c7e565b6000612e0d6104b5612c3f565b60ff831603612e65575061019790612e2e83612e2884610cac565b93611db6565b61218d7f8504164e5e8ef70117aea5f1895915b866f4d269354e88e147062469f1dc483f93612e5c60405190565b93849384612de1565b612e706104b5612db9565b60ff831603612e90575061019890612e8b83612e2884610cac565b612e2e565b612e9b6104b5612dc3565b60ff831603612eb6575061019990612e8b83612e2884610cac565b612ec16104b5612dcd565b60ff831603612edc575061019a90612e8b83612e2884610cac565b612ee76104b5612dd7565b60ff831603612f02575061019b90612e8b83612e2884610cac565b612f0d6104b5612c49565b60ff831603612f28575061019c90612e8b83612e2884610cac565b612f336104b5612c53565b60ff831603612f4e575061019d90612e8b83612e2884610cac565b90612f5a6104b5612c5d565b60ff821603612e8b5761019e9150612e8b83612e2884610cac565b8054821015611b0957611d4f601291600052602060002090565b6102dd9060101c5b65ffffffffffff1690565b6102dd9054612f8f565b6102dd6102dd6102dd9265ffffffffffff1690565b905051906102c78261042d565b90929192612fde61065282610615565b938185526020850190828401116102a2576102c792610ffc565b9080601f830112156102a25781516102dd92602001612fce565b905051906102c78261081e565b919060a0838203126102a2576130358184612fc1565b926130438260208301611628565b92604082015167ffffffffffffffff81116102a257613067846102dd928501612ff8565b936130758160608601611628565b93608001613012565b61019361308c6102dd825490565b8210156132f2576130a4916130a091612f75565b5090565b806130b66130b182610f51565b61331a565b156130c2575050600190565b6130d36130ce83610f51565b613304565b156130df575050600590565b42916130f26130ed82612fa2565b612fac565b83101561310157505050600090565b6001820161310e81610cac565b60028401906131226117926102dd84610cac565b11159182156132b2575b50501561313b57505050600290565b6110ee61314a61314f92610f51565b61332c565b1561315b575050600390565b6007019061316882610cac565b9160009261317b6117926102dd866108a6565b03613189575b505050600490565b826131d29161319c6116ed6101926115df565b6131c46131ad634aae13ca93610cac565b926131b760405190565b9586948593849360e01b90565b835260048301526024820190565b03915afa80156132825783918491613287575b50155b9283613203575b5050506131fe57388080613181565b600690565b61323291929350602061321a6116ed6101926115df565b63a06db7dc9061322960405190565b94859260e01b90565b825260049082905afa80156132825761325993611792936102dd9392613262575b50611acf565b113880806131ef565b61327b91925060203d81116117ca576117bb81836105da565b9038613253565b611649565b6131e892506132a891503d8086833e6132a081836105da565b81019061301f565b93509350506131e5565b6132d9925090611bb76132c76132cd93610cac565b91610cac565b611bb760038501610cac565b6132ea6117926102dd610198610cac565b10388061312c565b604051630992f7ad60e01b8152600490fd5b61330c612db9565b16611e3e6121d96000611b1b565b61330c612dc3565b6102dd6008611b1b565b61330c613322565b906102dd9d9c9b9a99989796959493929161334d6126f1565b9061336b9d9c9b9a99989796959493929161336661419c565b6139fb565b906102c7612574565b909392938483116102a25784116102a2578101920390565b356001600160e01b03191690600481106133a4575090565b6133bb9063ffffffff60e01b906004036008021b90565b1690565b9081526040810192916102c79160200152565b906020828203126102a2576102dd91613012565b6001600160a01b039182168152911660208201526060810192916102c79160400152565b6102dd6102a0610601565b61341d61340a565b9060008252602082016000815260200160008152602001600081526020016000815260200160008152602001600081526020016000815260200160008152602001600081526020016000815260200160608152602001600081526020016060815260200160008152602001600081526020016000815260200160008152602001600081526020016000815260200160009052565b6102dd613415565b906102e090610bb1565b612f976102dd6102dd9290565b6102dd913691610642565b634e487b7160e01b600052600060045260246000fd5b6102dd9051610bb1565b906120cb6102dd61125c92610bbb565b9067ffffffffffff00009060101b61123b565b612f976102dd6102dd9265ffffffffffff1690565b906135436102dd61125c9261351e565b825461350b565b906dffffffffffff00000000000000009060401b61123b565b906135736102dd61125c9261351e565b825461354a565b90611dc66102dd61125c9290565b634e487b7160e01b600052602260045260246000fd5b90600160028304921680156135be575b60208310146135b957565b613588565b91607f16916135ae565b8181106135d3575050565b806135e16000600193611ecb565b016135c8565b9190601f81116135f657505050565b6136086102c793600052602060002090565b906020601f84018190048301931061362a575b6020601f9091010401906135c8565b909150819061361b565b9061363d815190565b9067ffffffffffffffff82116105fc576136618261365b855461359e565b856135e7565b602090601f831160011461369c5761125c929160009183613691575b5050600019600883021c1916906002021790565b01519050388061367d565b601f198316916136b185600052602060002090565b9260005b8181106136ef575091600293918560019694106136d6575b50505002019055565b01516000196008601f8516021c191690553880806136cd565b919360206001819287870151815501950192016136b5565b906102c791613634565b9061371a815190565b9067ffffffffffffffff82116105fc576137388261365b855461359e565b602090601f83116001146137675761125c929160009183613691575050600019600883021c1916906002021790565b601f1983169161377c85600052602060002090565b9260005b8181106137a0575091600293918560019694106136d65750505002019055565b91936020600181928787015181550195019201613780565b906102c791613711565b6102c79190613840906102809060119061382e816137ea6137e4885160ff1690565b8261209e565b6137ff6137f9602089016134f1565b826134fb565b61381b613815604089015165ffffffffffff1690565b82613533565b606087015165ffffffffffff1690613563565b61384660018201613840608088015190565b90611db6565b6138586002820161384060a088015190565b61386a6003820161384060c088015190565b61388b6004820161388560e08801516001600160a01b031690565b90611842565b61389e6005820161384061010088015190565b6138b16006820161384061012088015190565b6138ca600782016138c461014088015190565b9061357a565b6138e3600882016138dd61016088015190565b90613707565b6138ff600982016138856101808801516001600160a01b031690565b613918600a82016139126101a088015190565b906137b8565b613934600b82016138856101c08801516001600160a01b031690565b613947600c82016138406101e088015190565b613963600d82016138856102008801516001600160a01b031690565b613976600e820161384061022088015190565b613989600f820161384061024088015190565b61399c6010820161384061026088015190565b0192015190565b91906139b2576102c7916137c2565b6134db565b90815491600160401b8310156105fc57826139da9160016102c795018155612f75565b906139a3565b9160206102c792949361058f60408201966000830190610bc4565b9c9395969b949799919c9a9298909a50613a156000610bb1565b613a1e8a610bb1565b03613f2857613a306104216000612206565b6001600160a01b0387161461241857600487613a4e611792836108a6565b10613f0957613a836110ee610f7e613a7b613a758d60008e613a6f896108a6565b92613374565b9061338c565b6101a1610492565b613eea57505b613a976116ed6101916115df565b6020613aa260405190565b6370a0823160e01b815233600482015291829060249082905afa90811561328257600091613ecc575b5061019a90613adf6117926102dd84610cac565b10613e385750613af36116ed6101916115df565b602063e4b797c191613b04306108da565b90613b2f6000613b1561019b610cac565b95613b3b613b2260405190565b9788968795869460e01b90565b845233600485016133e6565b03925af1801561328257613b5691600091613e10575b501590565b613dfe57610193549c613b676134b1565b3360e08201529b613b7b8b60208f016134b9565b8c42613b88610197610cac565b613b929082611acf565b613b9b906134c3565b65ffffffffffff166040830152613bb1906134c3565b65ffffffffffff166060909101528c613bcb61019b610cac565b613bd6916101200152565b6101608d0191613be5916134d0565b9052613bf26101916115df565b613bfb906108da565b9b631504d8f09c613c0b60405190565b613c16819f60e01b90565b90528d6004815a602094600091f19a8b1561328257613c48613cd49c613cc89f8f90600092613dda575b506101000152565b613c526000610bb1565b613c5b8c610bb1565b03613d1c575050505050505090613c82613c8d926101808801906001600160a01b03169052565b6101a08601926134d0565b90525b613c9c836101936139b7565b613cb0610100613caa612c3f565b94015190565b90613cba60405190565b9485926020840192836139e0565b908103825203836105da565b600080516020615e0b83398151915290613cf6613cf0856108a6565b9161208e565b91613d16613d03336108da565b94613d0d60405190565b918291826110cf565b0390a490565b92959850929550929550613d306003610bb1565b613d3989610bb1565b03613d755750505092613d60613d6892613d58613d70966102208b0152565b610240890152565b610260870152565b610280850152565b613c90565b909350613d8d919550613da69450613d9e92506108da565b6001600160a01b03166101c0880152565b6101e0860152565b613db06004610bb1565b613db983610bb1565b14613dc5575b50613c90565b6001600160a01b031661020084015238613dbf565b610100919250613df79060203d81116117ca576117bb81836105da565b9190613c40565b6040516312171d8360e31b8152600490fd5b6110ee915060203d8111613e31575b613e2981836105da565b8101906133d2565b503d613e1f565b613e466116ed6101916115df565b906020613e5260405190565b6370a0823160e01b815233600482015292839060249082905afa91821561328257600092613ea8575b50613e8590610cac565b90611169613e9260405190565b63cf47918160e01b8152928392600484016133bf565b613e85919250613ec59060203d81116117ca576117bb81836105da565b9190613e7b565b613ee4915060203d81116117ca576117bb81836105da565b38613acb565b61116990613ef760405190565b631cd4b64760e21b8152918291820190565b61116990613f1660405190565b638129bbcd60e01b8152918291820190565b6001613f3381610bb1565b613f3c8b610bb1565b03613f725750613f4f6104216000612206565b613f588b6108da565b1461241857613f6760006108a6565b8c14612d7057613a89565b613f7c6002610bb1565b613f858b610bb1565b03613f985750613f4f6104216000612206565b613fa26004610bb1565b613fab8b610bb1565b036140045750613fbb6000612206565b6001600160a01b038116613fce8c6108da565b14612418578c613fe161179260006108a6565b14612d70576001600160a01b03166001600160a01b03821614612418575b613a89565b61400e6003610bb1565b6140178b610bb1565b036140c1576140759060009061402c826108a6565b85116140b9575b61403d60006108a6565b86116140b1575b6140526102dd61019f610cac565b8810158061409a575b614092575b61406a60006108a6565b871161408c57501590565b15613a8957604051632bac1e9760e11b8152600490fd5b90501590565b905080614060565b506140a96102dd6101a0610cac565b88111561405b565b905080614044565b905080614033565b506140cc6005610bb1565b6140d58a610bb1565b148015614115575b15613fff576140ef6104216000612206565b6140f88b6108da565b146124185761410760006108a6565b8c03613fff57604051612d74565b506141206006610bb1565b6141298a610bb1565b146140dd565b6102dd9c9b9a999897969594939291906000613334565b6102dd60026108a6565b1561415757565b60405162461bcd60e51b815260206004820152601f60248201527f5265656e7472616e637947756172643a207265656e7472616e742063616c6c006044820152606490fd5b6102c76141a960c9610cac565b61257f6141b4614146565b91821415614150565b6101936141cb6102dd825490565b8210156132f2576141eb6130b160006141e48585612f75565b5001610f51565b614220576130ce60006141e48461420194612f75565b61420e576102c790614232565b60405163cf88c65760e01b8152600490fd5b604051636cdcc09360e11b8152600490fd5b6125629061423e61419c565b61424d6130a082610193612f75565b339061425e610421600483016115df565b6001600160a01b0383160361443c5761427960018201610cac565b600090614288611792836108a6565b1415801561441c575b80156143fc575b6143ea576142ae6117926130ed42938501612fa2565b10156143d8575b806142c261314a82610f51565b806143b4575b614334575b6142e991506142e36142de82610f51565b61446d565b9061209e565b6142f1612db9565b6143156112c161430f600080516020615e0b833981519152956108a6565b9261208e565b9261431f60405190565b602080825260009082015280604081016112d4565b6143426116ed6101926115df565b9161435460076370ba33399201610cac565b833b156102a25761437c936131c46000809461436f60405190565b9788958694859360e01b90565b03925af1918215613282576142e992614396575b506142cd565b6143ae9060006143a681836105da565b8101906103ef565b38614390565b506143c160078301610cac565b6143d16117926102dd60006108a6565b14156142c8565b604051637a19ed0560e01b8152600490fd5b604051637c9a1cf960e01b8152600490fd5b5061440960038301610cac565b614415611792836108a6565b1415614298565b5061442960028301610cac565b614435611792836108a6565b1415614291565b6144576110ee83600080516020615e4b833981519152610f5b565b156142b557604051612611565b6102c7906141bd565b614475612dc3565b1790565b906102dd92916144876126f1565b91906101936144976102dd825490565b8210156132f2576144b06130b160006141e48585612f75565b614220576130ce60006141e4846144c694612f75565b61420e576102dd92614562565b6001600160a01b0390911681526040810192916102c79160200152565b916001600160a01b0360089290920291821b911b61123b565b919061451a6102dd61125c936108da565b9083546144f0565b90815491600160401b8310156105fc57826145459160016102c795018155611d35565b90614509565b60ff90911681526040810192916102c79160200152565b5060029161456f83611b1b565b60ff8216116147e0576101969161458681846108b3565b90614595610f7e3380946108e3565b6143ea576145a86130a082610193612f75565b6145b1426134c3565b6145cc6145c0612f9784612fa2565b9165ffffffffffff1690565b116143d85761461d9560206145e56116ed6101916115df565b639371672e906146116145fa60058701610cac565b9261460460405190565b9b8c948593849360e01b90565b83528a600484016144d3565b03915afa968715613282576000976147c0575b5060009561463d876108a6565b88146147ae576146d09661467e9161465f8a611e02896109198a6101946108b3565b6146736110ee610f7e896109198a866108b3565b61477c575b50611b1b565b60ff86160361473b5761469e91016138408761469983610cac565b611acf565b6146c87fb83d25c6a5d258561330739951487acb4bd09ba5190b5d32c4f261817d906792916108a6565b9384926108da565b9384916146dc60405190565b806146e889888361454b565b0390a360066147166146f960405190565b809461470a8860208401928361454b565b908103825203846105da565b613d16614731600080516020615e0b83398151915292611b1b565b93613d0d60405190565b50600161474781611b1b565b60ff8616036147675761476291016138408761469983610cac565b61469e565b50600361476291016138408761469983610cac565b6147909061128c88610919896001946108b3565b6147a8866147a36102dd886101956108b3565b614522565b38614678565b604051631f05dadd60e21b8152600490fd5b6147d991975060203d81116117ca576117bb81836105da565b9538614630565b604051638eed55d160e01b8152600490fd5b6102dd91906000614479565b9061019361480d6102dd825490565b8310156132f2576130a08361482192612f75565b9161482e60018401610cac565b614846600361483f60028701610cac565b9501610cac565b92614864611df761485b866146998987611acf565b946101956108b3565b919493929190565b6102c7906148786126f1565b6101936148866102dd825490565b8210156132f25761489f6130b160006141e48585612f75565b614220576130ce60006141e4846148b594612f75565b61420e576102c790612562906148c961419c565b614a39565b610485612af36102dd9263ffffffff1690565b600411156102a257565b905051906102c7826148e1565b906020828203126102a2576102dd916148eb565b8054600093929161492961491f8361359e565b8085529360200190565b916001811690811561497b575060011461494257505050565b6149559192939450600052602060002090565b916000925b8184106149675750500190565b80548484015260209093019260010161495a565b92949550505060ff1916825215156020020190565b6001600160a01b0390911681526102dd916040820191602081840391015261490c565b60041115610bac57565b906102c7826149b3565b6102dd906149bd565b6102e0906149c7565b6020810192916102c791906149d0565b6102e0906108a6565b9493916060916102c794614a27614a3493614a1d60808b019460008c01906001600160a01b03169052565b60208a01906149e9565b878203604089015261109b565b940152565b614a428161307e565b90600391614a58614a5284610bb1565b91610bb1565b03614d7d576004614a6e6130a083610193612f75565b614aae614a7e63a01fc1c66148ce565b614a9f85614a8b60405190565b958693602085019081520190815260200190565b602082018103825203836105da565b614ab781612021565b93600094614ac7614a5287610bb1565b03614cf85750614adb6116ed6101926115df565b6020635e6a229591614aef600985016115df565b90614b11600a860194614b1c614b0460405190565b9687958694859460e01b90565b845260048401614990565b03915afa90811561328257614b61916020918791614ccb575b505b614b456116ed6101926115df565b614b5663531355a96131b760405190565b8352600483016149d9565b03915afa9283156132825785936020928591614cae575b50614bb585614b8b6116ed6101926115df565b92614bc0638e361cdf91614b9e306108da565b96614ba860405190565b9c8d988997889660e01b90565b8652600486016149f2565b03925af1938415613282578294614c88575b509081614be5856007614bf7950161357a565b016142e3614bf282610f51565b614d98565b614c217f698a777b9614d463e4ad86ac0dc09595c1ae579ca661dd1cb09391857175404a916108a6565b90818391614c2e60405190565b600090a3614c3a612dc3565b903391614c64614c4960405190565b60208101958652948590604082015b908103825203856105da565b6112d4613d03614c82600080516020615e0b8339815191529361208e565b946108da565b614bf792919450614ca69060203d81116117ca576117bb81836105da565b939091614bd2565b614cc59150833d81116117ca576117bb81836105da565b38614b78565b614ceb9150823d8111614cf1575b614ce381836105da565b8101906148f8565b38614b35565b503d614cd9565b84820190614d11614a52614d0b84612021565b92610bb1565b03614d235750614b6160206001614b37565b614d2c81612021565b614d39614a526005610bb1565b14908115614d5f575b5015614d5457614b6160206002614b37565b614b61602085614b37565b614d699150612021565b614d76614a526006610bb1565b1438614d42565b6040516354f482db60e11b8152600490fd5b6102c79061486c565b614475613322565b6102c790614dac6126f1565b610193614dba6102dd825490565b8210156132f257614dd36130b160006141e48585612f75565b614220576130ce60006141e484614de994612f75565b61420e576102c79061256290614dfd61419c565b614e28565b906020828203126102a257815167ffffffffffffffff81116102a2576102dd9201612ff8565b614e40614e3a6130a083610193612f75565b9161307e565b90600491614e50614a5284610bb1565b03614f7057600701614e6181610cac565b91600092614e746117926102dd866108a6565b14614f5157614eac6020614e8c6116ed6101926115df565b63f2b0653790614e9e6131ad87610cac565b835288830190815260200190565b03915afa801561328257614ec5918591613e1057501590565b614f32578290614ed96116ed6101926115df565b614ef883614eeb63c69ed5f296610cac565b95614f05613b2260405190565b8452830190815260200190565b03925af1801561328257614f17575050565b610fe5913d8091833e614f2a81836105da565b810190614e02565b61116990614f3f60405190565b637c26b93d60e01b8152918291820190565b61116990614f5e60405190565b63c0ea43e160e01b8152918291820190565b61116982614f7d60405190565b63ccbc0d7160e01b8152918291820190565b6102c790614da0565b606080825260149082015273494e53554646494349454e545f42414c414e434560601b60808201529092916102c79160409061058f60a08201966020830152565b6040808252600d908201526c14915195539117d19052531151609a1b60608201526080602082018190526102dd9291019061109b565b336150216104216116ed6101926115df565b6001600160a01b0382160361260d5761019361503e6102dd825490565b8310156132f2576130a08361505292612f75565b8061505f6130ce82610f51565b61420e576150726110ee61314a84610f51565b61534d5761507f84615416565b61509961509361508e84610f51565b615367565b8361209e565b6150ad6110ee6150a884610f51565b61535f565b615108575b506150c46150be612dcd565b91612021565b926150e16150d160405190565b8095614c58602083019182610bcd565b6112d4613d03614c82615102600080516020615e0b833981519152946108a6565b9461208e565b6151346151196116ed6101916115df565b9160206370a0823161512a306108da565b9461322960405190565b82526001600160a01b038616600483015260249082905afa9182156132825760009261532d575b50600681019161516d6102dd84610cac565b81106152ce575060206151846116ed6101916115df565b93600463e4b797c19301946151bb600061519d886115df565b956151c66151aa89610cac565b6040515b9889978896879560e01b90565b8552600485016133e6565b03925af190816152b2575b5061523957506151df6119a9565b906151eb6005916115df565b906152086151f860405190565b809461470a602083019182614fd9565b600080516020615e0b83398151915261522f613d03614c826152298a6108a6565b94611b1b565b0390a45b386150b2565b61470a9161525761525161524c86610f51565b61536f565b8561209e565b6152896152656005926115df565b926152716132c7612c3f565b9061527b60405190565b95869260208401928361454b565b600080516020615e0b8339815191526152aa613d03614c826152298a6108a6565b0390a4615233565b6152c99060203d8111613e3157613e2981836105da565b6151d1565b90935061530c919450614c589592506152f46152ee6004600596016115df565b95610cac565b906152fe60405190565b968792602084019283614f98565b6112d4613d03614c82615229600080516020615e0b833981519152946108a6565b61534691925060203d81116117ca576117bb81836105da565b903861515b565b60405163ccbc0d7160e01b8152600490fd5b61330c612dd7565b614475612db9565b614475612dd7565b8054600093929161538e61538a8361359e565b9390565b91600181169081156153df57506001146153a757505050565b6153ba9192939450600052602060002090565b6000905b8382106153cb5750500190565b6001816020925484860152019101906153be565b60ff191683525050811515909102019150565b6102dd91615377565b6702330b4b632b21d160c51b81526102dd9190600801611078565b6154256130a082610193612f75565b90819061543182612021565b61543e614a526001610bb1565b036154de57505090600b820191615454836115df565b906000916154676113e161042185612206565b1461241857600c019261547984610cac565b615485611792846108a6565b14612d7057615493306108da565b80316154a46117926102dd88610cac565b106154d457506154ce92936154bc6132c784936115df565b60405190818003925af1613b516119a9565b613dfe57565b31613e8585610cac565b6154e782612021565b6154f4614a526002610bb1565b0361558f575050600b8101615508816115df565b9160009261551b6113e161042186612206565b1461241857600c019061552d82610cac565b615539611792856108a6565b14612d705760209061554f6116ed6101916115df565b6151bb8563e4b797c16155766151aa61557061556a306108da565b976115df565b98610cac565b03925af1908115613282576154ce9291613e1057501590565b9161559b829492612021565b926004936155ab614a5286610bb1565b0361568d575090919250600b8101906155c3826115df565b936000916155d083612206565b956155e36001600160a01b0388166113e1565b1461568057600c8101926156026117926155fc86610cac565b926108a6565b1461566157600d019461561a6113e1611554886115df565b14615642575061563c6132c76156366116ed6102c796976115df565b936115df565b91615a2d565b6111699061564f60405190565b63d92e233d60e01b8152918291820190565b6111698261566e60405190565b63162908e360e11b8152918291820190565b6111698261564f60405190565b919361569890612021565b6000906156a7614a5283610bb1565b036157905760098201916156ba836115df565b926156c483612206565b936156d76001600160a01b0386166113e1565b14615783579061570183600a6156ed82956115df565b93016156f860405190565b928391826153f2565b03925af1916157166157116119a9565b931590565b6157205750505050565b611169945061572d612dcd565b9061574a61573a60405190565b8095614c586020830191826153fb565b61576b613d03614c82615102600080516020615e0b833981519152946108a6565b0390a4604051633204506f60e01b8152918291820190565b6111698661564f60405190565b809250810161579e81612021565b6157ab614a526003610bb1565b036158b15750600e919250600f81016157c381610cac565b6157cf611792866108a6565b1161589c575b50601081016157e381610cac565b6157f46117926102dd61019f610cac565b10158061587a575b615865575b506011810161580f81610cac565b61581b611792866108a6565b11615850575b5001906158336117926155fc84610cac565b1161583b5750565b6102c79061584a6132c7612dcd565b90612e00565b61585f9061584a6132c7612dc3565b38615821565b6158749061584a6132c7612c3f565b38615801565b5061588481610cac565b6158956117926102dd6101a0610cac565b11156157fc565b6158ab9061584a6132c7612db9565b386157d5565b6158ba81612021565b6158c7614a526005610bb1565b036159a85750600b8101906158db826115df565b6158ea6113e161042186612206565b1461599b57600c016158fb81610cac565b615907611792856108a6565b1461598e5760209061591d6116ed6101916115df565b6159458561593861593263dd329b5c976115df565b94610cac565b9561594f613b2260405190565b84528b84016144d3565b03925af1908115613282576159689291613e1057501590565b61596f5750565b6111699061597c60405190565b6312171d8360e31b8152918291820190565b6111698461566e60405190565b6111698461564f60405190565b6159b190612021565b6159be614a526006610bb1565b146159c857505050565b600b8101906159d6826115df565b6159e56113e161042186612206565b1461599b57600c016159f681610cac565b615a02611792856108a6565b1461598e57602090615a186116ed6101916115df565b6159458561593861593263a89ae7d0976115df565b615a61600492614a9f6102c795615a4763a9059cbb6148ce565b92615a5160405190565b96879460208601908152016144d3565b615b00565b615a70602061156c565b7f5361666545524332303a206c6f772d6c6576656c2063616c6c206661696c6564602082015290565b6102dd615a66565b15615aa857565b60405162461bcd60e51b815260206004820152602a60248201527f5361666545524332303a204552433230206f7065726174696f6e20646964206e6044820152691bdd081cdd58d8d9595960b21b6064820152608490fd5b6102c791615b10615b1f926108da565b90615b19615a99565b91615b5d565b8051615b2e61179260006108a6565b14908115615b3d575b50615aa1565b615b5791506020615b4c825190565b8183010191016133d2565b38615b37565b6102dd9291615b6c60006108a6565b91615bcd565b15615b7957565b60405162461bcd60e51b815260206004820152602660248201527f416464726573733a20696e73756666696369656e742062616c616e636520666f6044820152651c8818d85b1b60d21b6064820152608490fd5b9060006102dd94938192615bdf606090565b50615bf6615bec306108da565b8390311015615b72565b60208101905191855af16119ea6119a9565b61256290615c1461419c565b610193615c226102dd825490565b8210156132f2576130a082615c3692612f75565b6004810133615c4a6113e1610421846115df565b03615def5781615c5c6150a882610f51565b615ddd57615c698461307e565b615c736002610bb1565b615c7c82610bb1565b03615d535750615ca5615c946006615cb59301610cac565b615c9f61019c610cac565b90611ab7565b615caf60646108a6565b90612225565b92615ccf615cc1612db9565b935b6142e361524c82610f51565b615cdd6116ed6101916115df565b602063e4b797c191615cee306108da565b906151bb6000615cfd886115df565b95615d0b8b6151ae60405190565b03925af1801561328257615d2591600091613e1057501590565b613dfe5761530c614c5894615d3b6005946115df565b94615d4560405190565b96879260208401928361454b565b615d5d6001610bb1565b615d6682610bb1565b03615d9b5750615ca5615d7e6006615d899301610cac565b615c9f61019d610cac565b92615ccf615d95612db9565b93615cc3565b600690615daa614a5283610bb1565b03615dcb57615dc0615ca591615d899301610cac565b615c9f61019e610cac565b60405163170d50bf60e31b8152600490fd5b60405163542f378d60e11b8152600490fd5b604051637d1b73b960e01b8152600490fd5b6102c790615c0856fe54b806ba9fbc09bfb093dba20b75f7df5ed2e3d53fa9c33bb73ca923d4314869a49807205ce4d355092ef5a8a18f56e8913cf4a201fbe287825b095693c2177555435dd261a4b9b3364963f7738a7a662ad9c84396d64be3365284bb7f0a5041a164736f6c6343000814000a",
  "linkReferences": {},
  "deployedLinkReferences": {}
}