{
  "_format": "hh-sol-artifact-1",
  "contractName": "JustAnalyticsHelperUpgradeable",
  "sourceName": "contracts/JustAnalyticsHelperUpgradeable.sol",
  "abi": [
    {
      "inputs": [],
      "name": "InvalidParameters",
      "type": "error"
    },
    {
      "inputs": [],
      "name": "InvalidProposalId",
      "type": "error"
    },
    {
      "inputs": [],
      "name": "NoGovernance",
      "type": "error"
    },
    {
      "inputs": [],
      "name": "NoTimelock",
      "type": "error"
    },
    {
      "inputs": [],
      "name": "NoToken",
      "type": "error"
    },
    {
      "inputs": [],
      "name": "NotAuthorized",
      "type": "error"
    },
    {
      "inputs": [],
      "name": "ZeroAddress",
      "type": "error"
    },
    {
      "anonymous": false,
      "inputs": [
        {
          "indexed": true,
          "internalType": "address",
          "name": "voter",
          "type": "address"
        },
        {
          "indexed": false,
          "internalType": "uint256",
          "name": "proposalsVoted",
          "type": "uint256"
        }
      ],
      "name": "ActiveVoterRegistered",
      "type": "event"
    },
    {
      "anonymous": false,
      "inputs": [
        {
          "indexed": false,
          "internalType": "address",
          "name": "previousAdmin",
          "type": "address"
        },
        {
          "indexed": false,
          "internalType": "address",
          "name": "newAdmin",
          "type": "address"
        }
      ],
      "name": "AdminChanged",
      "type": "event"
    },
    {
      "anonymous": false,
      "inputs": [
        {
          "indexed": true,
          "internalType": "uint256",
          "name": "timestamp",
          "type": "uint256"
        },
        {
          "indexed": false,
          "internalType": "string",
          "name": "analyticsType",
          "type": "string"
        }
      ],
      "name": "AnalyticsUpdated",
      "type": "event"
    },
    {
      "anonymous": false,
      "inputs": [
        {
          "indexed": true,
          "internalType": "address",
          "name": "beacon",
          "type": "address"
        }
      ],
      "name": "BeaconUpgraded",
      "type": "event"
    },
    {
      "anonymous": false,
      "inputs": [
        {
          "indexed": true,
          "internalType": "string",
          "name": "contractType",
          "type": "string"
        },
        {
          "indexed": true,
          "internalType": "address",
          "name": "newAddress",
          "type": "address"
        }
      ],
      "name": "ContractAddressUpdated",
      "type": "event"
    },
    {
      "anonymous": false,
      "inputs": [
        {
          "indexed": false,
          "internalType": "uint8",
          "name": "version",
          "type": "uint8"
        }
      ],
      "name": "Initialized",
      "type": "event"
    },
    {
      "anonymous": false,
      "inputs": [
        {
          "indexed": false,
          "internalType": "address",
          "name": "account",
          "type": "address"
        }
      ],
      "name": "Paused",
      "type": "event"
    },
    {
      "anonymous": false,
      "inputs": [
        {
          "indexed": true,
          "internalType": "uint256",
          "name": "proposalId",
          "type": "uint256"
        },
        {
          "indexed": false,
          "internalType": "enum JustGovernanceInterface.ProposalType",
          "name": "proposalType",
          "type": "uint8"
        }
      ],
      "name": "ProposalTracked",
      "type": "event"
    },
    {
      "anonymous": false,
      "inputs": [
        {
          "indexed": true,
          "internalType": "bytes32",
          "name": "role",
          "type": "bytes32"
        },
        {
          "indexed": true,
          "internalType": "bytes32",
          "name": "previousAdminRole",
          "type": "bytes32"
        },
        {
          "indexed": true,
          "internalType": "bytes32",
          "name": "newAdminRole",
          "type": "bytes32"
        }
      ],
      "name": "RoleAdminChanged",
      "type": "event"
    },
    {
      "anonymous": false,
      "inputs": [
        {
          "indexed": true,
          "internalType": "bytes32",
          "name": "role",
          "type": "bytes32"
        },
        {
          "indexed": true,
          "internalType": "address",
          "name": "account",
          "type": "address"
        },
        {
          "indexed": true,
          "internalType": "address",
          "name": "sender",
          "type": "address"
        }
      ],
      "name": "RoleGranted",
      "type": "event"
    },
    {
      "anonymous": false,
      "inputs": [
        {
          "indexed": true,
          "internalType": "bytes32",
          "name": "role",
          "type": "bytes32"
        },
        {
          "indexed": true,
          "internalType": "address",
          "name": "account",
          "type": "address"
        },
        {
          "indexed": true,
          "internalType": "address",
          "name": "sender",
          "type": "address"
        }
      ],
      "name": "RoleRevoked",
      "type": "event"
    },
    {
      "anonymous": false,
      "inputs": [
        {
          "indexed": true,
          "internalType": "uint256",
          "name": "snapshotId",
          "type": "uint256"
        },
        {
          "indexed": false,
          "internalType": "uint256",
          "name": "timestamp",
          "type": "uint256"
        }
      ],
      "name": "SnapshotCreated",
      "type": "event"
    },
    {
      "anonymous": false,
      "inputs": [
        {
          "indexed": true,
          "internalType": "bytes32",
          "name": "txHash",
          "type": "bytes32"
        },
        {
          "indexed": false,
          "internalType": "enum JustTimelockInterface.ThreatLevel",
          "name": "threatLevel",
          "type": "uint8"
        }
      ],
      "name": "TimelockTransactionTracked",
      "type": "event"
    },
    {
      "anonymous": false,
      "inputs": [
        {
          "indexed": false,
          "internalType": "address",
          "name": "account",
          "type": "address"
        }
      ],
      "name": "Unpaused",
      "type": "event"
    },
    {
      "anonymous": false,
      "inputs": [
        {
          "indexed": true,
          "internalType": "address",
          "name": "implementation",
          "type": "address"
        }
      ],
      "name": "Upgraded",
      "type": "event"
    },
    {
      "inputs": [],
      "name": "ADMIN_ROLE",
      "outputs": [
        {
          "internalType": "bytes32",
          "name": "",
          "type": "bytes32"
        }
      ],
      "stateMutability": "view",
      "type": "function"
    },
    {
      "inputs": [],
      "name": "ANALYTICS_ROLE",
      "outputs": [
        {
          "internalType": "bytes32",
          "name": "",
          "type": "bytes32"
        }
      ],
      "stateMutability": "view",
      "type": "function"
    },
    {
      "inputs": [],
      "name": "DEFAULT_ADMIN_ROLE",
      "outputs": [
        {
          "internalType": "bytes32",
          "name": "",
          "type": "bytes32"
        }
      ],
      "stateMutability": "view",
      "type": "function"
    },
    {
      "inputs": [],
      "name": "calculateGovernanceHealthScore",
      "outputs": [
        {
          "internalType": "uint256",
          "name": "score",
          "type": "uint256"
        },
        {
          "internalType": "uint256[]",
          "name": "breakdown",
          "type": "uint256[]"
        }
      ],
      "stateMutability": "view",
      "type": "function"
    },
    {
      "inputs": [
        {
          "internalType": "uint256",
          "name": "startId",
          "type": "uint256"
        },
        {
          "internalType": "uint256",
          "name": "endId",
          "type": "uint256"
        }
      ],
      "name": "getProposalAnalytics",
      "outputs": [
        {
          "components": [
            {
              "internalType": "uint256",
              "name": "totalProposals",
              "type": "uint256"
            },
            {
              "internalType": "uint256",
              "name": "activeProposals",
              "type": "uint256"
            },
            {
              "internalType": "uint256",
              "name": "canceledProposals",
              "type": "uint256"
            },
            {
              "internalType": "uint256",
              "name": "defeatedProposals",
              "type": "uint256"
            },
            {
              "internalType": "uint256",
              "name": "succeededProposals",
              "type": "uint256"
            },
            {
              "internalType": "uint256",
              "name": "queuedProposals",
              "type": "uint256"
            },
            {
              "internalType": "uint256",
              "name": "executedProposals",
              "type": "uint256"
            },
            {
              "internalType": "uint256",
              "name": "expiredProposals",
              "type": "uint256"
            },
            {
              "internalType": "uint256",
              "name": "generalProposals",
              "type": "uint256"
            },
            {
              "internalType": "uint256",
              "name": "withdrawalProposals",
              "type": "uint256"
            },
            {
              "internalType": "uint256",
              "name": "tokenTransferProposals",
              "type": "uint256"
            },
            {
              "internalType": "uint256",
              "name": "governanceChangeProposals",
              "type": "uint256"
            },
            {
              "internalType": "uint256",
              "name": "externalERC20Proposals",
              "type": "uint256"
            },
            {
              "internalType": "uint256",
              "name": "tokenMintProposals",
              "type": "uint256"
            },
            {
              "internalType": "uint256",
              "name": "tokenBurnProposals",
              "type": "uint256"
            },
            {
              "internalType": "uint256",
              "name": "generalSuccessRate",
              "type": "uint256"
            },
            {
              "internalType": "uint256",
              "name": "withdrawalSuccessRate",
              "type": "uint256"
            },
            {
              "internalType": "uint256",
              "name": "tokenTransferSuccessRate",
              "type": "uint256"
            },
            {
              "internalType": "uint256",
              "name": "governanceChangeSuccessRate",
              "type": "uint256"
            },
            {
              "internalType": "uint256",
              "name": "externalERC20SuccessRate",
              "type": "uint256"
            },
            {
              "internalType": "uint256",
              "name": "tokenMintSuccessRate",
              "type": "uint256"
            },
            {
              "internalType": "uint256",
              "name": "tokenBurnSuccessRate",
              "type": "uint256"
            },
            {
              "internalType": "uint256",
              "name": "avgProposalLifetime",
              "type": "uint256"
            },
            {
              "internalType": "uint256",
              "name": "avgTimeToExecution",
              "type": "uint256"
            },
            {
              "internalType": "uint256",
              "name": "avgVotingTurnout",
              "type": "uint256"
            }
          ],
          "internalType": "struct JustAnalyticsHelperUpgradeable.ProposalAnalytics",
          "name": "analytics",
          "type": "tuple"
        }
      ],
      "stateMutability": "view",
      "type": "function"
    },
    {
      "inputs": [
        {
          "internalType": "bytes32",
          "name": "role",
          "type": "bytes32"
        }
      ],
      "name": "getRoleAdmin",
      "outputs": [
        {
          "internalType": "bytes32",
          "name": "",
          "type": "bytes32"
        }
      ],
      "stateMutability": "view",
      "type": "function"
    },
    {
      "inputs": [
        {
          "internalType": "bytes32",
          "name": "role",
          "type": "bytes32"
        },
        {
          "internalType": "uint256",
          "name": "index",
          "type": "uint256"
        }
      ],
      "name": "getRoleMember",
      "outputs": [
        {
          "internalType": "address",
          "name": "",
          "type": "address"
        }
      ],
      "stateMutability": "view",
      "type": "function"
    },
    {
      "inputs": [
        {
          "internalType": "bytes32",
          "name": "role",
          "type": "bytes32"
        }
      ],
      "name": "getRoleMemberCount",
      "outputs": [
        {
          "internalType": "uint256",
          "name": "",
          "type": "uint256"
        }
      ],
      "stateMutability": "view",
      "type": "function"
    },
    {
      "inputs": [
        {
          "internalType": "uint256",
          "name": "maxTransactions",
          "type": "uint256"
        }
      ],
      "name": "getTimelockAnalytics",
      "outputs": [
        {
          "components": [
            {
              "internalType": "uint256",
              "name": "totalTransactions",
              "type": "uint256"
            },
            {
              "internalType": "uint256",
              "name": "executedTransactions",
              "type": "uint256"
            },
            {
              "internalType": "uint256",
              "name": "pendingTransactions",
              "type": "uint256"
            },
            {
              "internalType": "uint256",
              "name": "canceledTransactions",
              "type": "uint256"
            },
            {
              "internalType": "uint256",
              "name": "expiredTransactions",
              "type": "uint256"
            },
            {
              "internalType": "uint256",
              "name": "lowThreatCount",
              "type": "uint256"
            },
            {
              "internalType": "uint256",
              "name": "mediumThreatCount",
              "type": "uint256"
            },
            {
              "internalType": "uint256",
              "name": "highThreatCount",
              "type": "uint256"
            },
            {
              "internalType": "uint256",
              "name": "criticalThreatCount",
              "type": "uint256"
            },
            {
              "internalType": "uint256",
              "name": "avgExecutionDelay",
              "type": "uint256"
            },
            {
              "internalType": "uint256",
              "name": "avgLowThreatDelay",
              "type": "uint256"
            },
            {
              "internalType": "uint256",
              "name": "avgMediumThreatDelay",
              "type": "uint256"
            },
            {
              "internalType": "uint256",
              "name": "avgHighThreatDelay",
              "type": "uint256"
            },
            {
              "internalType": "uint256",
              "name": "avgCriticalThreatDelay",
              "type": "uint256"
            },
            {
              "internalType": "uint256",
              "name": "lowThreatSuccessRate",
              "type": "uint256"
            },
            {
              "internalType": "uint256",
              "name": "mediumThreatSuccessRate",
              "type": "uint256"
            },
            {
              "internalType": "uint256",
              "name": "highThreatSuccessRate",
              "type": "uint256"
            },
            {
              "internalType": "uint256",
              "name": "criticalThreatSuccessRate",
              "type": "uint256"
            }
          ],
          "internalType": "struct JustAnalyticsHelperUpgradeable.TimelockAnalytics",
          "name": "analytics",
          "type": "tuple"
        }
      ],
      "stateMutability": "view",
      "type": "function"
    },
    {
      "inputs": [
        {
          "internalType": "uint256",
          "name": "proposalCount",
          "type": "uint256"
        }
      ],
      "name": "getVoterBehaviorAnalytics",
      "outputs": [
        {
          "components": [
            {
              "internalType": "uint256",
              "name": "totalVoters",
              "type": "uint256"
            },
            {
              "internalType": "uint256",
              "name": "activeVoters",
              "type": "uint256"
            },
            {
              "internalType": "uint256",
              "name": "superActiveVoters",
              "type": "uint256"
            },
            {
              "internalType": "uint256",
              "name": "consistentVoters",
              "type": "uint256"
            },
            {
              "internalType": "uint256",
              "name": "yesLeaning",
              "type": "uint256"
            },
            {
              "internalType": "uint256",
              "name": "noLeaning",
              "type": "uint256"
            },
            {
              "internalType": "uint256",
              "name": "balanced",
              "type": "uint256"
            },
            {
              "internalType": "uint256",
              "name": "delegatorCount",
              "type": "uint256"
            },
            {
              "internalType": "uint256",
              "name": "delegateCount",
              "type": "uint256"
            },
            {
              "internalType": "uint256",
              "name": "avgDelegationChainLength",
              "type": "uint256"
            },
            {
              "internalType": "address[]",
              "name": "voters",
              "type": "address[]"
            },
            {
              "internalType": "uint256[]",
              "name": "voteCounts",
              "type": "uint256[]"
            },
            {
              "internalType": "uint256[]",
              "name": "yesCounts",
              "type": "uint256[]"
            },
            {
              "internalType": "uint256[]",
              "name": "noCounts",
              "type": "uint256[]"
            },
            {
              "internalType": "uint256[]",
              "name": "abstainCounts",
              "type": "uint256[]"
            }
          ],
          "internalType": "struct JustAnalyticsHelperUpgradeable.VoterAnalytics",
          "name": "analytics",
          "type": "tuple"
        }
      ],
      "stateMutability": "view",
      "type": "function"
    },
    {
      "inputs": [
        {
          "internalType": "uint256",
          "name": "",
          "type": "uint256"
        }
      ],
      "name": "governanceSnapshots",
      "outputs": [
        {
          "internalType": "uint256",
          "name": "timestamp",
          "type": "uint256"
        },
        {
          "internalType": "uint256",
          "name": "blockNumber",
          "type": "uint256"
        },
        {
          "internalType": "uint256",
          "name": "totalProposals",
          "type": "uint256"
        },
        {
          "internalType": "uint256",
          "name": "activeVoters",
          "type": "uint256"
        },
        {
          "internalType": "uint256",
          "name": "voterParticipationRate",
          "type": "uint256"
        },
        {
          "internalType": "uint256",
          "name": "avgProposalVotes",
          "type": "uint256"
        },
        {
          "internalType": "uint256",
          "name": "delegationRate",
          "type": "uint256"
        },
        {
          "internalType": "uint256",
          "name": "treasuryBalance",
          "type": "uint256"
        },
        {
          "internalType": "uint256",
          "name": "topDelegateConcentration",
          "type": "uint256"
        },
        {
          "internalType": "uint256",
          "name": "governanceHealth",
          "type": "uint256"
        }
      ],
      "stateMutability": "view",
      "type": "function"
    },
    {
      "inputs": [
        {
          "internalType": "bytes32",
          "name": "role",
          "type": "bytes32"
        },
        {
          "internalType": "address",
          "name": "account",
          "type": "address"
        }
      ],
      "name": "grantRole",
      "outputs": [],
      "stateMutability": "nonpayable",
      "type": "function"
    },
    {
      "inputs": [
        {
          "internalType": "bytes32",
          "name": "role",
          "type": "bytes32"
        },
        {
          "internalType": "address",
          "name": "account",
          "type": "address"
        }
      ],
      "name": "hasRole",
      "outputs": [
        {
          "internalType": "bool",
          "name": "",
          "type": "bool"
        }
      ],
      "stateMutability": "view",
      "type": "function"
    },
    {
      "inputs": [
        {
          "internalType": "address",
          "name": "tokenAddress",
          "type": "address"
        },
        {
          "internalType": "address",
          "name": "governanceAddress",
          "type": "address"
        },
        {
          "internalType": "address",
          "name": "timelockAddress",
          "type": "address"
        },
        {
          "internalType": "address",
          "name": "admin",
          "type": "address"
        }
      ],
      "name": "initialize",
      "outputs": [],
      "stateMutability": "nonpayable",
      "type": "function"
    },
    {
      "inputs": [],
      "name": "justGovernance",
      "outputs": [
        {
          "internalType": "contract JustGovernanceInterface",
          "name": "",
          "type": "address"
        }
      ],
      "stateMutability": "view",
      "type": "function"
    },
    {
      "inputs": [],
      "name": "justTimelock",
      "outputs": [
        {
          "internalType": "contract JustTimelockInterface",
          "name": "",
          "type": "address"
        }
      ],
      "stateMutability": "view",
      "type": "function"
    },
    {
      "inputs": [],
      "name": "justToken",
      "outputs": [
        {
          "internalType": "contract JustTokenInterface",
          "name": "",
          "type": "address"
        }
      ],
      "stateMutability": "view",
      "type": "function"
    },
    {
      "inputs": [],
      "name": "paused",
      "outputs": [
        {
          "internalType": "bool",
          "name": "",
          "type": "bool"
        }
      ],
      "stateMutability": "view",
      "type": "function"
    },
    {
      "inputs": [],
      "name": "proxiableUUID",
      "outputs": [
        {
          "internalType": "bytes32",
          "name": "",
          "type": "bytes32"
        }
      ],
      "stateMutability": "view",
      "type": "function"
    },
    {
      "inputs": [
        {
          "internalType": "bytes32",
          "name": "role",
          "type": "bytes32"
        },
        {
          "internalType": "address",
          "name": "account",
          "type": "address"
        }
      ],
      "name": "renounceRole",
      "outputs": [],
      "stateMutability": "nonpayable",
      "type": "function"
    },
    {
      "inputs": [
        {
          "internalType": "bytes32",
          "name": "role",
          "type": "bytes32"
        },
        {
          "internalType": "address",
          "name": "account",
          "type": "address"
        }
      ],
      "name": "revokeRole",
      "outputs": [],
      "stateMutability": "nonpayable",
      "type": "function"
    },
    {
      "inputs": [
        {
          "internalType": "bytes4",
          "name": "interfaceId",
          "type": "bytes4"
        }
      ],
      "name": "supportsInterface",
      "outputs": [
        {
          "internalType": "bool",
          "name": "",
          "type": "bool"
        }
      ],
      "stateMutability": "view",
      "type": "function"
    },
    {
      "inputs": [
        {
          "internalType": "address",
          "name": "tokenAddress",
          "type": "address"
        },
        {
          "internalType": "address",
          "name": "governanceAddress",
          "type": "address"
        },
        {
          "internalType": "address",
          "name": "timelockAddress",
          "type": "address"
        }
      ],
      "name": "updateContractAddresses",
      "outputs": [],
      "stateMutability": "nonpayable",
      "type": "function"
    },
    {
      "inputs": [
        {
          "internalType": "address",
          "name": "newImplementation",
          "type": "address"
        }
      ],
      "name": "upgradeTo",
      "outputs": [],
      "stateMutability": "nonpayable",
      "type": "function"
    },
    {
      "inputs": [
        {
          "internalType": "address",
          "name": "newImplementation",
          "type": "address"
        },
        {
          "internalType": "bytes",
          "name": "data",
          "type": "bytes"
        }
      ],
      "name": "upgradeToAndCall",
      "outputs": [],
      "stateMutability": "payable",
      "type": "function"
    }
  ],
  "bytecode": "0x60a0604052346200003657620000146200003b565b604051615eec6200009382396080518181816112fb01526114470152615eec90f35b600080fd5b6200004562000082565b565b6200005d9062000060906001600160a01b031682565b90565b6001600160a01b031690565b6200005d9062000047565b6200005d906200006c565b6200008d3062000077565b60805256fe610300604052600436101561001357600080fd5b60003560e01c806301ffc9a7146101a35780631abd602b1461019e5780632071088a14610199578063248a9ca3146101945780632f2ff15d1461018f578063355c69c21461018a57806335fa68551461018557806336568abe146101805780633659cfe61461017b5780634f1ef2861461017657806352d1902d146101715780635c975abb1461016c57806375b238fc1461016757806378429b59146101625780639010d07c1461015d57806391d1485414610158578063a217fddf14610153578063b3f15b171461014e578063bfd9c5d814610149578063ca15c87314610144578063d1951ead1461013f578063d547741f1461013a578063dbd6250614610135578063e40e9914146101305763f8c8765e036101a857610db3565b610d4f565b610b9b565b610b75565b610b5a565b610b32565b610b04565b610ac5565b6108f3565b6108b8565b610882565b610838565b6107a6565b61078b565b610770565b61075c565b610646565b610619565b6105f2565b61048f565b610334565b6102f6565b6102b1565b610226565b6101ea565b600080fd5b6001600160e01b031981165b036101a857565b905035906101cd826101ad565b565b906020828203126101a8576101e3916101c0565b90565b9052565b346101a8576102176102056102003660046101cf565b610dcf565b60405191829182901515815260200190565b0390f35b60009103126101a857565b346101a85761023636600461021b565b610217600080516020615ea08339815191525b6040519182918290815260200190565b6001600160a01b031690565b6001600160a01b0381166101b9565b905035906101cd82610265565b90916060828403126101a8576101e361029a8484610274565b936102a88160208601610274565b93604001610274565b346101a8576102ca6102c4366004610281565b9161256f565b604051005b806101b9565b905035906101cd826102cf565b906020828203126101a8576101e3916102d5565b346101a85761021761024961030c3660046102e2565b610ec0565b91906040838203126101a8576101e39061032b81856102d5565b93602001610274565b346101a8576102ca610347366004610311565b90610ef7565b634e487b7160e01b600052603260045260246000fd5b80548210156103865761037d600a91600052602060002090565b91020190600090565b61034d565b6101e39081565b6101e3905461038b565b90610194916000926103ac815490565b82101561043d576103be929350610363565b50906103c982610392565b916103d660018201610392565b916103e360028301610392565b916103f060038201610392565b916103fd60048301610392565b9161040a60058201610392565b9161041760068301610392565b9161042460078201610392565b916101e3600961043660088501610392565b9301610392565b8380fd5b979593919a9998969492909a61014089019b60008a0161045f919052565b602089015260408801526060870152608086015260a085015260c084015260e08301526101008201526101200152565b346101a8576102176104aa6104a53660046102e2565b61039c565b966104c09a989a96919695929594939460405190565b9a8b9a8b610441565b805182526101cd91906102209081906104e760208201516020860152565b6104f660408201516040860152565b61050560608201516060860152565b61051460808201516080860152565b61052360a082015160a0860152565b61053260c082015160c0860152565b61054160e082015160e0860152565b610552610100820151610100860152565b610563610120820151610120860152565b610574610140820151610140860152565b610585610160820151610160860152565b610596610180820151610180860152565b6105a76101a08201516101a0860152565b6105b86101c08201516101c0860152565b6105c96101e08201516101e0860152565b6105da610200820151610200860152565b0151910152565b610240810192916101cd91906104c9565b346101a85761021761060d6106083660046102e2565b61589e565b604051918291826105e1565b346101a8576102ca61062c366004610311565b9061114d565b906020828203126101a8576101e391610274565b346101a8576102ca610659366004610632565b611508565b634e487b7160e01b600052604160045260246000fd5b90601f01601f1916810190811067ffffffffffffffff82111761069657604052565b61065e565b906101cd6106a860405190565b9283610674565b67ffffffffffffffff811161069657602090601f01601f19160190565b0190565b90826000939282370152565b909291926106f16106ec826106af565b61069b565b938185526020850190828401116101a8576101cd926106d0565b9080601f830112156101a8578160206101e3933591016106dc565b9190916040818403126101a85761073d8382610274565b92602082013567ffffffffffffffff81116101a8576101e3920161070b565b6102ca61076a366004610726565b90611861565b346101a85761078036600461021b565b610217610249611366565b346101a85761079b36600461021b565b61021761020561186b565b346101a8576107b636600461021b565b610217600080516020615ec0833981519152610249565b6101e3916008021c6001600160a01b031690565b906101e391546107cd565b6101e360006101926107e1565b6101e390610259906001600160a01b031682565b6101e3906107f9565b6101e39061080d565b6101e690610816565b6020810192916101cd919061081f565b346101a85761084836600461021b565b6102176108536107ec565b60405191829182610828565b91906040838203126101a8576101e39061087981856102d5565b936020016102d5565b346101a85761021761089e61089836600461085f565b90610e08565b604051918291826001600160a01b03909116815260200190565b346101a8576102176102056108ce366004610311565b90610e98565b6101e36101e36101e39290565b6101e360006108d4565b6101e36108e1565b346101a85761090336600461021b565b6102176102496108eb565b9061092e61092761091d845190565b8084529260200190565b9260200190565b9060005b81811061093f5750505090565b90919261096561095e60019286516001600160a01b0316815260200190565b9460200190565b929101610932565b9061097c61092761091d845190565b9060005b81811061098d5750505090565b9091926109a361095e6001928651815260200190565b929101610980565b805182526101e3916101c0610aa2610a8e610a7a610a666101e086016109d660208901516020890152565b6109e560408901516040890152565b6109f460608901516060890152565b610a0360808901516080890152565b610a1260a089015160a0890152565b610a2160c089015160c0890152565b610a3060e089015160e0890152565b610a41610100890151610100890152565b610a52610120890151610120890152565b61014088015187820361014089015261090e565b61016087015186820361016088015261096d565b61018086015185820361018087015261096d565b6101a08501518482036101a086015261096d565b920151906101c081840391015261096d565b60208082526101e3929101906109ab565b346101a857610217610ae0610adb3660046102e2565b61441e565b60405191829182610ab4565b9081526040602082018190526101e39291019061096d565b346101a857610b1436600461021b565b610b1c614e22565b90610217610b2960405190565b92839283610aec565b346101a857610217610249610b483660046102e2565b610e28565b6101e360006101936107e1565b346101a857610b6a36600461021b565b610217610853610b4d565b346101a8576102ca610b88366004610311565b906110c5565b6101e360006101916107e1565b346101a857610bab36600461021b565b610217610853610b8e565b805182526101cd9190610300908190610bd460208201516020860152565b610be360408201516040860152565b610bf260608201516060860152565b610c0160808201516080860152565b610c1060a082015160a0860152565b610c1f60c082015160c0860152565b610c2e60e082015160e0860152565b610c3f610100820151610100860152565b610c50610120820151610120860152565b610c61610140820151610140860152565b610c72610160820151610160860152565b610c83610180820151610180860152565b610c946101a08201516101a0860152565b610ca56101c08201516101c0860152565b610cb66101e08201516101e0860152565b610cc7610200820151610200860152565b610cd8610220820151610220860152565b610ce9610240820151610240860152565b610cfa610260820151610260860152565b610d0b610280820151610280860152565b610d1c6102a08201516102a0860152565b610d2d6102c08201516102c0860152565b6105da6102e08201516102e0860152565b610320810192916101cd9190610bb6565b346101a857610217610d6b610d6536600461085f565b9061349d565b60405191829182610d3e565b6080818303126101a857610d8b8282610274565b926101e3610d9c8460208501610274565b93610daa8160408601610274565b93606001610274565b346101a8576102ca610dc6366004610d77565b92919091612262565b635a05180f60e01b6001600160e01b0319821614908115610dee575090565b6101e39150610e3f565b905b600052602052604060002090565b90610e236101e36101e393610e1b600090565b506097610df8565b611f0a565b610e3a6101e36101e392610e1b600090565b611ed3565b637965db0b60e01b6001600160e01b0319821614908115610e5e575090565b6101e391506001600160e01b0319166301ffc9a760e01b1490565b90610dfa90610816565b6101e3905b60ff1690565b6101e39054610e83565b6101e3916000610eb5610ebb93610ead600090565b506065610df8565b01610e79565b610e8e565b6001610ed16101e392610ead600090565b01610392565b906101cd91610eed610ee882610ec0565b610f25565b906101cd91610f01565b906101cd91610ed7565b90610f1d6101e3610f2293610f16848261119d565b6097610df8565b611c33565b50565b6101cd90339061101d565b6101e3906108d4565b60005b838110610f4c5750506000910152565b8181015183820152602001610f3c565b6106cc610f7492602092610f6e815190565b94859290565b93849101610f39565b610fbb6101e39392610fb5610fb5937f416363657373436f6e74726f6c3a206163636f756e7420000000000000000000815260170190565b90610f5c565b7001034b99036b4b9b9b4b733903937b6329607d1b815260110190565b610ff96110026020936106cc93610fed815190565b80835293849260200190565b95869101610f39565b601f01601f191690565b60208082526101e392910190610fd8565b9061102f61102b8284610e98565b1590565b611037575050565b6110a6916101e361105361104d61108d94611c06565b92610f30565b611068602091611062836108d4565b90611abc565b9261108161107560405190565b94859384019283610f7d565b90810382520382610674565b6040515b62461bcd60e51b81529182916004830161100c565b0390fd5b906101cd916110bb610ee882610ec0565b906101cd916110cf565b906101cd916110aa565b906110e46101e3610f2293610f168482611214565b611d6a565b156110f057565b60405162461bcd60e51b815260206004820152602f60248201527f416363657373436f6e74726f6c3a2063616e206f6e6c792072656e6f756e636560448201526e103937b632b9903337b91039b2b63360891b6064820152608490fd5b6101cd919061116e61115e33610259565b6001600160a01b038416146110e9565b6110cf565b9060ff905b9181191691161790565b906111926101e361119992151590565b8254611173565b9055565b906111ab61102b8284610e98565b6111b3575050565b6111ce60016111c9836000610eb5876065610df8565b611182565b33906112046111fe6111fe7f2f8788117e7eff1d82e926ec794901d17c78024a50270940304540a733656f0d9590565b92610816565b9261120e60405190565b600090a4565b9061121f8183610e98565b611227575050565b61123c60006111c98382610eb5876065610df8565b33906112046111fe6111fe7ff6391f5c32d9c69d2a47ea670b442974b53935d1edc7fd64eb21e047a839171b9590565b1561127357565b60405162461bcd60e51b815260206004820152603860248201527f555550535570677261646561626c653a206d757374206e6f742062652063616c60448201527f6c6564207468726f7567682064656c656761746563616c6c00000000000000006064820152608490fd5b6101e39061132f6112ee30610816565b6113296001600160a01b037f0000000000000000000000000000000000000000000000000000000000000000165b916001600160a01b031690565b1461126c565b61135d565b6101e37f360894a13ba1a3210667c828492db98dca3e2076cc3735a920a3ca505d382bbc6108d4565b506101e3611334565b6101e360006112de565b1561137757565b60405162461bcd60e51b815260206004820152602c60248201527f46756e6374696f6e206d7573742062652063616c6c6564207468726f7567682060448201526b19195b1959d85d1958d85b1b60a21b6064820152608490fd5b156113d857565b60405162461bcd60e51b815260206004820152602c60248201527f46756e6374696f6e206d7573742062652063616c6c6564207468726f7567682060448201526b6163746976652070726f787960a01b6064820152608490fd5b6101cd906114a261144230610816565b6114817f00000000000000000000000000000000000000000000000000000000000000009161147a61131c846001600160a01b031690565b1415611370565b61149c61131c61148f611524565b926001600160a01b031690565b146113d1565b6114e1565b906114b46106ec836106af565b918252565b369037565b906101cd6114d46114ce846114a7565b936106af565b601f1901602084016114b9565b6101cd906114ee8161239d565b6000906115026114fd836108d4565b6114be565b906115ee565b6101cd90611432565b6101e390610259565b6101e39054611511565b6101e360006115346101e3611334565b0161151a565b6101e37f4910fdfa16fed3260ed0e7147f7cc6da11a60208b5b9406d12a635614ffd91436108d4565b905051906101cd826102cf565b906020828203126101a8576101e391611563565b6040513d6000823e3d90fd5b1561159757565b60405162461bcd60e51b815260206004820152602960248201527f45524331393637557067726164653a20756e737570706f727465642070726f786044820152681a58589b195555525160ba1b6064820152608490fd5b919061160660006116006101e361153a565b01610e8e565b156116165750506101cd90611794565b82602061162d61162861164596610816565b610816565b6352d1902d9061163c60405190565b96879260e01b90565b825260049082905afa600094816116dc575b506116b85760405162461bcd60e51b815260206004820152602e60248201527f45524331393637557067726164653a206e657720696d706c656d656e7461746960448201526d6f6e206973206e6f74205555505360901b6064820152608490fd5b6116d76101cd946116d16116cd6101e3611334565b9190565b14611590565b6117bc565b6116fe91955060203d8111611705575b6116f68183610674565b810190611570565b9338611657565b503d6116ec565b1561171357565b60405162461bcd60e51b815260206004820152602d60248201527f455243313936373a206e657720696d706c656d656e746174696f6e206973206e60448201526c1bdd08184818dbdb9d1c9858dd609a1b6064820152608490fd5b906001600160a01b0390611178565b9061178d6101e361119992610816565b825461176e565b6101cd906117a96117a482611875565b61170c565b60006117b66101e3611334565b0161177d565b916117c6836117f8565b81516117d56116cd60006108d4565b119081156117f0575b506117e7575050565b610f22916118d2565b9050386117de565b61180181611794565b61182b7fbc7cd75a20ee27fd9adebab32041f755214dbc6bffa90cc0225b39da2e5c2d3b91610816565b9061183560405190565b600090a2565b906101cd9161184c61144230610816565b6101cd916118598261239d565b6001916115ee565b906101cd9161183b565b6101e360c9610e8e565b3b6118836116cd60006108d4565b1190565b61189160276114a7565b7f416464726573733a206c6f772d6c6576656c2064656c65676174652063616c6c6020820152660819985a5b195960ca1b604082015290565b6101e3611887565b6101e3916118de6118ca565b91611903565b3d156118fe576118f33d6114a7565b903d6000602084013e565b606090565b6000806101e39493611913606090565b50805190602001845af46119256118e4565b91611977565b1561193257565b60405162461bcd60e51b815260206004820152601d60248201527f416464726573733a2063616c6c20746f206e6f6e2d636f6e74726163740000006044820152606490fd5b919290156119a95750815161198f6116cd60006108d4565b14611998575090565b6119a46101e391611875565b61192b565b82906119b3825190565b6119c06116cd60006108d4565b11156119cf5750805190602001fd5b6110a69061109160405190565b634e487b7160e01b600052601160045260246000fd5b91906119fd565b9290565b91808302928184041490151715611a1057565b6119dc565b91908201809211611a1057565b90611a2b825190565b811015610386570160200190565b8015611a10576000190190565b610e886101e36101e39290565b6101e390611a676116cd6101e39460ff1690565b901c90565b15611a7357565b60405162461bcd60e51b8152806110a6600482016020808252818101527f537472696e67733a20686578206c656e67746820696e73756666696369656e74604082015260600190565b9190600292611ae86114fd611ad984611ad4886108d4565b6119f2565b611ae2876108d4565b90611a15565b916000906030611b00611afa846108d4565b86611a22565b53611b38611b2f600f60fb1b92611ad46001998a95871a611b29611b23886108d4565b8b611a22565b536108d4565b611ae2836108d4565b905b611b5c575b506101e393945090611b566116cd6101e3936108d4565b14611a6c565b91611b66866108d4565b831115611bd4576f181899199a1a9b1b9c1cb0b131b232b360811b611b8b600f6108d4565b8216906010821015610386578792611bab611bc892611bce941a60f81b90565b851a611bb78789611a22565b53611bc26004611a46565b90611a53565b93611a39565b90611b3a565b91611b3f565b6101e39081906001600160a01b031681565b6101e36014611a46565b6101e36101e36101e39260ff1690565b611c23611c1e6101e392611c18606090565b5061080d565b611bda565b611062611c2e611bec565b611bf6565b90611c5b6116cd611c56611c1e60006101e396611c4e600090565b50019461080d565b6108d4565b611cf4565b80548210156103865761037d600191600052602060002090565b9160001960089290920291821b911b611178565b9190611c9d6101e36111999390565b908354611c7a565b90815491680100000000000000008310156106965782611ccd9160016101cd95018155611c60565b90611c8e565b9060001990611178565b90611ced6101e3611199926108d4565b8254611cd3565b611d0161102b8383611d3a565b15611d3357611d2e91611d29906001611d2284611d1e8482611ca5565b5490565b9301610df8565b611cdd565b600190565b5050600090565b611d58916001611d5392611d4c600090565b5001610df8565b610392565b611d656116cd60006108d4565b141590565b90611d856116cd611c56611c1e60006101e396611c4e600090565b611e14565b91908203918211611a1057565b6101e3916008021c81565b906101e39154611d97565b634e487b7160e01b600052603160045260246000fd5b6101cd91600091611c8e565b80548015611df2576000190190611def611de98383611c60565b90611dc3565b55565b611dad565b9190611c9d6101e3611199936108d4565b6101cd91600091611df7565b90611e25611d538260018501610df8565b600092611e31846108d4565b8214611e84576101e392611e8a9492611e9592611e8f6001978893611e5e611e58866108d4565b82611d8a565b88850191611e7c611e6d845490565b611e76896108d4565b90611d8a565b828103611e9a575b50505090565b611dcf565b01610df8565b611e08565b611ccd611ec3611ecb94611eba611eb4611d299589611c60565b90611da2565b92839188611c60565b888801610df8565b388080611e84565b611ee960006101e392611ee4600090565b500190565b60006101e391611ef7600090565b50015490565b6102596101e36101e39290565b611f2f611f2a6101e393611f256000611f3495611ee4600090565b611f39565b610f30565b611efd565b61080d565b6101e3916000611eb492611f4b600090565b5001611c60565b6101e39060081c610e88565b6101e39054611f52565b15611f6f57565b60405162461bcd60e51b815260206004820152602e60248201527f496e697469616c697a61626c653a20636f6e747261637420697320616c72656160448201526d191e481a5b9a5d1a585b1a5e995960921b6064820152608490fd5b610e886101e36101e39260ff1690565b906111926101e361119992611fcb565b9061ff009060081b611178565b906120086101e361119992151590565b8254611feb565b6101e690611a46565b6020810192916101cd919061200f565b92612073919261203b61102b6000611f5e565b938480612116575b80156120d1575b61205390611f68565b6001958561206a61206389611a46565b6000611fdb565b6120c15761213d565b61207a5750565b612085600080611ff8565b6120bc7f7f26b83ff96e1f2b6a682f133852f6798a09c465da95921460cefb3847402498916120b360405190565b91829182612018565b0390a1565b6120cc876000611ff8565b61213d565b506120e661102b6120e130610816565b611875565b801561204a57506120536120fa6000610e8e565b61210e6121076001611a46565b9160ff1690565b14905061204a565b506121216000610e8e565b61212e6121076001611a46565b10612043565b6101e390611efd565b6000929161214a84612134565b916001600160a01b0383166001600160a01b038216148015612247575b801561222c575b61221a576121c2936116286121b2610259946116286121aa6121ba966121926122e0565b61219a612300565b6121a2612344565b6116286122e0565b61019161177d565b61019261177d565b61019361177d565b6001600160a01b038316149050612210576101cd905b6121e481610eed6108e1565b6121fc81600080516020615ec0833981519152610eed565b600080516020615ea0833981519152610eed565b506101cd336121d8565b60405163d92e233d60e01b8152600490fd5b506001600160a01b0383166001600160a01b0385161461216e565b506001600160a01b0383166001600160a01b03831614612167565b906101cd939291612028565b1561227557565b60405162461bcd60e51b815260206004820152602b60248201527f496e697469616c697a61626c653a20636f6e7472616374206973206e6f74206960448201526a6e697469616c697a696e6760a81b6064820152608490fd5b6101cd6122db6000611f5e565b61226e565b6101cd6122ce565b6122f56122db6000611f5e565b6101cd6101cd612324565b6101cd6122e8565b6123156122db6000611f5e565b6101cd6101cd600060c9611182565b6101cd612308565b6123396122db6000611f5e565b6101cd6101cd61237d565b6101cd61232c565b6123596122db6000611f5e565b6101cd61236b565b6101e360016108d4565b6101cd612376612361565b60fb611cdd565b6101cd61234c565b506101cd600080516020615ec0833981519152610f25565b6101cd90612385565b6101cd9291906123c3600080516020615ec0833981519152610f25565b61241a565b604051642a37b5b2b760d91b815280600581015b03902090565b60405169476f7665726e616e636560b01b815280600a81016123dc565b6040516754696d656c6f636b60c01b815280600881016123dc565b61246b916124286000612134565b916001600160a01b0383166001600160a01b0382160361251d575b506001600160a01b0382166001600160a01b038216036124cb575b506001600160a01b031690565b6001600160a01b0382160361247d5750565b61248690610816565b6124928161019361177d565b7fa42de6429c1410f4470a8ff5afeeae27c734519ac1693e8eb58798a81715c9476124bb6123ff565b906124c560405190565b600090a3565b6124d490610816565b6124e08161019261177d565b7fa42de6429c1410f4470a8ff5afeeae27c734519ac1693e8eb58798a81715c9476125096123e2565b9061251360405190565b600090a33861245e565b61252690610816565b6125328161019161177d565b7fa42de6429c1410f4470a8ff5afeeae27c734519ac1693e8eb58798a81715c94761255b6123c8565b9061256560405190565b600090a338612443565b906101cd92916123a6565b6101e361032061069b565b61258d61257a565b9060008252602082016000815260200160008152602001600081526020016000815260200160008152602001600081526020016000815260200160005b815260200160008152602001600081526020016000815260200160008152602001600081526020016000815260200160008152602001600081526020016000815260200160008152602001600081526020016000815260200160008152602001600081526020016000815260200160009052565b6101e3612585565b6101e3929190612663600080516020615ea0833981519152610f25565b906101e392916126716134ee565b612a05565b6101e36103e86108d4565b6000198114611a105760010190565b600711156101a857565b905051906101cd82612690565b906020828203126101a8576101e39161269a565b634e487b7160e01b600052602160045260246000fd5b600711156126db57565b6126bb565b906101cd826126d1565b60ff81166101b9565b905051906101cd826126ea565b65ffffffffffff81166101b9565b905051906101cd82612700565b905051906101cd82610265565b909291926127386106ec826106af565b938185526020850190828401116101a8576101cd92610f39565b9080601f830112156101a85781516101e392602001612728565b9190916102a0818403126101a8576127856102a061069b565b92600061279282846126f3565b9085015260206127a48282850161269a565b9085015260406127b68282850161270e565b9085015260606127c88282850161270e565b9085015260806127da82828501611563565b9085015260a06127ec82828501611563565b9085015260c06127fe82828501611563565b9085015260e06128108282850161271b565b9085015261010061282382828501611563565b9085015261012061283682828501611563565b9085015261014061284982828501611563565b9085015261016082015167ffffffffffffffff81116101a8578161286e918401612752565b6101608501526101806128838282850161271b565b908501526101a08201519067ffffffffffffffff82116101a8576128ac8161292f938501612752565b6101a08601526101c06128c18282860161271b565b908601526101e06128d482828601611563565b908601526102006128e78282860161271b565b908601526102206128fa82828601611563565b9086015261024061290d82828601611563565b9086015261026061292082828601611563565b90860152610280809301611563565b90830152565b906020828203126101a857815167ffffffffffffffff81116101a8576101e3920161276c565b6101e390516126e0565b6101e36101e36101e39265ffffffffffff1690565b60e0818303126101a85761298e8282611563565b9261299c8360208401611563565b926129aa8160408501611563565b926129b88260608301611563565b926101e36129c98460808501611563565b936129d78160a0860161271b565b9360c001611563565b634e487b7160e01b600052601260045260246000fd5b8115612a00570490565b6129e0565b6102405261018091909152612a1e61162861019261151a565b612a2e61131c6102596000612134565b1461348b578061018051108015613469575b61345757612a4e60006108d4565b6102608190526101a08190526101408190526101e081905261016081905261018051909283928392839283928392839283928392839283929091612aac90612aa590612a9b908490611d8a565b611ae260016108d4565b6102405152565b6101c0525b610180516101c051116131d657612ae96020612ad161162861019261151a565b639080936f90612ae060405190565b93849260e01b90565b82526101c051600483015260249082905afa90816000610200526131a5575b50612b23575b612b1a6101c051612681565b6101c052612ab1565b612b2d60006126e0565b612b39610200516126e0565b0361308057612b58602061024051016101e6612b53825190565b612681565b612b7a6000612b6b61162861019261151a565b630a49484090612ae060405190565b82526101c051600483015260249082905afa908160006102205261305a575b5015600003612b0e57612bb16020610220510161295b565b612bc4612bbe60006126e0565b916126e0565b03612dda57612bdf61010061024051016101e6612b53825190565b612beb61014051612681565b61014052612bf960056126e0565b612c05610200516126e0565b14612dc5575b612c39612c3042611e76612c2b606061022051015165ffffffffffff1690565b612965565b61026051611a15565b61026052612cbb612c6e612c61612c54608061022051015190565b6102205160a00151611ae2565b6102205160c00151611ae2565b60e0612c7e61162861019161151a565b639fa4750290612cad612c9661010061022051015190565b92612ca060405190565b9687948593849360e01b90565b835260048301526024820190565b03915afa60009281612d8f575b50612d8557612cfa91506020612ce261162861019161151a565b6318160ddd90612cf160405190565b94859260e01b90565b825260049082905afa918215612d8057600092612d60575b50612d1d60006108d4565b8211612d2b575b5050612b0e565b612d5591612d47612d4c92612d416127106108d4565b906119f2565b6129f6565b6101a051611a15565b6101a0523880612d24565b612d7991925060203d8111611705576116f68183610674565b9038612d12565b611584565b612d1d60006108d4565b612db191935060e03d8111612dbe575b612da98183610674565b81019061297a565b5050505050929092612cc8565b503d612d9f565b612dd16101e051612681565b6101e052612c0b565b99612dea6020610220510161295b565b612df7612bbe60016126e0565b03612e4d57612e1690612b5361012061024051016101e6612b53825190565b99612e2160056126e0565b612e2d610200516126e0565b14612e38575b612c0b565b612e4461016051612681565b61016052612c0b565b9998612e5e6020610220510161295b565b612e6b612bbe60026126e0565b03612eb657612e8a90612b5361014061024051016101e6612b53825190565b98612e9560056126e0565b612ea1610200516126e0565b03612c0b579a612eb090612681565b9a612c0b565b9896612ec76020610220510161295b565b612ed4612bbe60036126e0565b03612f1f57612ef390612b5361016061024051016101e6612b53825190565b96612efe60056126e0565b612f0a610200516126e0565b03612c0b5797612f1990612681565b97612c0b565b9694612f306020610220510161295b565b612f3d612bbe60046126e0565b03612f8857612f5c90612b5361018061024051016101e6612b53825190565b94612f6760056126e0565b612f73610200516126e0565b03612e335795612f8290612681565b95612c0b565b9492612f996020610220510161295b565b612fa6612bbe60056126e0565b03612ff157612fc590612b536101a061024051016101e6612b53825190565b92612fd060056126e0565b612fdc610200516126e0565b03612c0b5793612feb90612681565b93612c0b565b926130016020610220510161295b565b61300e612bbe60066126e0565b03612e33579061302e90612b536101c061024051016101e6612b53825190565b9061303960056126e0565b613045610200516126e0565b03612e33579161305490612681565b91612c0b565b613076903d806000833e61306e8183610674565b810190612935565b6102205238612b99565b61308a60016126e0565b613096610200516126e0565b036130b5576130b0604061024051016101e6612b53825190565b612b58565b6130bf60026126e0565b6130cb610200516126e0565b036130e5576130b0606061024051016101e6612b53825190565b6130ef60036126e0565b6130fb610200516126e0565b03613115576130b0608061024051016101e6612b53825190565b61311f60046126e0565b61312b610200516126e0565b03613145576130b060a061024051016101e6612b53825190565b61314f60056126e0565b61315b610200516126e0565b03613175576130b060c061024051016101e6612b53825190565b61317f60066126e0565b61318b610200516126e0565b036130b0576130b060e061024051016101e6612b53825190565b6131c59060203d81116131cf575b6131bd8183610674565b8101906126a7565b6102005238612b08565b503d6131b3565b9a97613362976132ce6132fe939a61333097999698959c61329c6133949f613202600061024051015190565b61320f6116cd60006108d4565b11613410575b61321f60006108d4565b61014051116000906000146133ff575061326161325661324c6132436127106108d4565b6101e0516119f2565b61014051906129f6565b6101e0610240510152565b61326b60006108d4565b6000908211156133f0575061329190612d476132886127106108d4565b610160516119f2565b610200610240510152565b6132a660006108d4565b6000908211156133df5750612d476132c392612d416127106108d4565b610220610240510152565b6132d860006108d4565b6000908211156133ce5750612d476132f592612d416127106108d4565b61024080510152565b61330860006108d4565b6000908211156133bd5750612d4761332592612d416127106108d4565b610260610240510152565b61333a60006108d4565b6000908211156133ac5750612d4761335792612d416127106108d4565b610280610240510152565b61336c60006108d4565b60009082111561339b5750612d4761338992612d416127106108d4565b6102a0610240510152565b6102405190565b90506133a791506108d4565b613389565b90506133b891506108d4565b613357565b90506133c991506108d4565b613325565b90506133da91506108d4565b6132f5565b90506133eb91506108d4565b6132c3565b6133fa91506108d4565b613291565b61340b613261916108d4565b613256565b61024051516134319061342690610260516129f6565b6102c0610240510152565b610240515161345290613447906101a0516129f6565b610300610240510152565b613215565b604051630e52390960e41b8152600490fd5b506134778161018051611d8a565b6134856116cd6101e3612676565b11612a40565b604051632301a96b60e21b8152600490fd5b906101e3916134aa61263e565b612646565b156134b657565b60405162461bcd60e51b815260206004820152601060248201526f14185d5cd8589b194e881c185d5cd95960821b6044820152606490fd5b6101cd6134fc61102b61186b565b6134af565b6101e36101e061069b565b613514613501565b9060008252602082016000815260200160008152602001600081526020016000815260200160008152602001600081526020016000815260200160008152602001600081526020016060815260200160608152602001606081526020016060815260200160609052565b6101e361350c565b6101e391906135a2600080516020615ea0833981519152610f25565b906101e3916135af6134ee565b6136e2565b67ffffffffffffffff81116106965760208091020190565b906114b46106ec836135b4565b906101cd6114d46135e9846135cc565b936135b4565b906135f8825190565b811015610386576020809102010190565b909291926136196106ec826135b4565b93818552602080860192028301928184116101a857915b83831061363d5750505050565b6020809161364b848661271b565b815201920191613630565b9080601f830112156101a85781516101e392602001613609565b906020828203126101a857815167ffffffffffffffff81116101a8576101e39201613656565b6001600160a01b0390911681526040810192916101cd9160200152565b906020828203126101a8576101e39161271b565b6101e36008611a46565b60ff1660ff8114611a105760010190565b919082916136f461162861019261151a565b916136ff6000612134565b926137126001600160a01b03851661131c565b1461348b5761372561162861019161151a565b6137376001600160a01b03851661131c565b1461440c5761374660006108d4565b811480156143f9575b6134575761375b6158af565b9461376660006108d4565b86146143f057508085106143e157613781612a9b8287611d8a565b61378b60646108d4565b94613795866135d9565b9461379f876135d9565b916137a9886135d9565b946137b3896135d9565b966137bd8a6135d9565b956137c860006108d4565b610260526137ee60206137df61162861019161151a565b635439ad8690612ae060405190565b825260049082905afa908115612d80576000916143c3575b50859061383c9060e09061381e61162861019161151a565b612cad639fa4750261382f60405190565b9586948593849360e01b90565b03915afa600080809281948161439a575b50614357575050505061386560e08601610260519052565b610260516101008601525b808b6001600160a01b0388166001600160a01b03831614159182614338575b5050614250575b505b8b8111613c8a576138b26000612b6b61162861019261151a565b82526004820185905260249082905afa9081600061024052613c6c575b506138e2576138dd90612681565b613898565b9a909192999360009a6138f48c6108d4565b61026051811015613c585761391961390c828e6135ef565b516001600160a01b031690565b61393661131c61025960e06102405101516001600160a01b031690565b146139495761394490612681565b6138f4565b50919493909295969798999a5061395f60011590565b80613c4c575b613c04575b61397460006108d4565b61026051811015613bee57808d61399161390c8f946020956135ef565b9283916139a261162861019261151a565b6139c363643aa8b36139df6139b660405190565b9687958694859460e01b90565b845260048401526001600160a01b031660248301526044820190565b03915afa60009181613bce575b50613a0157506139fc9150612681565b613974565b613a0e6116cd60006108d4565b11613a1e575b6139fc9150612681565b613a42613a35612b53613a31848d6135ef565b5190565b613a3f838c6135ef565b52565b6080610240510191613a52835190565b613a6560a0610240510191611ae2835190565b90613a7960c0610240510192611ae2845190565b506020613a8a61162861019161151a565b93639371672e94613abd613aa361010061024051015190565b96613ac8613ab060405190565b9889958694859460e01b90565b845260048401613696565b03915afa918215612d80576139fc9585948f94613bb2575b508051613af16116cd6101e3865190565b1180613b9b575b15613b2457505050508b613a3f82613b19612b53613a31613b1f96866135ef565b926135ef565b613a14565b613b3a6116cd6101e3613b35865190565b935190565b119182613b7f575b505015613b6257508c613a3f82613b19612b53613a31613b1f96866135ef565b612b53613a31613b1f93613b75936135ef565b613a3f838d6135ef565b613b939192506101e3613b356116cd925190565b113880613b42565b508051613bac6116cd6101e3855190565b11613af8565b613bc99060203d8111611705576116f68183610674565b613ae0565b613be791925060203d8111611705576116f68183610674565b90386139ec565b5091939a6138dd909a999897969591939a612681565b613c47613c1e60e06102405101516001600160a01b031690565b61026051613c39908e613c3082612681565b610260526135ef565b906001600160a01b03169052565b61396a565b50836102605110613965565b50919493909295969798999a61395f901590565b613c80903d806000833e61306e8183610674565b61024052386138cf565b50919790929895939499613ca0613ca49161593a565b8952565b610260516020890152613cc486612d47613cbe60506108d4565b866119f2565b9283613cd36116cd60006108d4565b14908161423a575b50614228575b613ceb60006108d4565b61026051811015613f215780613d05613a318d93896135ef565b851115613f0a575b87898888613d1e613a3186846135ef565b613d2b6116cd60006108d4565b11613d44575b50505050613d3f9150612681565b613ceb565b9280928580979383613d578380996135ef565b5190613d62916119f2565b91613d6c916135ef565b51613d76916129f6565b96613d80916135ef565b5190613d8b916119f2565b613d95848c6135ef565b51613d9f916129f6565b92613da9916135ef565b5190613db4916119f2565b613dbe838a6135ef565b51613dc8916129f6565b50604292613dd5846108d4565b90613d3f949111613ed0575050613df460808b016101e6612b53825190565b8b888289613e05613a31838c6135ef565b938d85613e1b6116cd6119f9613a3188866135ef565b11613eb9575b50613e2f613a3184836135ef565b8510613e85575b50613e5b92612d47613e51613a316116cd956101e3956135ef565b612d4160506108d4565b1015613e6e575b8b915087898888613d31565b613e8060608b016101e6612b53825190565b613e62565b6101e391945092612d47613e51613a3185613ea9613a316116cd98613e5b9a6135ef565b989550955050505092508f613e36565b613ec991955083613a31916135ef565b938d613e21565b6116cd613edc916108d4565b10613ef857613ef360a08b016101e6612b53825190565b613df4565b613ef360c08b016101e6612b53825190565b613f1c60408b016101e6612b53825190565b613d0d565b509594509795969050613f3661010088015190565b613f436116cd60006108d4565b11614050575b50613f56610260516135d9565b916101408701928352613f6b610260516135d9565b906101608801918252613f80610260516135d9565b936101808901948552613f95610260516135d9565b966101a08a01978852613faa610260516135d9565b9a6101c08b019b8c52613fbd60006108d4565b610260518110156140415780612b538e613a3f838f8f8f978f928f8f938f8f8f613a3161403c9f8893906140376140309c613a3f87614030613a319f826140379e614037613a3193613a3f9f846140309f613a31829f613a3f946140378592613c398461403061390c826140309a6135ef565b92516135ef565b6135ef565b613fbd565b509a5050505050505050505090565b9661405f6000979594976108d4565b9485965b610260518810156141f9576140bf602061408161162861019161151a565b61408e61390c8c8b6135ef565b9061409860405190565b93849283918291631513615960e21b5b83526001600160a01b031660048301526024820190565b03915afa908115612d80576000916141db575b5094986140df6000611a46565b6001600160a01b038c166001600160a01b0388161415806141b9575b806141a3575b1561417357602061411461412b926136d1565b9761412361162861019161151a565b604051614098565b03915afa908115612d8057600091614145575b50956140df565b614166915060203d811161416c575b61415e8183610674565b8101906136b3565b3861413e565b503d614154565b61418e9194979b9a93965097611ae261419493969a99611bf6565b96612681565b96929894919798939093614063565b506141af610e886136c7565b60ff821610614101565b506141ca61025961390c8c8b6135ef565b6001600160a01b03881614156140fb565b6141f3915060203d811161416c5761415e8183610674565b386140d2565b965096939461422291985061421a906142146101008a015190565b906129f6565b610120880152565b38613f49565b915061423460016108d4565b91613ce1565b90506142496116cd60006108d4565b1138613cdb565b9a979593919b9896949290600061428661426e61162861019161151a565b6040519e8f928391829190630e5de29360e41b6140a8565b03915afa9b8c15612d805760009c614315575b509b8b6142b16101e36142ac60006108d4565b925190565b811080614309575b156142f7579c6142ea8e8e9f8f8f906142db61390c612b5394613c39936135ef565b610260519092613c3082612681565b909d6101e36142b1915190565b50919395979a50919395979a38613896565b508961026051106142b9565b614331919c3d8091833e6143298183610674565b810190613670565b9a38614299565b613c39614350926102605190613c3061026051612681565b8b8261388f565b6102605190945061438793839291101561438c5761437f9161437891611d8a565b60e0890152565b610100870152565b613870565b505061437f61026051614378565b92509350506143b7915060e03d8111612dbe57612da98183610674565b5092945094909461384d565b6143db915060203d8111611705576116f68183610674565b38613806565b6143eb60016108d4565b613781565b93505092505090565b506144056101e3612676565b811161374f565b6040516379d93f4960e01b8152600490fd5b6101e39061442a61357e565b613586565b614450919061444b600080516020615ea0833981519152610f25565b614454565b9091565b90614450916144616134ee565b614566565b67ffffffffffffffff81116106965760200290565b6106ec6101e391614466565b906101cd61449d6144978461447b565b93614466565b836114b9565b6101e36004614487565b6101e3906126e0565b6101e3906144ca6116cd6101e39460ff1690565b901b90565b600411156101a857565b905051906101cd826144cf565b906020828203126101a8576101e3916144d9565b6001600160a01b0390911681526101e39160408201916020818403910152610fd8565b600411156126db57565b906101cd8261451d565b6101e390614527565b906004811015610386576020020190565b6145579060ff16612107565b029060ff8216918203611a1057565b505061457260056108d4565b61457b816135d9565b90816145996145886158af565b936020612ce261162861019161151a565b825260049082905afa918215612d8057600092614e02575b506145bc60006108d4565b85148015614df0575b614de0575082841115614dd0576145df612a9b8486611d8a565b905b6000610260526145ef600090565b928361026052839061460160006108d4565b5060006102a052846102a052849785966146196144a3565b9661463e8197602061462f61162861019161151a565b635439ad8690612cf160405190565b825260049082905afa918215612d805761467d9260e091600091614db2575b5061466c61162861019161151a565b612cad639fa47502612ca060405190565b03915afa6000928184918593614d8a575b50614d8257505090506146a160006108d4565b9081905b8c5b81116149db5760006146bd61162861019261151a565b6040516102e0526229252160e61b6102e051526146e48360046102e0510190815260200190565b6102e05191908290039082905afa6102805260006102c052610280516149a9575b610280516147ec575b6147216020612ad161162861019261151a565b82526004820185905260249082905afa600091816147cc575b50614754575b5061474d6146a791612681565b90506146a5565b61475e60006126e0565b614767826126e0565b1415806147b1575b15614740579b61477e90612681565b9b61478c612bbe60056126e0565b14614798575b38614740565b9c61474d6147a86146a792612681565b9e915050614792565b506147bc60046126e0565b6147c5826126e0565b141561476f565b6147e591925060203d81116131cf576131bd8183610674565b903861473a565b966147f690612681565b9661483a612c308a612d4761482f61482261481560806102c051015190565b6102c05160a00151611ae2565b6102c05160c00151611ae2565b612d416127106108d4565b6102605261485561485060206102c0510161295b565b6144ad565b61485f6008611a46565b60ff82161061497f575b506102c05161014001516148836116cd6101e360006108d4565b1461470e578a61489761162861019361151a565b6020635e6a2295916148b76101806102c05101516001600160a01b031690565b906148d16101a06102c0510151946148dc6139b660405190565b8452600484016144fa565b03915afa6000918161494f575b506148f6575b505061470e565b614947929b9161493f61490b612b5393614531565b9161493961493361492e61492761492187611bf6565b8561453a565b5160ff1690565b6136d1565b93611bf6565b9061453a565b9060ff169052565b988a386148ef565b61497191925060203d8111614978575b6149698183610674565b8101906144e6565b90386148e9565b503d61495f565b61499561499a9161499060016108d4565b6144b6565b611a46565b6102a051176102a05238614869565b6149d23d806102c0516102e0513e6149c4816102e051610674565b6102e051016102e051612935565b6102c052614705565b50614a62939792949b50859c99969895986149f660006108d4565b8111614d3d575b50614a0e6103e892614214846108d4565b92614a1960006108d4565b600090831115614d305750614a49614a4f611ae294614214614a49614a5d95612d47600a98612d416127106108d4565b916108d4565b614a58846108d4565b611d8a565b614e2e565b95614a7b600197613a3f614a758a6108d4565b896135ef565b818780614a886000611a46565b905b614cc6575b5050614ab0614aa9614aa3886014946119f2565b926108d4565b9182614e2e565b98614ac960029a613a3f614ac38d6108d4565b8b6135ef565b614ad360006108d4565b8111614ca1575b505050614ae760006108d4565b8211614b67575b505050506116cd92611ae2613a31614b35614b29614b5196611ae2613a31614b2f614b29613a31614b3b9b614b2360006108d4565b906135ef565b936108d4565b8d6135ef565b886135ef565b611ae2613a31614b4b60036108d4565b876135ef565b611ae2613a31614b6160046108d4565b866135ef565b90859192614b756000611a46565b925b614c07575b505050613a31614b35614b29614b5196611ae2613a31614b2f614b29613a31614b3b9b6116cd9e9b611ae29b606491614bb4836108d4565b8210614bef57505050614bdd614bca60006108d4565b613a3f614bd760046108d4565b846135ef565b9b505050505050965050839650614aee565b612d47614c0292614a58614bdd956108d4565b614bca565b919394614c176004949294611a46565b60ff86161015614c97575090614c7f614c798793614c5a86612d47611c2e614c4a614927614c448d611bf6565b8a61453a565b614c546064611a46565b9061454b565b601990614c66826108d4565b811115614c8b57611e76611ae2926108d4565b946136d1565b91908995949391614b77565b614a58611ae2926108d4565b9493819350614b7c565b612d47614cb192614cbe946119f2565b613a3f614b3560036108d4565b388080614ada565b614cd06008611a46565b60ff82161015614d2b57614ce781614990846108d4565b614cf36102a051611bf6565b16614d016116cd60006108d4565b03614d16575b614d10906136d1565b81614a8a565b91614d23614d1091612681565b929050614d07565b614a8f565b915050611ae291506108d4565b614d69614d7c91614214614d5d614d5460146108d4565b610260516119f2565b91612d416127106108d4565b613a3f614d7660006108d4565b8c6135ef565b386149fd565b9250906146a5565b91509350614da6915060e03d8111612dbe57612da98183610674565b9550969250925061468e565b614dca915060203d8111611705576116f68183610674565b3861465d565b614dda60016108d4565b906145e1565b9493505050506116cd60006108d4565b50614dfb60006108d4565b82146145c5565b614e1b91925060203d8111611705576116f68183610674565b90386145b1565b6144506060600061442f565b9080821015614e3b575090565b905090565b6101e361024061069b565b614e53614e40565b90600082526020820160006125ca565b6101e3614e4b565b6101e39190614e87600080516020615ea0833981519152610f25565b906101e391614e946134ee565b614f21565b8015156101b9565b905051906101cd82614e99565b906020828203126101a8576101e391614ea1565b919060a0838203126101a857614ed8818461271b565b92614ee68260208301611563565b92604082015167ffffffffffffffff81116101a857614f0a846101e3928501612752565b93614f188160608601611563565b93608001614ea1565b6102005261022052614f3761162861019361151a565b614f4761131c6102596000612134565b1461588c57614f5660006108d4565b61022051148015615876575b61345757614f89906020614f7a61162861019361151a565b632bfec3d390612cf160405190565b825260049082905afa918215612d8057614fc89260006101c052615855575b506020614fb961162861019361151a565b637bd3f68690612cf160405190565b825260049082905afa918215612d80576150079260006101a052615834575b506020614ff861162861019361151a565b636e34fdd890612cf160405190565b825260049082905afa918215612d805761504692600061018052615813575b50602061503761162861019361151a565b6373355bff90612cf160405190565b825260049082905afa918215612d80576000926157f3575b50615081602061507261162861019361151a565b63a06db7dc90612ae060405190565b825260049082905afa8015612d80576000610160526157d2575b5060006080526150a9600090565b608081905261024081905260a081905261010081905260e081905260c08190526101e08190529182918291908290819081906150e66103e86108d4565b610260525b6150f560006108d4565b6102605111806157b9575b1561552f576151186000612b6b61162861019261151a565b825261026051600483015260249082905afa60009181615514575b5061514f57505b61514661026051611a39565b610260526150eb565b61014001516151616101e360006108d4565b811461550e5761518a90602061517b61162861019361151a565b63f2b0653790612cf160405190565b82526004820184905260249082905afa908115612d80576151d0926000926154db575b506000906151bf61162861019361151a565b612cad634aae13ca612ca060405190565b03915afa91600090819382918184610120526154ad575b506151f5575050505061513a565b60209261520d600061020051016101e6612b53825190565b610120511561544857505061522c8261020051016101e6612b53825190565b61523a61162861019361151a565b6148d1635e6a229561524e6139b660405190565b03915afa8015612d8057600061014052615427575b5061526e6000614527565b61527a61014051614527565b036152d85761529460a061020051016101e6612b53825190565b61529f608051612681565b608052610120516152c3575b6152ba6101c05160c051611a15565b60c0525b61513a565b6152cf61010051612681565b610100526152ab565b6152e26001614527565b6152ee61014051614527565b0361534d5761530860c061020051016101e6612b53825190565b61531461024051612681565b610240526101205161533a575b6153316101a0516101e051611a15565b6101e05261513a565b61534560e051612681565b60e052615321565b956153586002614527565b61536461014051614527565b036153bd5761537e60e061020051016101e6612b53825190565b61538960a051612681565b60a052610120516153a8575b610180516153a291611a15565b9561513a565b946153b56153a291612681565b959050615395565b956153c86003614527565b6153d461014051614527565b036152be5792966153f68591612b5361010061020051016101e6612b53825190565b9761012051615410575b9061540a91611a15565b9261513a565b929061541e61540a92612681565b93909150615400565b61543e9060203d8111614978576149698183610674565b6101405238615263565b156154685750615463604061020051016101e6612b53825190565b61522c565b61547d6116cd6101e342936101605190611a15565b111561549857615463608061020051016101e6612b53825190565b615463606061020051016101e6612b53825190565b915093506154cc913d8091833e6154c48183610674565b810190614ec2565b610120529094909150386151e7565b60009192506155009060203d8111615507575b6154f88183610674565b810190614eae565b91906151ad565b503d6154ee565b5061513a565b61552891923d8091833e61306e8183610674565b9038615133565b9695919493505060a06102005101615545815190565b6155526116cd60006108d4565b11615792575b506102005160c001805161556f6116cd60006108d4565b1161576a575b506102005160e001805161558c6116cd60006108d4565b11615745575b50610200516101000180516155aa6116cd60006108d4565b11615720575b506102005180516155c46116cd60006108d4565b116156e3575b5050506155d760006108d4565b608051116156ad575b6155ea60006108d4565b6102405111615677575b6155fe60006108d4565b60a0511161564a575b5061561260006108d4565b8211615622575b50506102005190565b61564391612d4761563892612d416127106108d4565b610220610200510152565b3880615619565b61566861565f61567192612d416127106108d4565b60a051906129f6565b61020080510152565b38615607565b6156a861569d61569361568b6127106108d4565b60e0516119f2565b61024051906129f6565b6101e0610200510152565b6155f4565b6156de6156d36156ca6156c16127106108d4565b610100516119f2565b608051906129f6565b6101c0610200510152565b6155e0565b6142146157086157189461570361570d956157036101e05160c051611a15565b611a15565b915190565b610120610200510152565b3880806155ca565b61573461572e61573f925190565b846129f6565b6101a0610200510152565b386155b0565b615759615753615764925190565b836129f6565b610180610200510152565b38615592565b61578161577861578c925190565b6101e0516129f6565b610160610200510152565b38615575565b6157a86157a06157b3925190565b60c0516129f6565b610140610200510152565b38615558565b5061020051516157cc6116cd6102205190565b10615100565b6157e99060203d8111611705576116f68183610674565b610160523861509b565b61580c91925060203d8111611705576116f68183610674565b903861505e565b61582a9060203d8111611705576116f68183610674565b6101805238615026565b61584b9060203d8111611705576116f68183610674565b6101a05238614fe7565b61586c9060203d8111611705576116f68183610674565b6101c05238614fa8565b506158826101e3612676565b6102205111614f62565b604051634f6c118560e01b8152600490fd5b6101e3906158aa614e63565b614e6b565b60006158ba816108d4565b906158c66103e86108d4565b6158cf826108d4565b811115615935576158e96020612ad161162861019261151a565b82526004820185905260249082905afa9081615919575b506159135761590e90611a39565b6158c6565b91505090565b6159309060203d81116131cf576131bd8183610674565b615900565b505090565b600090615946826108d4565b8114615e95576159b261596161595c60646108d4565b6135d9565b9261596b816108d4565b936005615977816108d4565b851115615e8557612a9b61598d615993926108d4565b86611d8a565b60206159a361162861019161151a565b635439ad869061163c60405190565b825260049082905afa938415612d80578394615e65575b506159d383612134565b906159e960e0839661381e61162861019161151a565b03915afa858691879381615e3e575b50615e34575088929150505b865b8111615e1757615a1e85612b6b61162861019261151a565b82526004820185905260249082905afa869181615dfb575b50158614615a53575b50615a4c615a0691612681565b9050615a04565b91909697988598615a63876108d4565b8b811015615dec57615a7861390c82896135ef565b615a9261131c61025960e08901516001600160a01b031690565b14615aa557615aa090612681565b615a63565b509099985096909160005b80615dd9575b615db6575b506001600160a01b0383166001600160a01b03871603615adc575b38615a3f565b9584959394989192979897615af0876108d4565b8a811015615da257615b0561390c82896135ef565b615b176001600160a01b03881661131c565b14615b2a57615b2590612681565b615af0565b50929198975095615b3e6001969594961590565b80615d8f575b615d73575b615b6b6020615b5c61162861019261151a565b63643aa8b390612ae060405190565b8252600482018590526001600160a01b038a16602483015260449082905afa869181615d53575b50158614615ba1575b50615ad6565b615bad6116cd876108d4565b11615bb9575b38615b9b565b929484979892615bec95615bd46116286101919a959a61151a565b63e5de293090615be360405190565b98899260e01b90565b82526001600160a01b038516600483015260249082905afa958615612d80578996615d37575b509196909792615c21846108d4565b975b615c2e6101e3885190565b891080615d25575b80615d12575b15615cfe578499615c4c866108d4565b8c80821015615ce7575088615c7861131c61025961390c8f8f61390c88615c72926135ef565b956135ef565b14615c8b57615c8690612681565b615c4c565b509298615cb0919492959a50878c82615ca360011590565b615cbb575b505050612681565b979198939092615c23565b615cd8615cd161390c613c3993615cdf966135ef565b929f612681565b9e8c6135ef565b878c82615ca8565b8991508b615ca3615cb0959896999e9d94979d1590565b909998909750959294509192909190615bb3565b50615d1e6101e3895190565b8b10615c3c565b50615d30600a6108d4565b8910615c36565b615d4c9196503d808b833e6143298183610674565b9438615c12565b615d6c91925060203d8111611705576116f68183610674565b9038615b92565b615d8a86613c39615d838b612681565b9a876135ef565b615b49565b50615d9b6101e3855190565b8810615b44565b5092919897615b3e90979197969594961590565b60e00151615dd3906001600160a01b0316613c39615d838b612681565b38615abb565b50615de56101e3865190565b8910615ab6565b50979192909998615ab0901590565b615e109192503d8089833e61306e8183610674565b9038615a36565b50945050509050615e27816108d4565b8311159050614e3b575090565b5090955090615a04565b91509250615e5a915060e03d8111612dbe57612da98183610674565b5095929450506159f8565b615e7e91945060203d8111611705576116f68183610674565b92386159c9565b50615e9060016108d4565b615993565b506101e3906108d456fe1392683b4fe604b030f727da71b11fe86de118903712aeeae60f8bf8183bbf1ba49807205ce4d355092ef5a8a18f56e8913cf4a201fbe287825b095693c21775a164736f6c6343000814000a",
  "linkReferences": {},
  "deployedLinkReferences": {}
}