{
  "_format": "hh-sol-artifact-1",
  "contractName": "JustDAOHelperUpgradeable",
  "sourceName": "contracts/JustDAOHelperUpgradeable.sol",
  "abi": [
    {
      "inputs": [],
      "name": "DelegationTooComplex",
      "type": "error"
    },
    {
      "inputs": [],
      "name": "InvalidAccount",
      "type": "error"
    },
    {
      "inputs": [],
      "name": "InvalidDelegator",
      "type": "error"
    },
    {
      "inputs": [],
      "name": "InvalidProposalId",
      "type": "error"
    },
    {
      "inputs": [],
      "name": "NoGovernance",
      "type": "error"
    },
    {
      "inputs": [],
      "name": "NoTimelock",
      "type": "error"
    },
    {
      "inputs": [],
      "name": "NoToken",
      "type": "error"
    },
    {
      "inputs": [],
      "name": "NotAuthorized",
      "type": "error"
    },
    {
      "inputs": [],
      "name": "ZeroAddress",
      "type": "error"
    },
    {
      "anonymous": false,
      "inputs": [
        {
          "indexed": false,
          "internalType": "address",
          "name": "previousAdmin",
          "type": "address"
        },
        {
          "indexed": false,
          "internalType": "address",
          "name": "newAdmin",
          "type": "address"
        }
      ],
      "name": "AdminChanged",
      "type": "event"
    },
    {
      "anonymous": false,
      "inputs": [
        {
          "indexed": true,
          "internalType": "uint256",
          "name": "timestamp",
          "type": "uint256"
        },
        {
          "indexed": false,
          "internalType": "uint256",
          "name": "totalDelegated",
          "type": "uint256"
        },
        {
          "indexed": false,
          "internalType": "uint256",
          "name": "avgChainDepth",
          "type": "uint256"
        }
      ],
      "name": "AnalyticsUpdated",
      "type": "event"
    },
    {
      "anonymous": false,
      "inputs": [
        {
          "indexed": true,
          "internalType": "address",
          "name": "beacon",
          "type": "address"
        }
      ],
      "name": "BeaconUpgraded",
      "type": "event"
    },
    {
      "anonymous": false,
      "inputs": [
        {
          "indexed": true,
          "internalType": "string",
          "name": "contractType",
          "type": "string"
        },
        {
          "indexed": true,
          "internalType": "address",
          "name": "newAddress",
          "type": "address"
        }
      ],
      "name": "ContractAddressUpdated",
      "type": "event"
    },
    {
      "anonymous": false,
      "inputs": [
        {
          "indexed": true,
          "internalType": "address",
          "name": "delegator",
          "type": "address"
        },
        {
          "indexed": true,
          "internalType": "address",
          "name": "proposedDelegatee",
          "type": "address"
        },
        {
          "indexed": false,
          "internalType": "uint8",
          "name": "resultingChainDepth",
          "type": "uint8"
        },
        {
          "indexed": false,
          "internalType": "uint8",
          "name": "maxDepth",
          "type": "uint8"
        }
      ],
      "name": "DelegationDepthExceeded",
      "type": "event"
    },
    {
      "anonymous": false,
      "inputs": [
        {
          "indexed": true,
          "internalType": "address",
          "name": "delegator",
          "type": "address"
        },
        {
          "indexed": true,
          "internalType": "address",
          "name": "proposedDelegatee",
          "type": "address"
        },
        {
          "indexed": false,
          "internalType": "uint8",
          "name": "currentChainDepth",
          "type": "uint8"
        },
        {
          "indexed": false,
          "internalType": "uint8",
          "name": "maxDepth",
          "type": "uint8"
        }
      ],
      "name": "DelegationDepthWarning",
      "type": "event"
    },
    {
      "anonymous": false,
      "inputs": [
        {
          "indexed": true,
          "internalType": "address",
          "name": "delegator",
          "type": "address"
        },
        {
          "indexed": true,
          "internalType": "address",
          "name": "delegatee",
          "type": "address"
        },
        {
          "indexed": false,
          "internalType": "uint256",
          "name": "votingPower",
          "type": "uint256"
        }
      ],
      "name": "DelegationRecorded",
      "type": "event"
    },
    {
      "anonymous": false,
      "inputs": [
        {
          "indexed": true,
          "internalType": "address",
          "name": "delegator",
          "type": "address"
        }
      ],
      "name": "DelegationRemoved",
      "type": "event"
    },
    {
      "anonymous": false,
      "inputs": [
        {
          "indexed": false,
          "internalType": "uint8",
          "name": "version",
          "type": "uint8"
        }
      ],
      "name": "Initialized",
      "type": "event"
    },
    {
      "anonymous": false,
      "inputs": [
        {
          "indexed": false,
          "internalType": "address",
          "name": "account",
          "type": "address"
        }
      ],
      "name": "Paused",
      "type": "event"
    },
    {
      "anonymous": false,
      "inputs": [
        {
          "indexed": true,
          "internalType": "bytes32",
          "name": "role",
          "type": "bytes32"
        },
        {
          "indexed": true,
          "internalType": "bytes32",
          "name": "previousAdminRole",
          "type": "bytes32"
        },
        {
          "indexed": true,
          "internalType": "bytes32",
          "name": "newAdminRole",
          "type": "bytes32"
        }
      ],
      "name": "RoleAdminChanged",
      "type": "event"
    },
    {
      "anonymous": false,
      "inputs": [
        {
          "indexed": true,
          "internalType": "bytes32",
          "name": "role",
          "type": "bytes32"
        },
        {
          "indexed": true,
          "internalType": "address",
          "name": "account",
          "type": "address"
        },
        {
          "indexed": true,
          "internalType": "address",
          "name": "sender",
          "type": "address"
        }
      ],
      "name": "RoleGranted",
      "type": "event"
    },
    {
      "anonymous": false,
      "inputs": [
        {
          "indexed": true,
          "internalType": "bytes32",
          "name": "role",
          "type": "bytes32"
        },
        {
          "indexed": true,
          "internalType": "address",
          "name": "account",
          "type": "address"
        },
        {
          "indexed": true,
          "internalType": "address",
          "name": "sender",
          "type": "address"
        }
      ],
      "name": "RoleRevoked",
      "type": "event"
    },
    {
      "anonymous": false,
      "inputs": [
        {
          "indexed": false,
          "internalType": "address",
          "name": "account",
          "type": "address"
        }
      ],
      "name": "Unpaused",
      "type": "event"
    },
    {
      "anonymous": false,
      "inputs": [
        {
          "indexed": true,
          "internalType": "address",
          "name": "implementation",
          "type": "address"
        }
      ],
      "name": "Upgraded",
      "type": "event"
    },
    {
      "inputs": [],
      "name": "ADMIN_ROLE",
      "outputs": [
        {
          "internalType": "bytes32",
          "name": "",
          "type": "bytes32"
        }
      ],
      "stateMutability": "view",
      "type": "function"
    },
    {
      "inputs": [],
      "name": "ANALYTICS_ROLE",
      "outputs": [
        {
          "internalType": "bytes32",
          "name": "",
          "type": "bytes32"
        }
      ],
      "stateMutability": "view",
      "type": "function"
    },
    {
      "inputs": [],
      "name": "DEFAULT_ADMIN_ROLE",
      "outputs": [
        {
          "internalType": "bytes32",
          "name": "",
          "type": "bytes32"
        }
      ],
      "stateMutability": "view",
      "type": "function"
    },
    {
      "inputs": [
        {
          "internalType": "uint256",
          "name": "",
          "type": "uint256"
        }
      ],
      "name": "allAddresses",
      "outputs": [
        {
          "internalType": "address",
          "name": "",
          "type": "address"
        }
      ],
      "stateMutability": "view",
      "type": "function"
    },
    {
      "inputs": [
        {
          "internalType": "address",
          "name": "target",
          "type": "address"
        },
        {
          "internalType": "bytes",
          "name": "data",
          "type": "bytes"
        }
      ],
      "name": "analyzeTransactionRisk",
      "outputs": [
        {
          "internalType": "uint8",
          "name": "riskLevel",
          "type": "uint8"
        },
        {
          "internalType": "uint256",
          "name": "delayPeriod",
          "type": "uint256"
        }
      ],
      "stateMutability": "view",
      "type": "function"
    },
    {
      "inputs": [
        {
          "internalType": "address",
          "name": "account",
          "type": "address"
        }
      ],
      "name": "calculateEffectiveVotingPower",
      "outputs": [
        {
          "internalType": "uint256",
          "name": "votingPower",
          "type": "uint256"
        }
      ],
      "stateMutability": "view",
      "type": "function"
    },
    {
      "inputs": [
        {
          "internalType": "address",
          "name": "delegator",
          "type": "address"
        },
        {
          "internalType": "address",
          "name": "delegatee",
          "type": "address"
        }
      ],
      "name": "calculateResultingChainDepth",
      "outputs": [
        {
          "internalType": "uint8",
          "name": "",
          "type": "uint8"
        }
      ],
      "stateMutability": "view",
      "type": "function"
    },
    {
      "inputs": [
        {
          "internalType": "address",
          "name": "delegator",
          "type": "address"
        },
        {
          "internalType": "address",
          "name": "delegatee",
          "type": "address"
        }
      ],
      "name": "checkAndWarnDelegationDepth",
      "outputs": [
        {
          "internalType": "bool",
          "name": "",
          "type": "bool"
        }
      ],
      "stateMutability": "nonpayable",
      "type": "function"
    },
    {
      "inputs": [
        {
          "internalType": "address",
          "name": "delegator",
          "type": "address"
        },
        {
          "internalType": "address",
          "name": "delegatee",
          "type": "address"
        }
      ],
      "name": "checkDelegationDepthWarning",
      "outputs": [
        {
          "internalType": "uint8",
          "name": "",
          "type": "uint8"
        }
      ],
      "stateMutability": "view",
      "type": "function"
    },
    {
      "inputs": [
        {
          "internalType": "address",
          "name": "delegator",
          "type": "address"
        },
        {
          "internalType": "address",
          "name": "delegatee",
          "type": "address"
        }
      ],
      "name": "checkDiamondPatternCycle",
      "outputs": [
        {
          "internalType": "bool",
          "name": "",
          "type": "bool"
        }
      ],
      "stateMutability": "view",
      "type": "function"
    },
    {
      "inputs": [
        {
          "internalType": "address",
          "name": "account",
          "type": "address"
        },
        {
          "internalType": "uint256",
          "name": "proposalId",
          "type": "uint256"
        }
      ],
      "name": "checkProposalParticipation",
      "outputs": [
        {
          "internalType": "bool",
          "name": "voted",
          "type": "bool"
        },
        {
          "internalType": "uint256",
          "name": "votingPower",
          "type": "uint256"
        }
      ],
      "stateMutability": "view",
      "type": "function"
    },
    {
      "inputs": [
        {
          "internalType": "bytes32",
          "name": "txHash",
          "type": "bytes32"
        }
      ],
      "name": "checkTimelockTransaction",
      "outputs": [
        {
          "internalType": "address",
          "name": "target",
          "type": "address"
        },
        {
          "internalType": "uint256",
          "name": "value",
          "type": "uint256"
        },
        {
          "internalType": "bytes",
          "name": "data",
          "type": "bytes"
        },
        {
          "internalType": "uint256",
          "name": "eta",
          "type": "uint256"
        },
        {
          "internalType": "bool",
          "name": "executed",
          "type": "bool"
        },
        {
          "internalType": "bool",
          "name": "expired",
          "type": "bool"
        },
        {
          "internalType": "uint256",
          "name": "timeRemaining",
          "type": "uint256"
        }
      ],
      "stateMutability": "view",
      "type": "function"
    },
    {
      "inputs": [
        {
          "internalType": "uint256",
          "name": "",
          "type": "uint256"
        }
      ],
      "name": "dailyAnalytics",
      "outputs": [
        {
          "internalType": "uint256",
          "name": "timestamp",
          "type": "uint256"
        },
        {
          "internalType": "uint256",
          "name": "totalDelegated",
          "type": "uint256"
        },
        {
          "internalType": "uint256",
          "name": "avgChainDepth",
          "type": "uint256"
        },
        {
          "internalType": "uint256",
          "name": "maxObservedChainDepth",
          "type": "uint256"
        },
        {
          "internalType": "uint256",
          "name": "totalAddresses",
          "type": "uint256"
        },
        {
          "internalType": "uint256",
          "name": "activeDelegations",
          "type": "uint256"
        }
      ],
      "stateMutability": "view",
      "type": "function"
    },
    {
      "inputs": [
        {
          "internalType": "address",
          "name": "",
          "type": "address"
        }
      ],
      "name": "delegationInfo",
      "outputs": [
        {
          "internalType": "address",
          "name": "delegate",
          "type": "address"
        },
        {
          "internalType": "uint256",
          "name": "votingPower",
          "type": "uint256"
        },
        {
          "internalType": "uint8",
          "name": "chainDepth",
          "type": "uint8"
        },
        {
          "internalType": "bool",
          "name": "active",
          "type": "bool"
        }
      ],
      "stateMutability": "view",
      "type": "function"
    },
    {
      "inputs": [],
      "name": "detectDelegationLoops",
      "outputs": [
        {
          "internalType": "bool",
          "name": "loopExists",
          "type": "bool"
        },
        {
          "internalType": "address[]",
          "name": "loopAccounts",
          "type": "address[]"
        }
      ],
      "stateMutability": "view",
      "type": "function"
    },
    {
      "inputs": [
        {
          "internalType": "address",
          "name": "account",
          "type": "address"
        }
      ],
      "name": "getAccountDelegationStats",
      "outputs": [
        {
          "internalType": "address",
          "name": "delegateAddress",
          "type": "address"
        },
        {
          "internalType": "bool",
          "name": "isDelegating",
          "type": "bool"
        },
        {
          "internalType": "uint256",
          "name": "delegatorCount",
          "type": "uint256"
        },
        {
          "internalType": "uint256",
          "name": "totalDelegatedPower",
          "type": "uint256"
        },
        {
          "internalType": "uint256",
          "name": "percentOfTotalSupply",
          "type": "uint256"
        }
      ],
      "stateMutability": "view",
      "type": "function"
    },
    {
      "inputs": [
        {
          "internalType": "address",
          "name": "account",
          "type": "address"
        },
        {
          "internalType": "uint8",
          "name": "maxDepth",
          "type": "uint8"
        }
      ],
      "name": "getAllDelegatorsInTree",
      "outputs": [
        {
          "internalType": "address[]",
          "name": "",
          "type": "address[]"
        }
      ],
      "stateMutability": "view",
      "type": "function"
    },
    {
      "inputs": [
        {
          "internalType": "address",
          "name": "account",
          "type": "address"
        }
      ],
      "name": "getBackwardDelegationDepth",
      "outputs": [
        {
          "internalType": "uint8",
          "name": "",
          "type": "uint8"
        }
      ],
      "stateMutability": "view",
      "type": "function"
    },
    {
      "inputs": [
        {
          "internalType": "uint256",
          "name": "startIndex",
          "type": "uint256"
        },
        {
          "internalType": "uint256",
          "name": "count",
          "type": "uint256"
        }
      ],
      "name": "getDelegationAnalytics",
      "outputs": [
        {
          "internalType": "address[]",
          "name": "addresses",
          "type": "address[]"
        },
        {
          "internalType": "address[]",
          "name": "delegates",
          "type": "address[]"
        },
        {
          "internalType": "uint256[]",
          "name": "votingPowers",
          "type": "uint256[]"
        },
        {
          "internalType": "uint8[]",
          "name": "depths",
          "type": "uint8[]"
        }
      ],
      "stateMutability": "view",
      "type": "function"
    },
    {
      "inputs": [
        {
          "internalType": "address",
          "name": "account",
          "type": "address"
        }
      ],
      "name": "getDelegationDepth",
      "outputs": [
        {
          "internalType": "uint8",
          "name": "",
          "type": "uint8"
        }
      ],
      "stateMutability": "view",
      "type": "function"
    },
    {
      "inputs": [
        {
          "internalType": "address",
          "name": "account",
          "type": "address"
        }
      ],
      "name": "getDelegationPath",
      "outputs": [
        {
          "internalType": "address[]",
          "name": "path",
          "type": "address[]"
        },
        {
          "internalType": "uint8",
          "name": "depth",
          "type": "uint8"
        }
      ],
      "stateMutability": "view",
      "type": "function"
    },
    {
      "inputs": [
        {
          "internalType": "uint256",
          "name": "startIndex",
          "type": "uint256"
        },
        {
          "internalType": "uint256",
          "name": "count",
          "type": "uint256"
        }
      ],
      "name": "getHistoricalAnalytics",
      "outputs": [
        {
          "components": [
            {
              "internalType": "uint256",
              "name": "timestamp",
              "type": "uint256"
            },
            {
              "internalType": "uint256",
              "name": "totalDelegated",
              "type": "uint256"
            },
            {
              "internalType": "uint256",
              "name": "avgChainDepth",
              "type": "uint256"
            },
            {
              "internalType": "uint256",
              "name": "maxObservedChainDepth",
              "type": "uint256"
            },
            {
              "internalType": "uint256",
              "name": "totalAddresses",
              "type": "uint256"
            },
            {
              "internalType": "uint256",
              "name": "activeDelegations",
              "type": "uint256"
            }
          ],
          "internalType": "struct JustDAOHelperUpgradeable.AnalyticsData[]",
          "name": "",
          "type": "tuple[]"
        }
      ],
      "stateMutability": "view",
      "type": "function"
    },
    {
      "inputs": [
        {
          "internalType": "bytes32",
          "name": "role",
          "type": "bytes32"
        }
      ],
      "name": "getRoleAdmin",
      "outputs": [
        {
          "internalType": "bytes32",
          "name": "",
          "type": "bytes32"
        }
      ],
      "stateMutability": "view",
      "type": "function"
    },
    {
      "inputs": [
        {
          "internalType": "bytes32",
          "name": "role",
          "type": "bytes32"
        },
        {
          "internalType": "uint256",
          "name": "index",
          "type": "uint256"
        }
      ],
      "name": "getRoleMember",
      "outputs": [
        {
          "internalType": "address",
          "name": "",
          "type": "address"
        }
      ],
      "stateMutability": "view",
      "type": "function"
    },
    {
      "inputs": [
        {
          "internalType": "bytes32",
          "name": "role",
          "type": "bytes32"
        }
      ],
      "name": "getRoleMemberCount",
      "outputs": [
        {
          "internalType": "uint256",
          "name": "",
          "type": "uint256"
        }
      ],
      "stateMutability": "view",
      "type": "function"
    },
    {
      "inputs": [
        {
          "internalType": "uint256",
          "name": "count",
          "type": "uint256"
        }
      ],
      "name": "getTopDelegateConcentration",
      "outputs": [
        {
          "internalType": "address[]",
          "name": "topDelegates",
          "type": "address[]"
        },
        {
          "internalType": "uint256[]",
          "name": "delegatedPower",
          "type": "uint256[]"
        },
        {
          "internalType": "uint256[]",
          "name": "percentage",
          "type": "uint256[]"
        }
      ],
      "stateMutability": "view",
      "type": "function"
    },
    {
      "inputs": [
        {
          "internalType": "bytes32",
          "name": "role",
          "type": "bytes32"
        },
        {
          "internalType": "address",
          "name": "account",
          "type": "address"
        }
      ],
      "name": "grantRole",
      "outputs": [],
      "stateMutability": "nonpayable",
      "type": "function"
    },
    {
      "inputs": [
        {
          "internalType": "bytes32",
          "name": "role",
          "type": "bytes32"
        },
        {
          "internalType": "address",
          "name": "account",
          "type": "address"
        }
      ],
      "name": "hasRole",
      "outputs": [
        {
          "internalType": "bool",
          "name": "",
          "type": "bool"
        }
      ],
      "stateMutability": "view",
      "type": "function"
    },
    {
      "inputs": [
        {
          "internalType": "address",
          "name": "tokenAddress",
          "type": "address"
        },
        {
          "internalType": "address",
          "name": "governanceAddress",
          "type": "address"
        },
        {
          "internalType": "address",
          "name": "timelockAddress",
          "type": "address"
        },
        {
          "internalType": "address",
          "name": "admin",
          "type": "address"
        }
      ],
      "name": "initialize",
      "outputs": [],
      "stateMutability": "nonpayable",
      "type": "function"
    },
    {
      "inputs": [],
      "name": "justGovernance",
      "outputs": [
        {
          "internalType": "contract JustGovernanceInterface",
          "name": "",
          "type": "address"
        }
      ],
      "stateMutability": "view",
      "type": "function"
    },
    {
      "inputs": [],
      "name": "justTimelock",
      "outputs": [
        {
          "internalType": "contract JustTimelockInterface",
          "name": "",
          "type": "address"
        }
      ],
      "stateMutability": "view",
      "type": "function"
    },
    {
      "inputs": [],
      "name": "justToken",
      "outputs": [
        {
          "internalType": "contract JustTokenInterface",
          "name": "",
          "type": "address"
        }
      ],
      "stateMutability": "view",
      "type": "function"
    },
    {
      "inputs": [],
      "name": "paused",
      "outputs": [
        {
          "internalType": "bool",
          "name": "",
          "type": "bool"
        }
      ],
      "stateMutability": "view",
      "type": "function"
    },
    {
      "inputs": [],
      "name": "proxiableUUID",
      "outputs": [
        {
          "internalType": "bytes32",
          "name": "",
          "type": "bytes32"
        }
      ],
      "stateMutability": "view",
      "type": "function"
    },
    {
      "inputs": [
        {
          "internalType": "address",
          "name": "delegator",
          "type": "address"
        },
        {
          "internalType": "address",
          "name": "delegatee",
          "type": "address"
        }
      ],
      "name": "recordDelegation",
      "outputs": [],
      "stateMutability": "nonpayable",
      "type": "function"
    },
    {
      "inputs": [
        {
          "internalType": "bytes32",
          "name": "role",
          "type": "bytes32"
        },
        {
          "internalType": "address",
          "name": "account",
          "type": "address"
        }
      ],
      "name": "renounceRole",
      "outputs": [],
      "stateMutability": "nonpayable",
      "type": "function"
    },
    {
      "inputs": [
        {
          "internalType": "bytes32",
          "name": "role",
          "type": "bytes32"
        },
        {
          "internalType": "address",
          "name": "account",
          "type": "address"
        }
      ],
      "name": "revokeRole",
      "outputs": [],
      "stateMutability": "nonpayable",
      "type": "function"
    },
    {
      "inputs": [
        {
          "internalType": "bool",
          "name": "isPaused",
          "type": "bool"
        }
      ],
      "name": "setPaused",
      "outputs": [],
      "stateMutability": "nonpayable",
      "type": "function"
    },
    {
      "inputs": [
        {
          "internalType": "bytes4",
          "name": "interfaceId",
          "type": "bytes4"
        }
      ],
      "name": "supportsInterface",
      "outputs": [
        {
          "internalType": "bool",
          "name": "",
          "type": "bool"
        }
      ],
      "stateMutability": "view",
      "type": "function"
    },
    {
      "inputs": [
        {
          "internalType": "address",
          "name": "tokenAddress",
          "type": "address"
        },
        {
          "internalType": "address",
          "name": "governanceAddress",
          "type": "address"
        },
        {
          "internalType": "address",
          "name": "timelockAddress",
          "type": "address"
        }
      ],
      "name": "updateContractAddresses",
      "outputs": [],
      "stateMutability": "nonpayable",
      "type": "function"
    },
    {
      "inputs": [
        {
          "internalType": "address",
          "name": "newImplementation",
          "type": "address"
        }
      ],
      "name": "upgradeTo",
      "outputs": [],
      "stateMutability": "nonpayable",
      "type": "function"
    },
    {
      "inputs": [
        {
          "internalType": "address",
          "name": "newImplementation",
          "type": "address"
        },
        {
          "internalType": "bytes",
          "name": "data",
          "type": "bytes"
        }
      ],
      "name": "upgradeToAndCall",
      "outputs": [],
      "stateMutability": "payable",
      "type": "function"
    },
    {
      "inputs": [
        {
          "internalType": "address",
          "name": "delegator",
          "type": "address"
        },
        {
          "internalType": "address",
          "name": "delegatee",
          "type": "address"
        }
      ],
      "name": "validateDelegation",
      "outputs": [
        {
          "internalType": "bool",
          "name": "isValid",
          "type": "bool"
        },
        {
          "internalType": "uint8",
          "name": "reason",
          "type": "uint8"
        }
      ],
      "stateMutability": "view",
      "type": "function"
    },
    {
      "inputs": [
        {
          "internalType": "address",
          "name": "delegator",
          "type": "address"
        },
        {
          "internalType": "address",
          "name": "delegatee",
          "type": "address"
        }
      ],
      "name": "wouldCreateDelegationCycle",
      "outputs": [
        {
          "internalType": "bool",
          "name": "",
          "type": "bool"
        }
      ],
      "stateMutability": "view",
      "type": "function"
    }
  ],
  "bytecode": "0x60a0604052346200003657620000146200003b565b604051615e7062000093823960805181818161177501526118c10152615e7090f35b600080fd5b6200004562000082565b565b6200005d9062000060906001600160a01b031682565b90565b6001600160a01b031690565b6200005d9062000047565b6200005d906200006c565b6200008d3062000077565b60805256fe6080604052600436101561001257600080fd5b60003560e01c806301ffc9a7146102d25780630427e145146102cd57806314881f7b146102c857806316c38b3c146102c35780631abd602b146102be5780632071088a146102b9578063248a9ca3146102b45780632b1637f6146102af5780632b6361db146102aa5780632f2ff15d146102a557806332920512146102a057806336568abe1461029b5780633659cfe6146102965780633a4950e8146102915780634f1ef2861461028c57806352d1902d14610287578063548ac699146102825780635b35c0841461027d5780635c975abb14610278578063648d3f4f146102735780636ba4cce71461026e5780637570607f1461026957806375b238fc1461026457806378429b591461025f5780637b6049641461025a578063853cb7fc146102555780638cea07e1146102505780639010d07c1461024b57806391d1485414610246578063a217fddf14610241578063ad39c7571461023c578063af48e82d14610237578063c5764bbd14610232578063c5ed2cf41461022d578063c8fcbaa314610228578063ca15c87314610223578063d1951ead1461021e578063d547741f14610219578063dacc537014610214578063dbd625061461020f578063ee0d1f9c1461020a578063f2a130de14610205578063f809e2b9146102005763f8c8765e036102d7576112ad565b611243565b6111f4565b611191565b611176565b61114e565b6110f0565b6110d5565b6110ad565b61107e565b610fcc565b610edd565b610eae565b610e77565b610e5c565b610e21565b610dea565b610dce565b610db2565b610d8a565b610cb9565b610c27565b610bf3565b610b0d565b610a9e565b61097f565b610963565b610931565b610831565b61081d565b610707565b6106ef565b6106d6565b6106a5565b610646565b610610565b6105be565b610567565b610527565b6104b1565b610494565b61043d565b610386565b610319565b600080fd5b6001600160e01b031981165b036102d757565b905035906102fc826102dc565b565b906020828203126102d757610312916102ef565b90565b9052565b346102d75761034661033461032f3660046102fe565b6112c9565b60405191829182901515815260200190565b0390f35b6001600160a01b031690565b6001600160a01b0381166102e8565b905035906102fc82610356565b906020828203126102d75761031291610365565b346102d7576103466103a161039c366004610372565b612f26565b6040519182918260ff909116815260200190565b60009103126102d757565b0190565b906103e46103dd6103d3845190565b8084529260200190565b9260200190565b9060005b8181106103f55750505090565b90919261041b61041460019286516001600160a01b0316815260200190565b9460200190565b9291016103e8565b9015158152604060208201819052610312929101906103c4565b346102d75761044d3660046103b5565b610455615add565b9061034661046260405190565b92839283610423565b8015156102e8565b905035906102fc8261046b565b906020828203126102d75761031291610473565b346102d7576104ac6104a7366004610480565b6129fc565b604051005b346102d7576104c13660046103b5565b6103467f1392683b4fe604b030f727da71b11fe86de118903712aeeae60f8bf8183bbf1b5b6040515b9182918290815260200190565b90916060828403126102d7576103126105108484610365565b9361051e8160208601610365565b93604001610365565b346102d7576104ac61053a3660046104f7565b916129c1565b806102e8565b905035906102fc82610540565b906020828203126102d75761031291610546565b346102d7576103466104e661057d366004610553565b611391565b91906040838203126102d7576103129061059c8185610365565b93602001610546565b90151581526040810192916102fc9160200152565b0152565b346102d7576105d76105d1366004610582565b90615259565b906103466105e460405190565b928392836105a5565b91906040838203126102d757610312906106078185610365565b93602001610365565b346102d7576103466103a16106263660046105ed565b906131b3565b91906040838203126102d757610312906106078185610546565b346102d7576104ac61065936600461062c565b906113c8565b909594926102fc9461069e6105ba9261069760809661068e60a088019c60008901906001600160a01b03169052565b15156020870152565b6040850152565b6060830152565b346102d7576103466106c06106bb366004610372565b614f79565b916106cd95939560405190565b9586958661065f565b346102d7576104ac6106e936600461062c565b906115c7565b346102d7576104ac610702366004610372565b611982565b346102d7576103466103a161071d3660046105ed565b90613dfa565b634e487b7160e01b600052604160045260246000fd5b90601f01601f1916810190811067ffffffffffffffff82111761075b57604052565b610723565b906102fc61076d60405190565b9283610739565b67ffffffffffffffff811161075b57602090601f01601f19160190565b90826000939282370152565b909291926107b26107ad82610774565b610760565b938185526020850190828401116102d7576102fc92610791565b9080601f830112156102d7578160206103129335910161079d565b9190916040818403126102d7576107fe8382610365565b92602082013567ffffffffffffffff81116102d75761031292016107cc565b6104ac61082b3660046107e7565b90611cc8565b346102d7576108413660046103b5565b6103466104e66117e0565b91906040838203126102d7576103129061059c8185610546565b906108756103dd6103d3845190565b9060005b8181106108865750505090565b90919261089c6104146001928651815260200190565b929101610879565b906108b36103dd6103d3845190565b9060005b8181106108c45750505090565b9091926108dd610414600192865160ff16815260200190565b9291016108b7565b92610915610312959361090761092394608088019088820360008a01526103c4565b9086820360208801526103c4565b908482036040860152610866565b9160608184039101526108a4565b346102d75761034661094d61094736600461084c565b906144ec565b9061095a94929460405190565b948594856108e5565b346102d7576103466103346109793660046105ed565b906132b5565b346102d75761098f3660046103b5565b610346610334611cd2565b634e487b7160e01b600052603260045260246000fd5b80548210156109d3576109ca600691600052602060002090565b91020190600090565b61099a565b6103129081565b61031290546109d8565b90610197916000926109f9815490565b821015610a5657610a0b9293506109b0565b5090610a16826109df565b91610a23600182016109df565b91610a30600283016109df565b91610a3d600382016109df565b916103126005610a4f600485016109df565b93016109df565b8380fd5b9194610a976105ba92989795610a9060a096610a896102fc9a610a8260c08a019e60008b0152565b6020890152565b6040870152565b6060850152565b6080830152565b346102d757610346610ab9610ab4366004610553565b6109e9565b92610ac996949692919260405190565b96879687610a5a565b91610aff90610af16103129593606086019086820360008801526103c4565b908482036020860152610866565b916040818403910152610866565b346102d757610346610b28610b23366004610553565b6147e0565b60405191939193849384610ad2565b60005b838110610b4a5750506000910152565b8181015183820152602001610b3a565b610b7b610b846020936103c093610b6f815190565b80835293849260200190565b95869101610b37565b601f01601f191690565b9260c094989795610be1610bd96102fc9994610bea94610bcc6105ba98610bc560e08c019460008d01906001600160a01b03169052565b60208b0152565b88820360408a0152610b5a565b9a6060870152565b15156080850152565b151560a0830152565b346102d757610346610c0e610c09366004610553565b614e67565b93610c1e97959793919360405190565b97889788610b8e565b346102d757610c373660046103b5565b610346600080516020615e448339815191526104e6565b610312916008021c6001600160a01b031690565b906103129154610c4e565b6103126000610192610c62565b6103129061034a906001600160a01b031682565b61031290610c7a565b61031290610c8e565b61031590610c97565b6020810192916102fc9190610ca0565b346102d757610cc93660046103b5565b610346610cd4610c6d565b60405191829182610ca9565b805182526102fc919060a0908190610cfd60208201516020860152565b610d0c60408201516040860152565b610d1b60608201516060860152565b610d2a60808201516080860152565b0151910152565b906103c08160c093610ce0565b90610d4d6103dd6103d3845190565b9060005b818110610d5e5750505090565b909192610d716104146001928651610d31565b929101610d51565b602080825261031292910190610d3e565b346102d757610346610da6610da036600461084c565b9061472e565b60405191829182610d79565b346102d757610346610334610dc83660046105ed565b90614092565b346102d757610346610334610de43660046105ed565b90613a28565b346102d757610346610e06610e0036600461084c565b906112f8565b6040515b918291826001600160a01b03909116815260200190565b346102d757610346610334610e3736600461062c565b90611369565b6103126103126103129290565b6103126000610e3d565b610312610e4a565b346102d757610e6c3660046103b5565b6103466104e6610e54565b346102d7576103466104e6610e8d366004610372565b615985565b90151581526040810192916102fc916020905b019060ff169052565b346102d757610ec7610ec13660046105ed565b90615d77565b90610346610ed460405190565b92839283610e92565b346102d7576103466103a1610ef3366004610372565b612c06565b90610f0290610c97565b600052602052604060002090565b6103129061034a565b6103129054610f10565b610312905b60ff1690565b6103129054610f23565b6103129060081c610f28565b6103129054610f38565b610f5a90610194610ef8565b90610f6482610f19565b91610f71600182016109df565b916103126002610f82818501610f2e565b9301610f44565b610fc46102fc94610fba606094989795610fb3608086019a60008701906001600160a01b03169052565b6020850152565b60ff166040830152565b019015159052565b346102d757610346610fe7610fe2366004610372565b610f4e565b90610ff494929460405190565b94859485610f89565b909182601f830112156102d75781359167ffffffffffffffff83116102d75760200192600183028401116102d757565b9190916040818403126102d7576110448382610365565b92602082013567ffffffffffffffff81116102d7576110639201610ffd565b9091565b60ff90911681526040810192916102fc9160200152565b346102d75761109761109136600461102d565b91614c7b565b906103466110a460405190565b92839283611067565b346102d7576103466104e66110c3366004610553565b611318565b6103126000610193610c62565b346102d7576110e53660046103b5565b610346610cd46110c8565b346102d7576104ac61110336600461062c565b9061153f565b80548210156109d3576109ca600191600052602060002090565b6101956000611130825490565b83101561114b57506103129161114591611109565b90610c62565b80fd5b346102d757610346610e06611164366004610553565b611123565b6103126000610191610c62565b346102d7576111863660046103b5565b610346610cd4611169565b346102d7576104ac6111a43660046105ed565b90614481565b60ff81166102e8565b905035906102fc826111aa565b91906040838203126102d757610312906111da8185610365565b936020016111b3565b6020808252610312929101906103c4565b346102d75761034661121061120a3660046111c0565b9061534c565b604051918291826111e3565b929160206112396102fc93604087019087820360008901526103c4565b94019060ff169052565b346102d75761125b611256366004610372565b615728565b9061034661126860405190565b9283928361121c565b6080818303126102d7576112858282610365565b926103126112968460208501610365565b936112a48160408601610365565b93606001610365565b346102d7576104ac6112c0366004611271565b929190916126b3565b635a05180f60e01b6001600160e01b03198216149081156112e8575090565b610312915061132f565b90610f02565b906113136103126103129361130b600090565b5060976112f2565b61234b565b61132a6103126103129261130b600090565b612314565b637965db0b60e01b6001600160e01b031982161490811561134e575090565b61031291506001600160e01b0319166301ffc9a760e01b1490565b61031291600061138661138c9361137e600090565b5060656112f2565b01610ef8565b610f2e565b60016113a26103129261137e600090565b016109df565b906102fc916113be6113b982611391565b6113f6565b906102fc916113d2565b906102fc916113a8565b906113ee6103126113f3936113e78482611617565b60976112f2565b612093565b50565b6102fc903390611497565b61031290610e3d565b6103c06114229260209261141c815190565b94859290565b93849101610b37565b6114696103129392611463611463937f416363657373436f6e74726f6c3a206163636f756e7420000000000000000000815260170190565b9061140a565b7001034b99036b4b9b9b4b733903937b6329607d1b815260110190565b602080825261031292910190610b5a565b906114a96114a58284611369565b1590565b6114b1575050565b611520916103126114cd6114c761150794612062565b92611401565b6114e26020916114dc83610e3d565b90611f18565b926114fb6114ef60405190565b9485938401928361142b565b90810382520382610739565b6040515b62461bcd60e51b815291829160048301611486565b0390fd5b906102fc916115356113b982611391565b906102fc91611549565b906102fc91611524565b9061155e6103126113f3936113e7848261168e565b6121ab565b1561156a57565b60405162461bcd60e51b815260206004820152602f60248201527f416363657373436f6e74726f6c3a2063616e206f6e6c792072656e6f756e636560448201526e103937b632b9903337b91039b2b63360891b6064820152608490fd5b6102fc91906115e86115d83361034a565b6001600160a01b03841614611563565b611549565b9060ff905b9181191691161790565b9061160c61031261161392151590565b82546115ed565b9055565b906116256114a58284611369565b61162d575050565b61164860016116438360006113868760656112f2565b6115fc565b339061167e6116786116787f2f8788117e7eff1d82e926ec794901d17c78024a50270940304540a733656f0d9590565b92610c97565b9261168860405190565b600090a4565b906116998183611369565b6116a1575050565b6116b6600061164383826113868760656112f2565b339061167e6116786116787ff6391f5c32d9c69d2a47ea670b442974b53935d1edc7fd64eb21e047a839171b9590565b156116ed57565b60405162461bcd60e51b815260206004820152603860248201527f555550535570677261646561626c653a206d757374206e6f742062652063616c60448201527f6c6564207468726f7567682064656c656761746563616c6c00000000000000006064820152608490fd5b610312906117a961176830610c97565b6117a36001600160a01b037f0000000000000000000000000000000000000000000000000000000000000000165b916001600160a01b031690565b146116e6565b6117d7565b6103127f360894a13ba1a3210667c828492db98dca3e2076cc3735a920a3ca505d382bbc610e3d565b506103126117ae565b6103126000611758565b156117f157565b60405162461bcd60e51b815260206004820152602c60248201527f46756e6374696f6e206d7573742062652063616c6c6564207468726f7567682060448201526b19195b1959d85d1958d85b1b60a21b6064820152608490fd5b1561185257565b60405162461bcd60e51b815260206004820152602c60248201527f46756e6374696f6e206d7573742062652063616c6c6564207468726f7567682060448201526b6163746976652070726f787960a01b6064820152608490fd5b6102fc9061191c6118bc30610c97565b6118fb7f0000000000000000000000000000000000000000000000000000000000000000916118f4611796846001600160a01b031690565b14156117ea565b61191661179661190961198b565b926001600160a01b031690565b1461184b565b61195b565b9061192e6107ad83610774565b918252565b369037565b906102fc61194e61194884611921565b93610774565b601f190160208401611933565b6102fc90611968816127ee565b60009061197c61197783610e3d565b611938565b90611a55565b6102fc906118ac565b610312600061199b6103126117ae565b01610f19565b6103127f4910fdfa16fed3260ed0e7147f7cc6da11a60208b5b9406d12a635614ffd9143610e3d565b905051906102fc82610540565b906020828203126102d757610312916119ca565b6040513d6000823e3d90fd5b156119fe57565b60405162461bcd60e51b815260206004820152602960248201527f45524331393637557067726164653a20756e737570706f727465642070726f786044820152681a58589b195555525160ba1b6064820152608490fd5b9190611a6d6000611a676103126119a1565b01610f2e565b15611a7d5750506102fc90611bfb565b826020611a94611a8f611aac96610c97565b610c97565b6352d1902d90611aa360405190565b96879260e01b90565b825260049082905afa60009481611b43575b50611b1f5760405162461bcd60e51b815260206004820152602e60248201527f45524331393637557067726164653a206e657720696d706c656d656e7461746960448201526d6f6e206973206e6f74205555505360901b6064820152608490fd5b611b3e6102fc94611b38611b346103126117ae565b9190565b146119f7565b611c23565b611b6591955060203d8111611b6c575b611b5d8183610739565b8101906119d7565b9338611abe565b503d611b53565b15611b7a57565b60405162461bcd60e51b815260206004820152602d60248201527f455243313936373a206e657720696d706c656d656e746174696f6e206973206e60448201526c1bdd08184818dbdb9d1c9858dd609a1b6064820152608490fd5b906001600160a01b03906115f2565b90611bf461031261161392610c97565b8254611bd5565b6102fc90611c10611c0b82611cdc565b611b73565b6000611c1d6103126117ae565b01611be4565b91611c2d83611c5f565b8151611c3c611b346000610e3d565b11908115611c57575b50611c4e575050565b6113f391611d39565b905038611c45565b611c6881611bfb565b611c927fbc7cd75a20ee27fd9adebab32041f755214dbc6bffa90cc0225b39da2e5c2d3b91610c97565b90611c9c60405190565b600090a2565b906102fc91611cb36118bc30610c97565b6102fc91611cc0826127ee565b600191611a55565b906102fc91611ca2565b61031260c9610f2e565b3b611cea611b346000610e3d565b1190565b611cf86027611921565b7f416464726573733a206c6f772d6c6576656c2064656c65676174652063616c6c6020820152660819985a5b195960ca1b604082015290565b610312611cee565b61031291611d45611d31565b91611d6a565b3d15611d6557611d5a3d611921565b903d6000602084013e565b606090565b6000806103129493611d7a606090565b50805190602001845af4611d8c611d4b565b91611dde565b15611d9957565b60405162461bcd60e51b815260206004820152601d60248201527f416464726573733a2063616c6c20746f206e6f6e2d636f6e74726163740000006044820152606490fd5b91929015611e1057508151611df6611b346000610e3d565b14611dff575090565b611e0b61031291611cdc565b611d92565b8290611e1a825190565b611e27611b346000610e3d565b1115611e365750805190602001fd5b6115209061150b60405190565b634e487b7160e01b600052601160045260246000fd5b81810292918115918404141715611e6c57565b611e43565b91908201809211611e6c57565b90611e87825190565b8110156109d3570160200190565b8015611e6c576000190190565b610f286103126103129290565b61031290611ec3611b346103129460ff1690565b901c90565b15611ecf57565b60405162461bcd60e51b815280611520600482016020808252818101527f537472696e67733a20686578206c656e67746820696e73756666696369656e74604082015260600190565b9190600292611f44611977611f3584611f3088610e3d565b611e59565b611f3e87610e3d565b90611e71565b916000906030611f5c611f5684610e3d565b86611e7e565b53611f94611f8b600f60fb1b92611f306001998a95871a611f85611f7f88610e3d565b8b611e7e565b53610e3d565b611f3e83610e3d565b905b611fb8575b5061031293945090611fb2611b3461031293610e3d565b14611ec8565b91611fc286610e3d565b831115612030576f181899199a1a9b1b9c1cb0b131b232b360811b611fe7600f610e3d565b82169060108210156109d35787926120076120249261202a941a60f81b90565b851a6120138789611e7e565b5361201e6004611ea2565b90611eaf565b93611e95565b90611f96565b91611f9b565b6103129081906001600160a01b031681565b6103126014611ea2565b6103126103126103129260ff1690565b61207f61207a61031292612074606090565b50610c8e565b612036565b6114dc61208a612048565b612052565b1490565b906120bb611b346120b661207a6000610312966120ae600090565b500194610c8e565b610e3d565b612135565b9160001960089290920291821b911b6115f2565b91906120e36103126116139390565b9083546120c0565b90815491600160401b83101561075b578261210e9160016102fc95018155611109565b906120d4565b90600019906115f2565b9061212e61031261161392610e3d565b8254612114565b6121426114a5838361217b565b156121745761216f9161216a9060016121638461215f84826120eb565b5490565b93016112f2565b61211e565b600190565b5050600090565b6121999160016121949261218d600090565b50016112f2565b6109df565b6121a6611b346000610e3d565b141590565b906121c6611b346120b661207a6000610312966120ae600090565b612255565b91908203918211611e6c57565b610312916008021c81565b9061031291546121d8565b634e487b7160e01b600052603160045260246000fd5b6102fc916000916120d4565b8054801561223357600019019061223061222a8383611109565b90612204565b55565b6121ee565b91906120e361031261161393610e3d565b6102fc91600091612238565b9061226661219482600185016112f2565b60009261227284610e3d565b82146122c557610312926122cb94926122d6926122d0600197889361229f61229986610e3d565b826121cb565b888501916122bd6122ae845490565b6122b789610e3d565b906121cb565b8281036122db575b50505090565b612210565b016112f2565b612249565b61210e61230461230c946122fb6122f561216a9589611109565b906121e3565b92839188611109565b8888016112f2565b3880806122c5565b61232a600061031292612325600090565b500190565b600061031291612338600090565b50015490565b61034a6103126103129290565b61237061236b61031293612366600061237595612325600090565b61237a565b611401565b61233e565b610c8e565b6103129160006122f59261238c600090565b5001611109565b1561239a57565b60405162461bcd60e51b815260206004820152602e60248201527f496e697469616c697a61626c653a20636f6e747261637420697320616c72656160448201526d191e481a5b9a5d1a585b1a5e995960921b6064820152608490fd5b610f286103126103129260ff1690565b9061160c610312611613926123f6565b9061ff009060081b6115f2565b9061243361031261161392151590565b8254612416565b61031590611ea2565b6020810192916102fc919061243a565b9261249e91926124666114a56000610f44565b938480612541575b80156124fc575b61247e90612393565b6001958561249561248e89611ea2565b6000612406565b6124ec57612568565b6124a55750565b6124b0600080612423565b6124e77f7f26b83ff96e1f2b6a682f133852f6798a09c465da95921460cefb3847402498916124de60405190565b91829182612443565b0390a1565b6124f7876000612423565b612568565b506125116114a561250c30610c97565b611cdc565b8015612475575061247e6125256000610f2e565b6125396125326001611ea2565b9160ff1690565b149050612475565b5061254c6000610f2e565b6125596125326001611ea2565b1061246e565b6103129061233e565b906000926125758461255f565b916001600160a01b0383166001600160a01b038516146126a1576125c16125b9612603956125a1612731565b6125a9612751565b6125b1612795565b611a8f612731565b610191611be4565b6001600160a01b0383166001600160a01b03821603612687575b506001600160a01b0382166001600160a01b0382160361266d575b506001600160a01b031690565b6001600160a01b038316149050612663576102fc905b612625816113be610e4a565b61263d81600080516020615e448339815191526113be565b7f1392683b4fe604b030f727da71b11fe86de118903712aeeae60f8bf8183bbf1b6113be565b506102fc33612619565b61267961268191610c97565b610193611be4565b386125f6565b61269361269b91610c97565b610192611be4565b386125db565b60405163d92e233d60e01b8152600490fd5b906102fc939291612453565b156126c657565b60405162461bcd60e51b815260206004820152602b60248201527f496e697469616c697a61626c653a20636f6e7472616374206973206e6f74206960448201526a6e697469616c697a696e6760a81b6064820152608490fd5b6102fc61272c6000610f44565b6126bf565b6102fc61271f565b61274661272c6000610f44565b6102fc6102fc612775565b6102fc612739565b61276661272c6000610f44565b6102fc6102fc600060c96115fc565b6102fc612759565b61278a61272c6000610f44565b6102fc6102fc6127ce565b6102fc61277d565b6127aa61272c6000610f44565b6102fc6127bc565b6103126001610e3d565b6102fc6127c76127b2565b60fb61211e565b6102fc61279d565b506102fc600080516020615e448339815191526113f6565b6102fc906127d6565b6102fc929190612814600080516020615e448339815191526113f6565b61286b565b604051642a37b5b2b760d91b815280600581015b03902090565b60405169476f7665726e616e636560b01b815280600a810161282d565b6040516754696d656c6f636b60c01b8152806008810161282d565b6128bb91612879600061255f565b916001600160a01b0383166001600160a01b0382160361296f575b506001600160a01b0382166001600160a01b0382160361291d57506001600160a01b031690565b6001600160a01b038216036128cd5750565b6128d690610c97565b6128e281610193611be4565b7fa42de6429c1410f4470a8ff5afeeae27c734519ac1693e8eb58798a81715c94761290b612850565b9061291560405190565b80805b0390a3565b61292690610c97565b61293281610192611be4565b7fa42de6429c1410f4470a8ff5afeeae27c734519ac1693e8eb58798a81715c94761295b612833565b9061296560405190565b600090a3386125f6565b61297890610c97565b61298481610191611be4565b7fa42de6429c1410f4470a8ff5afeeae27c734519ac1693e8eb58798a81715c9476129ad612819565b906129b760405190565b600090a338612894565b906102fc92916127f7565b6102fc906129e7600080516020615e448339815191526113f6565b156129f4576102fc612a4b565b6102fc612aeb565b6102fc906129cc565b612a0d612a92565b6102fc612a1c600160c96115fc565b336124e77f62e78cea01bee320cd4e420270b5ea74000d11b0c9f74754ebdbfc544b05a25891610e0a60405190565b6102fc612a05565b15612a5a57565b60405162461bcd60e51b815260206004820152601060248201526f14185d5cd8589b194e881c185d5cd95960821b6044820152606490fd5b6102fc612aa06114a5611cd2565b612a53565b612aad612b36565b6102fc612abc600060c96115fc565b336124e77f5db9ee0a495bf2e6ff9c91a7834c1ba4fdd244a5e8aa4e537bd38aeae4b073aa91610e0a60405190565b6102fc612aa5565b15612afa57565b60405162461bcd60e51b815260206004820152601460248201527314185d5cd8589b194e881b9bdd081c185d5cd95960621b6044820152606490fd5b6102fc612b41611cd2565b612af3565b905051906102fc826111aa565b906020828203126102d75761031291612b46565b612b739060ff16612532565b019060ff8211611e6c57565b67ffffffffffffffff811161075b5760208091020190565b9061192e6107ad83612b7f565b906102fc61194e612bb484612b97565b93612b7f565b905051906102fc82610356565b906020828203126102d75761031291612bba565b60ff1660ff8114611e6c5760010190565b90612bf5825190565b8110156109d3576020809102010190565b600090612c128261255f565b906001600160a01b0382166001600160a01b03821614612e7f57612c61612c3884611ea2565b936020612c49611a8f610191610f19565b637969a71390612c5860405190565b94859260e01b90565b825260049082905afa918215612e42578192612e4f575b509291906001938491612c9e612c9961208a612c9386611ea2565b84612b67565b612ba4565b9387935b612cb1575b5050505050505090565b9596949560ff821660ff87161015612e4757612ce6906020612cd7611a8f610191610f19565b63544d856490612c5860405190565b82526001600160a01b038416600483015260249082905afa918215612e42578492612e12575b506001600160a01b0388166001600160a01b038316148015612df7575b612d8957838980612d3987611ea2565b905b612d92575b5050612d8957889291612d79612d7f92612d6b612d65612d5f8a612bdb565b99612052565b8a612bec565b906001600160a01b03169052565b96612bdb565b9796959091612ca2565b50859750612ca7565b60ff881660ff82161015612df257612dc2612db5612daf83612052565b8b612bec565b516001600160a01b031690565b612dd46001600160a01b038716611796565b14612de857612de290612bdb565b81612d3b565b5090508938612d40565b612d40565b506001600160a01b0381166001600160a01b03831614612d29565b612e3491925060203d8111612e3b575b612e2c8183610739565b810190612bc7565b9038612d0c565b503d612e22565b6119eb565b859750612ca7565b612e7191925060203d8111612e78575b612e698183610739565b810190612b53565b9038612c78565b503d612e5f565b505061031290611ea2565b90929192612e9a6107ad82612b7f565b93818552602080860192028301928184116102d757915b838310612ebe5750505050565b60208091612ecc8486612bba565b815201920191612eb1565b9080601f830112156102d757815161031292602001612e8a565b906020828203126102d757815167ffffffffffffffff81116102d7576103129201612ed7565b6000198114611e6c5760010190565b6000612f3461034a8261255f565b6001600160a01b038316146131a95780612f8c91612f56611a8f610191610f19565b9363e5de293094612f6660405190565b8080968194612f758a60e01b90565b83526001600160a01b031660048301526024820190565b03915afa918215612e4257819261318d575b508151612fad611b3483610e3d565b1461318157919060018093612fc182611ea2565b93612fcb82610e3d565b955b612fdb575b50505050905090565b612fe6610312855190565b86101561317c5761301e82612ffe612db58988612bec565b61300c611a8f610191610f19565b6040518080958194612f758960e01b90565b03915afa908115612e42578391613162575b50805161303f611b3485610e3d565b1161305a575b5061305283949596612f17565b959493612fcd565b6130646002611ea2565b908461306f85610e3d565b905b613090575b505060ff861660ff82161115613045579450613052613045565b61309b610312835190565b81101561315d5780856130b4612db56130d49486612bec565b6130c2611a8f610191610f19565b6040518080968194612f758c60e01b90565b03915afa918215612e425787926130f091889161313d57505190565b6130fc611b3488610e3d565b11613111575b61310b90612f17565b90613071565b905061311d6003611ea2565b60ff891660ff821611613133575b508590613102565b975061310b61312b565b61315991503d808a833e6131518183610739565b810190612ef1565b5190565b613076565b61317691503d8085833e6131518183610739565b38613030565b612fd2565b90506103129150611ea2565b6131a29192503d8084833e6131518183610739565b9038612f9e565b6103129150611ea2565b6001600160a01b0382166001600160a01b038216146131f9576131f46131e46131de61031294612c06565b92612f26565b6131ee6001611ea2565b90612b67565b612b67565b50506103126000611ea2565b67ffffffffffffffff811161075b5760200290565b6107ad61031291613205565b906102fc61323c6132368461321a565b93613205565b83611933565b6103126032613226565b6103126008613226565b9060325b8110156109d3576020020190565b634e487b7160e01b600052601260045260246000fd5b8115613288570690565b613268565b8115613288570490565b610312906132a8611b346103129490565b901b90565b90600861325a565b9060006001600160a01b0382166001600160a01b03841614613a20576132df611a8f610191610f19565b60206132ea60405190565b631513615960e21b81526001600160a01b038516600482015291829060249082905afa908115612e4257600091613a02575b5061332f6001600160a01b038516611796565b146139fa57613342611a8f610191610f19565b600061334d60405190565b630e5de29360e41b81526001600160a01b038516600482015291829060249082905afa8015612e4257613386916000916139e757505190565b6133906000610e3d565b81146139de576133b9906133b36133a961208a86612c06565b611f3e6001610e3d565b90611e59565b6133c7611b346101f4610e3d565b116139cc576133f760206133df611a8f610191610f19565b637969a713906133ee60405190565b93849260e01b90565b825260049082905afa8015612e42576139b0575b50613414613242565b61341e6000611ea2565b61342661324c565b92613435611a8f610191610f19565b90602061344160405190565b631513615960e21b81526001600160a01b038916600482015292839060249082905afa918215612e4257600092613990575b506134b26134a161207a88612375879b96979a612d6b61349b6134958e612bdb565b9d612052565b8b613256565b6134ac610100610e3d565b9061327e565b9261350c6134d76134cc6134c66020610e3d565b8761328d565b956134ac6020610e3d565b946135096134ef6134e86001610e3d565b9788613297565b6135016134fc848c6132ad565b613159565b1791896132ad565b52565b60ff871660ff8916108061397b575b1561396e5761353e612db56135386135328b612bdb565b9a612052565b87613256565b9261354d611a8f610191610f19565b602061355860405190565b631513615960e21b81526001600160a01b038716600482015291829060249082905afa908115612e4257600091613950575b5061359861034a600061255f565b6001600160a01b038216141580613934575b613861575b506135be611a8f610191610f19565b9860006135ca60405190565b630e5de29360e41b81526001600160a01b03871660048201529a8b9060249082905afa998a15612e425760009a613846575b506136076000610e3d565b6136126103128c5190565b811080613831575b156138275761362c612db5828d612bec565b6001600160a01b0387166001600160a01b0382161461381d576001600160a01b0384166001600160a01b038216146137ee5761366c611a8f610191610f19565b602061367760405190565b631513615960e21b81526001600160a01b038416600482015291829060249082905afa908115612e42576000916137ff575b506136bc6001600160a01b038616611796565b146137ee576001600160a01b0381166001600160a01b038616146137ee576136e661207a82610c8e565b906137458b6137376134fc8c613731613709613703610100610e3d565b8961327e565b9161372b61372061371a6020610e3d565b8561328d565b936134ac6020610e3d565b90613297565b936132ad565b1661208f611b346000610e3d565b613757575b5050600101905b90613607565b6137608c612bdb565b9b61376a90612052565b613774908b613256565b6001600160a01b03909116905261378c610100610e3d565b6137959161327e565b61379f6020610e3d565b6137a9908261328d565b906137b46020610e3d565b6137bd9161327e565b6137c79089613297565b6137d1828c6132ad565b6137da90613159565b17906137e6908b6132ad565b52388061374a565b505050505050505050505050600190565b613817915060203d8111612e3b57612e2c8183610739565b386136a9565b5060010190613751565b509850925061350c565b5061383c6032611ea2565b60ff8b161061361a565b61385a919a3d8091833e6131518183610739565b98386135fc565b6001600160a01b0382166001600160a01b0382161461392557889061388861207a82610c8e565b6138ba8a6137376134fc6138a66138a0610100610e3d565b8661327e565b6137318d61372b61372061371a6020610e3d565b6138c6575b50506135af565b6134a16138ec92612d6b6138e66138e061391d979f612bdb565b9e612052565b8c613256565b61350961390861390261372061371a6020610e3d565b89613297565b6139156134fc848d6132ad565b17918a6132ad565b8738806138bf565b50505050505050505050600190565b506001600160a01b0385166001600160a01b03821614156135aa565b613968915060203d8111612e3b57612e2c8183610739565b3861358a565b5050505050505050600090565b506139866032611ea2565b60ff88161061351b565b6139a991925060203d8111612e3b57612e2c8183610739565b9038613473565b6139c79060203d8111612e7857612e698183610739565b61340b565b6040516373057a2360e11b8152600490fd5b50505050600090565b613159913d8091833e6131518183610739565b505050600190565b613a1a915060203d8111612e3b57612e2c8183610739565b3861331c565b505050600090565b906001600160a01b0381166001600160a01b0383161461217457613a50611a8f610191610f19565b9163544d8564906020613a6260405190565b8095613a6e8560e01b90565b82526001600160a01b038616600483015260249082905afa938415612e4257600094613dc1575b50600092613aa28461255f565b946001600160a01b0386166001600160a01b03821614908115613da6575b50613d9e579391613ad084611ea2565b613ae360206133df611a8f610191610f19565b825260049082905afa8015612e4257613b04918791613d80575b5060ff1690565b60ff82161015612fd257613b1c611a8f610191610f19565b956020613b2860405190565b8098613b348660e01b90565b82526001600160a01b038416600483015260249082905afa968715612e42578697613d60575b506001600160a01b0385166001600160a01b03881614908115613d44575b50612fd257613b8b611a8f610191610f19565b6020613b9660405190565b8092613ba28660e01b90565b82526001600160a01b038716600483015260249082905afa908115612e42578691613d26575b50613bdb6001600160a01b038816611796565b14613d1b57613c0b9385613bf3611a8f610191610f19565b63e5de293090613c0260405190565b97889260e01b90565b82526001600160a01b038a16600483015260249082905afa948515612e42578695613cff575b50613c3b86610e3d565b613c46610312875190565b811015613cea57613c5b611a8f610191610f19565b6020613c6660405190565b8092613c728860e01b90565b82526001600160a01b038916600483015260249082905afa908115612e42578891613ccc575b50613cac61179661034a612db5858b612bec565b14613cbf57613cba90612f17565b613c3b565b5050505050505050600190565b613ce4915060203d8111612e3b57612e2c8183610739565b38613c98565b50959350613cf790612bdb565b929492613ad0565b613d149195503d8088833e6131518183610739565b9338613c31565b505050505050600190565b613d3e915060203d8111612e3b57612e2c8183610739565b38613bc8565b6001600160a01b031690506001600160a01b0387161438613b78565b613d7991975060203d8111612e3b57612e2c8183610739565b9538613b5a565b613d98915060203d8111612e7857612e698183610739565b38613afd565b505050905090565b9050613dba6001600160a01b038316611796565b1438613ac0565b613dda91945060203d8111612e3b57612e2c8183610739565b9238613a95565b613ded9060ff16612532565b90039060ff8211611e6c57565b613e26916020613e0e611a8f610191610f19565b637969a71390613e1d60405190565b95869260e01b90565b825260049082905afa928315612e4257600093613ef1575b506001600160a01b0381166001600160a01b03831614613ee457613e6281836132b5565b613ed757613e6f916131b3565b9060ff811660ff83161115613e8a5750506103126003611ea2565b60ff811660ff831603613ea35750506103126002611ea2565b612532610f28613ebd92613eb76002611ea2565b90613de1565b1015613ecd576103126000611ea2565b6103126001611ea2565b5050506103126003611ea2565b5050506103126000611ea2565b613f0a91935060203d8111612e7857612e698183610739565b9138613e3e565b906103129291613f1f612a92565b90613f329291613f2d6140f4565b613f54565b906102fc6127bc565b60ff90911681526040810192916102fc91602090610ea5565b50613f839190613f648282613dfa565b6020613f74611a8f610191610f19565b637969a71390611aa360405190565b825260049082905afa938415612e4257600094614072575b50613fa66003611ea2565b60ff82160361400c5750613fba82826131b3565b92613fee613fe87f06b33cd0613dc16d2c81590f70b357d4346f0a3d451d32e0a37045bea9f8564593610c97565b93610c97565b93614004613ffb60405190565b92839283613f3b565b0390a3600090565b6140196125326000611ea2565b1161402657505050600190565b61402f82612c06565b9261405d613fe87ffdd40ddb5915d1515ca53b22469e9c07649ad19256fc8c0338edd5b9c0f7d53a93610c97565b9361406a613ffb60405190565b0390a3600190565b61408b91945060203d8111612e7857612e698183610739565b9238613f9b565b61031291906000613f11565b6103126002610e3d565b156140af57565b60405162461bcd60e51b815260206004820152601f60248201527f5265656e7472616e637947756172643a207265656e7472616e742063616c6c006044820152606490fd5b6102fc61410160fb6109df565b6127c761410c61409e565b918214156140a8565b906102fc91614122612a92565b906127aa9161412f6140f4565b6102fc919061415d7f1392683b4fe604b030f727da71b11fe86de118903712aeeae60f8bf8183bbf1b6113f6565b61423a565b916001600160a01b0360089290920291821b911b6115f2565b919061418c61031261161393610c97565b908354614162565b90815491600160401b83101561075b57826141b79160016102fc95018155611109565b9061417b565b6103126080610760565b6102fc919061422a906060906002906141f1816141eb87516001600160a01b031690565b90611be4565b61420a6001820161420460208801613159565b9061211e565b019261422361421d604083015160ff1690565b85612406565b0151151590565b90612423565b906102fc916141c7565b906000916142478361255f565b926001600160a01b0384166001600160a01b0383161461446f576001600160a01b0384166001600160a01b038416146143ef5761429e9350602061428f611a8f610191610f19565b6370a0823190611aa360405190565b82526001600160a01b038516600483015260249082905afa938415612e425781946143cb575b5061434b90614346836142d686612c06565b614341610194916142f56114a560026142ef8787610ef8565b01610f44565b806143a9575b614385575b6143386001916143238b6143126141bd565b998a01906001600160a01b03169052565b61432e8c60208a0152565b60ff166040880152565b15156060860152565b610ef8565b614230565b61291861437b613fe87f5cf9fcf007ef7e7aca0db4f01a899f36982b3f812c0108386c598ec52e53bc6a93610c97565b936104ea60405190565b6143a461439861019561215f8782614194565b61216a86610196610ef8565b614300565b506143b961219485610196610ef8565b6143c5611b3488610e3d565b146142fb565b61434b9194506143e89060203d8111611b6c57611b5d8183610739565b93906142c4565b9150916101949161440560026142ef8686610ef8565b614410575b50505050565b611c1d84846143418460026144288561442e9a610ef8565b01612423565b6144587f7b126f0c01073a9050b188dbbb3532ecdbc1dd902aaf9b8311682c3486c6f58a91610c97565b9061446260405190565b600090a23880808061440a565b60405163b9f0f17160e01b8152600490fd5b906102fc91614115565b906102fc6144da600261449c6141bd565b946144b66144a982610f19565b6001600160a01b03168752565b6144cc6144c5600183016109df565b6020880152565b6142ef61432e838301610f2e565b15156060840152565b6103129061448b565b916000926144f984610e3d565b61019593614508610312865490565b831061460e575b808210156146065750925b61452384612ba4565b9461452d85612ba4565b9161453786612ba4565b9361454187612ba4565b9561454b84610e3d565b885b8110156145fa576145f3816145ee6145dc60408e6145c08c612d6b876145ba8f8f8f61114561454d9f926145876145ab9461458d94611e71565b90611109565b612d6b856145a56145a084610194610ef8565b6144e3565b9a612bec565b8601516001600160a01b031690565b92612bec565b6145d48d613509876145ba60208601613159565b015160ff1690565b6145e6838d612bec565b9060ff169052565b612f17565b905061454b565b50949650505050929190565b90509261451a565b90506146218261461c865490565b6121cb565b9061450f565b61031260c0610760565b614639614627565b906000825260208080808080870160008152016000815201600081520160008152016000905250565b610312614631565b60005b82811061467957505050565b602090614684614662565b818401520161466d565b906102fc61469e612bb484612b97565b601f19016020840161466a565b906102fc61471e60056146bc614627565b946146cd6146c9826109df565b8752565b6146dc6144c5600183016109df565b6146f26146eb600283016109df565b6040880152565b614708614701600383016109df565b6060880152565b6113a2614717600483016109df565b6080880152565b60a0840152565b610312906146ab565b9060009161473b83610e3d565b6101979261474a610312855490565b83106147cc575b808210156147c45750935b61476e6147688661468e565b94610e3d565b855b8110156147bc576147b58161479a61479461478e6147709588611e71565b886109b0565b50614725565b6147a48289612bec565b526147af8188612bec565b50612f17565b905061476e565b509350505090565b90509361475c565b90506147da8261461c855490565b90614751565b6147fd906147ec614804565b916147f883838361499d565b614a8a565b9192909190565b610195805461481b61481582612ba4565b91612ba4565b90600061482781610e3d565b92839284955b614838610312825490565b8710156149925761485a6145a06148526111458a85611109565b610194610ef8565b9561486b6114a56060890151151590565b801561496f575b614961578498815b878110156149525761488f612db58287612bec565b6148a861179661034a8a8d01516001600160a01b031690565b146148bb576148b690612f17565b61487a565b88929a506135096148ea6148d860206148f1959d97989c01613159565b6148e56134fc858b612bec565b611e71565b9187612bec565b8660005b61490e575b505061490590612f17565b9596949061482d565b956145ee61494060208461493a614905979b612d6b876145ba8e61494a9b01516001600160a01b031690565b01613159565b6135098388612bec565b9490866148fa565b509791926148f58198929a1590565b979661490591929650612f17565b50868501516001600160a01b031661498c61179661034a8861255f565b14614872565b509590945091925050565b9291906149aa6000610e3d565b82811015614a83576001806149c76149c182610e3d565b84611e71565b905b6149de575b50506149d990612f17565b6149aa565b84811015614a7e57614a1582916149f86134fc8688612bec565b614a0b611b346103126134fc858b612bec565b10614a1b57612f17565b906149c9565b614a4a614a2b612db5838c612bec565b614a408b612d6b856145ba612db58c85612bec565b612d6b878c612bec565b6145ee614a5a6134fc8389612bec565b614a74614a6a6134fc898b612bec565b613509858b612bec565b6135098789612bec565b6149ce565b5050509050565b9192614ab99193614a99606090565b506020614aaa611a8f610191610f19565b6318160ddd90613e1d60405190565b825260049082905afa928315612e4257600093614bb7575b5080821015614baf5750925b614ae684612ba4565b94614af085612ba4565b95614afa86612ba4565b94600092614b0784610e3d565b89895b821015614ba25781614b44614b8792613509836145ba6134fc828e614b3f8e612d6b8f9d6145ba614b0a9f82612db591612bec565b612bec565b87818a614b508a610e3d565b811115614b8e57614b78614b6d6134fc614b7d946145ee96612bec565b6133b3612710610e3d565b61328d565b613509838d612bec565b9050614b07565b5050506145ee614b9d88610e3d565b614b7d565b5092989750945050505050565b905092614add565b614bd091935060203d8111611b6c57611b5d8183610739565b9138614ad1565b600411156102d757565b905051906102fc82614bd7565b906020828203126102d75761031291614be1565b9190610b8481614c19816103c09560209181520190565b8095610791565b6001600160a01b0391909116815260406020820181905261031293910191614c02565b634e487b7160e01b600052602160045260246000fd5b60041115614c6357565b614c43565b906102fc82614c59565b61031290614c68565b9291614c8b611a8f610193610f19565b93600094614c9e61179661034a8861255f565b14614da557602091614cd7614cb7611a8f610193610f19565b91614ce2635e6a229591614cca60405190565b9788968795869560e01b90565b855260048501614c20565b03915afa908115612e42578391614d77575b50614d07614d0182614c72565b93614c68565b614d1082614c68565b03614d22575061031262015180610e3d565b614d2c6001614c68565b614d3582614c68565b03614d4757506103126203f480610e3d565b614d5a614d546002614c68565b91614c68565b03614d6b5761031262093a80610e3d565b61031262127500610e3d565b614d98915060203d8111614d9e575b614d908183610739565b810190614bee565b38614cf4565b503d614d86565b604051634f6c118560e01b8152600490fd5b90929192614dc76107ad82610774565b938185526020850190828401116102d7576102fc92610b37565b9080601f830112156102d757815161031292602001614db7565b905051906102fc8261046b565b919060a0838203126102d757614e1e8184612bba565b92614e2c82602083016119ca565b92604082015167ffffffffffffffff81116102d757614e5084610312928501614de1565b93614e5e81606086016119ca565b93608001614dfb565b90614e76611a8f610193610f19565b91600092614e8961179661034a8661255f565b14614da55782614ecd91614ea1611a8f610193610f19565b614ebf634aae13ca614eb260405190565b9586948593849360e01b90565b835260048301526024820190565b03915afa8015612e4257838094819482948394614f49575b50614ef262127500610e3d565b9284159384614f2d575b50429086821015614f1d5750614f1290866121cb565b915b96959493929190565b614f279150610e3d565b91614f14565b909350614f41611b34610312429389611e71565b119238614efc565b93509450509350614f6c91503d8085833e614f648183610739565b810190614e08565b9295919438949194614ee5565b6000614f848161255f565b926001600160a01b0384166001600160a01b0384161461524757614fc1936020614fb2611a8f610191610f19565b63544d856490613c0260405190565b82526001600160a01b038716600483015260249082905afa908115612e4257615030958492615223575b506001600160a01b03165b6001600160a01b03821614159081615205575b83615018611a8f610191610f19565b63e5de29309061502760405190565b98899260e01b90565b82526001600160a01b038816600483015260249082905afa958615612e425784966151e9575b5085519061506385610e3d565b9384805b6150726103128b5190565b8710156150f7576150ac60208b61508d611a8f610191610f19565b612f756150a2612db58d6370a0823195612bec565b92614eb260405190565b03915afa8015612e42576150d1926150cb928b926150d7575b50611e71565b96612f17565b95615067565b6150f091925060203d8111611b6c57611b5d8183610739565b90386150c5565b96939760209192959950615133939650615115611a8f610191610f19565b612f756370a0823161512660405190565b9687948593849360e01b90565b03915afa918215612e4257615165926151549185916151cb575b5087611e71565b926020614aaa611a8f610191610f19565b825260049082905afa928315612e425781936151ab575b5050808211156151a25750614b78615199926133b3612710610e3d565b915b9493929190565b9150509161519b565b6151c491935060203d8111611b6c57611b5d8183610739565b913861517c565b6151e3915060203d8111611b6c57611b5d8183610739565b3861514d565b6151fe9196503d8086833e6131518183610739565b9438615056565b90506001600160a01b0384166001600160a01b038216141590615009565b614ff69192506152409060203d8111612e3b57612e2c8183610739565b9190614feb565b604051630da30f6560e31b8152600490fd5b9190615269611a8f610192610f19565b906000916152768361255f565b906152896001600160a01b038316611796565b1461533a576001600160a01b03166001600160a01b03851614615247576020906152b7611a8f610192610f19565b6152d863643aa8b36152f46152cb60405190565b9889958694859460e01b90565b845260048401526001600160a01b031660248301526044820190565b03915afa928315612e42578193615316575b5061531090610e3d565b82119190565b6153109193506153339060203d8111611b6c57611b5d8183610739565b9290615306565b604051632301a96b60e21b8152600490fd5b9160009261535c61034a8561255f565b6001600160a01b038216146154f4578361538f9161537e611a8f610191610f19565b612f7563e5de2930614eb260405190565b03915afa908115612e425784916154da575b5080516153b0611b3486610e3d565b1480156154c6575b6154c0576153c7612710610e3d565b916153d183612ba4565b946153db81610e3d565b93845b6153e9610312865190565b8110806154b7575b1561542257806145ee61540a612db561541d9489612bec565b612d6b6154168a612f17565b998c612bec565b6153de565b509391959294909460019461543686611ea2565b60ff84161190816154ad575b5061549c575b50508261545d61545783612ba4565b95610e3d565b905b61546b575b5050505090565b8181101561549757806145ee615487612db56154919487612bec565b612d6b8389612bec565b8361545f565b615464565b6154a69284615504565b3880615448565b9050831038615442565b508186106153f1565b92509050565b506154d084611ea2565b60ff8416146153b8565b6154ee91503d8086833e6131518183610739565b386153a1565b50916103129150612c9990610e3d565b939290615512612710610e3d565b9061551c82612ba4565b956155276000610e3d565b855194815b615537610312895190565b81101561555c57806145ee8b612d6b836145ba612db5615557978f612bec565b61552c565b509194979396909295506155706001611ea2565b905b60ff831660ff8316108061571f575b80615716575b1561570a5791926155a161559b828b6121cb565b92612bdb565b926155ac6000610e3d565b935b83851080615701575b156156f557946156059560006155d9612db56155d287612f17565b968b612bec565b6155e7611a8f610191610f19565b612f7563e5de29306155f860405190565b9b8c948593849360e01b90565b03915afa968715612e42576000976156da575b506156236000610e3d565b8c8c6156306103128b5190565b8310918d836156d0575b50826156c6575b5050156156b0578c615653828a612bec565b516001600160a01b031680919e61566990612f17565b9e615674908c612bec565b6001600160a01b03909116905261568a8c612f17565b9b615695908c612bec565b6001600160a01b0390911690526156ab90612f17565b615623565b50929550936156be90612f17565b9394916155ae565b1090508c8e615641565b821192508d61563a565b6156ee91973d8091833e6131518183610739565b9538615618565b91949350909150615572565b508989106155b7565b97505050505050905090565b50878710615587565b50888410615581565b906000906157358261255f565b6001600160a01b0381166001600160a01b0385161461596c576001928461575b85611ea2565b9261576f60206133df611a8f610191610f19565b825260049082905afa908115612e42578790859261594c575b5092835b615877575b5050506157a0612c9984612052565b956157b181612d6b612d6586610e3d565b6157ba82611ea2565b915b6157d1575b505050613eb76103129293611ea2565b60ff841660ff831610156158725790602061581393926157f5611a8f610191610f19565b612f7563544d856461580660405190565b9788948593849360e01b90565b03915afa908115612e42578693839261584e575b506158479061584283612d6b61583c84612052565b8c612bec565b612bdb565b91926157bc565b61584791925061586b9060203d8111612e3b57612e2c8183610739565b9190615827565b6157c1565b92949260ff821660ff851611615908576158ab9550602061589c611a8f610191610f19565b63544d85649061502760405190565b82526001600160a01b038416600483015260249082905afa908115612e42578896869261592c575b506001600160a01b0384166001600160a01b03831614908115615910575b50615908576159009093612bdb565b94928361578c565b949294615791565b6001600160a01b031690506001600160a01b03821614386158f1565b61594591925060203d8111612e3b57612e2c8183610739565b90386158d3565b61596591925060203d8111612e7857612e698183610739565b9038615788565b5090915061031261597f612c9984610e3d565b92611ea2565b90600061599461034a8261255f565b6001600160a01b03841614615ad2576159b1611a8f610191610f19565b926370a082319360206159c360405190565b80926159cf8860e01b90565b82526001600160a01b038516600483015260249082905afa908115612e4257615a0b9184918291615ab4575b509261537e611a8f610191610f19565b03915afa908115612e42578391615a9a575b50615a2783610e3d565b915b615a34610312835190565b831015615a9357615a696020615a4e611a8f610191610f19565b615a5b612db58787612bec565b90612f758a614eb260405190565b03915afa8015612e4257615a8d92615a879287926150d75750611e71565b92612f17565b91615a29565b9450505050565b615aae91503d8085833e6131518183610739565b38615a1d565b615acc915060203d8111611b6c57611b5d8183610739565b386159fb565b610312919250610e3d565b6000606091615aec6064610e3d565b90615af682612ba4565b91600090615b0382610e3d565b935b610195615b13610312825490565b861080615d6f575b15615d635761114586615b2d92611109565b90615b3784610e3d565b928392985b615b458661255f565b916001600160a01b0383166001600160a01b038c16141580615d5a575b15615d4c57855b85811015615d43578b615b85611796611909612db5858a612bec565b14615b9857615b9390612f17565b615b69565b995091999050600190818a615bae829c886121cb565b93615bb885612ba4565b918295828b905b615cf5575b50505050505b615ce757615c0c906020615bdd87612f17565b91615bed81612d6b859a8a612bec565b615bfb611a8f610191610f19565b612f7563544d856461512660405190565b03915afa918215612e42578892615cc7575b50615c30829c6001600160a01b031690565b6001600160a01b03831614918215615c87575b505015615b3c5798509250949050855b615c6657615c6090612f17565b93615b05565b5050909291505b8115615c7857509190565b610312919350612c9990610e3d565b87821192509082615c9c575b50503880615c43565b615cbf91925061034a612db5615cb9611796936122b76001610e3d565b88612bec565b143880615c93565b615ce091925060203d8111612e3b57612e2c8183610739565b9038615c1e565b509850925094905085615c53565b9091929394615d018390565b821015615d3d5750615d32816145ee615d28612db58d615d228a978a611e71565b90612bec565b612d6b838a612bec565b8f9594939291615bbf565b94615bc4565b50919989615bca565b945098505094905085615c53565b50808510615b62565b50505090929150615c6d565b508615615b1b565b906001600160a01b0381166001600160a01b038316148015615e25575b615e1657615da281836132b5565b615e0757615daf916131b3565b615dc260206133df611a8f610191610f19565b825260049082905afa908115612e4257615de89161253291600091613d80575060ff1690565b11615dfa576001906103126000611ea2565b6000906103126002611ea2565b50506000906103126001611ea2565b50506001906103126000611ea2565b50615e3361034a600061255f565b6001600160a01b03821614615d9456fea49807205ce4d355092ef5a8a18f56e8913cf4a201fbe287825b095693c21775a164736f6c6343000814000a",
  "linkReferences": {},
  "deployedLinkReferences": {}
}