{
  "_format": "hh-sol-artifact-1",
  "contractName": "JustGovernanceUpgradeable",
  "sourceName": "contracts/JustGovernanceUpgradeable.sol",
  "abi": [
    {
      "inputs": [],
      "name": "AlrdyRef",
      "type": "error"
    },
    {
      "inputs": [],
      "name": "AlrdyVt",
      "type": "error"
    },
    {
      "inputs": [],
      "name": "CallFail",
      "type": "error"
    },
    {
      "inputs": [],
      "name": "IA",
      "type": "error"
    },
    {
      "inputs": [
        {
          "internalType": "uint256",
          "name": "a",
          "type": "uint256"
        },
        {
          "internalType": "uint256",
          "name": "r",
          "type": "uint256"
        }
      ],
      "name": "InsBal",
      "type": "error"
    },
    {
      "inputs": [],
      "name": "InvCD",
      "type": "error"
    },
    {
      "inputs": [
        {
          "internalType": "uint256",
          "name": "p",
          "type": "uint256"
        },
        {
          "internalType": "uint256",
          "name": "mn",
          "type": "uint256"
        },
        {
          "internalType": "uint256",
          "name": "mx",
          "type": "uint256"
        }
      ],
      "name": "InvDur",
      "type": "error"
    },
    {
      "inputs": [],
      "name": "InvLkIdx",
      "type": "error"
    },
    {
      "inputs": [],
      "name": "InvPId",
      "type": "error"
    },
    {
      "inputs": [],
      "name": "InvPct",
      "type": "error"
    },
    {
      "inputs": [],
      "name": "InvSel",
      "type": "error"
    },
    {
      "inputs": [],
      "name": "InvVtTyp",
      "type": "error"
    },
    {
      "inputs": [],
      "name": "LastAdm",
      "type": "error"
    },
    {
      "inputs": [],
      "name": "NoTxH",
      "type": "error"
    },
    {
      "inputs": [],
      "name": "NoVldChg",
      "type": "error"
    },
    {
      "inputs": [],
      "name": "NoVtPwr",
      "type": "error"
    },
    {
      "inputs": [],
      "name": "NotAuth",
      "type": "error"
    },
    {
      "inputs": [],
      "name": "NotDef",
      "type": "error"
    },
    {
      "inputs": [],
      "name": "NotInTL",
      "type": "error"
    },
    {
      "inputs": [],
      "name": "NotProp",
      "type": "error"
    },
    {
      "inputs": [],
      "name": "NotQ",
      "type": "error"
    },
    {
      "inputs": [],
      "name": "NotSucc",
      "type": "error"
    },
    {
      "inputs": [],
      "name": "PropCncl",
      "type": "error"
    },
    {
      "inputs": [],
      "name": "PropExec",
      "type": "error"
    },
    {
      "inputs": [],
      "name": "PropNotExp",
      "type": "error"
    },
    {
      "inputs": [],
      "name": "TLExecFail",
      "type": "error"
    },
    {
      "inputs": [],
      "name": "TxFail",
      "type": "error"
    },
    {
      "inputs": [],
      "name": "VtEnd",
      "type": "error"
    },
    {
      "inputs": [],
      "name": "ZA",
      "type": "error"
    },
    {
      "anonymous": false,
      "inputs": [
        {
          "indexed": false,
          "internalType": "address",
          "name": "previousAdmin",
          "type": "address"
        },
        {
          "indexed": false,
          "internalType": "address",
          "name": "newAdmin",
          "type": "address"
        }
      ],
      "name": "AdminChanged",
      "type": "event"
    },
    {
      "anonymous": false,
      "inputs": [
        {
          "indexed": true,
          "internalType": "address",
          "name": "beacon",
          "type": "address"
        }
      ],
      "name": "BeaconUpgraded",
      "type": "event"
    },
    {
      "anonymous": false,
      "inputs": [
        {
          "indexed": true,
          "internalType": "address",
          "name": "token",
          "type": "address"
        },
        {
          "indexed": true,
          "internalType": "address",
          "name": "timelock",
          "type": "address"
        },
        {
          "indexed": true,
          "internalType": "address",
          "name": "admin",
          "type": "address"
        }
      ],
      "name": "ContractInitialized",
      "type": "event"
    },
    {
      "anonymous": false,
      "inputs": [
        {
          "indexed": true,
          "internalType": "address",
          "name": "pauser",
          "type": "address"
        }
      ],
      "name": "ContractPaused",
      "type": "event"
    },
    {
      "anonymous": false,
      "inputs": [
        {
          "indexed": true,
          "internalType": "address",
          "name": "unpauser",
          "type": "address"
        }
      ],
      "name": "ContractUnpaused",
      "type": "event"
    },
    {
      "anonymous": false,
      "inputs": [
        {
          "indexed": false,
          "internalType": "uint8",
          "name": "pType",
          "type": "uint8"
        },
        {
          "indexed": false,
          "internalType": "uint256",
          "name": "oldVal",
          "type": "uint256"
        },
        {
          "indexed": false,
          "internalType": "uint256",
          "name": "newVal",
          "type": "uint256"
        }
      ],
      "name": "GovParamChange",
      "type": "event"
    },
    {
      "anonymous": false,
      "inputs": [
        {
          "indexed": false,
          "internalType": "uint8",
          "name": "version",
          "type": "uint8"
        }
      ],
      "name": "Initialized",
      "type": "event"
    },
    {
      "anonymous": false,
      "inputs": [
        {
          "indexed": false,
          "internalType": "address",
          "name": "account",
          "type": "address"
        }
      ],
      "name": "Paused",
      "type": "event"
    },
    {
      "anonymous": false,
      "inputs": [
        {
          "indexed": true,
          "internalType": "uint256",
          "name": "proposalId",
          "type": "uint256"
        },
        {
          "indexed": true,
          "internalType": "uint8",
          "name": "eventType",
          "type": "uint8"
        },
        {
          "indexed": true,
          "internalType": "address",
          "name": "actor",
          "type": "address"
        },
        {
          "indexed": false,
          "internalType": "bytes",
          "name": "data",
          "type": "bytes"
        }
      ],
      "name": "ProposalEvent",
      "type": "event"
    },
    {
      "anonymous": false,
      "inputs": [
        {
          "indexed": true,
          "internalType": "bytes32",
          "name": "role",
          "type": "bytes32"
        },
        {
          "indexed": true,
          "internalType": "bytes32",
          "name": "previousAdminRole",
          "type": "bytes32"
        },
        {
          "indexed": true,
          "internalType": "bytes32",
          "name": "newAdminRole",
          "type": "bytes32"
        }
      ],
      "name": "RoleAdminChanged",
      "type": "event"
    },
    {
      "anonymous": false,
      "inputs": [
        {
          "indexed": true,
          "internalType": "bytes32",
          "name": "role",
          "type": "bytes32"
        },
        {
          "indexed": true,
          "internalType": "address",
          "name": "account",
          "type": "address"
        },
        {
          "indexed": false,
          "internalType": "bool",
          "name": "isGranted",
          "type": "bool"
        }
      ],
      "name": "RoleChange",
      "type": "event"
    },
    {
      "anonymous": false,
      "inputs": [
        {
          "indexed": true,
          "internalType": "bytes32",
          "name": "role",
          "type": "bytes32"
        },
        {
          "indexed": true,
          "internalType": "address",
          "name": "account",
          "type": "address"
        },
        {
          "indexed": true,
          "internalType": "address",
          "name": "sender",
          "type": "address"
        }
      ],
      "name": "RoleGranted",
      "type": "event"
    },
    {
      "anonymous": false,
      "inputs": [
        {
          "indexed": true,
          "internalType": "bytes32",
          "name": "role",
          "type": "bytes32"
        },
        {
          "indexed": true,
          "internalType": "address",
          "name": "account",
          "type": "address"
        },
        {
          "indexed": true,
          "internalType": "address",
          "name": "sender",
          "type": "address"
        }
      ],
      "name": "RoleRevoked",
      "type": "event"
    },
    {
      "anonymous": false,
      "inputs": [
        {
          "indexed": false,
          "internalType": "bytes4",
          "name": "selector",
          "type": "bytes4"
        },
        {
          "indexed": false,
          "internalType": "bool",
          "name": "selectorAllowed",
          "type": "bool"
        },
        {
          "indexed": false,
          "internalType": "address",
          "name": "target",
          "type": "address"
        },
        {
          "indexed": false,
          "internalType": "bool",
          "name": "targetAllowed",
          "type": "bool"
        }
      ],
      "name": "SecuritySettingUpdated",
      "type": "event"
    },
    {
      "anonymous": false,
      "inputs": [
        {
          "indexed": true,
          "internalType": "uint256",
          "name": "proposalId",
          "type": "uint256"
        },
        {
          "indexed": true,
          "internalType": "bytes32",
          "name": "txHash",
          "type": "bytes32"
        }
      ],
      "name": "TimelockTransactionSubmitted",
      "type": "event"
    },
    {
      "anonymous": false,
      "inputs": [
        {
          "indexed": false,
          "internalType": "address",
          "name": "account",
          "type": "address"
        }
      ],
      "name": "Unpaused",
      "type": "event"
    },
    {
      "anonymous": false,
      "inputs": [
        {
          "indexed": true,
          "internalType": "address",
          "name": "implementation",
          "type": "address"
        }
      ],
      "name": "Upgraded",
      "type": "event"
    },
    {
      "anonymous": false,
      "inputs": [
        {
          "indexed": true,
          "internalType": "uint256",
          "name": "proposalId",
          "type": "uint256"
        },
        {
          "indexed": true,
          "internalType": "address",
          "name": "voter",
          "type": "address"
        },
        {
          "indexed": false,
          "internalType": "uint8",
          "name": "support",
          "type": "uint8"
        },
        {
          "indexed": false,
          "internalType": "uint256",
          "name": "votingPower",
          "type": "uint256"
        }
      ],
      "name": "VoteCast",
      "type": "event"
    },
    {
      "inputs": [],
      "name": "ADMIN_ROLE",
      "outputs": [
        {
          "internalType": "bytes32",
          "name": "",
          "type": "bytes32"
        }
      ],
      "stateMutability": "view",
      "type": "function"
    },
    {
      "inputs": [],
      "name": "DEFAULT_ADMIN_ROLE",
      "outputs": [
        {
          "internalType": "bytes32",
          "name": "",
          "type": "bytes32"
        }
      ],
      "stateMutability": "view",
      "type": "function"
    },
    {
      "inputs": [],
      "name": "GUARDIAN_ROLE",
      "outputs": [
        {
          "internalType": "bytes32",
          "name": "",
          "type": "bytes32"
        }
      ],
      "stateMutability": "view",
      "type": "function"
    },
    {
      "inputs": [
        {
          "internalType": "bytes4",
          "name": "",
          "type": "bytes4"
        }
      ],
      "name": "allowedFunctionSelectors",
      "outputs": [
        {
          "internalType": "bool",
          "name": "",
          "type": "bool"
        }
      ],
      "stateMutability": "view",
      "type": "function"
    },
    {
      "inputs": [
        {
          "internalType": "address",
          "name": "",
          "type": "address"
        }
      ],
      "name": "allowedTargets",
      "outputs": [
        {
          "internalType": "bool",
          "name": "",
          "type": "bool"
        }
      ],
      "stateMutability": "view",
      "type": "function"
    },
    {
      "inputs": [
        {
          "internalType": "uint256",
          "name": "proposalId",
          "type": "uint256"
        }
      ],
      "name": "cancelProposal",
      "outputs": [],
      "stateMutability": "nonpayable",
      "type": "function"
    },
    {
      "inputs": [
        {
          "internalType": "uint256",
          "name": "proposalId",
          "type": "uint256"
        },
        {
          "internalType": "uint8",
          "name": "support",
          "type": "uint8"
        }
      ],
      "name": "castVote",
      "outputs": [
        {
          "internalType": "uint256",
          "name": "",
          "type": "uint256"
        }
      ],
      "stateMutability": "nonpayable",
      "type": "function"
    },
    {
      "inputs": [
        {
          "internalType": "uint256",
          "name": "proposalId",
          "type": "uint256"
        }
      ],
      "name": "claimPartialStakeRefund",
      "outputs": [],
      "stateMutability": "nonpayable",
      "type": "function"
    },
    {
      "inputs": [
        {
          "internalType": "string",
          "name": "description",
          "type": "string"
        },
        {
          "internalType": "enum JustGovernanceUpgradeable.ProposalType",
          "name": "proposalType",
          "type": "uint8"
        },
        {
          "internalType": "address",
          "name": "target",
          "type": "address"
        },
        {
          "internalType": "bytes",
          "name": "callData",
          "type": "bytes"
        },
        {
          "internalType": "uint256",
          "name": "amount",
          "type": "uint256"
        },
        {
          "internalType": "address payable",
          "name": "recipient",
          "type": "address"
        },
        {
          "internalType": "address",
          "name": "externalToken",
          "type": "address"
        },
        {
          "internalType": "uint256",
          "name": "newThreshold",
          "type": "uint256"
        },
        {
          "internalType": "uint256",
          "name": "newQuorum",
          "type": "uint256"
        },
        {
          "internalType": "uint256",
          "name": "newVotingDuration",
          "type": "uint256"
        },
        {
          "internalType": "uint256",
          "name": "newTimelockDelay",
          "type": "uint256"
        }
      ],
      "name": "createProposal",
      "outputs": [
        {
          "internalType": "uint256",
          "name": "",
          "type": "uint256"
        }
      ],
      "stateMutability": "nonpayable",
      "type": "function"
    },
    {
      "inputs": [
        {
          "internalType": "string",
          "name": "description",
          "type": "string"
        }
      ],
      "name": "createSignalingProposal",
      "outputs": [
        {
          "internalType": "uint256",
          "name": "",
          "type": "uint256"
        }
      ],
      "stateMutability": "nonpayable",
      "type": "function"
    },
    {
      "inputs": [
        {
          "internalType": "uint256",
          "name": "proposalId",
          "type": "uint256"
        }
      ],
      "name": "executeProposal",
      "outputs": [],
      "stateMutability": "nonpayable",
      "type": "function"
    },
    {
      "inputs": [
        {
          "internalType": "uint256",
          "name": "proposalId",
          "type": "uint256"
        },
        {
          "internalType": "enum JustGovernanceUpgradeable.ProposalType",
          "name": "proposalType",
          "type": "uint8"
        },
        {
          "internalType": "address",
          "name": "proposalTarget",
          "type": "address"
        }
      ],
      "name": "executeProposalLogic",
      "outputs": [],
      "stateMutability": "nonpayable",
      "type": "function"
    },
    {
      "inputs": [
        {
          "internalType": "uint256",
          "name": "proposalId",
          "type": "uint256"
        }
      ],
      "name": "getProposalState",
      "outputs": [
        {
          "internalType": "enum JustGovernanceUpgradeable.ProposalState",
          "name": "",
          "type": "uint8"
        }
      ],
      "stateMutability": "view",
      "type": "function"
    },
    {
      "inputs": [
        {
          "internalType": "uint256",
          "name": "proposalId",
          "type": "uint256"
        }
      ],
      "name": "getProposalVoteTotals",
      "outputs": [
        {
          "internalType": "uint256",
          "name": "forVotes",
          "type": "uint256"
        },
        {
          "internalType": "uint256",
          "name": "againstVotes",
          "type": "uint256"
        },
        {
          "internalType": "uint256",
          "name": "abstainVotes",
          "type": "uint256"
        },
        {
          "internalType": "uint256",
          "name": "totalVotingPower",
          "type": "uint256"
        },
        {
          "internalType": "uint256",
          "name": "voterCount",
          "type": "uint256"
        }
      ],
      "stateMutability": "view",
      "type": "function"
    },
    {
      "inputs": [
        {
          "internalType": "uint256",
          "name": "proposalId",
          "type": "uint256"
        }
      ],
      "name": "getProposalVotes",
      "outputs": [
        {
          "internalType": "uint256",
          "name": "yesVotes",
          "type": "uint256"
        },
        {
          "internalType": "uint256",
          "name": "noVotes",
          "type": "uint256"
        },
        {
          "internalType": "uint256",
          "name": "abstainVotes",
          "type": "uint256"
        },
        {
          "internalType": "uint256",
          "name": "totalVotingPower",
          "type": "uint256"
        },
        {
          "internalType": "uint256",
          "name": "totalVoters",
          "type": "uint256"
        }
      ],
      "stateMutability": "view",
      "type": "function"
    },
    {
      "inputs": [
        {
          "internalType": "bytes32",
          "name": "role",
          "type": "bytes32"
        }
      ],
      "name": "getRoleAdmin",
      "outputs": [
        {
          "internalType": "bytes32",
          "name": "",
          "type": "bytes32"
        }
      ],
      "stateMutability": "view",
      "type": "function"
    },
    {
      "inputs": [
        {
          "internalType": "bytes32",
          "name": "role",
          "type": "bytes32"
        },
        {
          "internalType": "uint256",
          "name": "index",
          "type": "uint256"
        }
      ],
      "name": "getRoleMember",
      "outputs": [
        {
          "internalType": "address",
          "name": "",
          "type": "address"
        }
      ],
      "stateMutability": "view",
      "type": "function"
    },
    {
      "inputs": [
        {
          "internalType": "bytes32",
          "name": "role",
          "type": "bytes32"
        }
      ],
      "name": "getRoleMemberCount",
      "outputs": [
        {
          "internalType": "uint256",
          "name": "",
          "type": "uint256"
        }
      ],
      "stateMutability": "view",
      "type": "function"
    },
    {
      "inputs": [],
      "name": "govParams",
      "outputs": [
        {
          "internalType": "uint256",
          "name": "votingDuration",
          "type": "uint256"
        },
        {
          "internalType": "uint256",
          "name": "quorum",
          "type": "uint256"
        },
        {
          "internalType": "uint256",
          "name": "timelockDelay",
          "type": "uint256"
        },
        {
          "internalType": "uint256",
          "name": "proposalCreationThreshold",
          "type": "uint256"
        },
        {
          "internalType": "uint256",
          "name": "proposalStake",
          "type": "uint256"
        },
        {
          "internalType": "uint256",
          "name": "defeatedRefundPercentage",
          "type": "uint256"
        },
        {
          "internalType": "uint256",
          "name": "canceledRefundPercentage",
          "type": "uint256"
        },
        {
          "internalType": "uint256",
          "name": "expiredRefundPercentage",
          "type": "uint256"
        }
      ],
      "stateMutability": "view",
      "type": "function"
    },
    {
      "inputs": [
        {
          "internalType": "bytes32",
          "name": "role",
          "type": "bytes32"
        },
        {
          "internalType": "address",
          "name": "account",
          "type": "address"
        }
      ],
      "name": "grantContractRole",
      "outputs": [],
      "stateMutability": "nonpayable",
      "type": "function"
    },
    {
      "inputs": [
        {
          "internalType": "bytes32",
          "name": "role",
          "type": "bytes32"
        },
        {
          "internalType": "address",
          "name": "account",
          "type": "address"
        }
      ],
      "name": "grantRole",
      "outputs": [],
      "stateMutability": "nonpayable",
      "type": "function"
    },
    {
      "inputs": [
        {
          "internalType": "bytes32",
          "name": "role",
          "type": "bytes32"
        },
        {
          "internalType": "address",
          "name": "account",
          "type": "address"
        }
      ],
      "name": "hasRole",
      "outputs": [
        {
          "internalType": "bool",
          "name": "",
          "type": "bool"
        }
      ],
      "stateMutability": "view",
      "type": "function"
    },
    {
      "inputs": [
        {
          "internalType": "string",
          "name": "name",
          "type": "string"
        },
        {
          "internalType": "address",
          "name": "tokenAddress",
          "type": "address"
        },
        {
          "internalType": "address",
          "name": "timelockAddress",
          "type": "address"
        },
        {
          "internalType": "address",
          "name": "admin",
          "type": "address"
        },
        {
          "internalType": "uint256",
          "name": "proposalThreshold",
          "type": "uint256"
        },
        {
          "internalType": "uint256",
          "name": "votingDelay",
          "type": "uint256"
        },
        {
          "internalType": "uint256",
          "name": "votingPeriod",
          "type": "uint256"
        },
        {
          "internalType": "uint256",
          "name": "quorumNumerator",
          "type": "uint256"
        },
        {
          "internalType": "uint256",
          "name": "successfulRefund",
          "type": "uint256"
        },
        {
          "internalType": "uint256",
          "name": "cancelledRefund",
          "type": "uint256"
        },
        {
          "internalType": "uint256",
          "name": "defeatedRefund",
          "type": "uint256"
        },
        {
          "internalType": "uint256",
          "name": "expiredRefund",
          "type": "uint256"
        }
      ],
      "name": "initialize",
      "outputs": [],
      "stateMutability": "nonpayable",
      "type": "function"
    },
    {
      "inputs": [],
      "name": "justToken",
      "outputs": [
        {
          "internalType": "contract JustTokenUpgradeable",
          "name": "",
          "type": "address"
        }
      ],
      "stateMutability": "view",
      "type": "function"
    },
    {
      "inputs": [],
      "name": "maxVotingDuration",
      "outputs": [
        {
          "internalType": "uint256",
          "name": "",
          "type": "uint256"
        }
      ],
      "stateMutability": "view",
      "type": "function"
    },
    {
      "inputs": [],
      "name": "minVotingDuration",
      "outputs": [
        {
          "internalType": "uint256",
          "name": "",
          "type": "uint256"
        }
      ],
      "stateMutability": "view",
      "type": "function"
    },
    {
      "inputs": [],
      "name": "pause",
      "outputs": [],
      "stateMutability": "nonpayable",
      "type": "function"
    },
    {
      "inputs": [],
      "name": "paused",
      "outputs": [
        {
          "internalType": "bool",
          "name": "",
          "type": "bool"
        }
      ],
      "stateMutability": "view",
      "type": "function"
    },
    {
      "inputs": [
        {
          "internalType": "uint256",
          "name": "",
          "type": "uint256"
        },
        {
          "internalType": "address",
          "name": "",
          "type": "address"
        }
      ],
      "name": "proposalVoterInfo",
      "outputs": [
        {
          "internalType": "uint256",
          "name": "",
          "type": "uint256"
        }
      ],
      "stateMutability": "view",
      "type": "function"
    },
    {
      "inputs": [],
      "name": "proxiableUUID",
      "outputs": [
        {
          "internalType": "bytes32",
          "name": "",
          "type": "bytes32"
        }
      ],
      "stateMutability": "view",
      "type": "function"
    },
    {
      "inputs": [
        {
          "internalType": "uint256",
          "name": "proposalId",
          "type": "uint256"
        }
      ],
      "name": "queueProposal",
      "outputs": [],
      "stateMutability": "nonpayable",
      "type": "function"
    },
    {
      "inputs": [
        {
          "internalType": "bytes32",
          "name": "role",
          "type": "bytes32"
        },
        {
          "internalType": "address",
          "name": "account",
          "type": "address"
        }
      ],
      "name": "renounceRole",
      "outputs": [],
      "stateMutability": "nonpayable",
      "type": "function"
    },
    {
      "inputs": [
        {
          "internalType": "bytes32",
          "name": "role",
          "type": "bytes32"
        },
        {
          "internalType": "address",
          "name": "account",
          "type": "address"
        }
      ],
      "name": "revokeContractRole",
      "outputs": [],
      "stateMutability": "nonpayable",
      "type": "function"
    },
    {
      "inputs": [
        {
          "internalType": "bytes32",
          "name": "role",
          "type": "bytes32"
        },
        {
          "internalType": "address",
          "name": "account",
          "type": "address"
        }
      ],
      "name": "revokeRole",
      "outputs": [],
      "stateMutability": "nonpayable",
      "type": "function"
    },
    {
      "inputs": [
        {
          "internalType": "bytes4",
          "name": "interfaceId",
          "type": "bytes4"
        }
      ],
      "name": "supportsInterface",
      "outputs": [
        {
          "internalType": "bool",
          "name": "",
          "type": "bool"
        }
      ],
      "stateMutability": "view",
      "type": "function"
    },
    {
      "inputs": [],
      "name": "timelock",
      "outputs": [
        {
          "internalType": "contract JustTimelockUpgradeable",
          "name": "",
          "type": "address"
        }
      ],
      "stateMutability": "view",
      "type": "function"
    },
    {
      "inputs": [],
      "name": "unpause",
      "outputs": [],
      "stateMutability": "nonpayable",
      "type": "function"
    },
    {
      "inputs": [
        {
          "internalType": "uint8",
          "name": "paramType",
          "type": "uint8"
        },
        {
          "internalType": "uint256",
          "name": "newValue",
          "type": "uint256"
        }
      ],
      "name": "updateGovParam",
      "outputs": [],
      "stateMutability": "nonpayable",
      "type": "function"
    },
    {
      "inputs": [
        {
          "internalType": "address",
          "name": "guardian",
          "type": "address"
        },
        {
          "internalType": "bool",
          "name": "isAdding",
          "type": "bool"
        }
      ],
      "name": "updateGuardian",
      "outputs": [],
      "stateMutability": "nonpayable",
      "type": "function"
    },
    {
      "inputs": [
        {
          "internalType": "bytes4",
          "name": "selector",
          "type": "bytes4"
        },
        {
          "internalType": "bool",
          "name": "selectorAllowed",
          "type": "bool"
        },
        {
          "internalType": "address",
          "name": "target",
          "type": "address"
        },
        {
          "internalType": "bool",
          "name": "targetAllowed",
          "type": "bool"
        }
      ],
      "name": "updateSecurity",
      "outputs": [],
      "stateMutability": "nonpayable",
      "type": "function"
    },
    {
      "inputs": [
        {
          "internalType": "address",
          "name": "newImplementation",
          "type": "address"
        }
      ],
      "name": "upgradeTo",
      "outputs": [],
      "stateMutability": "nonpayable",
      "type": "function"
    },
    {
      "inputs": [
        {
          "internalType": "address",
          "name": "newImplementation",
          "type": "address"
        },
        {
          "internalType": "bytes",
          "name": "data",
          "type": "bytes"
        }
      ],
      "name": "upgradeToAndCall",
      "outputs": [],
      "stateMutability": "payable",
      "type": "function"
    },
    {
      "stateMutability": "payable",
      "type": "receive"
    }
  ],
  "bytecode": "0x60a0604052346200003657620000146200003b565b604051615d90620000938239608051818181611450015261159c0152615d9090f35b600080fd5b6200004562000082565b565b6200005d9062000060906001600160a01b031682565b90565b6001600160a01b031690565b6200005d9062000047565b6200005d906200006c565b6200008d3062000077565b60805256fe60806040526004361015610023575b361561001957600080fd5b610021615d1b565b005b60003560e01c806301ffc9a7146102be57806309729350146102b95780630d61b519146102b45780631b9ad0e4146102af578063248a9ca3146102aa57806324ea54f4146102a55780632f2ff15d146102a0578063338a035a1461029b57806336568abe146102965780633659cfe6146102915780633f4ba83a1461028c57806347c66140146102195780634f1ef2861461028757806352d1902d146102825780635612a6f01461027d57806356781388146102785780635714936c146102735780635c975abb1461026e578063643aa8b3146102695780636df7bab3146102645780636e5ce0501461025f57806370d26de51461025a57806375b238fc146102555780638456cb591461025057806388f4950f1461024b5780639010d07c146102465780639080936f1461024157806391d148541461023c57806394a14a34146102375780639d49257c14610232578063a217fddf1461022d578063b860f7f314610228578063b8fe8d5f14610223578063ca15c8731461021e578063cc39548c14610219578063d33219b414610214578063d547741f1461020f578063d7b4e9781461020a578063dbd6250614610205578063e0a8f6f514610200578063f21c00ba146101fb5763fa0af14c0361000e57610f1f565b610ed6565b610ebe565b610ea3565b610e7a565b610e38565b610e11565b6105b4565b610db8565b610d9d565b610d1f565b610c8c565b610c5f565b610c3a565b610c1e565b610bf7565b610b6f565b610b3c565b610b01565b610ada565b610ac1565b610a96565b610969565b610940565b6108a8565b61088c565b61081f565b6107d4565b6106f4565b6106e0565b61055f565b610547565b61051a565b6104ff565b61048d565b61041b565b6103e5565b6103cc565b61037b565b61035e565b610305565b6001600160e01b031981165b036102d657565b600080fd5b905035906102e8826102c3565b565b906020828203126102d6576102fe916102db565b90565b9052565b346102d65761033361032061031b3660046102ea565b610f38565b6040515b91829182901515815260200190565b0390f35b806102cf565b905035906102e882610337565b906020828203126102d6576102fe9161033d565b346102d65761037661037136600461034a565b615d0a565b604051005b346102d65761037661038e36600461034a565b614fc2565b60ff81166102cf565b905035906102e882610393565b91906040838203126102d6576102fe906103c3818561039c565b9360200161033d565b346102d6576103766103df3660046103a9565b90612e3f565b346102d6576103336104006103fb36600461034a565b611013565b6040519182918290815260200190565b60009103126102d657565b346102d65761042b366004610410565b610333600080516020615d64833981519152610400565b6001600160a01b031690565b6001600160a01b0381166102cf565b905035906102e88261044e565b91906040838203126102d6576102fe90610484818561033d565b9360200161045d565b346102d6576103766104a036600461046a565b9061104a565b6001600160e01b03191690565b906001600160e01b0319165b600052602052604060002090565b6102fe916008021c5b60ff1690565b906102fe91546104cd565b6102fe906104fa6101a1916000926104b3565b6104dc565b346102d6576103336103206105153660046102ea565b6104e7565b346102d65761037661052d36600461046a565b906112a0565b906020828203126102d6576102fe9161045d565b346102d65761037661055a366004610533565b61165d565b346102d65761056f366004610410565b610376612794565b909594926102e8946105a96105b0926105a260809661059b60a088019c6000890152565b6020870152565b6040850152565b6060830152565b0152565b346102d6576103336105cf6105ca36600461034a565b614aa0565b916105dc95939560405190565b95869586610577565b634e487b7160e01b600052604160045260246000fd5b90601f01601f191681019081106001600160401b0382111761061c57604052565b6105e5565b906102e861062e60405190565b92836105fb565b6001600160401b03811161061c57602090601f01601f19160190565b0190565b90826000939282370152565b9092919261067661067182610635565b610621565b938185526020850190828401116102d6576102e892610655565b9080601f830112156102d6578160206102fe93359101610661565b9190916040818403126102d6576106c2838261045d565b9260208201356001600160401b0381116102d6576102fe9201610690565b6103766106ee3660046106ab565b906119b6565b346102d657610704366004610410565b6103336104006114bb565b9091610180828403126102d65781356001600160401b0381116102d65783610738918401610690565b92610746816020850161045d565b92610754826040830161045d565b92610762836060840161045d565b92610770816080850161033d565b9261077e8260a0830161033d565b9261078c8360c0840161033d565b9261079a8160e0850161033d565b926107a982610100830161033d565b926102fe6107bb84610120850161033d565b936107ca81610140860161033d565b936101600161033d565b346102d6576103766107e736600461070f565b9a9990999891989792979693969594956124f3565b91906040838203126102d6576102fe90610816818561033d565b9360200161039c565b346102d6576103336104006108353660046107fc565b90614a94565b8015156102cf565b905035906102e88261083b565b6080818303126102d65761086482826102db565b926102fe6108758460208501610843565b93610883816040860161045d565b93606001610843565b346102d65761037661089f366004610850565b92919091612c73565b346102d6576108b8366004610410565b6103336103206119c0565b6102fe6102fe6102fe9290565b906104bf906108c3565b6102fe90610442906001600160a01b031682565b6102fe906108da565b6102fe906108ee565b906104bf906108f7565b6102fe916008021c81565b906102fe915461090a565b61093b6102fe92610936610194936000946108d0565b610900565b610915565b346102d65761033361040061095636600461046a565b90610920565b6102fe600061019f610915565b346102d657610979366004610410565b61033361040061095c565b909182601f830112156102d6578135916001600160401b0383116102d65760200192600183028401116102d657565b600811156102d657565b905035906102e8826109b3565b9190610160838203126102d65782356001600160401b0381116102d657816109f3918501610984565b929093610a0383602083016109bd565b92610a11816040840161045d565b9260608301356001600160401b0381116102d65782610a31918501610984565b929093610a41826080830161033d565b92610a4f8360a0840161045d565b92610a5d8160c0850161045d565b92610a6b8260e0830161033d565b926102fe610a7d84610100850161033d565b93610a8c81610120860161033d565b936101400161033d565b346102d657610333610400610aac3660046109ca565b9b9a909a999199989298979397969496613fdd565b346102d657610376610ad436600461046a565b90612a84565b346102d657610aea366004610410565b610333600080516020615d44833981519152610400565b346102d657610b11366004610410565b61037661263f565b91906040838203126102d6576102fe90610b33818561045d565b93602001610843565b346102d657610376610b4f366004610b19565b90612b49565b91906040838203126102d6576102fe906103c3818561033d565b346102d657610333610b8b610b85366004610b55565b90610f67565b6040515b918291826001600160a01b03909116815260200190565b634e487b7160e01b600052602160045260246000fd5b60071115610bc657565b610ba6565b906102e882610bbc565b6102fe90610bcb565b61030190610bd5565b6020810192916102e89190610bde565b346102d657610333610c12610c0d36600461034a565b61310d565b60405191829182610be7565b346102d657610333610320610c3436600461046a565b90610feb565b346102d657610376610c4d36600461034a565b614dc3565b6102fe60006101a0610915565b346102d657610c6f366004610410565b610333610400610c52565b6102fe60006108c3565b6102fe610c7a565b346102d657610c9c366004610410565b610333610400610c84565b6102fe9081565b6102fe9054610ca7565b61019790610cc582610cae565b91610cd260018201610cae565b91610cdf60028301610cae565b91610cec60038201610cae565b91610cf960048301610cae565b91610d0660058201610cae565b916102fe6007610d1860068501610cae565b9301610cae565b346102d657610d2f366004610410565b610333610d3a610cb8565b94610d4d98969894919493929360405190565b98899889908152610100810198979690959094909390929091602087015260408601526060850152608084015260a083015260c082015260e00152565b6102fe906104fa6101a291600092610900565b346102d657610333610320610db3366004610533565b610d8a565b346102d657610333610400610dce36600461034a565b610f87565b6102fe916008021c610442565b906102fe9154610dd3565b6102fe6000610192610de0565b610301906108f7565b6020810192916102e89190610df8565b346102d657610e21366004610410565b610333610e2c610deb565b60405191829182610e01565b346102d657610376610e4b36600461046a565b90611218565b906020828203126102d65781356001600160401b0381116102d657610e769201610984565b9091565b346102d657610333610400610e90366004610e51565b9061445f565b6102fe6000610191610de0565b346102d657610eb3366004610410565b610333610e2c610e96565b346102d657610376610ed136600461034a565b614712565b346102d657610376610ee936600461046a565b906129d2565b90916060828403126102d6576102fe610f08848461033d565b93610f1681602086016109bd565b9360400161045d565b346102d657610376610f32366004610eef565b916153b2565b635a05180f60e01b6001600160e01b0319821614908115610f57575090565b6102fe9150610f9e565b906104bf565b90610f826102fe6102fe93610f7a600090565b506097610f61565b61205d565b610f996102fe6102fe92610f7a600090565b612026565b637965db0b60e01b6001600160e01b0319821614908115610fbd575090565b6102fe91506001600160e01b0319166301ffc9a760e01b1490565b6102fe906104d6565b6102fe9054610fd8565b6102fe91600061100861100e93611000600090565b506065610f61565b01610900565b610fe1565b60016110246102fe92611000600090565b01610cae565b906102e89161104061103b82611013565b611078565b906102e891611054565b906102e89161102a565b906110706102fe6110759361106984826112f0565b6097610f61565b611d98565b50565b6102e8903390611170565b6102fe906108c3565b60005b83811061109f5750506000910152565b818101518382015260200161108f565b6106516110c7926020926110c1815190565b94859290565b9384910161108c565b61110e6102fe9392611108611108937f416363657373436f6e74726f6c3a206163636f756e7420000000000000000000815260170190565b906110af565b7001034b99036b4b9b9b4b733903937b6329607d1b815260110190565b61114c61115560209361065193611140815190565b80835293849260200190565b9586910161108c565b601f01601f191690565b60208082526102fe9291019061112b565b9061118261117e8284610feb565b1590565b61118a575050565b6111f9916102fe6111a66111a06111e094611d6b565b92611083565b6111bb6020916111b5836108c3565b90611c21565b926111d46111c860405190565b948593840192836110d0565b908103825203826105fb565b6040515b62461bcd60e51b81529182916004830161115f565b0390fd5b906102e89161120e61103b82611013565b906102e891611222565b906102e8916111fd565b906112376102fe611075936110698482611369565b611ed3565b1561124357565b60405162461bcd60e51b815260206004820152602f60248201527f416363657373436f6e74726f6c3a2063616e206f6e6c792072656e6f756e636560448201526e103937b632b9903337b91039b2b63360891b6064820152608490fd5b6102e891906112c16112b133610442565b6001600160a01b0384161461123c565b611222565b9060ff905b9181191691161790565b906112e56102fe6112ec92151590565b82546112c6565b9055565b906112fe61117e8284610feb565b611306575050565b611321600161131c836000611008876065610f61565b6112d5565b33906113576113516113517f2f8788117e7eff1d82e926ec794901d17c78024a50270940304540a733656f0d9590565b926108f7565b9261136160405190565b80805b0390a4565b906113748183610feb565b61137c575050565b611391600061131c8382611008876065610f61565b33906113576113516113517ff6391f5c32d9c69d2a47ea670b442974b53935d1edc7fd64eb21e047a839171b9590565b156113c857565b60405162461bcd60e51b815260206004820152603860248201527f555550535570677261646561626c653a206d757374206e6f742062652063616c60448201527f6c6564207468726f7567682064656c656761746563616c6c00000000000000006064820152608490fd5b6102fe90611484611443306108f7565b61147e6001600160a01b037f0000000000000000000000000000000000000000000000000000000000000000165b916001600160a01b031690565b146113c1565b6114b2565b6102fe7f360894a13ba1a3210667c828492db98dca3e2076cc3735a920a3ca505d382bbc6108c3565b506102fe611489565b6102fe6000611433565b156114cc57565b60405162461bcd60e51b815260206004820152602c60248201527f46756e6374696f6e206d7573742062652063616c6c6564207468726f7567682060448201526b19195b1959d85d1958d85b1b60a21b6064820152608490fd5b1561152d57565b60405162461bcd60e51b815260206004820152602c60248201527f46756e6374696f6e206d7573742062652063616c6c6564207468726f7567682060448201526b6163746976652070726f787960a01b6064820152608490fd5b6102e8906115f7611597306108f7565b6115d67f0000000000000000000000000000000000000000000000000000000000000000916115cf611471846001600160a01b031690565b14156114c5565b6115f16114716115e4611679565b926001600160a01b031690565b14611526565b611636565b9061160961067183610635565b918252565b369037565b906102e8611629611623846115fc565b93610635565b601f19016020840161160e565b6102e89061164381612636565b600090611657611652836108c3565b611613565b90611743565b6102e890611587565b6102fe90610442565b6102fe9054611666565b6102fe60006116896102fe611489565b0161166f565b6102fe7f4910fdfa16fed3260ed0e7147f7cc6da11a60208b5b9406d12a635614ffd91436108c3565b905051906102e882610337565b906020828203126102d6576102fe916116b8565b6040513d6000823e3d90fd5b156116ec57565b60405162461bcd60e51b815260206004820152602960248201527f45524331393637557067726164653a20756e737570706f727465642070726f786044820152681a58589b195555525160ba1b6064820152608490fd5b919061175b60006117556102fe61168f565b01610fe1565b1561176b5750506102e8906118e9565b82602061178261177d61179a966108f7565b6108f7565b6352d1902d9061179160405190565b96879260e01b90565b825260049082905afa60009481611831575b5061180d5760405162461bcd60e51b815260206004820152602e60248201527f45524331393637557067726164653a206e657720696d706c656d656e7461746960448201526d6f6e206973206e6f74205555505360901b6064820152608490fd5b61182c6102e8946118266118226102fe611489565b9190565b146116e5565b611911565b61185391955060203d811161185a575b61184b81836105fb565b8101906116c5565b93386117ac565b503d611841565b1561186857565b60405162461bcd60e51b815260206004820152602d60248201527f455243313936373a206e657720696d706c656d656e746174696f6e206973206e60448201526c1bdd08184818dbdb9d1c9858dd609a1b6064820152608490fd5b906001600160a01b03906112cb565b906118e26102fe6112ec926108f7565b82546118c3565b6102e8906118fe6118f9826119ca565b611861565b600061190b6102fe611489565b016118d2565b9161191b8361194d565b815161192a61182260006108c3565b11908115611945575b5061193c575050565b61107591611a27565b905038611933565b611956816118e9565b6119807fbc7cd75a20ee27fd9adebab32041f755214dbc6bffa90cc0225b39da2e5c2d3b916108f7565b9061198a60405190565b600090a2565b906102e8916119a1611597306108f7565b6102e8916119ae82612636565b600191611743565b906102e891611990565b6102fe60fb610fe1565b3b6119d861182260006108c3565b1190565b6119e660276115fc565b7f416464726573733a206c6f772d6c6576656c2064656c65676174652063616c6c6020820152660819985a5b195960ca1b604082015290565b6102fe6119dc565b6102fe91611a33611a1f565b91611a58565b3d15611a5357611a483d6115fc565b903d6000602084013e565b606090565b6000806102fe9493611a68606090565b50805190602001845af4611a7a611a39565b91611acc565b15611a8757565b60405162461bcd60e51b815260206004820152601d60248201527f416464726573733a2063616c6c20746f206e6f6e2d636f6e74726163740000006044820152606490fd5b91929015611afe57508151611ae461182260006108c3565b14611aed575090565b611af96102fe916119ca565b611a80565b8290611b08825190565b611b1561182260006108c3565b1115611b245750805190602001fd5b6111f9906111e460405190565b634e487b7160e01b600052601160045260246000fd5b81810292918115918404141715611b5a57565b611b31565b91908201809211611b5a57565b634e487b7160e01b600052603260045260246000fd5b90611b8b825190565b811015611b99570160200190565b611b6c565b8015611b5a576000190190565b6104d66102fe6102fe9290565b6102fe90611bcc6118226102fe9460ff1690565b901c90565b15611bd857565b60405162461bcd60e51b8152806111f9600482016020808252818101527f537472696e67733a20686578206c656e67746820696e73756666696369656e74604082015260600190565b9190600292611c4d611652611c3e84611c39886108c3565b611b47565b611c47876108c3565b90611b5f565b916000906030611c65611c5f846108c3565b86611b82565b53611c9d611c94600f60fb1b92611c396001998a95871a611c8e611c88886108c3565b8b611b82565b536108c3565b611c47836108c3565b905b611cc1575b506102fe93945090611cbb6118226102fe936108c3565b14611bd1565b91611ccb866108c3565b831115611d39576f181899199a1a9b1b9c1cb0b131b232b360811b611cf0600f6108c3565b8216906010821015611b99578792611d10611d2d92611d33941a60f81b90565b851a611d1c8789611b82565b53611d276004611bab565b90611bb8565b93611b9e565b90611c9f565b91611ca4565b6102fe9081906001600160a01b031681565b6102fe6014611bab565b6102fe6102fe6102fe9260ff1690565b611d88611d836102fe92611d7d606090565b506108ee565b611d3f565b6111b5611d93611d51565b611d5b565b90611dc0611822611dbb611d8360006102fe96611db3600090565b5001946108ee565b6108c3565b611e5d565b8054821015611b9957611ddf600191600052602060002090565b91020190600090565b9160001960089290920291821b911b6112cb565b9190611e0b6102fe6112ec9390565b908354611de8565b90815491600160401b83101561061c5782611e369160016102e895018155611dc5565b90611dfc565b90600019906112cb565b90611e566102fe6112ec926108c3565b8254611e3c565b611e6a61117e8383611ea3565b15611e9c57611e9791611e92906001611e8b84611e878482611e13565b5490565b9301610f61565b611e46565b600190565b5050600090565b611ec1916001611ebc92611eb5600090565b5001610f61565b610cae565b611ece61182260006108c3565b141590565b90611eee611822611dbb611d8360006102fe96611db3600090565b611f67565b91908203918211611b5a57565b634e487b7160e01b600052603160045260246000fd5b6102e891600091611dfc565b80548015611f45576000190190611f42611f3c8383611dc5565b90611f16565b55565b611f00565b9190611e0b6102fe6112ec936108c3565b6102e891600091611f4a565b90611f78611ebc8260018501610f61565b600092611f84846108c3565b8214611fd7576102fe92611fdd9492611fe892611fe26001978893611fb1611fab866108c3565b82611ef3565b88850191611fcf611fc0845490565b611fc9896108c3565b90611ef3565b828103611fed575b50505090565b611f22565b01610f61565b611f5b565b611e3661201661201e9461200d612007611e929589611dc5565b90610915565b92839188611dc5565b888801610f61565b388080611fd7565b61203c60006102fe92612037600090565b500190565b60006102fe9161204a600090565b50015490565b6104426102fe6102fe9290565b61208261207d6102fe93612078600061208795612037600090565b61208c565b611083565b612050565b6108ee565b6102fe9160006120079261209e600090565b5001611dc5565b6102fe9060081c6104d6565b6102fe90546120a5565b156120c257565b60405162461bcd60e51b815260206004820152602e60248201527f496e697469616c697a61626c653a20636f6e747261637420697320616c72656160448201526d191e481a5b9a5d1a585b1a5e995960921b6064820152608490fd5b6104d66102fe6102fe9260ff1690565b906112e56102fe6112ec9261211e565b9061ff009060081b6112cb565b9061215b6102fe6112ec92151590565b825461213e565b61030190611bab565b6020810192916102e89190612162565b999693909a979491926121d499969361219761117e60006120b1565b9c8d9c8d80612278575b8015612233575b6121b1906120bb565b60019e8f906121c96121c283611bab565b600061212e565b612222575b506122c4565b6121db5750565b6121e660008061214b565b61221d7f7f26b83ff96e1f2b6a682f133852f6798a09c465da95921460cefb38474024989161221460405190565b9182918261216b565b0390a1565b61222d90600061214b565b8e6121ce565b5061224861117e612243306108f7565b6119ca565b80156121a857506121b161225c6000610fe1565b6122706122696001611bab565b9160ff1690565b1490506121a8565b506122836000610fe1565b6122906122696001611bab565b106121a1565b6102fe90612050565b634e487b7160e01b600052601260045260246000fd5b81156122bf570490565b61229f565b50955096939792909895506000946122db86612296565b6001600160a01b0381166001600160a01b038c16149081156124d6575b81156124ba575b506124a85761230c612579565b6123146125dd565b61231c612599565b612324612579565b8961232d610c7a565b9061233791611040565b61234f8a600080516020615d44833981519152611040565b6123678a600080516020615d64833981519152611040565b612370906108f7565b9661237d886101916118d2565b612386906108f7565b97612393896101926118d2565b61239e6102586108c3565b6123aa9061019f611e46565b6123b76301e133806108c3565b6123c3906101a0611e46565b610197958601906123d391611e46565b6123e08260018701611e46565b6123ed9060028601611e46565b6123fa8160038601611e46565b61240460646108c3565b61240d916122b5565b61241a9060048501611e46565b6124279060058401611e46565b6124349060068301611e46565b6007019061244191611e46565b60016101a18161245863a9059cbb60e01b836104b3565b90612462916112d5565b63095ea7b360e01b612473916104b3565b9061247d916112d5565b7f4ca662a5f1f012e4d740b256559dce10a6b72cdec96be0142f5e2eb49dd37a6e92611357906108f7565b604051637759ce3f60e01b8152600490fd5b6001600160a01b031690506001600160a01b03891614386122ff565b90506001600160a01b0381166001600160a01b03831614906122f8565b906102e89b9a99989796959493929161217b565b1561250e57565b60405162461bcd60e51b815260206004820152602b60248201527f496e697469616c697a61626c653a20636f6e7472616374206973206e6f74206960448201526a6e697469616c697a696e6760a81b6064820152608490fd5b6102e861257460006120b1565b612507565b6102e8612567565b61258e61257460006120b1565b6102e86102e86125bd565b6102e8612581565b6125ae61257460006120b1565b6102e86102e8600060fb6112d5565b6102e86125a1565b6125d261257460006120b1565b6102e86102e8612616565b6102e86125c5565b6125f261257460006120b1565b6102e8612604565b6102fe60016108c3565b6102e861260f6125fa565b60c9611e46565b6102e86125e5565b506102e8600080516020615d44833981519152611078565b6102e89061261e565b3361265b61117e82600080516020615d64833981519152610feb565b806126d3575b806126b0575b61269d5761267361273a565b6119807f81990fd9a5c552b8e3677917d8a03c07678f0d2cb68f88b634aca2022e9bd19f916108f7565b6040515b63060a6aeb60e51b8152600490fd5b506126c261044261177d61019261166f565b6001600160a01b0382161415612667565b506126ef61117e82600080516020615d44833981519152610feb565b612661565b6126fc612781565b6102e861270b600160fb6112d5565b3361221d7f62e78cea01bee320cd4e420270b5ea74000d11b0c9f74754ebdbfc544b05a25891610b8f60405190565b6102e86126f4565b1561274957565b60405162461bcd60e51b815260206004820152601060248201526f14185d5cd8589b194e881c185d5cd95960821b6044820152606490fd5b6102e861278f61117e6119c0565b612742565b336127b061117e82600080516020615d44833981519152610feb565b806127ec575b61269d576127c2612855565b6119807f5b65b0c1363b3003db9bcc5e1fd8805a6d6bf5bf6dc9d3431ee4494cd7d11766916108f7565b506127fe61044261177d61019261166f565b6001600160a01b03821614156127b6565b6128176128a0565b6102e8612826600060fb6112d5565b3361221d7f5db9ee0a495bf2e6ff9c91a7834c1ba4fdd244a5e8aa4e537bd38aeae4b073aa91610b8f60405190565b6102e861280f565b1561286457565b60405162461bcd60e51b815260206004820152601460248201527314185d5cd8589b194e881b9bdd081c185d5cd95960621b6044820152606490fd5b6102e86128ab6119c0565b61285d565b90336128cd61117e82600080516020615d44833981519152610feb565b90816128e2575b5061269d576102e891612900565b90506128f861147161044261177d61019261166f565b1415386128d4565b9060009161291061044284612296565b6001600160a01b038316146124a857600080516020615d44833981519152808214612984575b506129418282611218565b61297f61297561296f7f7c979cc3cab9cb8d7e7656686686502286ec685affa74ac6634a2be36cb68a839390565b936108f7565b9361032460405190565b0390a3565b61298d90610f87565b61299a61182260016108c3565b1180156129bf575b156129ad5738612936565b60405163f0bc4b7360e01b8152600490fd5b506001600160a01b0382163314156129a2565b906102e8916128b0565b90336129f961117e82600080516020615d44833981519152610feb565b9081612a0e575b5061269d576102e891612a2c565b9050612a2461147161044261177d61019261166f565b141538612a00565b90612a3a6104426000612296565b6001600160a01b038216146124a857612a53818361104a565b60019161297f61297561296f7f7c979cc3cab9cb8d7e7656686686502286ec685affa74ac6634a2be36cb68a839390565b906102e8916129dc565b9033612aab61117e82600080516020615d44833981519152610feb565b9081612ac0575b5061269d576102e891612ade565b9050612ad661147161044261177d61019261166f565b141538612ab2565b612aeb6104426000612296565b6001600160a01b038216146124a8578115612b2c57612b1881600080516020615d6483398151915261104a565b600080516020615d64833981519152612941565b612b4481600080516020615d64833981519152611218565b612b18565b906102e891612a8e565b6102e893929190612b71600080516020615d44833981519152611078565b612bd5565b6104a6612b836102fe9290565b60e01b90565b612bcd6102e894612bbd606094989795612bb4608086019a60008701906001600160e01b0319169052565b15156020850152565b6001600160a01b03166040830152565b019015159052565b90919261221d90612c056104426000612bf06104a682612b76565b6001600160e01b0319871603612c5e57612296565b6001600160a01b03861603612c49575b7fafa2cd5aa57d1ad069bcc204940405dda70a612b4ccb490493786b13a0ee16ad94612c4060405190565b94859485612b89565b612c598161131c876101a2610900565b612c15565b612c6e8761131c886101a16104b3565b612296565b906102e8939291612b53565b9033612c9c61117e82600080516020615d44833981519152610feb565b9081612cb1575b5061269d576102e891612d15565b9050612cc761147161044261177d61019261166f565b141538612ca3565b6102fe6000611bab565b6102fe6005611bab565b6102fe6006611bab565b6102fe6007611bab565b9081526060810193926102e89290916040916105b0905b6020830152565b612d206104d6612ccf565b60ff821603612d9957612d376102fe61019f610cae565b82108015612d83575b612d4f57906102e8915b612e90565b50612d5b61019f610cae565b906111f9612d6a6101a0610cae565b604051636ee9a1cb60e01b815293849360048501612cf7565b50612d926102fe6101a0610cae565b8211612d40565b90612da56104d6612cd9565b60ff8316148015612e29575b8015612e13575b15612de857612dc760646108c3565b8111612dd6576102e891612e90565b604051633c93b60d60e11b8152600490fd5b612df260006108c3565b8114612e01576102e891612e90565b604051630f05c93b60e31b8152600490fd5b50612e1f6104d6612ced565b60ff831614612db8565b50612e356104d6612ce3565b60ff831614612db1565b906102e891612c7f565b6102fe6001611bab565b6102fe6002611bab565b6102fe6003611bab565b6102fe6004611bab565b60ff90911681526060810193926102e89290916040916105b090612d0e565b6000612e9d6104d6612ccf565b60ff831603612ef5575061019790612ebe83612eb884610cae565b93611e46565b61221d7f8504164e5e8ef70117aea5f1895915b866f4d269354e88e147062469f1dc483f93612eec60405190565b93849384612e71565b612f006104d6612e49565b60ff831603612f20575061019890612f1b83612eb884610cae565b612ebe565b612f2b6104d6612e53565b60ff831603612f46575061019990612f1b83612eb884610cae565b612f516104d6612e5d565b60ff831603612f6c575061019a90612f1b83612eb884610cae565b612f776104d6612e67565b60ff831603612f92575061019b90612f1b83612eb884610cae565b612f9d6104d6612cd9565b60ff831603612fb8575061019c90612f1b83612eb884610cae565b612fc36104d6612ce3565b60ff831603612fde575061019d90612f1b83612eb884610cae565b90612fea6104d6612ced565b60ff821603612f1b5761019e9150612f1b83612eb884610cae565b8054821015611b9957611ddf601291600052602060002090565b6102fe9060101c5b65ffffffffffff1690565b6102fe905461301f565b6102fe6102fe6102fe9265ffffffffffff1690565b905051906102e88261044e565b9092919261306e61067182610635565b938185526020850190828401116102d6576102e89261108c565b9080601f830112156102d65781516102fe9260200161305e565b905051906102e88261083b565b919060a0838203126102d6576130c58184613051565b926130d382602083016116b8565b9260408201516001600160401b0381116102d6576130f6846102fe928501613088565b9361310481606086016116b8565b936080016130a2565b61019361311b6102fe825490565b821015613381576131339161312f91613005565b5090565b8061314561314082610fe1565b6133a9565b15613151575050600190565b61316261315d83610fe1565b613393565b1561316e575050600590565b429161318161317c82613032565b61303c565b83101561319057505050600090565b6001820161319d81610cae565b60028401906131b16118226102fe84610cae565b1115918215613341575b5050156131ca57505050600290565b61117e6131d96131de92610fe1565b6133bb565b156131ea575050600390565b600701906131f782610cae565b9160009261320a6118226102fe866108c3565b03613218575b505050600490565b826132619161322b61177d61019261166f565b61325361323c634aae13ca93610cae565b9261324660405190565b9586948593849360e01b90565b835260048301526024820190565b03915afa80156133115783918491613316575b50155b9283613292575b50505061328d57388080613210565b600690565b6132c19192935060206132a961177d61019261166f565b63a06db7dc906132b860405190565b94859260e01b90565b825260049082905afa8015613311576132e893611822936102fe93926132f1575b50611b5f565b1138808061327e565b61330a91925060203d811161185a5761184b81836105fb565b90386132e2565b6116d9565b613277925061333791503d8086833e61332f81836105fb565b8101906130af565b9350935050613274565b613368925090611c4761335661335c93610cae565b91610cae565b611c4760038501610cae565b6133796118226102fe610198610cae565b1038806131bb565b6040516301a96f2f60e51b8152600490fd5b61339b612e49565b16611ece6122696000611bab565b61339b612e53565b6102fe6008611bab565b61339b6133b1565b906102fe9d9c9b9a9998979695949392916133dc612781565b906133fa9d9c9b9a9998979695949392916133f561404a565b613aaf565b906102e8612604565b60081115610bc657565b906102e882613403565b909392938483116102d65784116102d6578101920390565b356001600160e01b0319169060048110613447575090565b61345e9063ffffffff60e01b906004036008021b90565b1690565b9081526040810192916102e89160200152565b6102fe6102a0610621565b613488613475565b9060008252602082016000815260200160008152602001600081526020016000815260200160008152602001600081526020016000815260200160008152602001600081526020016000815260200160608152602001600081526020016060815260200160008152602001600081526020016000815260200160008152602001600081526020016000815260200160009052565b6102fe613480565b906103019061340d565b6130276102fe6102fe9290565b6102fe913691610661565b906020828203126102d6576102fe916130a2565b6001600160a01b039182168152911660208201526060810192916102e89160400152565b634e487b7160e01b600052600060045260246000fd5b6102fe905161340d565b6102fe9061340d565b9061215b6102fe6112ec9261359e565b9067ffffffffffff00009060101b6112cb565b6130276102fe6102fe9265ffffffffffff1690565b906135ef6102fe6112ec926135ca565b82546135b7565b906dffffffffffff00000000000000009060401b6112cb565b9061361f6102fe6112ec926135ca565b82546135f6565b90611e566102fe6112ec9290565b634e487b7160e01b600052602260045260246000fd5b906001600283049216801561366a575b602083101461366557565b613634565b91607f169161365a565b81811061367f575050565b8061368d6000600193611f5b565b01613674565b9190601f81116136a257505050565b6136b46102e893600052602060002090565b906020601f8401819004830193106136d6575b6020601f909101040190613674565b90915081906136c7565b906136e9815190565b906001600160401b03821161061c5761370c82613706855461364a565b85613693565b602090601f8311600114613747576112ec92916000918361373c575b5050600019600883021c1916906002021790565b015190503880613728565b601f1983169161375c85600052602060002090565b9260005b81811061379b57509160029391856001969410613781575b50505002019055565b01516000196008601f8516021c19165b9055388080613778565b91936020600181928787015181550195019201613760565b906102e8916136e0565b906137c6815190565b906001600160401b03821161061c576137e382613706855461364a565b602090601f8311600114613812576112ec92916000918361373c575050600019600883021c1916906002021790565b601f1983169161382785600052602060002090565b9260005b81811061384b575091600293918560019694106137815750505002019055565b9193602060018192878701518155019501920161382b565b906102e8916137bd565b6102e891906138eb90610280906011906138d98161389561388f885160ff1690565b8261212e565b6138aa6138a460208901613594565b826135a7565b6138c66138c0604089015165ffffffffffff1690565b826135df565b606087015165ffffffffffff169061360f565b6138f1600182016138eb608088015190565b90611e46565b613903600282016138eb60a088015190565b613915600382016138eb60c088015190565b6139366004820161393060e08801516001600160a01b031690565b906118d2565b613949600582016138eb61010088015190565b61395c600682016138eb61012088015190565b6139756007820161396f61014088015190565b90613626565b61398e6008820161398861016088015190565b906137b3565b6139aa600982016139306101808801516001600160a01b031690565b6139c3600a82016139bd6101a088015190565b90613863565b6139df600b82016139306101c08801516001600160a01b031690565b6139f2600c82016138eb6101e088015190565b613a0e600d82016139306102008801516001600160a01b031690565b613a21600e82016138eb61022088015190565b613a34600f82016138eb61024088015190565b613a47601082016138eb61026088015190565b0192015190565b9190613a5d576102e89161386d565b61357e565b90815491600160401b83101561061c5782613a859160016102e895018155613005565b90613a4e565b6103019061359e565b9160206102e89294936105b060408201966000830190613a8b565b9c9598929b96919c9a94999397909a50613ac9600061340d565b613ad28d61340d565b14613f34575b613ae661177d61019161166f565b6370a082316020613af660405190565b8093613b028460e01b90565b825233600483015260249082905afa91821561331157600092613f14575b5061019a91613b346118226102fe85610cae565b10613e88575050610193549c613b4861351c565b3360e08201529b613b5c8e60208f01613524565b8c42613b69610197610cae565b613b739082611b5f565b613b7c9061352e565b65ffffffffffff166040830152613b929061352e565b65ffffffffffff166060909101528c613bac61019b610cae565b613bb7916101200152565b6101608d0191613bc69161353b565b9052613bd2600061340d565b613bdb8d61340d565b03613dca575050505050505090613c02613c0d926101808601906001600160a01b03169052565b6101a084019261353b565b90525b613c1e61177d61019161166f565b602063e4b797c191613c2f306108f7565b90613c5a6000613c4061019b610cae565b95613c66613c4d60405190565b9788968795869460e01b90565b8452336004850161355a565b03925af1801561331157613c8191600091613da2575b501590565b613d9057613cb1916020613c9961177d61019161166f565b631504d8f090613ca860405190565b95869260e01b90565b825260049082906000905af190811561331157613d1693600092613d6a575b50613cee83613ce6610100613d22959601958652565b610193613a62565b613cfe613cf9612ccf565b935190565b90613d0860405190565b948592602084019283613a94565b908103825203836105fb565b600080516020615d2483398151915290613d44613d3e856108c3565b9161211e565b91613d64613d51336108f7565b94613d5b60405190565b9182918261115f565b0390a490565b613d229250613d89613cee9160203d811161185a5761184b81836105fb565b9250613cd0565b604051636ca06a8960e01b8152600490fd5b61117e915060203d8111613dc3575b613dbb81836105fb565b810190613546565b503d613db1565b92959850929550929550613dde600361340d565b613de78a61340d565b03613e235750505092613e0e613e1692613e06613e1e96610220890152565b610240870152565b610260850152565b610280830152565b613c10565b909350613e3b919550613e549450613e4c92506108f7565b6001600160a01b03166101c0860152565b6101e0840152565b613e5e600461340d565b613e678461340d565b14613e73575b50613c10565b6001600160a01b031661020082015238613e6d565b906020613ea592613e9d61177d61019161166f565b6040516132b8565b825233600483015260249082905afa91821561331157600092613ef0575b50613ecd90610cae565b906111f9613eda60405190565b6303c00c4760e41b815292839260048401613462565b613ecd919250613f0d9060203d811161185a5761184b81836105fb565b9190613ec3565b613f2d91925060203d811161185a5761184b81836105fb565b9038613b20565b613f416104426000612296565b6001600160a01b038916146124a857600489613f5f611822836108c3565b10613fbe57613f9561117e61100e613f8d613f878f8f600090613f81896108c3565b92613417565b9061342f565b6101a16104b3565b613f9f5750613ad8565b6111f990613fac60405190565b6389a1151760e01b8152918291820190565b6111f990613fcb60405190565b6330f3ade560e01b8152918291820190565b6102fe9c9b9a9998979695949392919060006133c3565b6102fe60026108c3565b1561400557565b60405162461bcd60e51b815260206004820152601f60248201527f5265656e7472616e637947756172643a207265656e7472616e742063616c6c006044820152606490fd5b6102e861405760c9610cae565b61260f614062613ff4565b91821415613ffe565b906102fe9291614079612781565b906133fa929161408761404a565b614170565b8054600160401b81101561061c57610e7691600182018155613005565b91906001600160401b03821161061c576140c782613706855461364a565b600090601f8311600114614101576112ec9291600091836140f6575050600019600883021c1916906002021790565b013590503880613728565b601f1983169161411685600052602060002090565b92815b81811061414d575091600293918560019694106141395750505002019055565b0135600019601f84166008021c1916613791565b91936020600181928787013581550195019201614119565b906102e892916140a9565b5060009082614181611822846108c3565b1461444d5761419461177d61019161166f565b906370a08231339260206141a760405190565b80926141b38560e01b90565b82526001600160a01b038716600483015260249082905afa90811561331157859161442f575b506101979161019a916141f16118226102fe85610cae565b106143da57505061420661177d61019161166f565b9163e4b797c16020614217306108f7565b60048501956142368961422989610cae565b95614242613c4d60405190565b84528d6004850161355a565b03925af180156133115761425b918791613da257501590565b613d90576101939561426b875490565b966142759061408c565b509361428486600487016118d2565b6007938786019061429586836135a7565b884291016142a290610cae565b6142ac9082611b5f565b6142b59061352e565b6142bf90836135df565b6142c89061352e565b6142d19161360f565b6142da90610cae565b6142e79060068601611e46565b6142f49160088501614165565b6142ff61019161166f565b614308906108f7565b90631504d8f09161431860405190565b60e09390931b835282600481885a94602095f19182156133115761437895926143b1575b5061434f60056143849394019384611e46565b61436061435a612ccf565b93610cae565b9061436a60405190565b958692602084019283613a94565b908103825203846105fb565b600080516020615d24833981519152613d64613d516143ab6143a5886108c3565b9461211e565b946108f7565b614384925060056143d261434f9260203d811161185a5761184b81836105fb565b93505061433c565b9061441560208688946143fe6143f461177d61019161166f565b9161324660405190565b83526001600160a01b031660048301526024820190565b03915afa9283156133115792613ef05750613ecd90610cae565b614447915060203d811161185a5761184b81836105fb565b386141d9565b6040516330f3ade560e01b8152600490fd5b6102fe9190600061406b565b6101936144796102fe825490565b8210156133815761449961314060006144928585613005565b5001610fe1565b6144ce5761315d6000614492846144af94613005565b6144bc576102e8906144e0565b60405163f614c9db60e01b8152600490fd5b60405163064063af60e41b8152600490fd5b6125f2906144ec61404a565b6144fb61312f82610193613005565b339061450c6104426004830161166f565b6001600160a01b038316036146ea5761452760018201610cae565b600090614536611822836108c3565b141580156146ca575b80156146aa575b6146985761455c61182261317c42938501613032565b1015614686575b806145706131d982610fe1565b80614662575b6145e2575b614597915061459161458c82610fe1565b61471b565b9061212e565b61459f612e49565b6145c36113516145bd600080516020615d24833981519152956108c3565b9261211e565b926145cd60405190565b60208082526000908201528060408101611364565b6145f061177d61019261166f565b9161460260076370ba33399201610cae565b833b156102d65761462a936132536000809461461d60405190565b9788958694859360e01b90565b03925af19182156133115761459792614644575b5061457b565b61465c90600061465481836105fb565b810190610410565b3861463e565b5061466f60078301610cae565b61467f6118226102fe60006108c3565b1415614576565b604051635450294f60e01b8152600490fd5b6040516342f5575d60e01b8152600490fd5b506146b760038301610cae565b6146c3611822836108c3565b1415614546565b506146d760028301610cae565b6146e3611822836108c3565b141561453f565b61470561117e83600080516020615d64833981519152610feb565b15614563576040516126a1565b6102e89061446b565b614723612e53565b1790565b906102fe9291614735612781565b91906101936147456102fe825490565b8210156133815761475e61314060006144928585613005565b6144ce5761315d60006144928461477494613005565b6144bc576102fe92614810565b6001600160a01b0390911681526040810192916102e89160200152565b916001600160a01b0360089290920291821b911b6112cb565b91906147c86102fe6112ec936108f7565b90835461479e565b90815491600160401b83101561061c57826147f39160016102e895018155611dc5565b906147b7565b60ff90911681526040810192916102e89160200152565b5060029161481d83611bab565b60ff821611614a82576101969161483481846108d0565b9061484361100e338094610900565b6146985761485661312f82610193613005565b61485f4261352e565b61487a61486e61302784613032565b9165ffffffffffff1690565b11614686576148cb95602061489361177d61019161166f565b639371672e906148bf6148a860058701610cae565b926148b260405190565b9b8c948593849360e01b90565b83528a60048401614781565b03915afa96871561331157600097614a62575b506000956148eb876108c3565b8814614a505761497e9661492c9161490d8a611e92896109368a6101946108d0565b61492161117e61100e896109368a866108d0565b614a1e575b50611bab565b60ff8616036149dd5761494c91016138eb8761494783610cae565b611b5f565b6149767fb83d25c6a5d258561330739951487acb4bd09ba5190b5d32c4f261817d906792916108c3565b9384926108f7565b93849161498a60405190565b806149968988836147f9565b0390a360066149b86149a760405190565b8094614378886020840192836147f9565b613d646149d3600080516020615d2483398151915292611bab565b93613d5b60405190565b5060016149e981611bab565b60ff861603614a0957614a0491016138eb8761494783610cae565b61494c565b506003614a0491016138eb8761494783610cae565b614a329061131c88610936896001946108d0565b614a4a86614a456102fe886101956108d0565b6147d0565b38614926565b604051635e289e7160e11b8152600490fd5b614a7b91975060203d811161185a5761184b81836105fb565b95386148de565b604051630683be3360e51b8152600490fd5b6102fe91906000614727565b90610193614aaf6102fe825490565b8310156133815761312f83614ac392613005565b91614ad060018401610cae565b614ae86003614ae160028701610cae565b9501610cae565b92614b06611e87614afd866149478987611b5f565b946101956108d0565b919493929190565b6102e890614b1a612781565b610193614b286102fe825490565b82101561338157614b4161314060006144928585613005565b6144ce5761315d600061449284614b5794613005565b6144bc576102e8906125f290614b6b61404a565b614bf5565b6104a6612b836102fe9263ffffffff1690565b9081526060810193926102e8929091604091614ba3906020830190613a8b565b01906001600160a01b03169052565b610301906108c3565b614be86102fe949293614bde606084019560008501906001600160a01b03169052565b6020830190614bb2565b604081840391015261112b565b614bfe8161310d565b614c11614c0b6003610bcb565b91610bcb565b03614db15780614cc9614c2b61312f600494610193613005565b614c7d614c3b63fa0af14c614b70565b614c6e614c47846120b1565b614c536009860161166f565b9087614c5e60405190565b998a956020870190815201614b83565b602082018103825203856105fb565b6020614c8d61177d61019261166f565b9463d0bf1cbb95614cbe614ca0306108f7565b9260009889978892614cb160405190565b9b8c978896879560e01b90565b855260048501614bbb565b03925af1938415613311578294614d8b575b509081614cee856007614d009501613626565b01614591614cfb82610fe1565b614dcc565b614d2a7f698a777b9614d463e4ad86ac0dc09595c1ae579ca661dd1cb09391857175404a916108c3565b90818391614d3760405190565b600090a3614d43612e53565b903391614d6d614d5260405190565b60208101958652948590604082015b908103825203856105fb565b611364613d516143ab600080516020615d248339815191529361211e565b614d0092919450614da99060203d811161185a5761184b81836105fb565b939091614cdb565b604051639f333b1160e01b8152600490fd5b6102e890614b0e565b6147236133b1565b6102e890614de0612781565b610193614dee6102fe825490565b82101561338157614e0761314060006144928585613005565b6144ce5761315d600061449284614e1d94613005565b6144bc576102e8906125f290614e3161404a565b614e5b565b906020828203126102d65781516001600160401b0381116102d6576102fe9201613088565b614e73614e6d61312f83610193613005565b9161310d565b90600491614e83614c0b84610bcb565b03614fa357600701614e9481610cae565b91600092614ea76118226102fe866108c3565b14614f8457614edf6020614ebf61177d61019261166f565b63f2b0653790614ed161323c87610cae565b835288830190815260200190565b03915afa801561331157614ef8918591613da257501590565b614f65578290614f0c61177d61019261166f565b614f2b83614f1e63c69ed5f296610cae565b95614f38613c4d60405190565b8452830190815260200190565b03925af1801561331157614f4a575050565b611075913d8091833e614f5d81836105fb565b810190614e36565b6111f990614f7260405190565b632d22b5ef60e11b8152918291820190565b6111f990614f9160405190565b635fcceb2160e11b8152918291820190565b6111f982614fb060405190565b63c2ab8d8560e01b8152918291820190565b6102e890614dd4565b906125f29291614fd961404a565b615065565b606080825260149082015273494e53554646494349454e545f42414c414e434560601b60808201529092916102e8916040906105b060a08201966020830152565b6040808252600d908201526c14915195539117d19052531151609a1b60608201526080602082018190526102fe9291019061112b565b6020810192916102e89190613a8b565b9150503361507a61044261177d61019261166f565b6001600160a01b0382160361269d576101936150976102fe825490565b8310156133815761312f836150ab92613005565b806150b861315d82610fe1565b6144bc576150cb61117e6131d984610fe1565b6153a0576150e96150e36150de84610fe1565b6153c5565b8361212e565b6150f284615474565b61510661117e61510184610fe1565b6153bd565b61515b575b5061511d615117612e5d565b916120b1565b9261513a61512a60405190565b8095614d61602083019182615055565b611364613d516143ab6143a5600080516020615d24833981519152946108c3565b61518761516c61177d61019161166f565b9160206370a0823161517d306108f7565b946132b860405190565b82526001600160a01b038616600483015260249082905afa91821561331157600092615380575b5060068101916151c06102fe84610cae565b8110615321575060206151d761177d61019161166f565b93600463e4b797c193019461520e60006151f08861166f565b956152196151fd89610cae565b6040515b9889978896879560e01b90565b85526004850161355a565b03925af19081615305575b5061528c5750615232611a39565b9061523e60059161166f565b9061525b61524b60405190565b809461437860208301918261501f565b600080516020615d24833981519152615282613d516143ab61527c8a6108c3565b94611bab565b0390a45b3861510b565b614378916152aa6152a461529f86610fe1565b6153cd565b8561212e565b6152dc6152b860059261166f565b926152c4613356612ccf565b906152ce60405190565b9586926020840192836147f9565b600080516020615d248339815191526152fd613d516143ab61527c8a6108c3565b0390a4615286565b61531c9060203d8111613dc357613dbb81836105fb565b615224565b90935061535f919450614d6195925061534761534160046005960161166f565b95610cae565b9061535160405190565b968792602084019283614fde565b611364613d516143ab61527c600080516020615d24833981519152946108c3565b61539991925060203d811161185a5761184b81836105fb565b90386151ae565b60405163c2ab8d8560e01b8152600490fd5b906102e89291614fcb565b61339b612e67565b614723612e49565b614723612e67565b805460009392916153ec6153e88361364a565b9390565b916001811690811561543d575060011461540557505050565b6154189192939450600052602060002090565b6000905b8382106154295750500190565b60018160209254848601520191019061541c565b60ff191683525050811515909102019150565b6102fe916153d5565b6702330b4b632b21d160c51b81526102fe9190600801611108565b61548361312f82610193613005565b61548c816120b1565b6000906154988261340d565b6154a18261340d565b14158061590c575b806158f1575b61568d575b6154bd8261340d565b6154c68261340d565b036155985750600982016154d98161166f565b926154e383612296565b936154f66001600160a01b038616611471565b146124a85761551f83600a61550b829561166f565b930161551660405190565b92839182615450565b03925af19161553461552f611a39565b931590565b61553d57505050565b615545612e5d565b9061556261555260405190565b8095614d61602083019182615459565b615583613d516143ab6143a5600080516020615d24833981519152946108c3565b0390a460405163097e7a4b60e11b8152600490fd5b909192506155af6155a9600361340d565b9161340d565b146155b8575050565b61562b906155c8600f8401610cae565b926155d560108201610cae565b6155e6600e610d1860118501610cae565b946155f0846108c3565b811161567b575b506156066102fe61019f610cae565b81101580615664575b615652575b5061561e826108c3565b8111615640575b506108c3565b81116156345750565b6102e890612d4a612e5d565b61564c90612d4a612e53565b38615625565b61565e90612d4a612ccf565b38615614565b506156736102fe6101a0610cae565b81111561560f565b61568790612d4a612e49565b386155f7565b615699600b840161166f565b6156a5600c8501610cae565b6156ae84612296565b916001600160a01b0383166001600160a01b038216146124a8576156d1856108c3565b8214612e01576156e1600161340d565b6156ea8561340d565b146158a9576156f9600261340d565b6157028561340d565b14615853576004926157138461340d565b61571c8661340d565b146157fd575061572c600561340d565b6157358561340d565b146157d057615744600661340d565b61574d8561340d565b1461575a575050506154b4565b9195509293506020915061577261177d61019161166f565b6157878563a89ae7d0615791613c4d60405190565b84528b8401614781565b03925af1908115613311576157aa9291613da257501590565b6157b15750565b6111f9906157be60405190565b636ca06a8960e01b8152918291820190565b919550929350602091506157e861177d61019161166f565b6157878563dd329b5c615791613c4d60405190565b979650935093600d91925001946158196114716115e48861166f565b14615834575061582f61177d6102e8949561166f565b615927565b6111f99061584160405190565b637759ce3f60e01b8152918291820190565b9450915050602091935061586b61177d61019161166f565b61520e8563e4b797c161588a615880306108f7565b9561520160405190565b03925af1908115613311576158a39291613da257501590565b613d9057565b93945095945050506158ba306108f7565b848131106158e2575081906158a393946158d360405190565b90818003925af1613c7c611a39565b8490316111f9613eda60405190565b506158fc600761340d565b6159058261340d565b14156154af565b50615917600361340d565b6159208261340d565b14156154a9565b61596a60049261595b6102e89561594163a9059cbb614b70565b9261594b60405190565b9687946020860190815201614781565b602082018103825203836105fb565b615a09565b61597960206115fc565b7f5361666545524332303a206c6f772d6c6576656c2063616c6c206661696c6564602082015290565b6102fe61596f565b156159b157565b60405162461bcd60e51b815260206004820152602a60248201527f5361666545524332303a204552433230206f7065726174696f6e20646964206e6044820152691bdd081cdd58d8d9595960b21b6064820152608490fd5b6102e891615a19615a28926108f7565b90615a226159a2565b91615a66565b8051615a3761182260006108c3565b14908115615a46575b506159aa565b615a6091506020615a55825190565b818301019101613546565b38615a40565b6102fe9291615a7560006108c3565b91615ad6565b15615a8257565b60405162461bcd60e51b815260206004820152602660248201527f416464726573733a20696e73756666696369656e742062616c616e636520666f6044820152651c8818d85b1b60d21b6064820152608490fd5b9060006102fe94938192615ae8606090565b50615aff615af5306108f7565b8390311015615a7b565b60208101905191855af1611a7a611a39565b6125f290615b1d61404a565b610193615b2b6102fe825490565b8210156133815761312f82615b3f92613005565b6004810133615b536114716104428461166f565b03615cf85781615b6561510182610fe1565b615ce657615b728461310d565b615b7c6002610bcb565b615b8582610bcb565b03615c5c5750615bae615b9d6006615bbe9301610cae565b615ba861019c610cae565b90611b47565b615bb860646108c3565b906122b5565b92615bd8615bca612e49565b935b61459161529f82610fe1565b615be661177d61019161166f565b602063e4b797c191615bf7306108f7565b9061520e6000615c068861166f565b95615c148b61520160405190565b03925af1801561331157615c2e91600091613da257501590565b613d905761535f614d6194615c4460059461166f565b94615c4e60405190565b9687926020840192836147f9565b615c666001610bcb565b615c6f82610bcb565b03615ca45750615bae615c876006615c929301610cae565b615ba861019d610cae565b92615bd8615c9e612e49565b93615bcc565b600690615cb3614c0b83610bcb565b03615cd457615cc9615bae91615c929301610cae565b615ba861019e610cae565b6040516313846c3160e11b8152600490fd5b604051630a46384960e11b8152600490fd5b604051631ce3ff3360e01b8152600490fd5b6102e890615b11565b6102e8612781565b6102e8615d1356fe54b806ba9fbc09bfb093dba20b75f7df5ed2e3d53fa9c33bb73ca923d4314869a49807205ce4d355092ef5a8a18f56e8913cf4a201fbe287825b095693c2177555435dd261a4b9b3364963f7738a7a662ad9c84396d64be3365284bb7f0a5041a164736f6c6343000814000a",
  "linkReferences": {},
  "deployedLinkReferences": {}
}